:100000000C9435010C9466010C9466010C94660105
:100010000C9466010C9466010C9466010C946601C4
:100020000C9466010C9466010C9466010C946601B4
:100030000C9466010C9466010C9466010C946601A4
:100040000C9466010C9466010C9466010C94660194
:100050000C9466010C9466010C9466010C94F704F0
:100060000C9466010C94C1040C9497040C946601E2
:100070000C9466010C9466010C9466010C94660164
:100080000C9466010C9466010C9466010C94660154
:100090000C9466010C9466010C9466010C94660144
:1000A0000C9466010C9466010C9466010C94660134
:1000B0000C9466010C9466010C9466010C94660124
:1000C0000C9466010C9466010C9466010C94660114
:1000D0000C9466010C9466010C9466010C94660104
:1000E0000C9466010C94A4010C94A9070C940C03C5
:1000F0000C943E020C9450030C9454030C948B0209
:100100000C942B030C9423030C9442030C940602CE
:100110000C9468010C9411030C9495010C94320317
:100120000C9458030C9446030C9427030C9462031C
:100130000C944A030C94F8010C943C030C942F0388
:100140000C945E030C943803000021002400270067
:100150002A002D00300033000101000004010701D6
:100160000A0100002200250028002B002E0031008B
:10017000340002010000050108010B0100000A0B18
:1001800002090C0D0E080703040100000000000026
:10019000000000000000000000000000000000005F
:1001A000000000000000000012111000000000001C
:1001B000000000000000000000000000000000003F
:1001C0000000000020002300260029002C002F0042
:1001D00032000001000003010601090105050505C3
:1001E000070508080808020202020A0A08080404AF
:1001F00004040101010101010101030303030303DD
:100200000303040707070C0C0C0C0C0C0C0C02026B
:10021000020206060606060606060B0B0B0B0B0B68
:100220000B0B0102102020080810204010204080F5
:1002300002010201080402010102040810204080AA
:100240008040201008040201800402018040201038
:100250000804020108040201010204081020408081
:100260000102040810204080A90711241FBECFEF0F
:10027000D1E2DEBFCDBF00E00CBF23E0A8E3B3E0D6
:1002800001C01D92A73FB207E1F713E0A0E0B2E082
:10029000ECEAF1E200E00BBF02C007900D92A83338
:1002A000B107D9F711E0C5E3D1E000E006C021971E
:1002B0000109802FFE010E94AD0EC433D10780E0FA
:1002C0000807A9F70E94F6070C94D4100C940000BC
:1002D000AF92BF92CF92DF92EF92FF920F931F9354
:1002E000CF93DF936C017B018B01040F151FEB0192
:1002F0005E01AE18BF08C017D10759F06991D60149
:10030000ED91FC910190F081E02DC6011995892BAA
:1003100079F7C501DF91CF911F910F91FF90EF9079
:10032000DF90CF90BF90AF900895FC01538D448D26
:10033000252F30E0842F90E0821B930B541710F090
:10034000CF96089501970895FC01918D828D98179D
:1003500061F0A28DAE0FBF2FB11D5D968C91928D75
:100360009F5F9F73928F90E008958FEF9FEF0895A6
:100370002FB7F89480913F0390914003A0914103DF
:10038000B09142032FBF80934B0390934C03A093F3
:100390004D03B0934E0383E493E00E94A40197FFC2
:1003A00026C02FB7F89480913F0390914003A0910D
:1003B0004103B09142032FBF40914B0350914C0336
:1003C00060914D0370914E03841B950BA60BB70BE8
:1003D00040914703509148036091490370914A034B
:1003E00084179507A607B707B0F28FEF9FEF089520
:1003F000FC01918D828D981731F0828DE80FF11DEF
:10040000858D90E008958FEF9FEF0895FC01918D09
:10041000228D892F90E0805C9F4F821B91098F7302
:100420009927089583E493E00E94060221E0892B36
:1004300009F420E0822F0895FC01A48DA80FB92FA4
:10044000B11DA35ABF4F2C91848D90E001968F73FC
:100450009927848FA689B7892C93A089B1898C911B
:10046000837080648C93938D848D981306C002886A
:10047000F389E02D80818F7D80830895EF92FF9234
:100480000F931F93CF93DF93EC0181E0888F9B8DB7
:100490008C8D98131AC0E889F989808185FF15C071
:1004A0009FB7F894EE89FF896083E889F989808194
:1004B0008370806480839FBF81E090E0DF91CF9163
:1004C0001F910F91FF90EF900895F62E0B8D10E085
:1004D0000F5F1F4F0F731127E02E8C8D8E110CC0F4
:1004E0000FB607FCFACFE889F989808185FFF5CF3F
:1004F000CE010E941C02F1CFEB8DEC0FFD2FF11D00
:10050000E35AFF4FF0829FB7F8940B8FEA89FB897B
:1005100080818062CFCFCF93DF93EC01888D8823D9
:10052000B9F0AA89BB89E889F9898C9185FD03C056
:10053000808186FD0DC00FB607FCF7CF8C9185FF3B
:10054000F2CF808185FFEDCFCE010E941C02E9CF62
:10055000DF91CF91089580E090E0892B29F00E94EF
:10056000120281110E94000080E090E0892B49F086
:1005700080E090E0892B29F00E94000081110E9408
:10058000000080E090E0892B49F080E090E0892B2A
:1005900029F00E94000081110E94000080E090E09C
:1005A000892B49F080E090E0892B29F00E9400001F
:1005B00081110C9400000895282F30E0F901E458CF
:1005C000FE4F9491F901EE5DFD4F449124523E4F50
:1005D000F9012491222309F435C0992311F1915096
:1005E0009231F8F4E92FF0E08827E650FD4F8F4F65
:1005F0000C94AD0E2B032F030C03230327031103CD
:10060000320338033C03420346034A0350035403B6
:10061000110358035E036203809180008F778093FB
:100620008000E22FF0E0EE0FFF1FEE59FE4FA59184
:10063000B4918FB7F894EC91611148C040954E2366
:100640004C938FBF0895809180008F7DE8CF80917B
:100650008000877FE4CF84B58F7784BDE2CF84B5F7
:100660008F7DFBCF8091B0008F778093B000D9CF82
:100670008091B0008F7DF9CF809190008F7780932B
:100680009000CFCF809190008F7DF9CF8091900026
:10069000877FF5CF8091A0008F778093A000C1CF96
:1006A0008091A0008F7DF9CF8091A000877FF5CF4A
:1006B000809120018F7780932001B3CF809120011A
:1006C0008F7DF9CF80912001877FF5CF4E2BB8CF5A
:1006D000CF93DF9390E0FC01EE5DFD4F24918452B7
:1006E0009E4FFC0184918823C9F090E0880F991FE8
:1006F000FC01E85BFE4FA591B491FC01EE59FE4F61
:10070000C591D49161110DC09FB7F8948C9120953B
:1007100082238C938881282328839FBFDF91CF91E8
:100720000895623051F49FB7F8943C91822F8095E0
:1007300083238C93E8812E2BEFCF8FB7F894EC9125
:100740002E2B2C938FBFEACF3FB7F89480913903BB
:1007500090913A03A0913B03B0913C0326B5A89B2E
:1007600005C02F3F19F00196A11DB11D3FBFBA2F43
:10077000A92F982F8827BC01CD01620F711D811D03
:10078000911D42E0660F771F881F991F4A95D1F788
:1007900008958F929F92AF92BF92CF92DF92EF9285
:1007A000FF924B015C010E94A4036B017C010E943B
:1007B000A4036C197D098E099F09683E7340810569
:1007C0009105A8F321E0821A9108A108B10888EEEA
:1007D000C80E83E0D81EE11CF11C81149104A10411
:1007E000B10429F7FF90EF90DF90CF90BF90AF90CA
:1007F0009F908F900895FC0101900020E9F73197B8
:10080000AF01481B590BBC0183E493E00C946801D1
:100810008F929F92AF92BF920F931F93CF93DF93CC
:10082000CDB7DEB7A1970FB6F894DEBF0FBECDBF30
:1008300019A2423008F44AE08E010F5D1F4F842E4A
:10084000912CB12CA12CA50194010E946C0EE62FD5
:10085000B901CA01EA30F4F4E05DD801EE938D01EC
:10086000232B242B252B79F790E080E0109719F0AB
:10087000CD010E94FB03A1960FB6F894DEBF0FBE18
:10088000CDBFDF91CF911F910F91BF90AF909F90FF
:100890008F900895E95CE1CFCF93DF930E94FB0333
:1008A000EC0188E192E00E94FB038C0F9D1FDF9119
:1008B000CF910895FC0124813581232B39F421E067
:1008C000FB018081882349F020E007C0808191816D
:1008D0000E94C41021E0892BB9F7822F08950F934D
:1008E0001F93CF93DF93EC0188819981009759F092
:1008F0002A813B812617370730F081E0DF91CF91C5
:100900001F910F9108958B016F5F7F4F0E94DA0F47
:10091000009759F0998388831B830A832C813D813A
:10092000232B59F7FC011082E8CF80E0E7CF1F921C
:100930000F920FB60F9211240BB60F922F933F9385
:100940004F935F936F937F938F939F93AF93BF93D7
:10095000EF93FF9383E493E00E941C02FF91EF91D9
:10096000BF91AF919F918F917F916F915F914F91C7
:100970003F912F910F900BBE0F900FBE0F901F90C5
:1009800018951F920F920FB60F9211240BB60F926B
:100990002F938F939F93EF93FF93E0915303F091E5
:1009A00054038081E0915903F0915A0382FD1DC0E8
:1009B000908180915C038F5F8F7320915D0382171C
:1009C00041F0E0915C03F0E0ED5BFC4F958F80938C
:1009D0005C03FF91EF919F918F912F910F900BBE30
:1009E0000F900FBE0F901F9018958081F2CF1F922D
:1009F0000F920FB60F9211242F933F938F939F93D3
:100A0000AF93BF9380913F0390914003A091410326
:100A1000B09142033091380323E0230F2D3758F56E
:100A20000196A11DB11D2093380380933F0390933D
:100A30004003A0934103B093420380913903909106
:100A40003A03A0913B03B0913C030196A11DB11D57
:100A50008093390390933A03A0933B03B0933C03F4
:100A6000BF91AF919F918F913F912F910F900FBEAA
:100A70000F901F90189526E8230F0296A11DB11D17
:100A8000D2CFCF92DF92EF92FF920F931F93E82F76
:100A9000F92F05C0015011092109310961F1908137
:100AA00096239417B9F305C00150110921093109A2
:100AB00011F1908196239413F7CFC12CD12CE12C06
:100AC000F12C0AC08FEFC81AD80AE80AF80A0C15E8
:100AD0001D052E053F0579F080818623841791F34B
:100AE0006C2D7D2D8E2D9F2D1F910F91FF90EF90DE
:100AF000DF90CF90089560E070E080E090E01F917B
:100B00000F91FF90EF90DF90CF900895CF92DF92FA
:100B1000EF92FF92CF93DF93B091E703A0E08111B2
:100B2000AB2F8091E80390E0880F991FAC014E53E2
:100B30005E4FC090ED03D090EE03E090EF03F09095
:100B4000F00330E020E0FA01C591D491E881B901C9
:100B500090E080E0EB23EA130AC02F5F3F4F6C1553
:100B60007D058E059F0578F36FEF7FEFCB01DF9159
:100B7000CF91FF90EF90DF90CF900895CF92DF92CA
:100B8000EF92FF920F931F93CF93DF93CDB7DEB712
:100B9000C054D1400FB6F894DEBF0FBECDBF2FB703
:100BA000F89480913F0390914003A0914103B0914C
:100BB00042032FBF4091E9035091EA036091EB0398
:100BC0007091EC038C019D01041B150B260B370B58
:100BD000B901A801403D57406105710590F480912D
:100BE000F103C05CDE4F0FB6F894DEBF0FBECDBF81
:100BF000DF91CF911F910F91FF90EF90DF90CF90F9
:100C000008958093E9039093EA03A093EB03B093D4
:100C1000EC031092E4031092E3031092E2031092AB
:100C2000E1031092E00362E08091E5030E94680313
:100C300061E070E080E090E00E94C90361E0809193
:100C4000E5030E94680360E08091E5030E94DC02F6
:100C50008091E6038551823020F58BE291E1019786
:100C6000F1F762E08091E5030E9468038091F2034E
:100C700090E08230910538F0880F991F880F991FF6
:100C800005970197F1F7F89480E00E9486056F3F81
:100C90007F4F8F4F9F4F61F41092F103789480E063
:100CA000A0CF64E170E080E090E00E94C903D9CF5A
:100CB00081E00E9486056F3F7F4F8F4F9F4F61F30A
:100CC0008E010F5F1F4F6E018FEBC81A8EEFD80A8F
:100CD000780180E00E948605F7016083718382833A
:100CE000938381E00E948605F70164837583868380
:100CF0009783F8E0EF0EF11CEC14FD0451F77894A3
:100D000030E020E0F801C080D180E280F3804481AF
:100D1000558166817781FFEFCF16DF06EF06FF066C
:100D200031F04F3F8FEF58076807780719F410929A
:100D3000F103B5CFF90183E0F595E7958A95E1F7E1
:100D4000E052FC4F8081880FC416D506E606F706F0
:100D500010F180832F5F3F4F085F1F4F283231050E
:100D600089F64091E4032091E0038091E103280F8C
:100D70003327331F8091E203280F311D8091E30355
:100D8000820F932F911D99274817190681F681E04C
:100D90008093F10326CF8160DCCF4F925F926F92F8
:100DA0007F928F929F92AF92BF92CF92DF92EF92FB
:100DB000FF920F931F93CF936B017C01742EAC01B4
:100DC0009B010E94670E882399F08BE192E0CF91FE
:100DD0001F910F91FF90EF90DF90CF90BF90AF9059
:100DE0009F908F907F906F905F904F900C94FB033B
:100DF00046015701E894B7F82FEF3FEF4FE75FE761
:100E0000C501B4010E94670E81110DC02FEF3FEFA5
:100E10004FE75FE7C501B4010E942D0C18161CF4C2
:100E20008FE192E0D4CF2FEF3FEF4FE75FE4C701B0
:100E3000B6010E94620E18161CF483E292E0C7CF3E
:100E40002FEF3FEF4FE75FECC701B6010E942D0C7B
:100E500087FDF3CF20E030E0A901C701B6010E9471
:100E60002D0C10E000E087FF0AC06DE283E493E000
:100E70000E943E028C01F7FAF094F7F8F094C0E07B
:100E800060E070E080E09FE37C1641F020E030E01D
:100E900040E251E40E94C10DCF5FF6CFA701960159
:100EA0000E94550D2B013C010E94330E4B015C0149
:100EB0004AE00E9408047C01E00EF11ECC23C1F13F
:100EC000C501B4010E94320C9B01AC01C301B20107
:100ED0000E94540D4B015C016EE283E493E00E949A
:100EE0003E02E80EF91EC15018F120E030E040E269
:100EF00051E4C501B4010E94930C2B013C010E94F6
:100F0000330E4B01B12CA12C4AE0C501B4010E9463
:100F10000804E80EF91EC501B4010E94320C9B01C1
:100F2000AC01C301B2010E94540D4B015C01DBCF47
:100F3000C701CF911F910F91FF90EF90DF90CF905D
:100F4000BF90AF909F908F907F906F905F904F90E9
:100F50000895E3E4F3E01382128288EE93E0A0E0C8
:100F6000B0E084839583A683B7838AE092E091837F
:100F7000808385EC90E09587848784EC90E0978768
:100F8000868780EC90E0918B808B81EC90E0938B56
:100F9000828B82EC90E0958B848B86EC90E0978B33
:100FA000868B118E128E138E148EA0EEB3E086E126
:100FB00015968C9315978BE016968C931697E8E30D
:100FC000F2E0E4911796EC931797E2EFF1E0E491E9
:100FD0001896EC93189740E85EE360E070E01D9689
:100FE0004D935D936D937C9350970895CF93DF93CA
:100FF00000D000D01F921F92CDB7DEB7789484B591
:10100000826084BD84B5816084BD85B5826085BD04
:1010100085B5816085BD80916E00816080936E0092
:101020001092810080918100826080938100809184
:101030008100816080938100809180008160809335
:1010400080008091B10084608093B1008091B000F5
:1010500081608093B00080919100826080939100C4
:1010600080919100816080939100809190008160D7
:10107000809390008091A10082608093A100809174
:10108000A10081608093A1008091A0008160809385
:10109000A000809121018260809321018091210133
:1010A00081608093210180912001816080932001E3
:1010B00080917A00846080937A0080917A008260C7
:1010C00080937A0080917A00816080937A00809189
:1010D0007A00806880937A001092C100E0915303F7
:1010E000F091540382E08083E0914F03F09150032C
:1010F0001082E0915103F09152038FEC80831092A3
:101100005B03E0915703F091580386E08083E09100
:101110005503F0915603808180618083E0915503EF
:10112000F0915603808188608083E0915503F091AF
:101130005603808180688083E0915503F0915603C7
:1011400080818F7D808362E08091E5030E94680347
:101150002FB7F89480913F0390914003A0914103F1
:10116000B09142032FBF805D9740A109B1098093E0
:10117000E9039093EA03A093EB03B093EC0387E3B6
:101180008093F20361E087E10E94680361E088E1F7
:101190000E94680361E089E10E94680361E08AE1DE
:1011A0000E94680361E08BE10E94680361E08CE1CA
:1011B0000E94680361E08DE10E94680361E08EE1B6
:1011C0000E94680361E085E30E94680360E084E3B5
:1011D0000E94680361E083E30E94680361E082E3A8
:1011E0000E94680361E082E30E94DC0261E08FE11B
:1011F0000E94680387E292E00E944C0443E0242EA0
:10120000312C53E2852E912C6AE3462E512C612C11
:10121000712C68EE73E080E090E00E94C90360E00A
:1012200085E30E94DC02C1010197F1F761E085E3EB
:101230000E94DC02C4010197F1F760E085E30E949F
:10124000DC02E6E5F2E06491E0E1F2E08491E82F6F
:10125000F0E0EE0FFF1FEE53FE4F8591949100E4F6
:1012600012E42FE030E0462F0E9441056115710520
:101270008105910529F06F5F7F4F8F4F9F4F9F70C2
:10128000A30192010E948E0E69017A014AE0C70112
:10129000B6010E94080488E192E00E94FB0364E624
:1012A00070E080E090E00E94C903F4E8CF16F3E01C
:1012B000DF06E104F10444F460E082E30E94DC0212
:1012C00061E083E30E94DC0283E493E00E94060273
:1012D000892B09F422C21A8219821C821B821E8267
:1012E0001D8270E060E0CE0101960E946F042981AA
:1012F0003A8181112BC02115310519F0C9010E94D5
:10130000510F1A8219821E821D821C821B820E942A
:10131000B80197FD23C08F8318860D811E810F5F52
:101320001F4FB801CE0101960E946F04882379F304
:1013300029813A818D819E81BE01695F7F4F820F35
:10134000931F0E94CD101E830D83E1CF1E821D824C
:101350006AE172E0C9010E94CD10D9CFC980DA805C
:10136000C114D10431F00D811E81760101151105E2
:10137000B9F468E372E0CE0101960E945A0461E07C
:10138000811109C061E472E0CE0101960E945A0405
:101390008823E1F160E087E10E94DC02B8C17501B9
:1013A00057018FEFA81AB80AF7018081082E000CA8
:1013B000990B0E94240C892B91F7015011090C0DF7
:1013C0001D1DF8018081082E000C990B0E94240C31
:1013D000892B31F00E151F0518F001501109F1CFBE
:1013E000A8014F5F5F4F4E195F095E834D83CE1496
:1013F000DF0420F4B701C6010E94BB10E981FA8125
:101400008D819E81E80FF91F1082B3CF6BE472E0EB
:10141000CE0101960E945A0461E0811109C064E581
:1014200072E0CE0101960E945A04882319F060E010
:1014300088E1B2CF6EE572E0CE0101960E945A04B7
:1014400061E0811109C067E672E0CE0101960E9459
:101450005A04882319F060E089E19ECF61E772E0C9
:10146000CE0101960E945A0461E0811109C06AE729
:1014700072E0CE0101960E945A04882319F060E0C0
:101480008AE18ACF64E872E0CE0101960E945A0494
:1014900061E0811109C06DE872E0CE0101960E9401
:1014A0005A04882319F060E08BE176CF67E972E097
:1014B000CE0101960E945A0461E0811109C060EAE0
:1014C00072E0CE0101960E945A04882319F060E070
:1014D0008CE162CF6AEA72E0CE0101960E945A0462
:1014E00061E0811109C063EB72E0CE0101960E94B8
:1014F0005A04882319F060E08DE14ECF6DEB72E065
:10150000CE0101960E945A04882319F061E08EE111
:1015100043CF66EC72E0CE0101960E945A04882304
:1015200011F060E0F4CF60ED72E0CE0101960E9410
:101530005A04882309F48AC00E94BE05882309F44E
:101540005BC08091E6038C3009F45BC048F48B30BB
:1015500001F1C12CD12C90ECE92E9FE7F92E43C06C
:1015600085518230B0F71091E203612F70E0762F41
:10157000662766277F778091E303682B90E080E001
:101580000E94320C2DEC3CEC4CEC5DE30E94930C81
:1015900054C06091E20370E090E080E00E94320C61
:1015A0006B017C011091E30317FF0AC0AC019B01A2
:1015B00060E070E080E89FEB0E94540D6B017C01BD
:1015C0001F70612F70E090E080E00E94340C2DECE1
:1015D0003CEC4CEC5DE30E94930CA70196010E9449
:1015E000550D6B017C01A7019601C701B6010E9450
:1015F000670E882309F482C08CED92E00E944C04AF
:1016000086C01091E203612F70E090E080E00E94BC
:10161000320C6B017C016091E3036F7070E090E02D
:1016200080E00E94340C2DEC3CEC4CEC5DE30E941D
:10163000930CA70196010E94550D6B017C0117FFC9
:10164000D2CFF7FAF094F7F8F094CDCF6AEE72E0CB
:10165000CE0101960E945A04882309F491C00E9489
:10166000BE058823B1F18091E6038B3028F08D30E0
:1016700050F08551823080F1C12CD12C80ECE82EC5
:101680008FE7F82E1EC06091E10370E090E080E0EB
:101690000E94340C2DEC3CEC4CEC5DE30E94930C6E
:1016A0006B017C016091E00370E090E080E00E94BB
:1016B000340C9B01AC01C701B6010E94550D6B01B2
:1016C0007C01A7019601C701B6010E94670E88231D
:1016D000A9F082EF92E092CF6091E0037091E10374
:1016E00076276727762790E080E00E94320C2DEC69
:1016F0003CEC4CEC5DE30E94930CE1CF42E0C7016F
:10170000B6010E94CD0688E192E00E94FB03898128
:101710009A81009711F00E94510F80917B00877F82
:1017200080937B00F0E4F0937C0080917A008064E9
:1017300080937A0080917A0086FDFCCF80917800BA
:1017400000917900102F082F64E670E080E090E0AF
:101750000E94C90380913D0390913E038017910739
:1017600061F010933E0300933D0361E005361105DF
:101770000CF060E08FE10E94DC020E94AB0249CDD8
:1017800068E073E0CE0101960E945A048823E9F0D4
:1017900061E087E10E94DC0261E088E10E94DC02F6
:1017A00061E089E10E94DC0261E08AE10E94DC02E2
:1017B00061E08BE10E94DC0261E08CE10E94DC02CE
:1017C00061E08DE10E94DC02A1CE61E173E0CE0117
:1017D00001960E945A048823E9F060E087E10E94A4
:1017E000DC0260E088E10E94DC0260E089E10E94A6
:1017F000DC0260E08AE10E94DC0260E08BE10E9492
:10180000DC0260E08CE10E94DC0260E08DE10E947D
:10181000DC0287CE6BE173E0CE0101960E945A0490
:10182000882379F061E082E30E94DC0260E083E3D8
:101830000E94DC0264E670E080E090E00E94C90350
:1018400066CF81E293E0DACE91110C94000D8032E4
:1018500019F089508550C8F708950E946F0C08F45C
:1018600081E00895E89409C097FB3EF49095809537
:10187000709561957F4F8F4F9F4F9923A9F0F92F56
:1018800096E9BB279395F695879577956795B795D4
:10189000F111F8CFFAF4BB0F11F460FF1BC06F5FBA
:1018A0007F4F8F4F9F4F16C0882311F096E911C0CC
:1018B000772321F09EE8872F762F05C0662371F0ED
:1018C00096E8862F70E060E02AF09A95660F771F01
:1018D000881FDAF7880F9695879597F90895990FDD
:1018E0000008550FAA0BE0E8FEEF16161706E807EA
:1018F000F907C0F012161306E407F50798F0621B0B
:10190000730B840B950B39F40A2661F0232B242BDF
:10191000252B21F408950A2609F4A140A6958FEFFE
:10192000811D811D08950E94A60C0C941A0D0E9421
:101930000C0D38F00E94130D20F0952311F00C943B
:10194000030D0C94090D11240C944E0D0E942B0DC7
:1019500070F3959FC1F3950F50E0551F629FF00102
:10196000729FBB27F00DB11D639FAA27F00DB11D1B
:10197000AA1F649F6627B00DA11D661F829F2227A4
:10198000B00DA11D621F739FB00DA11D621F839F2B
:10199000A00D611D221F749F3327A00D611D231F01
:1019A000849F600D211D822F762F6A2F11249F574F
:1019B00050409AF0F1F088234AF0EE0FFF1FBB1F52
:1019C000661F771F881F91505040A9F79E3F510511
:1019D00080F00C94030D0C944E0D5F3FE4F3983EA1
:1019E000D4F3869577956795B795F795E7959F5FBB
:1019F000C1F7FE2B880F911D9695879597F908954D
:101A000099278827089597F99F6780E870E060E03C
:101A100008959FEF80EC089500240A941616170687
:101A200018060906089500240A94121613061406CF
:101A300005060895092E0394000C11F4882352F032
:101A4000BB0F40F4BF2B11F460FF04C06F5F7F4FEA
:101A50008F4F9F4F089557FD9058440F551F59F0D1
:101A60005F3F71F04795880F97FB991F61F09F3F8B
:101A700079F087950895121613061406551FF2CFB4
:101A80004695F1DF08C0161617061806991FF1CF04
:101A900086957105610508940895E894BB2766272B
:101AA0007727CB0197F908955058BB27AA270E94A2
:101AB0006C0D0C941A0D0E940C0D38F00E94130D41
:101AC00020F039F49F3F19F426F40C94090D0EF41C
:101AD000E095E7FB0C94030DE92F0E942B0D58F3C2
:101AE000BA17620773078407950720F079F4A6F503
:101AF0000C944D0D0EF4E0950B2EBA2FA02D0B017A
:101B0000B90190010C01CA01A0011124FF27591B42
:101B100099F0593F50F4503E68F11A16F040A22F48
:101B2000232F342F4427585FF3CF469537952795B9
:101B3000A795F0405395C9F77EF41F16BA0B620BB8
:101B4000730B840BBAF09150A1F0FF0FBB1F661FFF
:101B5000771F881FC2F70EC0BA0F621F731F841F42
:101B600048F4879577956795B795F7959E3F08F068
:101B7000B0CF9395880F08F09927EE0F979587952A
:101B800008950E94D50D0C941A0D0E94130D58F063
:101B90000E940C0D40F029F45F3F29F00C94030DD6
:101BA00051110C944E0D0C94090D0E942B0D68F3ED
:101BB0009923B1F3552391F3951B550BBB27AA2706
:101BC00062177307840738F09F5F5F4F220F331F40
:101BD000441FAA1FA9F335D00E2E3AF0E0E832D008
:101BE00091505040E695001CCAF72BD0FE2F29D00B
:101BF000660F771F881FBB1F261737074807AB07DD
:101C0000B0E809F0BB0B802DBF01FF2793585F4F51
:101C10003AF09E3F510578F00C94030D0C944E0D54
:101C20005F3FE4F3983ED4F3869577956795B79533
:101C3000F7959F5FC9F7880F911D9695879597F93E
:101C40000895E1E0660F771F881FBB1F62177307B7
:101C50008407BA0720F0621B730B840BBA0BEE1FCC
:101C600088F7E09508950E94330D88F09F5798F00B
:101C7000B92F9927B751B0F0E1F0660F771F881F91
:101C8000991F1AF0BA95C9F714C0B13091F00E94AB
:101C90004D0DB1E008950C944D0D672F782F8827D6
:101CA000B85F39F0B93FCCF3869577956795B395D2
:101CB000D9F73EF490958095709561957F4F8F4F41
:101CC0009F4F08950E946F0C08F48FEF08950E94B3
:101CD0006F0C880B990B0895A1E21A2EAA1BBB1B4F
:101CE000FD010DC0AA1FBB1FEE1FFF1FA217B307E8
:101CF000E407F50720F0A21BB30BE40BF50B661FFE
:101D0000771F881F991F1A9469F7609570958095C1
:101D100090959B01AC01BD01CF010895052E97FB65
:101D20001EF400940E94A50E57FD07D00E946C0E71
:101D300007FC03D04EF40C94A50E509540953095B9
:101D400021953F4F4F4F5F4F089590958095709527
:101D500061957F4F8F4F9F4F0895EE0FFF1F881F94
:101D60008BBF0790F691E02D19940F931F93CF939B
:101D7000DF938230910510F482E090E0E091F5036A
:101D8000F091F60330E020E0B0E0A0E0309799F465
:101D90002115310509F44AC0281B390B24303105BF
:101DA000D8F58A819B816115710589F1FB019383C7
:101DB0008283FE0111C04081518102811381481745
:101DC0005907E0F04817590799F4109761F01296F7
:101DD0000C93129713961C933296CF01DF91CF91FB
:101DE0001F910F9108950093F5031093F603F4CF1C
:101DF0002115310551F04217530738F0A901DB01D5
:101E00009A01BD01DF01F801C1CFEF01F9CF909335
:101E1000F6038093F503CDCFFE01E20FF31F81930C
:101E200091932250310939832883D7CF2091F3032E
:101E30003091F403232B41F42091020230910302EC
:101E40003093F4032093F3032091000230910102B8
:101E50002115310541F42DB73EB740910402509150
:101E60000502241B350BE091F303F091F403E21714
:101E7000F307A0F42E1B3F0B2817390778F0AC01AD
:101E80004E5F5F4F2417350748F04E0F5F1F50938A
:101E9000F4034093F303819391939FCFF0E0E0E04C
:101EA0009CCFCF93DF930097E9F0FC013297138228
:101EB0001282A091F503B091F603ED0130E020E02D
:101EC0001097A1F420813181820F931F2091F30399
:101ED0003091F4032817390709F061C0F093F40337
:101EE000E093F303DF91CF910895EA01CE17DF0766
:101EF000E8F54A815B819E0141155105B1F7E90181
:101F0000FB83EA8349915991C40FD51FEC17FD0754
:101F100061F4808191810296840F951FE901998374
:101F20008883828193819B838A83F0E0E0E012962C
:101F30008D919C9113970097B9F52D913C91119734
:101F4000CD010296820F931F2091F3033091F40389
:101F50002817390739F6309751F51092F603109289
:101F6000F503B093F403A093F303BCCFD383C283F0
:101F700040815181840F951FC817D90761F44E5FC6
:101F80005F4F88819981480F591F518340838A810F
:101F90009B81938382832115310509F0B0CFF093A3
:101FA000F603E093F5039ECFFD01DC01C0CF138261
:101FB0001282D7CF4F925F926F927F928F929F92B1
:101FC000AF92BF92CF92DF92EF92FF920F931F9347
:101FD000CF93DF938C01009799F4CB01DF91CF91E0
:101FE0001F910F91FF90EF90DF90CF90BF90AF9037
:101FF0009F908F907F906F905F904F900C94B50E54
:10200000FC01E60FF71F9C0122503109E217F3078C
:1020100008F4AEC0D901CD91DC911197C617D7074E
:1020200020F1C530D10578F0CE01049786179707C7
:1020300050F0C61BD70B2297C193D1936D937C931D
:10204000CF010E94510FC801DF91CF911F910F91D5
:10205000FF90EF90DF90CF90BF90AF909F908F90C8
:102060007F906F905F904F9008955B01AC1ABD0A0E
:102070004C018C0E9D1EA091F503B091F603512CDE
:10208000412CF12CE12C109731F58091F3039091C4
:10209000F4038815990509F05CC04616570608F048
:1020A00058C08091000290910102009741F48DB7D1
:1020B0009EB74091040250910502841B950BE817CE
:1020C000F90708F055C0F093F403E093F303F90126
:1020D00071836083B8CF8D919C91119712966C900B
:1020E000129713967C901397A815B90559F56C01B2
:1020F00042E0C40ED11CCA14DB0420F1AC014A1921
:102100005B09DA011296159780F06282738251831F
:102110004083D9016D937C93E114F10471F0D701F0
:102120001396FC93EE9312978ECF22968C0F9D1FE1
:10213000F90191838083F301EFCFF093F603E093ED
:10214000F50381CF4816590608F42C017D01D3010F
:102150009ACFCB010E94B50E7C01009749F0AE01E9
:10216000B8010E94BB10C8010E94510F87016BCFBC
:1021700010E000E068CFFB01DC0102C001900D928D
:1021800041505040D8F70895FB01DC018D9101903A
:1021900080190110D9F3990B0895FB01DC0101901E
:0C21A0000D920020E1F70895F894FFCFA5
:1021AC000000F7038000000000003E02680195016A
:1021BC008B020602A401F8010D0A006E616E006923
:1021CC006E66006F766600496E6772657361206398
:1021DC006F6D616E646F3A006C757A2031206F6E92
:1021EC00006C757A2031206F6666006C757A20322F
:1021FC00206F6E006C757A2032206F6666006C75ED
:10220C007A2033206F6E006C757A2033206F6666EF
:10221C00006C757A2034206F6E006C757A20342037
:10222C006F6666006C757A2035206F6E006C757A5F
:10223C002035206F6666006C757A2036206F6E0034
:10224C006C757A2036206F6666006C757A203720A4
:10225C006F6E006C757A2037206F6666006C757A2D
:10226C002038206F6E006C757A2038206F666600FF
:10227C0074656D7065726174757261004572726F10
:10228C007220616C206C6565720068756D656461A7
:10229C0064004572726F7220616C206C65657220EF
:1022AC0048756D65646164006C75636573206F6E51
:1022BC00006C75636573206F66660061627269728B
:1022CC0000436F6D616E646F206E6F207265636F7B
:0822DC006E6F6369646F00007E
:00000001FF
