:100000000C94C1010C94F2010C94F2010C94F201D5
:100010000C94F2010C94F2010C94F2010C94F20194
:100020000C94F2010C9499090C9499090C94990977
:100030000C94F2010C94F2010C94F2010C94F20174
:100040000C94F2010C94F2010C94F2010C94F20164
:100050000C94F2010C94F2010C94F2010C944F09EF
:100060000C94F2010C9419090C94EF080C94F20111
:100070000C94F2010C94F2010C94F2010C94F20134
:100080000C94F2010C94F2010C94F2010C94F20124
:100090000C94F2010C94F2010C94F2010C94F20114
:1000A0000C94F2010C94F2010C94F2010C94F20104
:1000B0000C94F2010C94F2010C94F2010C94F201F4
:1000C0000C94F2010C94F2010C94F2010C94F201E4
:1000D0000C94F2010C94F2010C94F2010C94F201D4
:1000E0000C94F2010C949B040C9435030C94E102E3
:1000F0000C94150A0C9491040C9495040C947504BA
:100100000C9483040C94D2020C94A9060C944A0F0C
:100110000C9449040C9490060C946F040C943E07C4
:100120000C9468040C9464040C947B030C94870472
:100130000C941D070C946C040C949F040C946004A4
:100140000C9405070C948D040C9443030C944E04FA
:100150000C94C8030C94A8060C9479040C947F04A6
:100160000C94A50200407A10F35A00A0724E1809B0
:100170000010A5D4E80000E87648170000E40B540E
:10018000020000CA9A3B000000E1F50500008096DD
:100190009800000040420F000000A086010000000F
:1001A000102700000000E8030000000064000000C9
:1001B00000000A00000000000100000000002C7692
:1001C000D888DC674F0823DFC1DFAE59E1B1B796AD
:1001D000E5E3E453C63AE651997696E8E6C284260A
:1001E000EB898C9B62ED407C6FFCEFBC9C9F40F2E6
:1001F000BAA56FA5F490055A2AF75C936B6CF96762
:100200006DC11BFCE0E40D47FEF520E6B500D0ED26
:10021000902E0300943577050080841E080000208E
:100220004E0A000000C80C333333330F986E12832C
:100230001141EF8D2114893BE65516CFFEE6DB1800
:10024000D1844B381BF77C1D901DA4BBE4242032C5
:1002500084725E228100C9F124ECA1E53D270000F3
:100260002100240027002A002D0030003300010166
:100270000000040107010A0100000A0B02090C0D2D
:100280000E08070304010000000000000000000049
:10029000000000000000000000000000000000005E
:1002A000000000001211100000000000000000001B
:1002B000000000000000000000000000000000003E
:1002C00020002300260029002C002F00320000010E
:1002D000000003010601090100002200250028009A
:1002E0002B002E003100340002010000050108013E
:1002F0000B010505050507050808080802020202AA
:100300000A0A0808040404040101010101010101B1
:100310000303030303030303040707070C0C0C0C7C
:100320000C0C0C0C02020202060606060606060665
:100330000B0B0B0B0B0B0B0B0102102020080810F2
:100340002040102040800201020108040201010245
:10035000040810204080804020100804020180041E
:100360000201804020100804020108040201010279
:100370000408102040800102040810204080150A63
:100380004A0F11241FBECFEFD1E2DEBFCDBF00E088
:100390000CBF25E0A6E3B4E001C01D92AC35B20766
:1003A000E1F714E0A0E0B2E0E6E2FCE200E00BBF1F
:1003B00002C007900D92A633B107D9F711E0C0EC47
:1003C000D1E000E006C021970109802FFE010E94C4
:1003D000C613CF3BD10780E00807A9F70E94DA0ACD
:1003E0000C9401160C940000CF92DF92EF92FF92D2
:1003F000CF9380912C058C3009F44FC038F48B30AA
:10040000F1F060E070E080EC9FE741C08551823000
:10041000C0F7C09128056C2F70E0762F66276627FD
:100420007F7780912905682B90E080E00E94E3119E
:100430002DEC3CEC4CEC5DE30E9444124AC0609110
:10044000280570E090E080E00E94E3116B017C01E0
:10045000C0912905C7FF0AC0AC019B0160E070E0B4
:1004600080E89FEB0E9405136B017C01CF706C2F1D
:1004700070E090E080E00E94E5112DEC3CEC4CEC4B
:100480005DE30E944412A70196010E940613CF91DA
:10049000FF90EF90DF90CF900895C09128056C2FCA
:1004A00070E090E080E00E94E3116B017C016091BC
:1004B00029056F7070E090E080E00E94E5112DEC5E
:1004C0003CEC4CEC5DE30E944412A70196010E94B3
:1004D0000613C7FFDCCF9058DACFCF92DF92EF92AE
:1004E000FF92CF93DF93B0912D05A0E08111AB2F48
:1004F00080912E0590E0880F991FAC0142545D4F0A
:10050000C0903305D0903405E0903505F090360565
:1005100030E020E0FA01C591D491E881B90190E082
:1005200080E0EB23EA130AC02F5F3F4F6C157D0577
:100530008E059F0578F36FEF7FEFCB01DF91CF91B1
:10054000FF90EF90DF90CF900895AF92BF92CF923F
:10055000DF92EF92FF920F931F93CF93DF936C0183
:100560007B018B01040F151FEB015E01AE18BF0864
:10057000C017D10759F06991D601ED91FC91019016
:10058000F081E02DC6011995892B79F7C501DF911E
:10059000CF911F910F91FF90EF90DF90CF90BF9080
:1005A000AF900895FC01538D448D252F30E0842FAA
:1005B00090E0821B930B541710F0CF96089501978B
:1005C0000895FC01918D828D981761F0A28DAE0F78
:1005D000BF2FB11D5D968C91928D9F5F9F73928FFF
:1005E00090E008958FEF9FEF08952FB7F8948091D2
:1005F000850490918604A0918704B09188042FBF50
:100600008093910490939204A0939304B0939404E4
:1006100089E894E00E94E10297FF26C02FB7F89482
:100620008091850490918604A0918704B0918804FC
:100630002FBF409191045091920460919304709166
:100640009404841B950BA60BB70B40918D0450911D
:100650008E0460918F047091900484179507A6070B
:10066000B707B0F28FEF9FEF0895FC01918D828D57
:10067000981731F0828DE80FF11D858D90E0089577
:100680008FEF9FEF0895FC01918D228D892F90E0CF
:10069000805C9F4F821B91098F739927089589E889
:1006A00094E00E94430321E0892B09F420E0822F8B
:1006B0000895FC01A48DA80FB92FB11DA35ABF4FF7
:1006C0002C91848D90E001968F739927848FA68951
:1006D000B7892C93A089B1898C91837080648C93A5
:1006E000938D848D981306C00288F389E02D808154
:1006F0008F7D80830895EF92FF920F931F93CF9386
:10070000DF93EC0181E0888F9B8D8C8D98131AC04C
:10071000E889F989808185FF15C09FB7F894EE8933
:10072000FF896083E889F989808183708064808390
:100730009FBF81E090E0DF91CF911F910F91FF90DB
:10074000EF900895F62E0B8D10E00F5F1F4F0F7383
:100750001127E02E8C8D8E110CC00FB607FCFACF3E
:10076000E889F989808185FFF5CFCE010E94590380
:10077000F1CFEB8DEC0FFD2FF11DE35AFF4FF0820F
:100780009FB7F8940B8FEA89FB8980818062CFCF75
:10079000CF93DF93EC01888D8823B9F0AA89BB89B8
:1007A000E889F9898C9185FD03C0808186FD0DC0A3
:1007B0000FB607FCF7CF8C9185FFF2CF808185FFC4
:1007C000EDCFCE010E945903E9CFDF91CF9108957B
:1007D00080E090E0892B29F00E944F0381110E9454
:1007E000000080E090E0892B49F080E090E0892BC8
:1007F00029F00E94000081110E94000080E090E03A
:10080000892B49F080E090E0892B29F00E940000BC
:1008100081110E94000080E090E0892B49F080E087
:1008200090E0892B29F00E94000081110C940000B7
:100830000895282F30E0F901E858FD4F9491F9010F
:10084000E85CFC4F44912E503D4FF9012491222346
:1008500009F435C0992311F191509231F8F4E92F40
:10086000F0E08827E95CFB4F8F4F0C94C6136804B7
:100870006C044904600464044E046F047504790434
:100880007F04830487048D0491044E0495049B0423
:100890009F04809180008F7780938000E22FF0E0AA
:1008A000EE0FFF1FE852FD4FA591B4918FB7F8945A
:1008B000EC91611148C040954E234C938FBF089531
:1008C000809180008F7DE8CF80918000877FE4CF8A
:1008D00084B58F7784BDE2CF84B58F7DFBCF8091C7
:1008E000B0008F778093B000D9CF8091B0008F7D1A
:1008F000F9CF809190008F7780939000CFCF809137
:1009000090008F7DF9CF80919000877FF5CF809107
:10091000A0008F778093A000C1CF8091A0008F7D31
:10092000F9CF8091A000877FF5CF809120018F774C
:1009300080932001B3CF809120018F7DF9CF8091EA
:100940002001877FF5CF4E2BB8CFCF93DF9390E078
:10095000FC01E85CFC4F24918E509D4FFC0184917A
:100960008823C9F090E0880F991FFC01E25AFD4FDF
:10097000A591B491FC01E852FD4FC591D49161114C
:100980000DC09FB7F8948C91209582238C93888119
:10099000282328839FBFDF91CF910895623051F4BF
:1009A0009FB7F8943C91822F809583238C93E881A4
:1009B0002E2BEFCF8FB7F894EC912E2B2C938FBF6B
:1009C000EACF3FB7F89480917B0490917C04A0918A
:1009D0007D04B0917E0426B5A89B05C02F3F19F079
:1009E0000196A11DB11D3FBFBA2FA92F982F8827AF
:1009F000BC01CD01620F711D811D911D42E0660F8A
:100A0000771F881F991F4A95D1F708958F929F925B
:100A1000AF92BF92CF92DF92EF92FF924B015C01B7
:100A20000E94E1046B017C010E94E1046C197D09C4
:100A30008E099F09683E734081059105A8F321E066
:100A4000821A9108A108B10888EEC80E83E0D81E6A
:100A5000E11CF11C81149104A104B10429F7FF9059
:100A6000EF90DF90CF90BF90AF909F908F900895C0
:100A7000CF92DF92EF92FF920F931F93CF93DF936A
:100A8000CDB7DEB7C054D1400FB6F894DEBF0FBE6D
:100A9000CDBF2FB7F8948091850490918604A091E2
:100AA0008704B09188042FBF40912F0550913005E5
:100AB00060913105709132058C019D01041B150B6D
:100AC000260B370BB901A801403D57406105710560
:100AD00090F480913705C05CDE4F0FB6F894DEBF0E
:100AE0000FBECDBFDF91CF911F910F91FF90EF907F
:100AF000DF90CF90089580932F0590933005A093B9
:100B00003105B093320510922A05109229051092F2
:100B10002805109227051092260562E080912B058A
:100B20000E94A50461E070E080E090E00E9406056C
:100B300061E080912B050E94A50460E080912B0567
:100B40000E94190480912C058551823020F58BE29A
:100B500091E10197F1F762E080912B050E94A504D5
:100B60008091380590E08230910538F0880F991F08
:100B7000880F991F05970197F1F7F89480E00E947C
:100B80006D026F3F7F4F8F4F9F4F61F4109237057B
:100B9000789480E0A0CF64E170E080E090E00E9473
:100BA0000605D9CF81E00E946D026F3F7F4F8F4FC6
:100BB0009F4F61F38E010F5F1F4F6E018FEBC81ABD
:100BC0008EEFD80A780180E00E946D02F701608301
:100BD00071838283938381E00E946D02F7016483B5
:100BE000758386839783F8E0EF0EF11CEC14FD0407
:100BF00051F7789430E020E0F801C080D180E280A5
:100C0000F3804481558166817781FFEFCF16DF063F
:100C1000EF06FF0631F04F3F8FEF58076807780760
:100C200019F410923705B5CFF90183E0F595E795F2
:100C30008A95E1F7EA5DFA4F8081880FC416D506E0
:100C4000E606F70610F180832F5F3F4F085F1F4FC6
:100C50002832310589F640912A0520912605809198
:100C60002705280F3327331F80912805280F311DB2
:100C700080912905820F932F911D992748171906F6
:100C800081F681E08093370526CF8160DCCFCF925B
:100C9000DF92EF92FF920E943805882349F08091FD
:100CA0002C058B3028F08D3040F08551823030F1AA
:100CB00060E070E080EC9FE71CC06091270570E069
:100CC00090E080E00E94E5112DEC3CEC4CEC5DE303
:100CD0000E9444126B017C016091260570E090E057
:100CE00080E00E94E5119B01AC01C701B6010E94A2
:100CF0000613FF90EF90DF90CF9008956091260546
:100D00007091270576276727762790E080E00E947C
:100D1000E3112DEC3CEC4CEC5DE30E944412E9CF76
:100D200020918104309182042817390771F4909141
:100D30007F0480918004981741F0E0917F04F0E0F7
:100D4000E65CFB4F808190E008958FEF9FEF089560
:100D50000895EF92FF920F931F93CF93DF93DC01DF
:100D60005C96ED90FC905D97E114F10479F481E0DC
:100D700090E013969C938E93129790E080E0DF9121
:100D8000CF911F910F91FF90EF9008955196ED91A3
:100D9000FC91529750968C915097982F90950FB741
:100DA0005E962C915E97122F127021FD6095F8943B
:100DB0002081112319F1282B2083E7012197F1F7D6
:100DC00028E0462F50E0308160FF1AC0382B308376
:100DD000E7012197F1F7BA0175956795215089F7D9
:100DE000112381F08081892380830FBF5C968D91D0
:100DF0009C910197F1F781E090E0C1CF2923DCCFEE
:100E00003923E5CF9081892BEFCF20918104309158
:100E100082042817390771F48091800420917F049F
:100E200090E0805C9F4F821B910960E470E00E941B
:100E3000B213089590E080E00895209181043091EC
:100E4000820428173907B9F490917F0480918004B7
:100E5000981789F0E0917F04F0E0E65CFB4F808119
:100E600020917F0430E02F5F3F4F2F733327209373
:100E70007F0490E008958FEF9FEF089590E080E069
:100E8000089542E050E06AE272E089E894E00C9450
:100E9000A502CF93DF93FC0101900020E9F7319781
:100EA000AF01481B590BBC0189E894E00E94A502E0
:100EB000EC010E9441078C0F9D1FDF91CF91089597
:100EC000CF93DF93FC01448155816081718189E872
:100ED00094E00E94A502EC010E9441078C0F9D1F27
:100EE000DF91CF910895FC0180819181009711F0ED
:100EF0000C947E140895FC0124813581232B39F450
:100F000021E0FB018081882349F020E007C0808137
:100F100091810E94F11521E0892BB9F7822F089564
:100F20000F931F93CF93DF93EC01888199810097F2
:100F300059F02A813B812617370730F081E0DF9195
:100F4000CF911F910F9108958B016F5F7F4F0E948A
:100F50000715009759F0998388831B830A832C8196
:100F60003D81232B59F7FC011082E8CF80E0E7CFC9
:100F7000EF92FF920F931F93CF93DF93EC017B01CE
:100F8000198218821B821A821D821C82FB01019029
:100F90000020E9F731978F01061B170BB8010E945B
:100FA000900728813981811113C02115310519F06D
:100FB000C9010E947E14198218821D821C821B8224
:100FC0001A82DF91CF911F910F91FF90EF900895BA
:100FD0001D830C83B701C901DF91CF911F910F9140
:100FE000FF90EF900C94FA15CF92DF92EF92FF9260
:100FF0000F931F93CF93DF93CDB7DEB764970FB6F0
:10100000F894DEBF0FBECDBF7C01CB01BA018E01CB
:101010000F5F1F4F22E044E00E94660F6C01FC014D
:1010200001900020E9F73197E81BF90B892B81F437
:1010300080E064960FB6F894DEBF0FBECDBFDF919F
:10104000CF911F910F91FF90EF90DF90CF90089577
:101050003097D9F0D70114960D911C910E0F1F1FD8
:10106000B801C7010E949007882311F3F70120817E
:10107000318184819581B601820F931F0E94FA15F8
:10108000D70115961C930E93149781E0D2CFCF927F
:10109000DF92EF92FF92CF93DF9300D000D0CDB7D5
:1010A000DEB70E9447066B017C01AC019B010E94E8
:1010B000AD13882389F08DE292E00E9449072696BD
:1010C0000FB6F894DEBF0FBECDBFDF91CF91FF907A
:1010D000EF90DF90CF9008956091380470913904BB
:1010E000072E000C880B990B0E94E511A7019601B1
:1010F0000E94DE11882319F3C701B6010E94721302
:10110000709339046093380463E472E0CE01019671
:101110000E94B807B701A601CE0101960E94F4070C
:10112000CE0101960E946007CE0101960E947307CE
:10113000C6CFCF92DF92EF92FF92CF93DF9300D092
:1011400000D0CDB7DEB70E943805882351F00E9449
:10115000F4016B017C01AC019B010E94AD1388235B
:1011600089F086E492E00E94490726960FB6F8942B
:10117000DEBF0FBECDBFDF91CF91FF90EF90DF902C
:10118000CF9008956091360470913704072E000CBB
:10119000880B990B0E94E511A70196010E94DE11B0
:1011A000882319F3C701B6010E94721370933704A4
:1011B0006093360464E572E0CE0101960E94B807A0
:1011C000B701A601CE0101960E94F407CE01019657
:1011D0000E946007CE0101960E947307C6CF1F923E
:1011E0000F920FB60F9211240BB60F922F933F93CD
:1011F0004F935F936F937F938F939F93AF93BF931F
:10120000EF93FF9389E894E00E945903FF91EF91D7
:10121000BF91AF919F918F917F916F915F914F910E
:101220003F912F910F900BBE0F900FBE0F901F900C
:1012300018951F920F920FB60F9211240BB60F92B2
:101240002F938F939F93EF93FF93E0919904F091E5
:101250009A048081E0919F04F091A00482FD1DC05A
:1012600090818091A2048F5F8F732091A3048217D5
:1012700041F0E091A204F0E0E757FB4F958F809397
:10128000A204FF91EF919F918F912F910F900BBE30
:101290000F900FBE0F901F9018958081F2CF1F9274
:1012A0000F920FB60F9211242F933F938F939F931A
:1012B000AF93BF938091850490918604A091870499
:1012C000B091880430917A0423E0230F2D3758F52C
:1012D0000196A11DB11D20937A04809385049093FB
:1012E0008604A0938704B093880480917B04909136
:1012F0007C04A0917D04B0917E040196A11DB11DD6
:1013000080937B0490937C04A0937D04B0937E042F
:10131000BF91AF919F918F913F912F910F900FBEF1
:101320000F901F90189526E8230F0296A11DB11D5E
:10133000D2CF1F920F920FB60F9211240BB60F92BD
:101340002F933F934F935F936F937F938F939F93CD
:10135000AF93BF93EF93FF93E0918104F0918204E8
:10136000309749F0A685B7858585968D91FF16C083
:101370009C918923B1F4FF91EF91BF91AF919F911F
:101380008F917F916F915F914F913F912F910F902E
:101390000BBE0F900FBE0F901F9018959C91892344
:1013A00051F7A389B4899C918589809589238C9371
:1013B000868997890197F1F7608D718DA685B7852C
:1013C000558538E020E0CB010197F1F7822F90E0BE
:1013D00095958795282F4C91452309F02068315029
:1013E00091F7868D81FD20958091800490E0019693
:1013F0008F73992730917F04381799F0A09180045A
:10140000B0E0A65CBB4F2C9380938004828D938DBB
:101410000197F1F7A389B4898C919589892B8C93D5
:10142000AACF868D8160868FF1CF10928C041092A6
:101430008B0488EE93E0A0E0B0E080938D0490935D
:101440008E04A0938F04B09390042AE032E030938E
:101450008A042093890425EC30E03093960420938D
:10146000950424EC30E0309398042093970420EC0A
:1014700030E030939A042093990421EC30E03093CB
:101480009C0420939B0422EC30E030939E04209334
:101490009D0426EC30E03093A00420939F0410922A
:1014A000A2041092A3041092A4041092A504109216
:1014B0003C0510923B0580933D0590933E05A0931B
:1014C0003F05B09340058CE192E090933A058093FC
:1014D00039051092500510924F0510925205109246
:1014E0005105109254051092530510925605109212
:1014F0005505609157056E7F6D7F60935705669522
:10150000617081E068270E94190461E081E00E9417
:10151000A504E9E3F3E0E491E0934905E3EFF2E0A9
:10152000E491F0E0EE0FFF1FE852FD4F859194919A
:1015300090934B0580934A0560E080E00E94A504EB
:101540008091570581FD04C061E080E00E9419048C
:1015500010924505E8E3F3E0E491E0934605E2EFFD
:10156000F2E0E491F0E0EE0FFF1FE254FD4F8591B1
:101570009491909348058093470586E180932B05CD
:101580008BE080932C05EEE4F3E0E491E0932D05ED
:10159000E8E0F3E0E491E0932E0580E89EE3A0E02C
:1015A000B0E08093330590933405A0933505B09354
:1015B00036050895CF93DF9300D000D01F921F927D
:1015C000CDB7DEB7789484B5826084BD84B5816080
:1015D00084BD85B5826085BD85B5816085BD8091FE
:1015E0006E00816080936E00109281008091810076
:1015F000826080938100809181008160809381006E
:10160000809180008160809380008091B10084602F
:101610008093B1008091B00081608093B000809190
:10162000910082608093910080919100816080930D
:101630009100809190008160809390008091A10042
:1016400082608093A1008091A10081608093A100BD
:101650008091A00081608093A00080912101826030
:1016600080932101809121018160809321018091EB
:10167000200181608093200180917A0084608093B2
:101680007A0080917A00826080937A0080917A005B
:10169000816080937A0080917A00806880937A00DC
:1016A0001092C100E0919904F0919A0482E0808345
:1016B000E0919504F09196041082E0919704F091E6
:1016C00098048FEC80831092A104E0919D04F09126
:1016D0009E0486E08083E0919B04F0919C048081CD
:1016E00080618083E0919B04F0919C0480818860FC
:1016F0008083E0919B04F0919C04808180688083CA
:10170000E0919B04F0919C0480818F7D80831092F6
:1017100054051092530510925205109251051092E3
:10172000500510924F058DE991E0909356058093F6
:1017300055058091450596EF980F943048F02EECB2
:10174000280F243028F022EC280F283008F061C040
:101750002DEB30E03093500520934F052BE931E01D
:1017600030935205209351052CE231E0309354051B
:1017700020935305943050F02EEC280F243030F095
:1017800022EC280FF0E0E0E0283010F4E8E6F0E08A
:101790002081943028F032EC380F383008F40FC133
:1017A00031E0232B943048F09EEC980F943028F0D1
:1017B0008E53F0E0E0E0883010F4E8E6F0E02083BB
:1017C0002091450536EF320F343008F4FAC08EEC24
:1017D000820F843008F4F5C082EC820F883008F460
:1017E000F3C090E080E090934D0580934C05343039
:1017F00008F0EDC02650330B81E001C0880F2A9518
:10180000EAF780934E058091550590915605019712
:10181000F1F78091530590915405892B49F1E0919E
:101820008104F091820485E0E933F80709F13097EB
:1018300039F0A389B4899C918589809589238C93FB
:10184000809157058E7F80935705109280041092E7
:101850007F0489E395E09093820480938104E09172
:101860004C05F0914D05808190914E05892B808328
:1018700062E080912B050E94A5042FB7F894809117
:10188000850490918604A0918704B09188042FBFAD
:10189000805D9740A109B10980932F059093300591
:1018A000A0933105B093320587E38093380561E05A
:1018B00087E10E94A50461E088E10E94A50461E03F
:1018C00089E10E94A50461E08AE10E94A50461E02B
:1018D0008BE10E94A50461E08CE10E94A50461E017
:1018E0008DE10E94A50461E08EE10E94A50461E003
:1018F00085E30E94A50460E084E30E94A50461E002
:1019000083E30E94A50461E082E30E94A50461E0F4
:1019100080E20E94A50461E081E20E94A50461E0EA
:1019200082E30E94190461E08FE10E94A50490E423
:10193000B92E0E9499080E94470889E894E00E9405
:101940004303892B09F4A4C11A8219821C821B82C9
:101950001E821D8270E060E0CE0101960E94900719
:1019600029813A81811148C02115310519F0C90139
:101970000E947E141A8219821E821D821C821B8282
:101980000E94F50297FD40C08F8318860D811E814D
:101990000F5F1F4FB801CE0101960E949007882368
:1019A00079F329813A818D819E81BE01695F7F4FE4
:1019B000820F931F0E94FA151E830D83E1CF34E03E
:1019C000F0CE8BE690E00FCF8DE690E00CCF88E074
:1019D000223309F416CF84E0233309F412CF82E0D6
:1019E000243309F40ECF82EC820F883018F42E5382
:1019F000330B02CF81E005CF1E821D826CE272E0C4
:101A0000C9010E94FA15BCCFC980DA80C114D10483
:101A100031F00D811E8176010115110599F467E5FC
:101A200072E0CE0101960E947B07882309F440C032
:101A300061E087E10E94190482E692E00E94490772
:101A400023C173013701EFEF6E1A7E0AF70180811F
:101A5000082E000C990B0E94D511892B91F701508B
:101A600011090C0D1D1DF8018081082E000C990B29
:101A70000E94D511892B31F00E151F0518F0015069
:101A80001109F1CFA8014F5F5F4F4E195F095E83C7
:101A90004D83CE14DF0420F4B701C6010E94E8157F
:101AA000E981FA818D819E81E80FF91F1082B7CFFD
:101AB00062E772E0CE0101960E947B07882339F02D
:101AC00060E087E10E9419048DE792E0B7CF6BE8F0
:101AD00072E0CE0101960E947B07882339F061E015
:101AE00088E10E94190486E992E0A8CF66EA72E0D4
:101AF000CE0101960E947B07882339F060E088E1DF
:101B00000E9419048FEA92E099CF6DEB72E0CE014A
:101B100001960E947B07882339F061E089E10E94E9
:101B2000190488EC92E08ACF68ED72E0CE0101964C
:101B30000E947B07882339F060E089E10E94190444
:101B400082EE92E07BCF60EF72E0CE0101960E94C0
:101B50007B07882339F061E08AE10E9419048BEF4A
:101B600092E06CCF6BE073E0CE0101960E947B07A0
:101B7000882339F060E08AE10E94190484E193E04F
:101B80005DCF62E273E0CE0101960E947B0788235D
:101B900039F061E08BE10E9419048DE293E04ECFB1
:101BA0006DE373E0CE0101960E947B07882339F034
:101BB00060E08BE10E94190486E493E03FCF64E586
:101BC00073E0CE0101960E947B07882339F061E023
:101BD0008CE10E9419048FE593E030CF6FE673E04B
:101BE000CE0101960E947B07882339F060E08CE1EA
:101BF0000E94190488E793E021CF66E873E0CE01E4
:101C000001960E947B07882339F061E08DE10E94F4
:101C1000190481E993E012CF61EA73E0CE010196E5
:101C20000E947B07882339F060E08DE10E9419044F
:101C30008AEA93E003CF68EB73E0CE0101960E943D
:101C40007B07882339F061E08EE10E94190483EC60
:101C500093E0F4CE63ED73E0CE0101960E947B0722
:101C6000882339F060E08EE10E9419048CED93E046
:101C7000E5CE6AEE73E0CE0101960E947B078823D1
:101C800009F452C00E949908CE0101960E94730780
:101C90000E943805882309F4BBC00E94F4016B013F
:101CA0007C010E9447062B013C01A7019601C70158
:101CB000B6010E94AD13882309F4B1C086E492E016
:101CC0000E94490780917B00877F80937B00B092C0
:101CD0007C0080917A00806480937A0080917A0001
:101CE00086FDFCCF8091780000917900102F082F9D
:101CF00064E670E080E090E00E9406058091830435
:101D0000909184048017910761F0109384040093EC
:101D1000830461E0053611050CF060E08FE10E945C
:101D200019040E94E80305CE66EF73E0CE01019628
:101D30000E947B07882319F00E944708A5CF6EEF09
:101D400073E0CE0101960E947B07882309F161E0D0
:101D500087E10E94190461E088E10E94190461E0B2
:101D600089E10E94190461E08AE10E94190461E09E
:101D70008BE10E94190461E08CE10E94190461E08A
:101D80008DE10E94190461E08EE10E9419047CCF6C
:101D90006DE074E0CE0101960E947B078823F1F08C
:101DA00060E087E10E94190460E088E10E94190464
:101DB00060E089E10E94190460E08AE10E94190450
:101DC00060E08BE10E94190460E08CE10E9419043C
:101DD00060E08DE10E94190460E0D6CF6AE174E012
:101DE000CE0101960E947B07882379F061E082E3AF
:101DF0000E94190460E083E30E94190464E670E025
:101E000080E090E00E9406053FCF80E294E016CE8D
:101E1000C12CD12C80ECE82E8FE7F82E42CFA30105
:101E20009201C301B2010E94AD13811147CF20E09E
:101E300030E040E252E4C301B2010E94DE1187FDAE
:101E40000BC020E030E040E752E4C301B2010E9441
:101E5000A81360E018160CF461E080E20E941904F7
:101E600020E030E048E951E4C701B6010E94DE11EC
:101E700087FD0BC020E030E048EC51E4C701B6011B
:101E80000E94A81360E018160CF461E081E20E9441
:101E9000190418CF8CE192E090933A0580933905AC
:101EA00080918104909182048953954071F4E0916E
:101EB0004C05F0914D05908180914E0580958923C8
:101EC000808310928204109281040895EF920F9300
:101ED0001F93CF93DF93E80134E047FD34E1042EF4
:101EE000000C550B57FF03C0519541955109E32E46
:101EF000022F242FAE010E94840FCE01DF91CF91DB
:101F00001F910F91EF9008958F929F92AF92BF9281
:101F1000CF92DF92EF92FF920F931F93CF93DF93B5
:101F200000D000D000D0CDB7DEB76A01F22EB02EBF
:101F3000102FFBE3AF2EA01608F41BE31F5F012F49
:101F400027E0AE014F5F5F4F0E94FD10BC01898109
:101F5000982F9970913009F44EC09BE2E1FC04C0C7
:101F60009E2D9170E0FC49C05E2D5071E82FE87005
:101F700083FF55C084E0911101C083E0EF2DE81B81
:101F80008F1508F0E0E0D6018E2F20E25523C9F12D
:101F9000992329F0D6019C93C60101966C01960104
:101FA0002D5F3F4FE2FE33C08EE4D6018C9391E467
:101FB00011969C93119712968C93D9018E2F90E2D3
:101FC00081112AC0E20FF32FF11D10828EEF9FEFD7
:101FD00029960FB6F894DEBF0FBECDBFDF91CF912B
:101FE0001F910F91FF90EF90DF90CF90BF90AF9037
:101FF0009F908F9008959DE2B7CF90E2B5CF2D933B
:1020000081508111FCCFCE0ED11CE0E0C1CF8EE615
:10201000D6018C9391E6CCCF9D938150D1CF482FA0
:10202000447082FF3DC084E0911101C083E08F15B0
:1020300010F4EF2DE81BD6018E2F20E2552309F175
:10204000992329F0D6019C93C60101966C01960153
:102050002D5F3F4FE2FE1BC089E4D6018C938EE4D6
:1020600011968C93119786E412968C93D9018E2F3A
:1020700090E2882309F4A6CF9D938150FACF2D9347
:1020800081508111FCCFCE0ED11CE0E0D9CF89E682
:10209000D6018C938EE611968C93119786E6E4CF49
:1020A0009B0177FF02C030E020E0A1E0B0E0911199
:1020B00002C0B0E0A0E0F9013196AE0FBF1F8B2C3B
:1020C000912CBB2009F461C05401EFEFAE1ABE0A97
:1020D000AA0DBB1DFA161B0619F014F04F2D4A1B52
:1020E000511188C0E3FC59C07601A42FB0E2A111C0
:1020F0004FC0C40ED11C992309F45BC040E0D60147
:102100001196F60190836D01552309F448C0012F03
:10211000060F9A81582F507184FF03C0913309F440
:10212000015010160CF047C0093008F008E0EEE24C
:10213000FE2E5B01A01AB10885019194819491084B
:102140002F3F320729F4D601FC92F60131966F0138
:102150006217730794F1021713077CF5DB01A21BCA
:10216000B30BAA24A394B12CAC0EBD1EAA0DBB1DAB
:1021700011968C9121503109D601119628153905F7
:10218000F4F0F60180836D01DBCFB12CA12CA0CF40
:10219000F701B1937F01A150AACF9111B0CFD60121
:1021A000942F50E302C05D9391509111FCCFC40E67
:1021B000D11C40E0ACCF01E0BACF80E3DBCF6217A7
:1021C000730731F4963388F4953311F4552369F08D
:1021D000F6018083FD01842F90E2811108C0A40FD5
:1021E000B11D1C9290E080E0F3CE81E3F1CF91939A
:1021F0008150F3CF911183CF8ACF283008F027E0A8
:102200003327DA01990F311D87FD91600096610532
:10221000710539F432602E5F3D9330E32A95E1F782
:1022200008959F3F30F080387105610509F03C5FEB
:102230003C5F3D93913008F08068911DDF93CF9310
:102240001F930F93FF92EF92192F987F9695E92F86
:1022500096959695E90FFF27E254FE4F992733276D
:10226000EE24FF24A701E70105900894079428F4C1
:10227000360FE71EF81E491F511D660F771F881F76
:10228000991F0694A1F70590079428F4E70EF81E0D
:10229000491F561FC11D770F881F991F661F06947F
:1022A000A1F70590079428F4F80E491F561FC71F81
:1022B000D11D880F991F661F771F0694A1F70590FF
:1022C000079420F4490F561FC71FD81F990F661F88
:1022D000771F881F0694A9F784911095177041F015
:1022E000D695C79557954795F794E7941A95C1F7F2
:1022F000E4E6F1E06894159015913591659195911A
:1023000005907FE27395E118F10A430B560BC90B58
:10231000D009C0F7E10CF11E431F561FC91FD01D85
:102320007EF4703311F48A95E6CFE894015030F0D2
:10233000080F0AF40027021708F4202F2395022F14
:102340007A3328F079E37D932A95E9F710C07D93DD
:102350002A9589F60694979567953795179517945A
:10236000E118F10A430B560BC90BD00998F02395DD
:102370007E9173957A3308F070E37C932013B8F75D
:102380007E9170617D9330F0839571E37D9370E36E
:102390002A95E1F71124EF90FF900F911F91CF91B3
:1023A000DF91992787FD9095089591110C94B112B2
:1023B000803219F089508550C8F708950E94201284
:1023C00008F481E00895E89409C097FB3EF49095E5
:1023D0008095709561957F4F8F4F9F4F9923A9F0FE
:1023E000F92F96E9BB279395F6958795779567958D
:1023F000B795F111F8CFFAF4BB0F11F460FF1BC0D1
:102400006F5F7F4F8F4F9F4F16C0882311F096E963
:1024100011C0772321F09EE8872F762F05C0662311
:1024200071F096E8862F70E060E02AF09A95660FCA
:10243000771F881FDAF7880F9695879597F9089583
:10244000990F0008550FAA0BE0E8FEEF16161706C5
:10245000E807F907C0F012161306E407F50798F02D
:10246000621B730B840B950B39F40A2661F0232B46
:10247000242B252B21F408950A2609F4A140A695C2
:102480008FEF811D811D08950E9457120C94CB126D
:102490000E94BD1238F00E94C41220F0952311F062
:1024A0000C94B4120C94BA1211240C94FF120E94D2
:1024B000DC1270F3959FC1F3950F50E0551F629F9A
:1024C000F001729FBB27F00DB11D639FAA27F00D8D
:1024D000B11DAA1F649F6627B00DA11D661F829FB4
:1024E0002227B00DA11D621F739FB00DA11D621F99
:1024F000839FA00D611D221F749F3327A00D611DB6
:10250000231F849F600D211D822F762F6A2F112497
:102510009F5750409AF0F1F088234AF0EE0FFF1FCA
:10252000BB1F661F771F881F91505040A9F79E3F21
:10253000510580F00C94B4120C94FF125F3FE4F349
:10254000983ED4F3869577956795B795F795E79577
:102550009F5FC1F7FE2B880F911D9695879597F980
:10256000089599278827089597F99F6780E870E074
:1025700060E008959FEF80EC089500240A941616F9
:10258000170618060906089500240A941216130661
:10259000140605060895092E0394000C11F48823EF
:1025A00052F0BB0F40F4BF2B11F460FF04C06F5F0B
:1025B0007F4F8F4F9F4F089557FD9058440F551FE1
:1025C00059F05F3F71F04795880F97FB991F61F0B5
:1025D0009F3F79F087950895121613061406551F2C
:1025E000F2CF4695F1DF08C0161617061806991F98
:1025F000F1CF86957105610508940895E894BB278D
:1026000066277727CB0197F908955058BB27AA274B
:102610000E941D130C94CB120E94BD1238F00E9430
:10262000C41220F039F49F3F19F426F40C94BA1226
:102630000EF4E095E7FB0C94B412E92F0E94DC1233
:1026400058F3BA17620773078407950720F079F4E7
:10265000A6F50C94FE120EF4E0950B2EBA2FA02DC9
:102660000B01B90190010C01CA01A0011124FF273F
:10267000591B99F0593F50F4503E68F11A16F0403A
:10268000A22F232F342F4427585FF3CF4695379539
:102690002795A795F0405395C9F77EF41F16BA0BFE
:1026A000620B730B840BBAF09150A1F0FF0FBB1FAC
:1026B000661F771F881FC2F70EC0BA0F621F731FF5
:1026C000841F48F4879577956795B795F7959E3F52
:1026D00008F0B0CF9395880F08F09927EE0F9795E3
:1026E000879508950E9479136894B1110C94FF1294
:1026F00008950E94E41288F09F5798F0B92F992707
:10270000B751B0F0E1F0660F771F881F991F1AF0DC
:10271000BA95C9F714C0B13091F00E94FE12B1E031
:1027200008950C94FE12672F782F8827B85F39F030
:10273000B93FCCF3869577956795B395D9F73EF475
:1027400090958095709561957F4F8F4F9F4F08951D
:102750000E94201208F48FEF08950E942012880B27
:10276000990B089597FB072E16F4009407D077FD78
:1027700009D00E94CE1307FC05D03EF490958195B8
:102780009F4F0895709561957F4F0895EE0FFF1F3D
:10279000881F8BBF0790F691E02D1994AA1BBB1BD5
:1027A00051E107C0AA1FBB1FA617B70710F0A61B51
:1027B000B70B881F991F5A95A9F780959095BC0172
:1027C000CD0108950F931F93CF93DF93823091052E
:1027D00010F482E090E0E0915A05F0915B0530E062
:1027E00020E0B0E0A0E0309799F42115310509F41C
:1027F0004AC0281B390B24303105D8F58A819B81CA
:102800006115710589F1FB0193838283FE0111C07B
:10281000408151810281138148175907E0F0481720
:10282000590799F4109761F012960C93129713962A
:102830001C933296CF01DF91CF911F910F91089594
:1028400000935A0510935B05F4CF2115310551F023
:102850004217530738F0A901DB019A01BD01DF01DE
:10286000F801C1CFEF01F9CF90935B0580935A0532
:10287000CDCFFE01E20FF31F8193919322503109D6
:1028800039832883D7CF2091580530915905232BC0
:1028900041F42091020230910302309359052093B4
:1028A000580520910002309101022115310541F4B3
:1028B0002DB73EB74091040250910502241B350B01
:1028C000E0915805F0915905E217F307A0F42E1B8B
:1028D0003F0B2817390778F0AC014E5F5F4F241784
:1028E000350748F04E0F5F1F509359054093580528
:1028F000819391939FCFF0E0E0E09CCFCF93DF9363
:102900000097E9F0FC01329713821282A0915A05D8
:10291000B0915B05ED0130E020E01097A1F420813B
:102920003181820F931F2091580530915905281746
:10293000390709F061C0F0935905E0935805DF911C
:10294000CF910895EA01CE17DF07E8F54A815B8150
:102950009E0141155105B1F7E901FB83EA834991D5
:102960005991C40FD51FEC17FD0761F48081918147
:102970000296840F951FE901998388838281938150
:102980009B838A83F0E0E0E012968D919C911397EF
:102990000097B9F52D913C911197CD010296820FC8
:1029A000931F20915805309159052817390739F69A
:1029B000309751F510925B0510925A05B093590566
:1029C000A0935805BCCFD383C28340815181840F2B
:1029D000951FC817D90761F44E5F5F4F88819981B1
:1029E000480F591F518340838A819B81938382833F
:1029F0002115310509F0B0CFF0935B05E0935A053E
:102A00009ECFFD01DC01C0CF13821282D7CF4F923F
:102A10005F926F927F928F929F92AF92BF92CF926E
:102A2000DF92EF92FF920F931F93CF93DF938C016E
:102A3000009799F4CB01DF91CF911F910F91FF90F7
:102A4000EF90DF90CF90BF90AF909F908F907F904E
:102A50006F905F904F900C94E213FC01E60FF71F0C
:102A60009C0122503109E217F30708F4AEC0D901E6
:102A7000CD91DC911197C617D70720F1C530D1054C
:102A800078F0CE0104978617970750F0C61BD70B36
:102A90002297C193D1936D937C93CF010E947E14B2
:102AA000C801DF91CF911F910F91FF90EF90DF90C0
:102AB000CF90BF90AF909F908F907F906F905F90DE
:102AC0004F9008955B01AC1ABD0A4C018C0E9D1EFF
:102AD000A0915A05B0915B05512C412CF12CE12CB1
:102AE000109731F5809158059091590588159905F1
:102AF00009F05CC04616570608F058C080910002E5
:102B000090910102009741F48DB79EB74091040265
:102B100050910502841B950BE817F90708F055C082
:102B2000F0935905E0935805F90171836083B8CF9C
:102B30008D919C91119712966C90129713967C90A0
:102B40001397A815B90559F56C0142E0C40ED11CC4
:102B5000CA14DB0420F1AC014A195B09DA011296B0
:102B6000159780F06282738251834083D9016D93FF
:102B70007C93E114F10471F0D7011396FC93EE936A
:102B800012978ECF22968C0F9D1FF901918380831F
:102B9000F301EFCFF0935B05E0935A0581CF481620
:102BA000590608F42C017D01D3019ACFCB010E9474
:102BB000E2137C01009749F0AE01B8010E94E815CC
:102BC000C8010E947E1487016BCF10E000E068CF3F
:102BD000FB01DC0102C001900D9241505040D8F73A
:102BE0000895FB01DC018D91019080190110D9F34A
:102BF000990B0895FB01DC0101900D920020E1F793
:102C0000089511E0C0ECD1E000E006C0802FFE0185
:102C10000E94C6132196011DC13CD10780E0080720
:062C2000A9F7F894FFCFB4
:102C260000005C058000000000007B03A502D202C4
:102C3600C8034303E102350300000000A906A5020C
:102C46003E07A80605071D0790060D0A0045727285
:102C56006F7220616C206C6565722048756D6564C5
:102C66006164006820004572726F7220616C206C8E
:102C760065657200742000656E63656E646572201A
:102C860031004C757A203120456E63656E64696447
:102C9600610041706167617220756E6F004C757AD4
:102CA6002031204170616761646100656E63656E05
:102CB6006465722032004C757A203220456E636559
:102CC6006E64696461004170616761722032004C14
:102CD600757A2032204170616761646100656E63B8
:102CE600656E6465722033004C757A203320456E1C
:102CF60063656E64696461006C417061676172202E
:102D060033004C757A20332041706167616461003D
:102D1600656E63656E6465722034004C757A203486
:102D260020456E63656E6469646100417061676128
:102D3600722034004C757A203420417061676164DA
:102D46006100656E63656E6465722035004C757A48
:102D5600203520456E63656E64696461004170616B
:102D66006761722035004C757A20352041706167A5
:102D760061646100656E63656E6465722036004C41
:102D8600757A203620456E63656E6469646100411C
:102D960070616761722036004C757A20362041706A
:102DA600616761646100656E63656E646572203794
:102DB600004C757A203720456E63656E64696461E0
:102DC600004170616761722037004C757A203720A8
:102DD6004170616761646100656E63656E6465720A
:102DE6002038004C757A203820456E63656E64691C
:102DF6006461004170616761722038004C757A2009
:102E06003820417061676164610074656D70657238
:102E160061747572610068756D6564616400656EE4
:102E260063656E64657220746F64617300417061DE
:102E360067617220746F6461730061627269720007
:102E4600436F6D616E646F206E6F207265636F6E87
:062E56006F6369646F0068
:00000001FF
