:100000000C9444010C9475010C9475010C947501C9
:100010000C9475010C9475010C9475010C94750188
:100020000C9475010C94C6070C94C6070C94C60773
:100030000C9475010C9475010C9475010C94750168
:100040000C9475010C9475010C9475010C94750158
:100050000C9475010C9475010C9475010C947C073B
:100060000C9475010C9446070C941C070C947501B4
:100070000C9475010C9475010C9475010C94750128
:100080000C9475010C9475010C9475010C94750118
:100090000C9475010C9475010C9475010C94750108
:1000A0000C9475010C9475010C9475010C947501F8
:1000B0000C9475010C9475010C9475010C947501E8
:1000C0000C9475010C9475010C9475010C947501D8
:1000D0000C9475010C9475010C9475010C947501C8
:1000E0000C9475010C941E040C94B8020C946402D8
:1000F0000C9414040C9418040C94F8030C94060447
:100100000C94A7090C9455020C946C0F0C942C06BB
:100110000C94CC030C9413060C94F2030C94C106BB
:100120000C94EB030C94E7030C94FE020C940A0469
:100130000C94A0060C94EF030C9422040C94E3039B
:100140000C9488060C9410040C94C6020C94D103F1
:100150000C944B030C942B060C94FC030C9402049B
:100160000C94280200002100240027002A002D0002
:100170003000330001010000040107010A01000002
:100180000A0B02090C0D0E08070304010000000011
:10019000000000000000000000000000000000005F
:1001A000000000000000000000001211100000001C
:1001B000000000000000000000000000000000003F
:1001C00000000000000020002300260029002C0071
:1001D0002F003200000100000301060109010000A8
:1001E0002200250028002B002E00310034000201DF
:1001F0000000050108010B010505050507050808B4
:100200000808020202020A0A0808040404040101A0
:1002100001010101010103030303030303030407B5
:1002200007070C0C0C0C0C0C0C0C0202020206064C
:100230000606060606060B0B0B0B0B0B0B0B01023F
:1002400010202008081020401020408002010201E8
:1002500008040201010204081020408080402010A0
:1002600008040201800402018040201008040201F9
:100270000804020101020408102040800102040861
:1002800010204080A7096C0F11241FBECFEFD1E2D0
:10029000DEBFCDBF00E00CBF25E0A4E4B4E001C0A8
:1002A0001D92A636B207E1F714E0A0E0B2E0E6EA5C
:1002B000F8E200E00BBF02C007900D92A434B10732
:1002C000D9F711E0C3E4D1E000E006C021970109AD
:1002D000802FFE010E940612C234D10780E0080779
:1002E000A9F70E946C0A0C9441140C940000CF9260
:1002F000DF92EF92FF92CF93809136058C3009F414
:100300004FC038F48B30F1F060E070E080EC9FE794
:1003100041C085518230C0F7C09132056C2F70E02A
:10032000762F662766277F7780913305682B90E0CC
:1003300080E00E94960F2DEC3CEC4CEC5DE30E94BB
:10034000F70F4AC06091320570E090E080E00E94B3
:10035000960F6B017C01C0913305C7FF0AC0AC0149
:100360009B0160E070E080E89FEB0E94B8106B0199
:100370007C01CF706C2F70E090E080E00E94980FBD
:100380002DEC3CEC4CEC5DE30E94F70FA7019601CD
:100390000E94B910CF91FF90EF90DF90CF90089519
:1003A000C09132056C2F70E090E080E00E94960FC3
:1003B0006B017C01609133056F7070E090E080E02C
:1003C0000E94980F2DEC3CEC4CEC5DE30E94F70F83
:1003D000A70196010E94B910C7FFDCCF9058DACF71
:1003E000CF92DF92EF92FF92CF93DF93B0913705D8
:1003F000A0E08111AB2F8091380590E0880F991F04
:10040000AC014C535E4FC0903D05D0903E05E0904E
:100410003F05F090400530E020E0FA01C591D4910D
:10042000E881B90190E080E0EB23EA130AC02F5F76
:100430003F4F6C157D058E059F0578F36FEF7FEFBD
:10044000CB01DF91CF91FF90EF90DF90CF90089597
:10045000AF92BF92CF92DF92EF92FF920F931F93D2
:10046000CF93DF936C017B018B01040F151FEB0110
:100470005E01AE18BF08C017D10759F06991D601C7
:10048000ED91FC910190F081E02DC6011995892B29
:1004900079F7C501DF91CF911F910F91FF90EF90F8
:1004A000DF90CF90BF90AF900895FC01538D448DA5
:1004B000252F30E0842F90E0821B930B541710F00F
:1004C000CF96089501970895FC01918D828D98171C
:1004D00061F0A28DAE0FBF2FB11D5D968C91928DF4
:1004E0009F5F9F73928F90E008958FEF9FEF089525
:1004F0002FB7F89480918F0490919004A09191046B
:10050000B09192042FBF80939B0490939C04A0937E
:100510009D04B0939E0483E994E00E94640297FFD7
:1005200026C02FB7F89480918F0490919004A091E9
:100530009104B09192042FBF40919B0450919C0470
:1005400060919D0470919E04841B950BA60BB70BC4
:1005500040919704509198046091990470919A0485
:1005600084179507A607B707B0F28FEF9FEF08959E
:10057000FC01918D828D981731F0828DE80FF11D6D
:10058000858D90E008958FEF9FEF0895FC01918D88
:10059000228D892F90E0805C9F4F821B91098F7381
:1005A0009927089583E994E00E94C60221E0892BEF
:1005B00009F420E0822F0895FC01A48DA80FB92F23
:1005C000B11DA35ABF4F2C91848D90E001968F737B
:1005D0009927848FA689B7892C93A089B1898C919A
:1005E000837080648C93938D848D981306C00288E9
:1005F000F389E02D80818F7D80830895EF92FF92B3
:100600000F931F93CF93DF93EC0181E0888F9B8D35
:100610008C8D98131AC0E889F989808185FF15C0EF
:100620009FB7F894EE89FF896083E889F989808112
:100630008370806480839FBF81E090E0DF91CF91E1
:100640001F910F91FF90EF900895F62E0B8D10E003
:100650000F5F1F4F0F731127E02E8C8D8E110CC072
:100660000FB607FCFACFE889F989808185FFF5CFBD
:10067000CE010E94DC02F1CFEB8DEC0FFD2FF11DBE
:10068000E35AFF4FF0829FB7F8940B8FEA89FB89FA
:1006900080818062CFCFCF93DF93EC01888D882358
:1006A000B9F0AA89BB89E889F9898C9185FD03C0D5
:1006B000808186FD0DC00FB607FCF7CF8C9185FFBA
:1006C000F2CF808185FFEDCFCE010E94DC02E9CF21
:1006D000DF91CF91089580E090E0892B29F00E946E
:1006E000D20281110E94000080E090E0892B49F045
:1006F00080E090E0892B29F00E94000081110E9487
:10070000000080E090E0892B49F080E090E0892BA8
:1007100029F00E94000081110E94000080E090E01A
:10072000892B49F080E090E0892B29F00E9400009D
:1007300081110C9400000895282F30E0F901E2584F
:10074000FE4F9491F901E25CFD4F449128503E4FD9
:10075000F9012491222309F435C0992311F1915014
:100760009231F8F4E92FF0E08827E654FC4F8F4FE0
:100770000C940612EB03EF03CC03E303E703D1036E
:10078000F203F803FC03020406040A041004140430
:10079000D10318041E042204809180008F77809377
:1007A0008000E22FF0E0EE0FFF1FE252FE4FA59116
:1007B000B4918FB7F894EC91611148C040954E23E5
:1007C0004C938FBF0895809180008F7DE8CF8091FA
:1007D0008000877FE4CF84B58F7784BDE2CF84B576
:1007E0008F7DFBCF8091B0008F778093B000D9CF01
:1007F0008091B0008F7DF9CF809190008F778093AA
:100800009000CFCF809190008F7DF9CF80919000A4
:10081000877FF5CF8091A0008F778093A000C1CF14
:100820008091A0008F7DF9CF8091A000877FF5CFC8
:10083000809120018F7780932001B3CF8091200198
:100840008F7DF9CF80912001877FF5CF4E2BB8CFD8
:10085000CF93DF9390E0FC01E25CFD4F2491885040
:100860009E4FFC0184918823C9F090E0880F991F66
:10087000FC01EC59FE4FA591B491FC01E252FE4FF0
:10088000C591D49161110DC09FB7F8948C912095BA
:1008900082238C938881282328839FBFDF91CF9167
:1008A0000895623051F49FB7F8943C91822F80955F
:1008B00083238C93E8812E2BEFCF8FB7F894EC91A4
:1008C0002E2B2C938FBFEACF3FB7F89480918504ED
:1008D00090918604A0918704B091880426B5A89BC6
:1008E00005C02F3F19F00196A11DB11D3FBFBA2FC2
:1008F000A92F982F8827BC01CD01620F711D811D82
:10090000911D42E0660F771F881F991F4A95D1F706
:1009100008958F929F92AF92BF92CF92DF92EF9203
:10092000FF924B015C010E9464046B017C010E94F8
:1009300064046C197D098E099F09683E7340810526
:100940009105A8F321E0821A9108A108B10888EE68
:10095000C80E83E0D81EE11CF11C81149104A1048F
:10096000B10429F7FF90EF90DF90CF90BF90AF9048
:100970009F908F900895CF92DF92EF92FF920F9306
:100980001F93CF93DF93CDB7DEB7C054D1400FB6DE
:10099000F894DEBF0FBECDBF2FB7F89480918F04BF
:1009A00090919004A0919104B09192042FBF409136
:1009B000390550913A0560913B0570913C058C01D9
:1009C0009D01041B150B260B370BB901A801403DF7
:1009D00057406105710590F480914105C05CDE4F80
:1009E0000FB6F894DEBF0FBECDBFDF91CF911F9140
:1009F0000F91FF90EF90DF90CF900895809339058D
:100A000090933A05A0933B05B0933C0510923405B2
:100A10001092330510923205109231051092300574
:100A200062E0809135050E94280461E070E080E07A
:100A300090E00E94890461E0809135050E942804BD
:100A400060E0809135050E949C03809136058551B8
:100A5000823020F58BE291E10197F1F762E080911D
:100A600035050E9428048091420590E0823091056E
:100A700038F0880F991F880F991F05970197F1F794
:100A8000F89480E00E94F0016F3F7F4F8F4F9F4F9F
:100A900061F410924105789480E0A0CF64E170E0A9
:100AA00080E090E00E948904D9CF81E00E94F001AB
:100AB0006F3F7F4F8F4F9F4F61F38E010F5F1F4F2F
:100AC0006E018FEBC81A8EEFD80A780180E00E9481
:100AD000F001F701608371838283938381E00E9438
:100AE000F001F7016483758386839783F8E0EF0E46
:100AF000F11CEC14FD0451F7789430E020E0F8018B
:100B0000C080D180E280F380448155816681778105
:100B1000FFEFCF16DF06EF06FF0631F04F3F8FEFF6
:100B200058076807780719F410924105B5CFF90105
:100B300083E0F595E7958A95E1F7E05DFA4F8081CE
:100B4000880FC416D506E606F70610F180832F5FDE
:100B50003F4F085F1F4F2832310589F64091340519
:100B60002091300580913105280F3327331F809164
:100B70003205280F311D80913305820F932F911D6F
:100B800099274817190681F681E08093410526CF01
:100B90008160DCCFCF92DF92EF92FF920E94BB0484
:100BA000882349F0809136058B3028F08D3040F055
:100BB0008551823030F160E070E080EC9FE71CC02E
:100BC0006091310570E090E080E00E94980F2DEC7C
:100BD0003CEC4CEC5DE30E94F70F6B017C016091F3
:100BE000300570E090E080E00E94980F9B01AC011E
:100BF000C701B6010E94B910FF90EF90DF90CF902F
:100C00000895609130057091310576276727762722
:100C100090E080E00E94960F2DEC3CEC4CEC5DE304
:100C20000E94F70FE9CF20918B0430918C04281794
:100C3000390771F49091890480918A04981741F0E2
:100C4000E0918904F0E0EC5BFB4F808190E0089537
:100C50008FEF9FEF08950895EF92FF920F931F93E8
:100C6000CF93DF93DC015C96ED90FC905D97E114EF
:100C7000F10479F481E090E013969C938E9312979F
:100C800090E080E0DF91CF911F910F91FF90EF9066
:100C900008955196ED91FC91529750968C915097F2
:100CA000982F90950FB75E962C915E97122F127029
:100CB00021FD6095F8942081112319F1282B2083C0
:100CC000E7012197F1F728E0462F50E0308160FFDF
:100CD0001AC0382B3083E7012197F1F7BA017595D7
:100CE0006795215089F7112381F0808189238083C2
:100CF0000FBF5C968D919C910197F1F781E090E098
:100D0000C1CF2923DCCF3923E5CF9081892BEFCFC9
:100D100020918B0430918C042817390771F480914D
:100D20008A042091890490E0805C9F4F821B910986
:100D300060E470E00E94D011089590E080E0089592
:100D400020918B0430918C0428173907B9F49091C5
:100D5000890480918A04981789F0E0918904F0E071
:100D6000EC5BFB4F80812091890430E02F5F3F4F87
:100D70002F7333272093890490E008958FEF9FEF1E
:100D8000089590E080E00895FC0101900020E9F7CB
:100D90003197AF01481B590BBC0183E994E00C94D7
:100DA0002802CF93DF930E94C406EC018AE292E00E
:100DB0000E94C4068C0F9D1FDF91CF910895FC0106
:100DC00024813581232B39F421E0FB0180818823A4
:100DD00049F020E007C0808191810E94311421E018
:100DE000892BB9F7822F08950F931F93CF93DF9329
:100DF000EC0188819981009759F02A813B8126175F
:100E0000370730F081E0DF91CF911F910F91089566
:100E10008B016F5F7F4F0E944713009759F09983B2
:100E200088831B830A832C813D81232B59F7FC0186
:100E30001082E8CF80E0E7CF1F920F920FB60F929B
:100E400011240BB60F922F933F934F935F936F93A1
:100E50007F938F939F93AF93BF93EF93FF9383E918
:100E600094E00E94DC02FF91EF91BF91AF919F91BE
:100E70008F917F916F915F914F913F912F910F9043
:100E80000BBE0F900FBE0F901F9018951F920F92E0
:100E90000FB60F9211240BB60F922F938F939F933F
:100EA000EF93FF93E091A304F091A4048081E0917B
:100EB000A904F091AA0482FD1DC090818091AC0428
:100EC0008F5F8F732091AD04821741F0E091AC04E5
:100ED000F0E0ED56FB4F958F8093AC04FF91EF91BE
:100EE0009F918F912F910F900BBE0F900FBE0F907F
:100EF0001F9018958081F2CF1F920F920FB60F921C
:100F000011242F933F938F939F93AF93BF9380911F
:100F10008F0490919004A0919104B091920430912B
:100F2000840423E0230F2D3758F50196A11DB11D30
:100F30002093840480938F0490939004A093910451
:100F4000B09392048091850490918604A0918704C7
:100F5000B09188040196A11DB11D809385049093E2
:100F60008604A0938704B0938804BF91AF919F91AA
:100F70008F913F912F910F900FBE0F901F9018955A
:100F800026E8230F0296A11DB11DD2CF1F920F920A
:100F90000FB60F9211240BB60F922F933F934F93DE
:100FA0005F936F937F938F939F93AF93BF93EF93D1
:100FB000FF93E0918B04F0918C04309749F0A68563
:100FC000B7858585968D91FF16C09C918923B1F4D4
:100FD000FF91EF91BF91AF919F918F917F916F9111
:100FE0005F914F913F912F910F900BBE0F900FBECD
:100FF0000F901F9018959C91892351F7A389B4896C
:101000009C918589809589238C93868997890197FE
:10101000F1F7608D718DA685B785558538E020E0A4
:10102000CB010197F1F7822F90E095958795282FB6
:101030004C91452309F02068315091F7868D81FD50
:10104000209580918A0490E001968F7399273091C2
:101050008904381799F0A0918A04B0E0AC5BBB4FCB
:101060002C9380938A04828D938D0197F1F7A38945
:10107000B4898C919589892B8C93AACF868D8160B8
:10108000868FF1CFCF92DF92EF92FF920F931F9353
:10109000E82FF92F05C0015011092109310961F12B
:1010A000908196239417B9F305C0015011092109C5
:1010B000310911F1908196239413F7CFC12CD12CD3
:1010C000E12CF12C0AC08FEFC81AD80AE80AF80AF6
:1010D0000C151D052E053F0579F0808186238417A8
:1010E00091F36C2D7D2D8E2D9F2D1F910F91FF90D3
:1010F000EF90DF90CF90089560E070E080E090E0A6
:101100001F910F91FF90EF90DF90CF9008958F92F5
:101110009F92AF92BF920F931F93CF93DF93CDB760
:10112000DEB7A1970FB6F894DEBF0FBECDBF19A2F0
:10113000423008F44AE08E010F5D1F4F842E912C3F
:10114000B12CA12CA50194010E94E411E62FB90154
:10115000CA01EA30F4F4E05DD801EE938D01232B4F
:10116000242B252B79F790E080E0109719F0CD0122
:101170000E94C406A1960FB6F894DEBF0FBECDBF85
:10118000DF91CF911F910F91BF90AF909F908F9063
:101190000895E95CE1CF4F925F926F927F928F92B8
:1011A0009F92AF92BF92CF92DF92EF92FF920F93F6
:1011B0001F93CF936B017C01742EAC019B010E94A5
:1011C000CB11882399F08DE292E0CF911F910F917E
:1011D000FF90EF90DF90CF90BF90AF909F908F9057
:1011E0007F906F905F904F900C94C406460157011A
:1011F000E894B7F82FEF3FEF4FE75FE7C501B40181
:101200000E94CB1181110DC02FEF3FEF4FE75FE739
:10121000C501B4010E94910F18161CF481E392E0FD
:10122000D4CF2FEF3FEF4FE75FE4C701B6010E9435
:10123000C61118161CF485E392E0C7CF2FEF3FEFDD
:101240004FE75FECC701B6010E94910F87FDF3CF16
:1012500020E030E0A901C701B6010E94910F10E023
:1012600000E087FF0AC06DE283E994E00E94FE027D
:101270008C01F7FAF094F7F8F094C0E060E070E0C9
:1012800080E09FE37C1641F020E030E040E251E452
:101290000E942511CF5FF6CFA70196010E94B910D9
:1012A0002B013C010E9497114B015C014AE00E9416
:1012B00087087C01E00EF11ECC23C1F1C501B40109
:1012C0000E94960F9B01AC01C301B2010E94B810AD
:1012D0004B015C016EE283E994E00E94FE02E80E9D
:1012E000F91EC15018F120E030E040E251E4C501A0
:1012F000B4010E94F70F2B013C010E9497114B0192
:10130000B12CA12C4AE0C501B4010E948708E80E67
:10131000F91EC501B4010E94960F9B01AC01C301E7
:10132000B2010E94B8104B015C01DBCFC701CF9125
:101330001F910F91FF90EF90DF90CF90BF90AF90F3
:101340009F908F907F906F905F904F900895109234
:1013500096041092950488EE93E0A0E0B0E08093AC
:10136000970490939804A0939904B0939A042AE068
:1013700032E0309394042093930425EC30E03093D2
:10138000A00420939F0424EC30E03093A204209327
:10139000A10420EC30E03093A4042093A30421ECBA
:1013A00030E03093A6042093A50422EC30E0309383
:1013B000A8042093A70426EC30E03093AA042093DD
:1013C000A9041092AC041092AD041092AE041092D5
:1013D000AF041092460510924505809347059093FF
:1013E0004805A0934905B0934A058CE192E090939B
:1013F00044058093430510925A05109259051092A6
:101400005C0510925B0510925E0510925D051092CE
:10141000600510925F05609161056E7F6D7F60933E
:1014200061056695617081E068270E949C0361E018
:1014300081E00E942804EFE3F2E0E491E093530599
:10144000E9EFF1E0E491F0E0EE0FFF1FE252FE4F12
:1014500085919491909355058093540560E080E0C8
:101460000E9428048091610581FD04C061E080E054
:101470000E949C0310924F05EEE3F2E0E491E093AA
:101480005005E8EFF1E0E491F0E0EE0FFF1FEC53C0
:10149000FE4F85919491909352058093510586E17A
:1014A000809335058BE080933605E4E5F2E0E49126
:1014B000E0933705EEE0F2E0E491E093380580E850
:1014C0009EE3A0E0B0E080933D0590933E05A0939D
:1014D0003F05B09340050895CF93DF9300D000D02F
:1014E0001F921F92CDB7DEB7789484B5826084BD19
:1014F00084B5816084BD85B5826085BD85B5816018
:1015000085BD80916E00816080936E001092810095
:101510008091810082608093810080918100816050
:101520008093810080918000816080938000809111
:10153000B10084608093B1008091B000816080939D
:10154000B000809191008260809391008091910021
:1015500081608093910080919000816080939000E1
:101560008091A10082608093A1008091A1008160A0
:101570008093A1008091A00081608093A000809161
:1015800021018260809321018091210181608093FB
:1015900021018091200181608093200180917A0057
:1015A000846080937A0080917A00826080937A00D0
:1015B00080917A00816080937A0080917A008068BF
:1015C00080937A001092C100E091A304F091A404EA
:1015D00082E08083E0919F04F091A0041082E0916A
:1015E000A104F091A2048FEC80831092AB04E091EF
:1015F000A704F091A80486E08083E091A504F0910F
:10160000A604808180618083E091A504F091A60406
:10161000808188608083E091A504F091A604808198
:1016200080688083E091A504F091A60480818F7D7D
:10163000808310925E0510925D0510925C051092F9
:101640005B0510925A05109259058DE991E090932F
:10165000600580935F0580914F0596EF980F943059
:1016600048F02EEC280F243028F022EC280F2830E8
:1016700008F061C02DEB30E030935A0520935905F6
:101680002BE931E030935C0520935B052CE231E0DF
:1016900030935E0520935D05943050F02EEC280FBA
:1016A000243030F022EC280FF0E0E0E0283010F495
:1016B000E8E6F0E02081943028F032EC380F383042
:1016C00008F463C131E0232B943048F09EEC980F6E
:1016D000943028F08E53F0E0E0E0883010F4E8E633
:1016E000F0E0208320914F0536EF320F343008F4BC
:1016F0004EC18EEC820F843008F449C182EC820F17
:10170000883008F447C190E080E0909357058093BB
:101710005605343008F041C12650330B81E001C03A
:10172000880F2A95EAF78093580580915F0590917C
:1017300060050197F1F780915D0590915E05892B19
:1017400049F1E0918B04F0918C0485E0E334F807D3
:1017500009F1309739F0A389B4899C9185898095E6
:1017600089238C93809161058E7F8093610510920F
:101770008A041092890483E495E090938C0480930A
:101780008B04E0915605F0915705808190915805A2
:10179000892B808362E0809135050E9428042FB751
:1017A000F89480918F0490919004A0919104B0914D
:1017B00092042FBF805D9740A109B109809339053C
:1017C00090933A05A0933B05B0933C0587E3809343
:1017D000420561E087E10E94280461E088E10E94FF
:1017E000280461E089E10E94280461E08AE10E9406
:1017F000280461E08BE10E94280461E08CE10E94F2
:10180000280461E08DE10E94280461E08EE10E94DD
:10181000280461E085E30E94280460E084E30E94DC
:10182000280461E083E30E94280461E082E30E94CF
:10183000280461E080E20E94280461E081E20E94C5
:10184000280461E082E30E949C0361E08FE10E9432
:10185000280423E0622E712C32E7232E32E0332E4F
:101860004CE2442E42E0542E68EE73E080E090E0BB
:101870000E94890460E085E30E949C03C3010197F4
:10188000F1F761E085E30E949C0383E290E0019719
:10189000F1F760E085E30E949C03F1016491F2019D
:1018A0008491E82FF0E0EE0FFF1FEC53FE4F85917F
:1018B000949100E412E42FE030E0462F0E944208A9
:1018C0006B017C01C114D104E104F10439F0FFEF94
:1018D000CF1ADF0AEF0AFF0A8FE0F82264E670E011
:1018E00080E090E00E948904EEE9CE16E4E1DE0695
:1018F000E104F10440F460E082E30E949C0361E0B3
:1019000083E30E949C0383E994E00E94C602892B32
:1019100009F4DCC11A8219821C821B821E821D827C
:1019200070E060E0CE0101960E94F40629813A81C0
:10193000811148C02115310519F0C9010E94BE125C
:101940001A8219821E821D821C821B820E947802CA
:1019500097FD40C08F8318860D811E810F5F1F4F3A
:10196000B801CE0101960E94F406882379F32981FB
:101970003A818D819E81BE01695F7F4F820F931FE7
:101980000E943A141E830D83E1CF34E09CCE8BE697
:1019900090E0BBCE8DE690E0B8CE88E0223309F42B
:1019A000C2CE84E0233309F4BECE82E0243309F4AE
:1019B000BACE82EC820F883018F42E53330BAECEA1
:1019C00081E0B1CE1E821D826CE272E0C9010E94EC
:1019D0003A14BCCFC980DA80C114D10431F00D8132
:1019E0001E8176010115110599F469E372E0CE01BB
:1019F00001960E94DF06882309F440C061E087E178
:101A00000E949C0384E492E00E94D10659C17401B3
:101A10004701FFEF8F1A9F0AF7018081082E000C03
:101A2000990B0E94880F892B91F7015011090C0D19
:101A30001D1DF8018081082E000C990B0E94880F53
:101A4000892B31F00E151F0518F001501109F1CF47
:101A50000F5F1F4FA8014E195F095E834D83CE149F
:101A6000DF0420F4B701C6010E942814E981FA813D
:101A70008D819E81E80FF91F1082B7CF64E572E077
:101A8000CE0101960E94DF06882339F060E087E1ED
:101A90000E949C038FE592E0B7CF6DE672E0CE0125
:101AA00001960E94DF06882339F061E088E10E94F8
:101AB0009C0388E792E0A8CF68E872E0CE01019627
:101AC0000E94DF06882339F060E088E10E949C03D1
:101AD00081E992E099CF6FE972E0CE0101960E9410
:101AE000DF06882339F061E089E10E949C038AEADD
:101AF00092E08ACF6AEB72E0CE0101960E94DF0687
:101B0000882339F060E089E10E949C0384EC92E034
:101B10007BCF62ED72E0CE0101960E94DF06882342
:101B200039F061E08AE10E949C038DED92E06CCF78
:101B30006DEE72E0CE0101960E94DF06882339F037
:101B400060E08AE10E949C0386EF92E05DCF64E052
:101B500073E0CE0101960E94DF06882339F061E030
:101B60008BE10E949C038FE093E04ECF6FE173E026
:101B7000CE0101960E94DF06882339F060E08BE1F8
:101B80000E949C0388E293E03FCF66E373E0CE01BE
:101B900001960E94DF06882339F061E08CE10E9403
:101BA0009C0381E493E030CF61E573E0CE010196C0
:101BB0000E94DF06882339F060E08CE10E949C03DC
:101BC0008AE593E021CF68E673E0CE0101960E949A
:101BD000DF06882339F061E08DE10E949C0383E7F2
:101BE00093E012CF63E873E0CE0101960E94DF0616
:101BF000882339F060E08DE10E949C038CE893E03B
:101C000003CF6AE973E0CE0101960E94DF068823C4
:101C100039F061E08EE10E949C0385EA93E0F4CE06
:101C200065EB73E0CE0101960E94DF06882339F050
:101C300060E08EE10E949C038EEB93E0E5CE6CECBD
:101C400073E0CE0101960E94DF06882389F00E948E
:101C5000BB04882351F00E9477016B017C01AC0129
:101C60009B010E94CB11882311F188ED93E0CCCE2B
:101C700066EE73E0CE0101960E94DF06882309F428
:101C800072C00E94CA056B017C01AC019B010E94DD
:101C9000CB11882319F08EEE93E0B6CE20E030E031
:101CA000A901C701B6010E94910F882349F042E0C3
:101CB000C701B6010E94CB088AE292E00E94C406E6
:101CC00089819A81009711F00E94BE120E94BB0484
:101CD000882309F4BFC00E9477016B017C010E9438
:101CE000CA054B015C01A7019601C701B6010E941C
:101CF000CB11882309F4B5C088ED93E00E94D1068A
:101D000080917B00877F80937B00F0E4F0937C00E0
:101D100080917A00806480937A0080917A0086FDB9
:101D2000FCCF8091780000917900102F082F64E695
:101D300070E080E090E00E94890480918D04909191
:101D40008E048017910761F010938E0400938D0428
:101D500061E0053611050CF060E08FE10E949C0304
:101D60000E946B0381CD64E074E0CE0101960E9475
:101D7000DF06882309F161E087E10E949C0361E0AE
:101D800088E10E949C0361E089E10E949C0361E07C
:101D90008AE10E949C0361E08BE10E949C0361E068
:101DA0008CE10E949C0361E08DE10E949C0361E054
:101DB0008EE10E949C0384CF63E174E0CE01019622
:101DC0000E94DF068823F1F060E087E10E949C0317
:101DD00060E088E10E949C0360E089E10E949C032E
:101DE00060E08AE10E949C0360E08BE10E949C031A
:101DF00060E08CE10E949C0360E08DE10E949C0306
:101E000060E0D6CF60E274E0CE0101960E94DF066A
:101E1000882379F061E082E30E949C0360E083E321
:101E20000E949C0364E670E080E090E00E948904D8
:101E300047CF66E274E0CE0101960E94DF06882358
:101E400031F060E082E30E949C0361E0E8CF8DE224
:101E500094E0DACDC12CD12C80ECE82E8FE7F82E5F
:101E60003ECFA5019401C501B4010E94CB1181119F
:101E700043CF20E030E040E252E4C501B4010E94CB
:101E8000910F87FD0BC020E030E040E752E4C50130
:101E9000B4010E94C61160E018160CF461E080E203
:101EA0000E949C0320E030E048E951E4C701B601FC
:101EB0000E94910F87FD0BC020E030E048EC51E418
:101EC000C701B6010E94C61160E018160CF461E06B
:101ED00081E20E949C0314CF8CE192E09093440530
:101EE0008093430580918B0490918C04835495409A
:101EF00071F4E0915605F091570590818091580555
:101F000080958923808310928C0410928B0408950D
:101F100091110C946410803219F089508550C8F7E3
:101F200008950E94D30F08F481E00895E89409C051
:101F300097FB3EF490958095709561957F4F8F4FFC
:101F40009F4F9923A9F0F92F96E9BB279395F69512
:101F5000879577956795B795F111F8CFFAF4BB0F90
:101F600011F460FF1BC06F5F7F4F8F4F9F4F16C0F4
:101F7000882311F096E911C0772321F09EE8872F7E
:101F8000762F05C0662371F096E8862F70E060E03A
:101F90002AF09A95660F771F881FDAF7880F9695B3
:101FA000879597F90895990F0008550FAA0BE0E857
:101FB000FEEF16161706E807F907C0F0121613060B
:101FC000E407F50798F0621B730B840B950B39F44B
:101FD0000A2661F0232B242B252B21F408950A26B1
:101FE00009F4A140A6958FEF811D811D08950E94DF
:101FF0000A100C947E100E94701038F00E94771026
:1020000020F0952311F00C9467100C946D1011249E
:102010000C94B2100E948F1070F3959FC1F3950F2E
:1020200050E0551F629FF001729FBB27F00DB11D5C
:10203000639FAA27F00DB11DAA1F649F6627B00DEC
:10204000A11D661F829F2227B00DA11D621F739FD5
:10205000B00DA11D621F839FA00D611D221F749FE3
:102060003327A00D611D231F849F600D211D822F2A
:10207000762F6A2F11249F5750409AF0F1F0882351
:102080004AF0EE0FFF1FBB1F661F771F881F91507E
:102090005040A9F79E3F510580F00C9467100C94B6
:1020A000B2105F3FE4F3983ED4F386957795679539
:1020B000B795F795E7959F5FC1F7FE2B880F911DA8
:1020C0009695879597F9089599278827089597F900
:1020D0009F6780E870E060E008959FEF80EC0895CE
:1020E00000240A94161617061806090608950024F7
:1020F0000A9412161306140605060895092E039471
:10210000000C11F4882352F0BB0F40F4BF2B11F4E4
:1021100060FF04C06F5F7F4F8F4F9F4F089557FD43
:102120009058440F551F59F05F3F71F04795880F45
:1021300097FB991F61F09F3F79F0879508951216DC
:1021400013061406551FF2CF4695F1DF08C0161688
:1021500017061806991FF1CF869571056105089439
:102160000895E894BB2766277727CB0197F9089550
:102170005058BB27AA270E94D0100C947E100E94B2
:10218000701038F00E94771020F039F49F3F19F456
:1021900026F40C946D100EF4E095E7FB0C94671098
:1021A000E92F0E948F1058F3BA176207730784074C
:1021B000950720F079F4A6F50C94B1100EF4E09593
:1021C0000B2EBA2FA02D0B01B90190010C01CA01F1
:1021D000A0011124FF27591B99F0593F50F4503E9C
:1021E00068F11A16F040A22F232F342F4427585F8E
:1021F000F3CF469537952795A795F0405395C9F7A6
:102200007EF41F16BA0B620B730B840BBAF091505D
:10221000A1F0FF0FBB1F661F771F881FC2F70EC0FC
:10222000BA0F621F731F841F48F4879577956795CF
:10223000B795F7959E3F08F0B0CF9395880F08F0BB
:102240009927EE0F9795879508950E9439110C9460
:102250007E100E94771058F00E94701040F029F410
:102260005F3F29F00C94671051110C94B2100C943C
:102270006D100E948F1068F39923B1F3552391F3E9
:10228000951B550BBB27AA2762177307840738F0E5
:102290009F5F5F4F220F331F441FAA1FA9F335D042
:1022A0000E2E3AF0E0E832D091505040E695001CF6
:1022B000CAF72BD0FE2F29D0660F771F881FBB1FB0
:1022C000261737074807AB07B0E809F0BB0B802D8E
:1022D000BF01FF2793585F4F3AF09E3F510578F0BA
:1022E0000C9467100C94B2105F3FE4F3983ED4F363
:1022F000869577956795B795F7959F5FC9F7880F8E
:10230000911D9695879597F90895E1E0660F771FDF
:10231000881FBB1F621773078407BA0720F0621B70
:10232000730B840BBA0BEE1F88F7E09508950E949B
:10233000971088F09F5798F0B92F9927B751B0F0B0
:10234000E1F0660F771F881F991F1AF0BA95C9F739
:1023500014C0B13091F00E94B110B1E008950C9416
:10236000B110672F782F8827B85F39F0B93FCCF3C9
:10237000869577956795B395D9F73EF490958095B6
:10238000709561957F4F8F4F9F4F08950E94D30F97
:1023900008F48FEF08950E94D30F880B990B0895CE
:1023A00097FB072E16F4009407D077FD09D00E9402
:1023B0000E1207FC05D03EF4909581959F4F08952D
:1023C000709561957F4F0895A1E21A2EAA1BBB1B41
:1023D000FD010DC0AA1FBB1FEE1FFF1FA217B307F1
:1023E000E407F50720F0A21BB30BE40BF50B661F07
:1023F000771F881F991F1A9469F7609570958095CB
:1024000090959B01AC01BD01CF010895EE0FFF1F18
:10241000881F8BBF0790F691E02D1994AA1BBB1B58
:1024200051E107C0AA1FBB1FA617B70710F0A61BD4
:10243000B70B881F991F5A95A9F780959095BC01F5
:10244000CD0108950F931F93CF93DF9382309105B1
:1024500010F482E090E0E0916405F091650530E0D1
:1024600020E0B0E0A0E0309799F42115310509F49F
:102470004AC0281B390B24303105D8F58A819B814D
:102480006115710589F1FB0193838283FE0111C0FF
:10249000408151810281138148175907E0F04817A4
:1024A000590799F4109761F012960C9312971396AE
:1024B0001C933296CF01DF91CF911F910F91089518
:1024C0000093640510936505F4CF2115310551F093
:1024D0004217530738F0A901DB019A01BD01DF0162
:1024E000F801C1CFEF01F9CF9093650580936405A2
:1024F000CDCFFE01E20FF31F81939193225031095A
:1025000039832883D7CF2091620530916305232B2F
:1025100041F420910202309103023093630520932D
:10252000620520910002309101022115310541F42C
:102530002DB73EB74091040250910502241B350B84
:10254000E0916205F0916305E217F307A0F42E1BFA
:102550003F0B2817390778F0AC014E5F5F4F241707
:10256000350748F04E0F5F1F509363054093620597
:10257000819391939FCFF0E0E0E09CCFCF93DF93E6
:102580000097E9F0FC01329713821282A091640552
:10259000B0916505ED0130E020E01097A1F42081B5
:1025A0003181820F931F20916205309163052817B6
:1025B000390709F061C0F0936305E0936205DF918C
:1025C000CF910895EA01CE17DF07E8F54A815B81D4
:1025D0009E0141155105B1F7E901FB83EA83499159
:1025E0005991C40FD51FEC17FD0761F480819181CB
:1025F0000296840F951FE9019983888382819381D4
:102600009B838A83F0E0E0E012968D919C91139772
:102610000097B9F52D913C911197CD010296820F4B
:10262000931F20916205309163052817390739F609
:10263000309751F51092650510926405B0936305CB
:10264000A0936205BCCFD383C28340815181840FA4
:10265000951FC817D90761F44E5F5F4F8881998134
:10266000480F591F518340838A819B8193838283C2
:102670002115310509F0B0CFF0936505E0936405AD
:102680009ECFFD01DC01C0CF13821282D7CF4F92C3
:102690005F926F927F928F929F92AF92BF92CF92F2
:1026A000DF92EF92FF920F931F93CF93DF938C01F2
:1026B000009799F4CB01DF91CF911F910F91FF907B
:1026C000EF90DF90CF90BF90AF909F908F907F90D2
:1026D0006F905F904F900C942212FC01E60FF71F51
:1026E0009C0122503109E217F30708F4AEC0D9016A
:1026F000CD91DC911197C617D70720F1C530D105D0
:1027000078F0CE0104978617970750F0C61BD70BB9
:102710002297C193D1936D937C93CF010E94BE12F7
:10272000C801DF91CF911F910F91FF90EF90DF9043
:10273000CF90BF90AF909F908F907F906F905F9061
:102740004F9008955B01AC1ABD0A4C018C0E9D1E82
:10275000A0916405B0916505512C412CF12CE12C20
:10276000109731F580916205909163058815990560
:1027700009F05CC04616570608F058C08091000268
:1027800090910102009741F48DB79EB740910402E9
:1027900050910502841B950BE817F90708F055C006
:1027A000F0936305E0936205F90171836083B8CF0C
:1027B0008D919C91119712966C90129713967C9024
:1027C0001397A815B90559F56C0142E0C40ED11C48
:1027D000CA14DB0420F1AC014A195B09DA01129634
:1027E000159780F06282738251834083D9016D9383
:1027F0007C93E114F10471F0D7011396FC93EE93EE
:1028000012978ECF22968C0F9D1FF90191838083A2
:10281000F301EFCFF0936505E093640581CF48168F
:10282000590608F42C017D01D3019ACFCB010E94F7
:1028300022127C01009749F0AE01B8010E942814D1
:10284000C8010E94BE1287016BCF10E000E068CF84
:10285000FB01DC0102C001900D9241505040D8F7BD
:102860000895FB01DC018D91019080190110D9F3CD
:10287000990B0895FB01DC0101900D920020E1F716
:10288000089511E0C3E4D1E000E006C0802FFE010E
:102890000E9406122196011DC434D10780E008076A
:0628A000A9F7F894FFCF38
:1028A60000006605800000000000FE0228025502B6
:1028B6004B03C6026402B802000000002C06280280
:1028C600C1062B068806A00613060D0A006E616E69
:1028D60000696E66006F766600656E63656E646598
:1028E600722031004C757A203120456E63656E6426
:1028F6006964610041706167617220756E6F004C9A
:10290600757A2031204170616761646100656E638C
:10291600656E6465722032004C757A203220456EF1
:1029260063656E646964610041706167617220323B
:10293600004C757A203220417061676164610065E0
:102946006E63656E6465722033004C757A203320A1
:10295600456E63656E64696461006C4170616761B0
:10296600722033004C757A203320417061676164B0
:102976006100656E63656E6465722034004C757A1D
:10298600203420456E63656E646964610041706140
:102996006761722034004C757A203420417061677B
:1029A60061646100656E63656E6465722035004C16
:1029B600757A203520456E63656E646964610041F1
:1029C60070616761722035004C757A203520417040
:1029D600616761646100656E63656E646572203669
:1029E600004C757A203620456E63656E64696461B5
:1029F600004170616761722036004C757A2036207E
:102A06004170616761646100656E63656E646572DD
:102A16002037004C757A203720456E63656E6469F1
:102A26006461004170616761722037004C757A20DD
:102A360037204170616761646100656E63656E642D
:102A460065722038004C757A203820456E63656EB5
:102A560064696461004170616761722038004C7579
:102A66007A203820417061676164610074656D7019
:102A760065726174757261004572726F7220616C65
:102A8600206C6565720068756D65646164004572E9
:102A9600726F7220616C206C6565722048756D6579
:102AA60064616400656E63656E64657220746F644C
:102AB60061730041706167617220746F64617300B5
:102AC60061627269720063657272617200436F6D52
:102AD600616E646F206E6F207265636F6E6F6369DF
:042AE600646F000019
:00000001FF
