:020000040000FA
:100000000C9444010C9475010C9475010C947501C9
:100010000C9475010C9475010C9475010C94750188
:100020000C9475010C9406070C9406070C940607B3
:100030000C9475010C9475010C9475010C94750168
:100040000C9475010C9475010C9475010C94750158
:100050000C9475010C9475010C9475010C94BC06FC
:100060000C9475010C9486060C945C060C94750136
:100070000C9475010C9475010C9475010C94750128
:100080000C9475010C9475010C9475010C94750118
:100090000C9475010C9475010C9475010C94750108
:1000A0000C9475010C9475010C9475010C947501F8
:1000B0000C9475010C9475010C9475010C947501E8
:1000C0000C9475010C9475010C9475010C947501D8
:1000D0000C9475010C9475010C9475010C947501C8
:1000E0000C9475010C94A9030C9451050C94DC013B
:1000F0000C9485020C943F020C94EB010C94720357
:100100000C9497030C94FF050C9476030C946A05E9
:100110000C944D020C9479030C9491030C94A50358
:100120000C94D2020C949B030C94DE050C948D036A
:100130000C94C7070C9458030C9483030C94890304
:100140000C947F030C9453030C9469050C94C6051E
:100150000C946E030C94AF010C946A030C949F03EF
:100160000C94450E00002100240027002A002D00D9
:100170003000330001010000040107010A01000002
:100180000A0B02090C0D0E08070304010000000011
:10019000000000000000000000000000000000005F
:1001A000000000000000000000001211100000001C
:1001B000000000000000000000000000000000003F
:1001C00000000000000020002300260029002C0071
:1001D0002F003200000100000301060109010000A8
:1001E0002200250028002B002E00310034000201DF
:1001F0000000050108010B010505050507050808B4
:100200000808020202020A0A0808040404040101A0
:1002100001010101010103030303030303030407B5
:1002200007070C0C0C0C0C0C0C0C0202020206064C
:100230000606060606060B0B0B0B0B0B0B0B01023F
:1002400010202008081020401020408002010201E8
:1002500008040201010204081020408080402010A0
:1002600008040201800402018040201008040201F9
:100270000804020101020408102040800102040861
:1002800010204080C707450E11241FBECFEFD1E2DA
:10029000DEBFCDBF00E00CBF24E0ACE9B3E001C09D
:1002A0001D92A03CB207E1F713E0A0E0B2E0E8EC59
:1002B000F5E200E00BBF02C007900D92AC39B10728
:1002C000D9F711E0C3E4D1E000E006C021970109AD
:1002D000802FFE010E946610C234D10780E008071B
:1002E000A9F70E948C080C94D2120C940000CF92B3
:1002F000DF92EF92FF92CF93DF93B0918F04A0E053
:100300008111AB2F8091900490E0880F991FAC0170
:100310004C535E4FC0909504D0909604E0909704A3
:10032000F090980430E020E0FA01C591D491E88182
:10033000B90190E080E0EB23EA130AC02F5F3F4F42
:100340006C157D058E059F0578F36FEF7FEFCB0170
:10035000DF91CF91FF90EF90DF90CF900895AF9213
:10036000BF92CF92DF92EF92FF920F931F93CF93A2
:10037000DF936C017B018B01040F151FEB015E0104
:10038000AE18BF08C017D10759F06991D601ED9199
:10039000FC910190F081E02DC6011995892B79F728
:1003A000C501DF91CF911F910F91FF90EF90DF90EA
:1003B000CF90BF90AF900895FC01538D448D252FB1
:1003C00030E0842F90E0821B930B541710F0CF96EF
:1003D000089501970895FC01918D828D981761F021
:1003E000A28DAE0FBF2FB11D5D968C91928D9F5F38
:1003F0009F73928F90E008958FEF9FEF08952FB72E
:10040000F8948091E7039091E803A091E903B091FB
:10041000EA032FBF8093F3039093F403A093F503B3
:10042000B093F6038BEE93E00E94EB0197FF26C09A
:100430002FB7F8948091E7039091E803A091E90326
:10044000B091EA032FBF4091F3035091F403609100
:10045000F5037091F603841B950BA60BB70B409127
:10046000EF035091F0036091F1037091F203841750
:100470009507A607B707B0F28FEF9FEF0895FC012D
:10048000918D828D981731F0828DE80FF11D858D49
:1004900090E008958FEF9FEF0895FC01918D228DDC
:1004A000892F90E0805C9F4F821B91098F73992761
:1004B00008958BEE93E00E944D0221E0892B09F410
:1004C00020E0822F0895FC01A48DA80FB92FB11D43
:1004D000A35ABF4F2C91848D90E001968F7399277A
:1004E000848FA689B7892C93A089B1898C91837058
:1004F00080648C93938D848D981306C00288F38951
:10050000E02D80818F7D80830895EF92FF920F937D
:100510001F93CF93DF93EC0181E0888F9B8D8C8DAF
:1005200098131AC0E889F989808185FF15C09FB7A3
:10053000F894EE89FF896083E889F9898081837066
:10054000806480839FBF81E090E0DF91CF911F9115
:100550000F91FF90EF900895F62E0B8D10E00F5F36
:100560001F4F0F731127E02E8C8D8E110CC00FB60C
:1005700007FCFACFE889F989808185FFF5CFCE01A4
:100580000E946302F1CFEB8DEC0FFD2FF11DE35ABA
:10059000FF4FF0829FB7F8940B8FEA89FB89808127
:1005A0008062CFCFCF93DF93EC01888D8823B9F0A1
:1005B000AA89BB89E889F9898C9185FD03C080816E
:1005C00086FD0DC00FB607FCF7CF8C9185FFF2CFEB
:1005D000808185FFEDCFCE010E946302E9CFDF91DC
:1005E000CF91089580E090E0892B29F00E94590274
:1005F00081110E94000080E090E0892B49F080E0AA
:1006000090E0892B29F00E94000081110E940000D7
:1006100080E090E0892B49F080E090E0892B29F080
:100620000E94000081110E94000080E090E0892B70
:1006300049F080E090E0892B29F00E9400008111B0
:100640000C9400000895282F30E0F901E258FE4F85
:100650009491F901E25CFD4F449128503E4FF9011D
:100660002491222309F435C0992311F1915092313C
:10067000F8F4E92FF0E08827EF5BFC4F8F4F0C94E4
:1006800066107203760353036A036E0358037903FB
:100690007F03830389038D03910397039B0358030F
:1006A0009F03A503A903809180008F77809380002A
:1006B000E22FF0E0EE0FFF1FE252FE4FA591B49142
:1006C0008FB7F894EC91611148C040954E234C933C
:1006D0008FBF0895809180008F7DE8CF809180004A
:1006E000877FE4CF84B58F7784BDE2CF84B58F7DDB
:1006F000FBCF8091B0008F778093B000D9CF8091ED
:10070000B0008F7DF9CF809190008F77809390001B
:10071000CFCF809190008F7DF9CF80919000877F1F
:10072000F5CF8091A0008F778093A000C1CF8091FA
:10073000A0008F7DF9CF8091A000877FF5CF8091B9
:1007400020018F7780932001B3CF809120018F7D8E
:10075000F9CF80912001877FF5CF4E2BB8CFCF9373
:10076000DF9390E0FC01E25CFD4F249188509E4FA6
:10077000FC0184918823C9F090E0880F991FFC0147
:10078000EC59FE4FA591B491FC01E252FE4FC59188
:10079000D49161110DC09FB7F8948C91209582235C
:1007A0008C938881282328839FBFDF91CF91089560
:1007B000623051F49FB7F8943C91822F8095832347
:1007C0008C93E8812E2BEFCF8FB7F894EC912E2BE2
:1007D0002C938FBFEACF3FB7F8948091DD039091BF
:1007E000DE03A091DF03B091E00326B5A89B05C00E
:1007F0002F3F19F00196A11DB11D3FBFBA2FA92FA0
:10080000982F8827BC01CD01620F711D811D911D9C
:1008100042E0660F771F881F991F4A95D1F7089508
:100820008F929F92AF92BF92CF92DF92EF92FF9200
:100830004B015C010E94EB036B017C010E94EB0306
:100840006C197D098E099F09683E734081059105E9
:10085000A8F321E0821A9108A108B10888EEC80E19
:1008600083E0D81EE11CF11C81149104A104B104A1
:1008700029F7FF90EF90DF90CF90BF90AF909F90BF
:100880008F900895CF92DF92EF92FF920F931F9374
:10089000CF93DF93CDB7DEB7C054D1400FB6F894F5
:1008A000DEBF0FBECDBF2FB7F8948091E7039091C4
:1008B000E803A091E903B091EA032FBF40919104AE
:1008C0005091920460919304709194048C019D0165
:1008D000041B150B260B370BB901A801403D5740EF
:1008E0006105710590F480919904C05CDE4F0FB6EC
:1008F000F894DEBF0FBECDBFDF91CF911F910F9156
:10090000FF90EF90DF90CF900895809391049093A3
:100910009204A0939304B093940410928C041092C8
:100920008B0410928A04109289041092880462E069
:1009300080918D040E94AF0361E070E080E090E060
:100940000E94100461E080918D040E94AF0360E07A
:1009500080918D040E94230380918E048551823002
:1009600020F58BE291E10197F1F762E080918D042F
:100970000E94AF0380919A0490E08230910538F094
:10098000880F991F880F991F05970197F1F7F89421
:1009900080E00E9477016F3F7F4F8F4F9F4F61F440
:1009A00010929904789480E0A0CF64E170E080E038
:1009B00090E00E941004D9CF81E00E9477016F3F40
:1009C0007F4F8F4F9F4F61F38E010F5F1F4F6E015F
:1009D0008FEBC81A8EEFD80A780180E00E94770169
:1009E000F701608371838283938381E00E947701A2
:1009F000F7016483758386839783F8E0EF0EF11C1B
:100A0000EC14FD0451F7789430E020E0F801C08048
:100A1000D180E280F3804481558166817781FFEF48
:100A2000CF16DF06EF06FF0631F04F3F8FEF580776
:100A30006807780719F410929904B5CFF90183E09B
:100A4000F595E7958A95E1F7E857FB4F8081880F88
:100A5000C416D506E606F70610F180832F5F3F4FD8
:100A6000085F1F4F2832310589F640918C04209190
:100A7000880480918904280F3327331F80918A04CA
:100A8000280F311D80918B04820F932F911D992780
:100A90004817190681F681E08093990426CF81607A
:100AA000DCCF2091E3033091E4032817390771F478
:100AB0009091E1038091E203981741F0E091E10306
:100AC000F0E0E456FC4F808190E008958FEF9FEFB7
:100AD00008950895EF92FF920F931F93CF93DF93A2
:100AE000DC015C96ED90FC905D97E114F10479F4E3
:100AF00081E090E013969C938E93129790E080E0B3
:100B0000DF91CF911F910F91FF90EF900895519633
:100B1000ED91FC91529750968C915097982F90950B
:100B20000FB75E962C915E97122F127021FD609583
:100B3000F8942081112319F1282B2083E7012197B4
:100B4000F1F728E0462F50E0308160FF1AC0382BC3
:100B50003083E7012197F1F7BA0175956795215028
:100B600089F7112381F08081892380830FBF5C96F0
:100B70008D919C910197F1F781E090E0C1CF2923FD
:100B8000DCCF3923E5CF9081892BEFCF2091E30390
:100B90003091E4032817390771F48091E203209122
:100BA000E10390E0805C9F4F821B910960E470E05C
:100BB0000E943310089590E080E008952091E303AF
:100BC0003091E40328173907B9F49091E10380913B
:100BD000E203981789F0E091E103F0E0E456FC4F5E
:100BE00080812091E10330E02F5F3F4F2F73332747
:100BF0002093E10390E008958FEF9FEF089590E038
:100C000080E00895CF93DF93FC0101900020E9F785
:100C10003197AF01481B590BBC018BEE93E00E944A
:100C2000AF01EC0142E050E06AE272E08BEE93E04B
:100C30000E94AF018C0F9D1FDF91CF910895FC01A1
:100C400024813581232B39F421E0FB018081882325
:100C500049F020E007C0808191810E94B31221E019
:100C6000892BB9F7822F08950F931F93CF93DF93AA
:100C7000EC0188819981009759F02A813B812617E0
:100C8000370730F081E0DF91CF911F910F910895E8
:100C90008B016F5F7F4F0E94C911009759F09983B4
:100CA00088831B830A832C813D81232B59F7FC0108
:100CB0001082E8CF80E0E7CF1F920F920FB60F921D
:100CC00011240BB60F922F933F934F935F936F9323
:100CD0007F938F939F93AF93BF93EF93FF938BEE8D
:100CE00093E00E946302FF91EF91BF91AF919F91BA
:100CF0008F917F916F915F914F913F912F910F90C5
:100D00000BBE0F900FBE0F901F9018951F920F9261
:100D10000FB60F9211240BB60F922F938F939F93C0
:100D2000EF93FF93E091FB03F091FC038081E0914E
:100D30000104F091020482FD1DC0908180910404A1
:100D40008F5F8F7320910504821741F0E0910404B6
:100D5000F0E0E551FC4F958F80930404FF91EF91F3
:100D60009F918F912F910F900BBE0F900FBE0F9000
:100D70001F9018958081F2CF1F920F920FB60F929D
:100D800011242F933F938F939F93AF93BF938091A1
:100D9000E7039091E803A091E903B091EA03309151
:100DA000DC0323E0230F2D3758F50196A11DB11D5B
:100DB0002093DC038093E7039093E803A093E90377
:100DC000B093EA038091DD039091DE03A091DF03ED
:100DD000B091E0030196A11DB11D8093DD039093B6
:100DE000DE03A093DF03B093E003BF91AF919F9127
:100DF0008F913F912F910F900FBE0F901F901895DC
:100E000026E8230F0296A11DB11DD2CF1F920F928B
:100E10000FB60F9211240BB60F922F933F934F935F
:100E20005F936F937F938F939F93AF93BF93EF9352
:100E3000FF93E091E303F091E403309749F0A68536
:100E4000B7858585968D91FF16C09C918923B1F455
:100E5000FF91EF91BF91AF919F918F917F916F9192
:100E60005F914F913F912F910F900BBE0F900FBE4E
:100E70000F901F9018959C91892351F7A389B489ED
:100E80009C918589809589238C9386899789019780
:100E9000F1F7608D718DA685B785558538E020E026
:100EA000CB010197F1F7822F90E095958795282F38
:100EB0004C91452309F02068315091F7868D81FDD2
:100EC00020958091E20390E001968F7399273091ED
:100ED000E103381799F0A091E203B0E0A456BC4FAB
:100EE0002C938093E203828D938D0197F1F7A38970
:100EF000B4898C919589892B8C93AACF868D81603A
:100F0000868FF1CFCF92DF92EF92FF920F931F93D4
:100F1000E82FF92F05C0015011092109310961F1AC
:100F2000908196239417B9F305C001501109210946
:100F3000310911F1908196239413F7CFC12CD12C54
:100F4000E12CF12C0AC08FEFC81AD80AE80AF80A77
:100F50000C151D052E053F0579F080818623841729
:100F600091F36C2D7D2D8E2D9F2D1F910F91FF9054
:100F7000EF90DF90CF90089560E070E080E090E027
:100F80001F910F91FF90EF90DF90CF9008951092F6
:100F9000EE031092ED0388EE93E0A0E0B0E08093C2
:100FA000EF039093F003A093F103B093F2032AE0D0
:100FB00032E03093EC032093EB0325EC30E03093E8
:100FC000F8032093F70324EC30E03093FA032093E6
:100FD000F90320EC30E03093FC032093FB0321EC79
:100FE00030E03093FE032093FD0322EC30E0309399
:100FF00000042093FF0326EC30E03093020420939A
:101000000104109204041092050410920604109238
:10101000070410929E0410929D0480939F04909365
:10102000A004A093A104B093A2048CE192E0909359
:101030009C0480939B041092B2041092B10410920D
:10104000B4041092B3041092B6041092B504109236
:10105000B8041092B7046091B9046E7F6D7F6093FD
:10106000B9046695617081E068270E94230361E0FE
:1010700081E00E94AF03EFE3F2E0E491E093AB0480
:10108000E9EFF1E0E491F0E0EE0FFF1FE252FE4FD6
:10109000859194919093AD048093AC0460E080E0DE
:1010A0000E94AF038091B90481FD04C061E080E03B
:1010B0000E9423031092A704EEE3F2E0E491E09390
:1010C000A804E8EFF1E0E491F0E0EE0FFF1FEC532D
:1010D000FE4F859194919093AA048093A90486E190
:1010E00080938D048BE080938E04E4E5F2E0E4913C
:1010F000E0938F04EEE0F2E0E491E093900480E866
:101100009EE3A0E0B0E08093950490939604A093B2
:101110009704B09398040895CF93DF93CDB7DEB7CB
:10112000E8970FB6F894DEBF0FBECDBF789484B5B4
:10113000826084BD84B5816084BD85B5826085BDD3
:1011400085B5816085BD80916E00816080936E0061
:101150001092810080918100826080938100809153
:101160008100816080938100809180008160809304
:1011700080008091B10084608093B1008091B000C4
:1011800081608093B0008091910082608093910093
:1011900080919100816080939100809190008160A6
:1011A000809390008091A10082608093A100809143
:1011B000A10081608093A1008091A0008160809354
:1011C000A000809121018260809321018091210102
:1011D00081608093210180912001816080932001B2
:1011E00080917A00846080937A0080917A00826096
:1011F00080937A0080917A00816080937A00809158
:101200007A00806880937A001092C100E091FB031D
:10121000F091FC0382E08083E091F703F091F80302
:101220001082E091F903F091FA038FEC8083109221
:101230000304E091FF03F091000486E08083E091D5
:10124000FD03F091FE03808180618083E091FD03C6
:10125000F091FE03808188608083E091FD03F0912E
:10126000FE03808180688083E091FD03F091FE039E
:1012700080818F7D80831092B6041092B504109205
:10128000B4041092B3041092B2041092B1048DE928
:1012900091E09093B8048093B7048091A70496EFEF
:1012A000980F943048F02EEC280F243028F022ECD0
:1012B000280F283008F061C02DEB30E03093B204E5
:1012C0002093B1042BE931E03093B4042093B304AC
:1012D0002CE231E03093B6042093B504943050F002
:1012E0002EEC280F243030F022EC280FF0E0E0E064
:1012F000283010F4E8E6F0E02081943028F032EC59
:10130000380F383008F474C131E0232B943048F0A2
:101310009EEC980F943028F08E53F0E0E0E0883097
:1013200010F4E8E6F0E020832091A70436EF320FB6
:10133000343008F45FC18EEC820F843008F45AC157
:1013400082EC820F883008F058C18DE690E09093CF
:10135000AF048093AE04343008F052C12650330BF2
:1013600081E001C0880F2A95EAF78093B00480914C
:10137000B7049091B8040197F1F78091B50490916A
:10138000B604892B49F1E091E303F091E40384E092
:10139000EB39F80709F1309739F0A389B4899C91AA
:1013A0008589809589238C938091B9048E7F809361
:1013B000B9041092E2031092E1038BE994E0909358
:1013C000E4038093E303E091AE04F091AF048081E5
:1013D0009091B004892B808362E080918D040E94FB
:1013E000AF032FB7F8948091E7039091E803A091A1
:1013F000E903B091EA032FBF805D9740A109B109CD
:101400008093910490939204A0939304B0939404D6
:1014100087E380939A0461E087E10E94AF0361E073
:1014200088E10E94AF0361E089E10E94AF0361E0BF
:101430008AE10E94AF0361E08BE10E94AF0361E0AB
:101440008CE10E94AF0361E08DE10E94AF0361E097
:101450008EE10E94AF0361E085E30E94AF0360E08C
:1014600084E30E94AF0361E081E30E94AF0361E087
:1014700083E30E94AF0361E082E30E94AF0361E077
:1014800080E20E94AF0361E081E20E94AF0361E06D
:1014900082E30E94230361E08FE10E94AF034AE3ED
:1014A000442E512C612C712C1E0193E0290E311C0D
:1014B00068EE73E080E090E00E94100460E085E355
:1014C0000E94230383E090E00197F1F761E085E358
:1014D0000E94230383E290E00197F1F760E085E347
:1014E0000E942303E2E7F2E06491ECE2F2E08491EF
:1014F000E82FF0E0EE0FFF1FEC53FE4F8591949123
:1015000000E412E42FE030E0462F0E9482076115CC
:1015100071058105910529F06F5F7F4F8F4F9F4FB8
:101520009F70A30192010E94471069017A0164E64D
:1015300070E080E090E00E941004FBE5CF16D1043B
:10154000E104F1047CF460E082E30E94230361E0A3
:1015500083E30E94230361E086E0C816D104E1041E
:10156000F1040CF060E081E30E9423038BEE93E032
:101570000E944D02892B09F44CC21CAA1BAA1EAA68
:101580001DAA18AE1FAA70E060E0CE01C3960E94AB
:1015900034062BA93CA9811148C02115310519F049
:1015A000C9010E9440111CAA1BAA18AE1FAA1EAA9C
:1015B0001DAA0E94FF010FA918AD97FD3EC08983A7
:1015C0001A820F5F1F4FB801CE01C3960E943406E6
:1015D000882379F32BA93CA98FA998ADBE016F5F31
:1015E0007F4F820F931F0E94BC1218AF0FABE1CF49
:1015F00034E08BCE8BE690E0AACE90E080E0A7CEE0
:1016000088E0223309F4B1CE84E0233309F4ADCE6F
:1016100082E0243309F4A9CE82EC820F883018F4DA
:101620002E53330B9DCE81E0A0CE18AE1FAA6CE2E4
:1016300072E0C9010E94BC12BCCFA0E2B0E0BA8344
:10164000A983F10180E311928A95E9F7CBA8DCA880
:101650000F3F100709F482C00115110509F071C090
:1016600019826DE272E0CE01C3960E941F068823A4
:1016700009F4B0C061E082E30E94230360E083E3E9
:101680000E94230364E670E080E090E00E94100472
:1016900066E772E0CE0101960E94610E7C0168E768
:1016A00072E00E94B312892B41F061E872E0C70139
:1016B0000E94B312892B09F0A2C161E872E0C70150
:1016C0000E94B312892B09F02BC166E772E090E00B
:1016D00080E00E94610E7C016CE272E00E94610E6B
:1016E0008C016C01F80101900020E9F73197E01BB3
:1016F000F10BC601801B910B8E179F0708F010C1DC
:10170000D6018D916D01813399F0D8019C91953767
:1017100009F0C7C011969C9111979E3609F0C1C07F
:1017200012969C919F3609F0BCC0339709F0B9C05E
:1017300060E087E10E94230388E892E00E940206AD
:10174000D1CFA801B601CE0101960E94C312E1E0FB
:10175000F0E0EC0FFD1FE00FF11F10827601C114C5
:10176000D10411F47ECF75015701AFEFAA1ABA0A5E
:10177000F7018081082E000C990B0E948C0E892B9A
:1017800091F7015011090C0D1D1DD8018C91082EE7
:10179000000C990B0E948C0E892B31F00E151F0541
:1017A00018F001501109F1CF0F5F1F4FA8014E191A
:1017B0005F0958AF4FABCE14DF0420F4B701C60168
:1017C0000E94AA12EBA9FCA98FA998ADE80FF91FF6
:1017D000108247CF63E372E0CE01C3960E941F06DA
:1017E000882331F060E082E30E94230361E047CF69
:1017F0006AE372E0CE01C3960E941F06882329F196
:1018000061E087E10E94230361E088E10E942303F5
:1018100061E089E10E94230361E08AE10E942303E1
:1018200061E08BE10E94230361E08CE10E942303CD
:1018300061E08DE10E94230361E08EE10E942303B9
:1018400089E492E00E94020623CF6AE572E0CE01AD
:10185000C3960E941F06882309F41ACF60E087E12F
:101860000E94230360E088E10E94230360E089E195
:101870000E94230360E08AE10E94230360E08BE181
:101880000E94230360E08CE10E94230360E08DE16D
:101890000E94230360E08EE10E94230387E692E02A
:1018A000D1CF823339F460E088E10E94230386E9D6
:1018B00092E044CF833339F460E089E10E9423034E
:1018C00084EA92E03BCF843339F460E08AE10E94FD
:1018D000230382EB92E032CF853339F460E08BE171
:1018E0000E94230380EC92E029CF863339F460E034
:1018F0008CE10E9423038EEC92E020CF873339F4F1
:1019000060E08DE10E9423038CED92E017CF8833D5
:1019100039F460E08EE10E9423038AEE92E00ECF5C
:1019200068E772E0C7010E94B312892B09F06BC00F
:1019300066E772E090E080E00E94610E6CE272E087
:101940000E94610E8C017C01F80101900020E9F7F2
:101950003197E01BF10BC701801B910B8E179F077E
:1019600008F051C0F70181917F01813349F461E0B2
:1019700087E10E94230388EF92E00E940206E4CFF1
:10198000823339F461E088E10E94230388E093E028
:10199000F4CF833339F461E089E10E94230388E1C5
:1019A00093E0EBCF843339F461E08AE10E942303B2
:1019B00088E293E0E2CF853339F461E08BE10E9465
:1019C000230388E393E0D9CF863339F461E08CE1D7
:1019D0000E94230388E493E0D0CF873339F461E099
:1019E0008DE10E94230388E593E0C7CF883359F443
:1019F00061E08EE10E94230388E693E0BECF88E792
:101A000093E00E9402068BA99CA9009711F00E9406
:101A100040110E944204882341F080918E048C3052
:101A200009F463C048F48B3001F1C12CD12C90EC47
:101A3000E92E9FE7F92E43C085518230B0F710910F
:101A40008A04612F70E0762F662766277F77809162
:101A50008B04682B90E080E00E949A0E2DEC3CEC09
:101A60004CEC5DE30E94FB0E5CC060918A0470E068
:101A700090E080E00E949A0E6B017C0110918B0433
:101A800017FF0AC0AC019B0160E070E080E89FEBAB
:101A90000E94BC0F6B017C011F70612F70E090E011
:101AA00080E00E949C0E2DEC3CEC4CEC5DE30E942F
:101AB000FB0EA70196010E94BD0F6B017C010E94E5
:101AC0004204882309F45DC080918E048B3030F08D
:101AD0008D3080F18551823008F48AC0812C912CA0
:101AE00080ECA82E8FE7B82E43C010918A04612F96
:101AF00070E090E080E00E949A0E6B017C016091A2
:101B00008B046F7070E090E080E00E949C0E2DECE2
:101B10003CEC4CEC5DE30E94FB0EA70196010E9499
:101B2000BD0F6B017C0117FFCACFF7FAF094F7F8ED
:101B3000F094C5CF6091890470E090E080E00E944D
:101B40009C0E2DEC3CEC4CEC5DE30E94FB0E4B013B
:101B50005C016091880470E090E080E00E949C0E3F
:101B60009B01AC01C501B4010E94BD0F4B015C019A
:101B7000A7019601C701B6010E942E10882309F41F
:101B800049C08EE893E00E94020680917B00877F27
:101B900080937B00F0E4F0937C0080917A00806475
:101BA00080937A0080917A0086FDFCCF8091780046
:101BB00000917900102F082F64E670E080E090E03B
:101BC0000E9410048091E5039091E603801791072D
:101BD00061F01093E6030093E50361E0053611051B
:101BE0000CF060E08FE10E9423030E94F20260CCBF
:101BF000609188047091890476276727762790E0A2
:101C000080E00E949A0E2DEC3CEC4CEC5DE30E94CF
:101C1000FB0EACCFA5019401C501B4010E942E10AA
:101C20008111AFCF20E030E040E252E4C501B401C1
:101C30000E94950E87FD0BC020E030E040E752E4A3
:101C4000C501B4010E94291060E018160CF461E08F
:101C500080E20E94230320E030E048E951E4C7011C
:101C6000B6010E94950E87FD0BC020E030E048ECE5
:101C700051E4C701B6010E94291060E018160CF467
:101C800061E081E20E94230380CF8CE192E0909397
:101C90009C0480939B048091E3039091E4038B590F
:101CA000944071F4E091AE04F091AF049081809182
:101CB000B0048095892380831092E4031092E3039B
:101CC00008954AEB54E00C94650EFA01A191B0819D
:101CD000009719F41097E1F0CD01DC01CD010D90D2
:101CE000002011F4C00113C0FB012191222319F03F
:101CF0002015D9F7F3CFFB012191201519F41E927D
:101D0000119606C02223C1F70D900020A1F7D00143
:101D1000FA01A193B083089591110C94680F803259
:101D200019F089508550C8F708950E94D70E08F41D
:101D300081E00895E89409C097FB3EF49095809562
:101D4000709561957F4F8F4F9F4F9923A9F0F92F81
:101D500096E9BB279395F695879577956795B795FF
:101D6000F111F8CFFAF4BB0F11F460FF1BC06F5FE5
:101D70007F4F8F4F9F4F16C0882311F096E911C0F7
:101D8000772321F09EE8872F762F05C0662371F018
:101D900096E8862F70E060E02AF09A95660F771F2C
:101DA000881FDAF7880F9695879597F90895990F08
:101DB0000008550FAA0BE0E8FEEF16161706E80715
:101DC000F907C0F012161306E407F50798F0621B36
:101DD000730B840B950B39F40A2661F0232B242B0B
:101DE000252B21F408950A2609F4A140A6958FEF2A
:101DF000811D811D08950E940E0F0C94820F0E9478
:101E0000740F38F00E947B0F20F0952311F00C9492
:101E10006B0F0C94710F11240C94B60F0E94930F4A
:101E200070F3959FC1F3950F50E0551F629FF0012D
:101E3000729FBB27F00DB11D639FAA27F00DB11D46
:101E4000AA1F649F6627B00DA11D661F829F2227CF
:101E5000B00DA11D621F739FB00DA11D621F839F56
:101E6000A00D611D221F749F3327A00D611D231F2C
:101E7000849F600D211D822F762F6A2F11249F577A
:101E800050409AF0F1F088234AF0EE0FFF1FBB1F7D
:101E9000661F771F881F91505040A9F79E3F51053C
:101EA00080F00C946B0F0C94B60F5F3FE4F3983EF8
:101EB000D4F3869577956795B795F795E7959F5FE6
:101EC000C1F7FE2B880F911D9695879597F9089578
:101ED00099278827089597F99F6780E870E060E068
:101EE00008959FEF80EC089500240A9416161706B3
:101EF00018060906089500240A94121613061406FB
:101F000005060895092E0394000C11F4882352F05D
:101F1000BB0F40F4BF2B11F460FF04C06F5F7F4F15
:101F20008F4F9F4F089557FD9058440F551F59F0FC
:101F30005F3F71F04795880F97FB991F61F09F3FB6
:101F400079F087950895121613061406551FF2CFDF
:101F50004695F1DF08C0161617061806991FF1CF2F
:101F600086957105610508940895E894BB27662756
:101F70007727CB0197F908955058BB27AA270E94CD
:101F8000D40F0C94820F0E94740F38F00E947B0FC4
:101F900020F039F49F3F19F426F40C94710F0EF4DD
:101FA000E095E7FB0C946B0FE92F0E94930F58F319
:101FB000BA17620773078407950720F079F4A6F52E
:101FC0000C94B50F0EF4E0950B2EBA2FA02D0B013B
:101FD000B90190010C01CA01A0011124FF27591B6E
:101FE00099F0593F50F4503E68F11A16F040A22F74
:101FF000232F342F4427585FF3CF469537952795E5
:10200000A795F0405395C9F77EF41F16BA0B620BE3
:10201000730B840BBAF09150A1F0FF0FBB1F661F2A
:10202000771F881FC2F70EC0BA0F621F731F841F6D
:1020300048F4879577956795B795F7959E3F08F093
:10204000B0CF9395880F08F09927EE0F9795879555
:1020500008950E94D70E08F48FEF08950E94D70EBE
:10206000880B990B089597FB072E16F4009407D060
:1020700077FD09D00E946E1007FC05D03EF49095C4
:1020800081959F4F0895709561957F4F0895052E16
:1020900097FB1EF400940E945E1057FD07D00E942B
:1020A000821007FC03D04EF40C945E1050954095BE
:1020B000309521953F4F4F4F5F4F089590958095F4
:1020C000709561957F4F8F4F9F4F0895EE0FFF1FC3
:1020D000881F8BBF0790F691E02D1994AA1BBB1B9C
:1020E00051E107C0AA1FBB1FA617B70710F0A61B18
:1020F000B70B881F991F5A95A9F780959095BC0139
:10210000CD010895A1E21A2EAA1BBB1BFD010DC033
:10211000AA1FBB1FEE1FFF1FA217B307E407F50797
:1021200020F0A21BB30BE40BF50B661F771F881F73
:10213000991F1A9469F760957095809590959B0109
:10214000AC01BD01CF0108950F931F93CF93DF938F
:102150008230910510F482E090E0E091BE04F091AD
:10216000BF0430E020E0B0E0A0E0309799F4211502
:10217000310509F44AC0281B390B24303105D8F544
:102180008A819B816115710589F1FB0193838283AB
:10219000FE0111C040815181028113814817590706
:1021A000E0F04817590799F4109761F012960C93D4
:1021B000129713961C933296CF01DF91CF911F9106
:1021C0000F9108950093BE041093BF04F4CF21151E
:1021D000310551F04217530738F0A901DB019A018C
:1021E000BD01DF01F801C1CFEF01F9CF9093BF042A
:1021F0008093BE04CDCFFE01E20FF31F8193919334
:102200002250310939832883D7CF2091BC043091E3
:10221000BD04232B41F4209102023091030230933C
:10222000BD042093BC0420910002309101022115CD
:10223000310541F42DB73EB740910402509105029B
:10224000241B350BE091BC04F091BD04E217F307A9
:10225000A0F42E1B3F0B2817390778F0AC014E5F16
:102260005F4F2417350748F04E0F5F1F5093BD0492
:102270004093BC04819391939FCFF0E0E0E09CCF2A
:10228000CF93DF930097E9F0FC013297138212821B
:10229000A091BE04B091BF04ED0130E020E01097A2
:1022A000A1F420813181820F931F2091BC043091D1
:1022B000BD042817390709F061C0F093BD04E0930D
:1022C000BC04DF91CF910895EA01CE17DF07E8F54E
:1022D0004A815B819E0141155105B1F7E901FB83FC
:1022E000EA8349915991C40FD51FEC17FD0761F49A
:1022F000808191810296840F951FE90199838883DB
:10230000828193819B838A83F0E0E0E012968D9135
:102310009C9113970097B9F52D913C911197CD01A0
:102320000296820F931F2091BC043091BD042817A0
:10233000390739F6309751F51092BF041092BE0458
:10234000B093BD04A093BC04BCCFD383C2834081AF
:102350005181840F951FC817D90761F44E5F5F4FF5
:1023600088819981480F591F518340838A819B81BD
:10237000938382832115310509F0B0CFF093BF0418
:10238000E093BE049ECFFD01DC01C0CF1382128218
:10239000D7CF4F925F926F927F928F929F92AF9220
:1023A000BF92CF92DF92EF92FF920F931F93CF9342
:1023B000DF938C01009799F4CB01DF91CF911F91AE
:1023C0000F91FF90EF90DF90CF90BF90AF909F90D4
:1023D0008F907F906F905F904F900C94A410FC01B1
:1023E000E60FF71F9C0122503109E217F30708F4AA
:1023F000AEC0D901CD91DC911197C617D70720F156
:10240000C530D10578F0CE0104978617970750F0B4
:10241000C61BD70B2297C193D1936D937C93CF01A9
:102420000E944011C801DF91CF911F910F91FF9041
:10243000EF90DF90CF90BF90AF909F908F907F9064
:102440006F905F904F9008955B01AC1ABD0A4C01EC
:102450008C0E9D1EA091BE04B091BF04512C412C46
:10246000F12CE12C109731F58091BC049091BD04C2
:102470008815990509F05CC04616570608F058C043
:102480008091000290910102009741F48DB79EB7B0
:102490004091040250910502841B950BE817F9073F
:1024A00008F055C0F093BD04E093BC04F9017183BA
:1024B0006083B8CF8D919C91119712966C90129772
:1024C00013967C901397A815B90559F56C0142E055
:1024D000C40ED11CCA14DB0420F1AC014A195B09FB
:1024E000DA011296159780F06282738251834083DD
:1024F000D9016D937C93E114F10471F0D701139627
:10250000FC93EE9312978ECF22968C0F9D1FF901AC
:1025100091838083F301EFCFF093BF04E093BE0477
:1025200081CF4816590608F42C017D01D3019ACFBA
:10253000CB010E94A4107C01009749F0AE01B801C4
:102540000E94AA12C8010E94401187016BCF10E0BF
:1025500000E068CFFB01DC0102C001900D92415008
:102560005040D8F70895FB01DC018D91019080194E
:102570000110D9F3990B0895FB01DC0101900D9234
:102580000020E1F70895FB01DC014150504048F084
:1025900001900D920020C9F701C01D92415050409A
:1025A000E0F7089511E0C3E4D1E000E006C0802F19
:1025B000FE010E9466102196011DC434D10780E0FF
:1025C0000807A9F7F894FFCF0000C00480000000BE
:1025D00000008502AF01DC01D2024D02EB013F0297
:1025E000000000006A05AF01FF056905C605DE05AC
:1025F00051050D0A00616272697200636572726151
:102600007200656E63656E64657220746F646173D9
:10261000004C7563657320656E63656E6469646103
:10262000730041706167617220746F646173004C64
:102630007563657320617061676164617300200078
:10264000656E63656E6465720041706167617200FA
:102650004C757A20312041706167616461004C756E
:102660007A20322041706167616461004C757A2084
:10267000332041706167616461004C757A203420B9
:1026800041706167616461004C757A20352041704A
:102690006167616461004C757A2036204170616722
:1026A000616461004C757A20372041706167616414
:1026B00061004C757A203820417061676164610067
:1026C0004C757A203120456E63656E6469646100E3
:1026D0004C757A203220456E63656E6469646100D2
:1026E0004C757A203320456E63656E6469646100C1
:1026F0004C757A203420456E63656E6469646100B0
:102700004C757A203520456E63656E64696461009E
:102710004C757A203620456E63656E64696461008D
:102720004C757A203720456E63656E64696461007C
:102730004C757A203820456E63656E64696461006B
:10274000436F6D616E646F206E6F207265636F6E94
:102750006F6369646F004572726F7220616C206CE8
:042760006565720039
:10E000000D9489F10D94B2F10D94B2F10D94B2F129
:10E010000D94B2F10D94B2F10D94B2F10D94B2F1F0
:10E020000D94B2F10D94B2F10D94B2F10D94B2F1E0
:10E030000D94B2F10D94B2F10D94B2F10D94B2F1D0
:10E040000D94B2F10D94B2F10D94B2F10D94B2F1C0
:10E050000D94B2F10D94B2F10D94B2F10D94B2F1B0
:10E060000D94B2F10D94B2F10D94B2F10D94B2F1A0
:10E070000D94B2F10D94B2F10D94B2F10D94B2F190
:10E080000D94B2F10D94B2F10D94B2F10D94B2F180
:10E090000D94B2F10D94B2F10D94B2F10D94B2F170
:10E0A0000D94B2F10D94B2F10D94B2F10D94B2F160
:10E0B0000D94B2F10D94B2F10D94B2F10D94B2F150
:10E0C0000D94B2F10D94B2F10D94B2F10D94B2F140
:10E0D0000D94B2F10D94B2F10D94B2F10D94B2F130
:10E0E0000D94B2F141546D656761323536300041AF
:10E0F000726475696E6F206578706C6F72657220DE
:10E1000073746B3530305632206279204D4C530099
:10E11000426F6F746C6F616465723E004875683F52
:10E1200000436F6D70696C6564206F6E203D200048
:10E130004350552054797065202020203D20005FF9
:10E140005F4156525F415243485F5F3D2000415658
:10E1500052204C696243205665723D20004743437C
:10E160002056657273696F6E203D20004350552024
:10E1700049442020202020203D20004C6F7720663D
:10E18000757365202020203D20004869676820665F
:10E190007573652020203D200045787420667573D6
:10E1A00065202020203D20004C6F636B2066757336
:10E1B000652020203D20004D617220203720323024
:10E1C000313300312E362E3800342E332E350056A2
:10E1D00023202020414444522020206F7020636F70
:10E1E00064652020202020696E73747275637469E1
:10E1F0006F6E2061646472202020496E74657272B3
:10E20000757074006E6F20766563746F7200726A49
:10E210006D702020006A6D70200057686174207056
:10E220006F72743A00506F7274206E6F7420737541
:10E2300070706F72746564004D7573742062652030
:10E2400061206C6574746572002000577269747483
:10E25000696E672045450052656164696E672045B7
:10E26000450045452065727220636E743D00504F35
:10E27000525400303D5A65726F2061646472003FF1
:10E280003D43505520737461747300403D454550C3
:10E29000524F4D207465737400423D426C696E6B41
:10E2A000204C454400453D44756D70204545505215
:10E2B0004F4D00463D44756D7020464C415348001B
:10E2C000483D48656C70004C3D4C69737420492F83
:10E2D0004F20506F72747300513D51756974005234
:10E2E0003D44756D702052414D00563D73686F7707
:10E2F00020696E7465727275707420566563746FF0
:10E30000727300593D506F727420626C696E6B00BD
:10E310002A0011241FBECFEFD1E2DEBFCDBF01E046
:10E320000CBF12E0A0E0B2E0EEE1FDEF03E00BBFB6
:10E3300002C007900D92A030B107D9F712E0A0E01B
:10E34000B2E001C01D92AE30B107E1F70F9460F367
:10E350000D948DFE01E20EBF0FEF0DBF11241FBE05
:10E360000D9460F30D9400F020E030E040ED57E0B4
:10E3700005C0FA013197F1F72F5F3F4F2817390792
:10E38000C0F308959C01260F311DC901A0E0B0E043
:10E390002F5F3F4FABBFFC018791882361F08093D3
:10E3A000C6008091C00086FFFCCF8091C0008064D1
:10E3B0008093C000EACF08958DE08093C6008091DD
:10E3C000C00086FFFCCF8091C00080648093C000B5
:10E3D0008AE08093C6008091C00086FFFCCF8091C8
:10E3E000C00080648093C00008950F94C2F10F9420
:10E3F000DCF10895FC019081992359F09093C600B7
:10E400008091C00086FFFCCF8091C0008064809323
:10E41000C0003196992379F70895282F982F929567
:10E420009F70892F805D8A3308F0895F8093C600D2
:10E430008091C00086FFFCCF8091C00080648093F3
:10E44000C000822F8F70982F905D9A3308F0995FEB
:10E450009093C6008091C00086FFFCCF8091C000E1
:10E4600080648093C00008959C01FB01853691056E
:10E470001CF46330710594F0C90164E670E00F94F8
:10E480002EFE605D7F4F6093C6008091C00086FFC6
:10E49000FCCF8091C00080648093C0002B30310598
:10E4A00014F43297B4F0C90164E670E00F942EFEC4
:10E4B0006AE070E00F942EFE605D7F4F6093C600AF
:10E4C0008091C00086FFFCCF8091C0008064809363
:10E4D000C000C9016AE070E00F942EFEC0968093E0
:10E4E000C6008091C00086FFFCCF8091C000806490
:10E4F0008093C00008951F93182F8EE692EE60E07F
:10E500000F94C2F11093C6008091C00086FFFCCF2B
:10E510008091C00080648093C0000F94DCF11F9153
:10E5200008952F923F924F925F926F927F928F92B7
:10E530009F92AF92BF92CF92DF92EF92FF920F9392
:10E540001F93DF93CF93CDB7DEB762970FB6F894E2
:10E55000DEBF0FBECDBF382E622ECA01DB015C01CB
:10E560006D01772420E2222E2E010894411C511CBB
:10E570008BC081E0A81680E0B80681E0C80680E084
:10E58000D80628F0C601AA27BB270F940DF2BB2797
:10E59000AD2D9C2D8B2D0F940DF28A2D0F940DF225
:10E5A0002092C6008091C00086FFFCCF8091C00001
:10E5B00080648093C0009DE29093C6008091C0006B
:10E5C00086FFFCCF8091C00080648093C0002092C1
:10E5D000C6008091C00086FFFCCF8091C00080649F
:10E5E0008093C00019828601750188249924A1E0D6
:10E5F0003A1651F03A1620F0B2E03B1661F409C029
:10E600000BBFF701779007C0C7010F9477FE782EF4
:10E6100002C0F7017080872D0F940DF22092C60082
:10E620008091C00086FFFCCF8091C0008064809301
:10E63000C000872D8052F401EF70F0708F3520F408
:10E64000E40DF51D708204C0E40DF51D8EE280839B
:10E650000894E11CF11C011D111D0894811C911CE2
:10E6600090E18916910409F0C2CF80E190E0A0E02A
:10E67000B0E0A80EB91ECA1EDB1E198AC2010F9493
:10E68000FAF10F94DCF16A94662009F072CF629679
:10E690000FB6F894DEBF0FBECDBFCF91DF911F91B3
:10E6A0000F91FF90EF90DF90CF90BF90AF909F9031
:10E6B0008F907F906F905F904F903F902F90089534
:10E6C0002F923F924F925F926F927F928F929F9282
:10E6D000AF92BF92CF92DF92EF92FF920F931F9370
:10E6E000DF93CF93CDB7DEB7CD53D1400FB6F894BB
:10E6F000DEBF0FBECDBF01E20EBF0FEF0DBF94B75F
:10E70000F894A89514BE80916000886180936000A1
:10E7100010926000789493FF05C0E0910002F091A0
:10E7200001021995279A2F9A8091C00082608093E8
:10E73000C00080E18093C40088E18093C1000000A4
:10E74000EE24FF24870144E0A42EB12CCC24DD2448
:10E7500024C0C5010197F1F70894E11CF11C011DCB
:10E76000111D21E2E2162EE4F20620E0020720E06D
:10E77000120718F031E0C32ED12CC801B70127ECE5
:10E780003BE140E050E00F9441FE611571058105C9
:10E79000910519F485B1805885B98091C00087FD35
:10E7A00003C0C114D104A9F2A6014F5F5F4FC25E3E
:10E7B000DE4F59834883CE51D140C25EDE4F8881FF
:10E7C0009981CE51D140019711F00D9410FEC05D9A
:10E7D000DE4F19821882C053D14060E0C15DDE4F28
:10E7E0001882CF52D14088249924C35DDE4F19820C
:10E7F0001882CD52D140C05EDE4F188219821A8233
:10E800001B82C052D140CE5CDE4F188219821A8220
:10E810001B82C253D140EE24FF2487010BBFF701B6
:10E8200007911691C45CDE4F19830883CC53D14005
:10E830000D940BFEC25EDE4F28813981CE51D1404E
:10E840002130310509F52091C600C25EDE4F1982E4
:10E850001882CE51D14022C02F5F3F4F4F4F5F4FA4
:10E86000213082E138078AE7480780E0580780F0C6
:10E87000C45CDE4FE881F981CC53D140EF5FFF4F9C
:10E8800019F0EE27FF27099420E030E040E050E047
:10E890008091C00087FFE0CF2091C600C35DDE4FAE
:10E8A00048815981CD52D1404F5F5F4FC35DDE4FEC
:10E8B00059834883CD52D140213209F063C64A3092
:10E8C000510508F05FC60894811C911C53E0851621
:10E8D000910409F059C600E010E018C081E280936D
:10E8E000C6008091C00086FFFCCF8091C00080648C
:10E8F0008093C0002F5F3F4F2931310579F70F9486
:10E90000DCF10F5F1F4F0530110519F020E030E0FA
:10E91000E5CF10920A0210920B0210920C02109294
:10E920000D02109206021092070210920802109235
:10E930000902109202021092030210920402109235
:10E9400005028FEE90EE60E00F94F5F180E191EE1C
:10E9500060E00F94C2F18091C00087FFFCCF9091DE
:10E96000C600903608F09F759032B8F09093C600BC
:10E970008091C00086FFFCCF8091C00080648093AE
:10E98000C000A0E2A093C6008091C00086FFFCCF2B
:10E990008091C00080648093C000983409F4D7C18E
:10E9A0009934B8F4923409F459C1933458F490333B
:10E9B00019F1903308F4E3C59F33A1F1903409F0C5
:10E9C000DEC5BDC0953409F470C1963409F0D7C5D1
:10E9D00098C1923509F42BC2933538F49C3409F46C
:10E9E000F5C1913509F0CBC518C2963509F445C279
:10E9F000993509F0C4C567C483E792EE62E00F94CD
:10EA0000F5F110920602109207021092080210927D
:10EA1000090210920A0210920B0210920C0210923C
:10EA20000D0213C18FE792EE62E00F94F5F18FEEC5
:10EA300090EE60E00F94F5F181E291EE60E00F94CA
:10EA4000C2F187EB91EE60E00F94F5F180E391EE77
:10EA500060E00F94C2F184EE90EE60E00F94F5F167
:10EA60008FE391EE60E00F94C2F186E090E061E008
:10EA700070E00F9434F20F94DCF18DE591EE60E0DC
:10EA80000F94C2F189EC91EE60E00F94F5F18EE401
:10EA900091EE60E00F94C2F183EC91EE60E00F9490
:10EAA000F5F18CE691EE60E00F94C2F18EE10F94E7
:10EAB0000DF288E90F940DF281E00F940DF20F949E
:10EAC000DCF18BE791EE60E00F94C2F119E0E0E039
:10EAD000F0E010935700E4918E2F0F940DF20F94F5
:10EAE000DCF18AE891EE60E00F94C2F1E3E0F0E03F
:10EAF00010935700E4918E2F0F940DF20F94DCF1D8
:10EB000089E991EE60E00F94C2F1E2E0F0E0109349
:10EB10005700E4918E2F0F940DF20F94DCF188EAE8
:10EB200091EE60E00F94C2F1E1E0F0E01093570045
:10EB30001491812F0F940DF20F94DCF107CF8BE825
:10EB400092EE62E00F94F5F18BE492EE60E00F94A8
:10EB5000F5F10F94DCF100E010E019C0C8016F2D51
:10EB60000F947FFEFF2031F489E492EE60E00F9471
:10EB7000C2F10BC0F092C6008091C00086FFFCCFAE
:10EB80008091C00080648093C0000F5F1F4FC80158
:10EB900081519F41A0E0B0E0ABBFFC01F790BAE229
:10EBA000FB1621F0E2E000301E07C1F60F94DCF105
:10EBB0000F94DCF187E592EE60E00F94F5F10F948D
:10EBC000DCF1CC24DD2400E010E01EC0C8010F946D
:10EBD00077FEF82E882331F489E492EE60E00F94FA
:10EBE000C2F10BC08093C6008091C00086FFFCCFAD
:10EBF0008091C00080648093C000FE1419F00894D6
:10EC0000C11CD11C0F5F1F4FC80181519F41A0E063
:10EC1000B0E0ABBFFC01E790FAE2EF1621F022E092
:10EC20000030120799F60F94DCF10F94DCF182E6C4
:10EC300092EE60E00F94C2F1C60161E070E00F94C3
:10EC400034F20F94DCF10F94DCF110920202109276
:10EC50000302109204021092050278CE89E992EE26
:10EC600062E00F94F5F1279A2F9A16C02F9880E052
:10EC700090E0E0EDF7E03197F1F7019684369105E9
:10EC8000C1F72F9A80E090E0E0EDF7E03197F1F7DF
:10EC9000019684369105C1F78091C00087FFE6CFC9
:10ECA0008091C00087FFFCCF64C485EA92EE62E0E9
:10ECB0000F94F5F140910202509103026091040219
:10ECC0007091050281E020E10F9491F2809102029F
:10ECD00090910302A0910402B091050280509F4FD1
:10ECE000AF4FBF4F8093020290930302A0930402A0
:10ECF000B093050280509041A040B04008F426CE69
:10ED0000A4CF83EB92EE62E00F94F5F140910602FE
:10ED100050910702609108027091090280E020E1A1
:10ED20000F9491F28091060290910702A09108023F
:10ED3000B091090280509F4FAF4FBF4F80930602A2
:10ED400090930702A0930802B0930902FFCD80ECD4
:10ED500092EE62E00F94F5F183E792EE60E00F949B
:10ED6000F5F18FE792EE60E00F94F5F18BE892EE0B
:10ED700060E00F94F5F189E992EE60E00F94F5F10F
:10ED800085EA92EE60E00F94F5F183EB92EE60E09D
:10ED90000F94F5F180EC92EE60E00F94F5F187ECC2
:10EDA00092EE60E00F94F5F188ED92EE60E00F9442
:10EDB000F5F18FED92EE60E00F94F5F18AEE92EEB0
:10EDC00060E00F94F5F183E093EEBDCD87EC92EE19
:10EDD00062E00F94F5F181E40F947BF282E40F94EA
:10EDE0007BF283E40F947BF284E40F947BF285E45E
:10EDF0000F947BF286E40F947BF287E40F947BF20E
:10EE000088E40F947BF28AE40F947BF28BE40F94F6
:10EE10007BF28CE40F947BF299CD88ED92EE62E068
:10EE20000F94F5F1772473948824992409C48FED05
:10EE300092EE62E00F94F5F140910A0250910B02BC
:10EE400060910C0270910D0282E020E10F9491F22A
:10EE500080910A0290910B02A0910C02B0910D02D8
:10EE600080509F4FAF4FBF4F80930A0290930B0289
:10EE7000A0930C02B0930D0269CD8AEE92EE62E08F
:10EE80000F94F5F184EE90EE60E00F94F5F18FECC5
:10EE900091EE60E00F94F5F1662477244301CC5D98
:10EEA000DE4F19821882C452D140D401C301B695F5
:10EEB000A79597958795CA5DDE4F88839983AA8326
:10EEC000BB83C652D140CC5DDE4FA881B981C4520C
:10EED000D1401196CC5DDE4FB983A883C452D14096
:10EEE000CD0162E070E00F9434F2B0E2B093C6005E
:10EEF0008091C00086FFFCCF8091C0008064809329
:10EF0000C000EDE2E093C6008091C00086FFFCCF18
:10EF10008091C00080648093C000F0E2F093C6004E
:10EF20008091C00086FFFCCF8091C00080648093F8
:10EF3000C000CA5DDE4FE880F9800A811B81C6529D
:10EF4000D140BB27A12F902F8F2D0F940DF2CA5DBA
:10EF5000DE4F8881C652D1400F940DF2B0E2FB2EF5
:10EF6000F092C6008091C00086FFFCCF8091C00067
:10EF700080648093C0000DE30093C6008091C000C0
:10EF800086FFFCCF8091C00080648093C00010E2B7
:10EF90001093C6008091C00086FFFCCF8091C00016
:10EFA00080648093C0008BBEF3012791C65DDE4F65
:10EFB0002883CA52D140A22EBB24CC24DD2408943D
:10EFC000611C711C811C911C8BBEF3018791282E42
:10EFD0003324442455240894611C711C811C911C09
:10EFE0008BBEF3013791C55DDE4F3883CB52D140E4
:10EFF0000894611C711C811C911C8BBEF30147910C
:10F00000C45DDE4F4883CC52D140ADEFEA2EAFEF66
:10F01000FA2EAFEF0A2FAFEF1A2F6E0C7F1C801E57
:10F02000911E142D032DF22CEE24EA0CFB1C0C1D5A
:10F030001D1D0F940DF220E22093C6008091C000A8
:10F0400086FFFCCF8091C00080648093C000C65DC5
:10F05000DE4F8881CA52D1400F940DF230E23093D6
:10F06000C6008091C00086FFFCCF8091C000806404
:10F070008093C000C45DDE4F8881CC52D1400F9494
:10F080000DF240E24093C6008091C00086FFFCCFA5
:10F090008091C00080648093C000C55DDE4F888190
:10F0A000CB52D1400F940DF250E25093C6008091A4
:10F0B000C00086FFFCCF8091C00080648093C000B8
:10F0C0008FEFE8168FEFF80680E0080780E018075A
:10F0D00031F484E092EE60E00F94C2F1DFC0D80119
:10F0E000C7018070907CA070B0708050904CA040A0
:10F0F000B040D1F52FEF3FE340E050E0E222F322B1
:10F1000004231523CA5DDE4FA880B980CA80DB8046
:10F11000C652D140AE0CBF1CC01ED11EAA0CBB1CD7
:10F12000CC1CDD1C8EE092EE60E00F94C2F1BB2798
:10F13000A12F902F8F2D0F940DF28E2D0F940DF285
:10F1400030E23093C6008091C00086FFFCCF8091F2
:10F15000C00080648093C0004EE34093C60080915D
:10F16000C00086FFFCCF87C08EE09EEFA0E0B0E03D
:10F17000E822F9220A231B239CE0E91694E9F90608
:10F1800090E0090790E0190709F088C0C45DDE4FE0
:10F19000A881CC52D140EA2EFF2400E010E0102FCD
:10F1A0000F2DFE2CEE24C55DDE4FB881CB52D14031
:10F1B000EB0EF11C011D111DD601C501817090706F
:10F1C000A070B070DC0199278827E80EF91E0A1F8D
:10F1D0001B1F20EF30E040E050E0A222B322C42207
:10F1E000D52241E1AA0CBB1CCC1CDD1C4A95D1F7F1
:10F1F000EA0CFB1C0C1D1D1D81E090E0A0E0B0E0BE
:10F20000282239224A225B2235E1220C331C441C7D
:10F21000551C3A95D1F7E20CF31C041D151D57013E
:10F220006801AA0CBB1CCC1CDD1C85E192EE60E0E1
:10F230000F94C2F1C801AA27BB270F940DF2BB2778
:10F24000A12F902F8F2D0F940DF28E2D0F940DF274
:10F2500090E29093C6008091C00086FFFCCF809121
:10F26000C00080648093C000AEE3A093C60080918C
:10F27000C00086FFFCCF8091C00080648093C000F6
:10F28000C601AA27BB270F940DF2BB27AD2D9C2DDD
:10F290008B2D0F940DF28A2D0F940DF20F94DCF14B
:10F2A000CC5DDE4FE881F981C452D140F99709F471
:10F2B0004DCBF4E0EF2EF12C012D112D6E0C7F1CA7
:10F2C000801E911EF2CD83E093EE62E00F94F5F183
:10F2D0008AE192EE60E00F94C2F18091C00087FF56
:10F2E000FCCF1091C6001F751093C6008091C0001E
:10F2F00086FFFCCF8091C00080648093C0000F9493
:10F30000DCF1812F81548A3108F036C1163409F4BA
:10F3100095C0173490F4133409F44EC0143430F40B
:10F320001134F1F0123409F01DC130C0143409F465
:10F3300059C0153409F016C16BC01A3409F4C4C0A1
:10F340001B3438F4173409F48FC0183409F00AC19B
:10F35000A1C01B3409F4D2C01C3409F003C1E8C0B9
:10F360008FEF81B90DC082B1809582B980E090E0C5
:10F37000E0EDF7E03197F1F70196883C9105C1F790
:10F380008091C00087FFEFCF12B8EFC08FEF84B934
:10F390000DC085B1809585B980E090E0E0EDF7E0A3
:10F3A0003197F1F70196883C9105C1F78091C00033
:10F3B00087FFEFCF15B8D9C08FEF87B90DC088B1DF
:10F3C000809588B980E090E0E0EDF7E03197F1F7C3
:10F3D0000196883C9105C1F78091C00087FFEFCF6F
:10F3E00018B8C3C08FEF8AB90DC08BB180958BB9A7
:10F3F00080E090E0E0EDF7E03197F1F70196883C8E
:10F400009105C1F78091C00087FFEFCF1BB8ADC059
:10F410008FEF8DB90DC08EB180958EB980E090E0F0
:10F42000E0EDF7E03197F1F70196883C9105C1F7DF
:10F430008091C00087FFEFCF1EB897C08FEF80BBD1
:10F440000DC081B3809581BB80E090E0E0EDF7E0F6
:10F450003197F1F70196883C9105C1F78091C00082
:10F4600087FFEFCF11BA81C08FEF83BB0DC084B38C
:10F47000809584BB80E090E0E0EDF7E03197F1F714
:10F480000196883C9105C1F78091C00087FFEFCFBE
:10F4900014BA6BC08FEF809301010FC080910201FD
:10F4A00080958093020180E090E0E0EDF7E03197F5
:10F4B000F1F70196883C9105C1F78091C00087FF64
:10F4C000EDCF1092020151C08FEF809304010FC065
:10F4D0008091050180958093050180E090E0E0ED4A
:10F4E000F7E03197F1F70196883C9105C1F78091DB
:10F4F000C00087FFEDCF1092050137C08FEF8093DA
:10F5000007010FC08091080180958093080180E079
:10F5100090E0E0EDF7E03197F1F70196883C910536
:10F52000C1F78091C00087FFEDCF109208011DC088
:10F530008FEF80930A010FC080910B01809580931B
:10F540000B0180E090E0E0EDF7E03197F1F70196F4
:10F55000883C9105C1F78091C00087FFEDCF1092E4
:10F560000B0103C085E292EEEEC98091C00087FFD7
:10F57000FCCF8091C600EAC988E392EEE4C98CE131
:10F5800091EEE1C988249924933011F1943028F444
:10F59000913089F09230B8F408C0953061F195301F
:10F5A000F0F0963009F048C043C02B3109F042C951
:10F5B00091E06BE13FC96227C15DDE4F2883CF52E6
:10F5C000D14092E037C9B22FA0E0622793E032C960
:10F5D000822F90E0A82BB92B622794E02BC92E3004
:10F5E00009F039C3622795E0C05DDE4F19821882A9
:10F5F000C053D1401FC9E1E0F0E0EC0FFD1FC05D3A
:10F60000DE4F08811981C053D140E00FF11F2083E4
:10F610000F5F1F4FC05DDE4F19830883C053D14079
:10F6200062270A171B0709F005C9D80196E002C92D
:10F63000261709F010C303C0973009F0FBC87724E0
:10F640009981933109F412C19431C8F4963009F4C8
:10F65000D8C0973050F4923009F406C1933009F4C1
:10F660006DC0913009F059C253C0913109F477C08F
:10F67000923108F0BBC0903109F04FC2F5C098310B
:10F6800009F487C0993150F4953109F4EFC09531F0
:10F6900008F4C6C1963109F040C2C2C19A3109F4DA
:10F6A0006CC09A3108F491C09B3109F45BC09D3164
:10F6B00009F033C29D81903359F48F81882311F46E
:10F6C0009EE11CC0813011F091E018C098E916C08D
:10F6D000892F807591F0903539F4E0E0F0E089E011
:10F6E0008093570094910AC0983539F4E3E0F0E034
:10F6F00089E080935700949101C090E01A821B82A8
:10F700008D818C831D829E831F8227E030E009C299
:10F710001A8288E08B8381E48C8386E58D8382E581
:10F720008E8389E48F8383E5888780E589878FE5E9
:10F730008A8782E38B872BE030E0F3C18A818139AD
:10F7400041F0823941F0803911F48FE005C080E04A
:10F7500003C082E001C08AE01A828B8344C0772410
:10F76000739482C08D81882311F48EE12CC0813086
:10F7700011F081E028C088E926C01A82E1E0F0E0BB
:10F7800089E08093570084918B831C8224E030E0D1
:10F79000C8C18B81803589F48C81883039F4E2E0EE
:10F7A000F0E089E08093570084910DC0E0E0F0E044
:10F7B00089E080935700849106C0E3E0F0E089E09F
:10F7C0008093570084911A82DFCF8D81836C99E0FA
:10F7D000E1E0F0E0082E90935700E89507B600FCB2
:10F7E000FDCF1A821B8223E030E09BC180EC8A832C
:10F7F000CE5CDE4F188219821A821B82C253D1401E
:10F800008EC18A8190E0A0E0B0E0582F44273327D2
:10F8100022278B8190E0A0E0B0E0DC0199278827C7
:10F82000282B392B4A2B5B2B8D8190E0A0E0B0E098
:10F83000282B392B4A2B5B2B8C8190E0A0E0B0E089
:10F84000BA2FA92F982F8827282B392B4A2B5B2BCF
:10F85000220F331F441F551FC05EDE4F288339839C
:10F860004A835B83C052D1401A8259C13A81C95C34
:10F87000DE4F3883C753D140CA5CDE4F1882C6536F
:10F88000D1408B81C82EDD24CA5CDE4F488159816E
:10F89000C653D140C42AD52A933109F082C0CE5C28
:10F8A000DE4F88819981AA81BB81C253D1408050AB
:10F8B000904CA340B04030F583E0CE5CDE4FE88052
:10F8C000F9800A811B81C253D140F70100935B008C
:10F8D00080935700E89507B600FCFDCFCE5CDE4F65
:10F8E000088119812A813B81C253D14000501F4FAA
:10F8F0002F4F3F4FCE5CDE4F088319832A833B8313
:10F90000C253D140C05EDE4F488159816A817B81FC
:10F91000C052D140DE011B9631E08C9111962C91A2
:10F9200011971296C75CDE4F2883C953D140C85C3B
:10F93000DE4F1882C853D14090E0C85CDE4FE881AA
:10F94000F981C853D1408E2B9F2B0C01FA01609393
:10F950005B0030935700E89511244E5F5F4F6F4F67
:10F960007F4F0EEFE02E0FEFF02ECE0CDF1CC114F8
:10F97000D10499F685E0C05EDE4F088119812A81A5
:10F980003B81C052D140F80120935B008093570027
:10F99000E89507B600FCFDCF81E180935700E8951C
:10F9A00035C0C05EDE4F88819981AA81BB81C0527B
:10F9B000D140B695A795979587957C018601ABE0D8
:10F9C000AA2EB12CAC0EBD1E0BC0D5016D915D01F0
:10F9D000C7010F947FFE0894E11CF11C01501040F8
:10F9E0000115110591F7A60160E070E0440F551F65
:10F9F000661F771FC05EDE4FE880F9800A811B8199
:10FA0000C052D1404E0D5F1D601F711F1A82C05E33
:10FA1000DE4F488359836A837B83C052D1407FC0C5
:10FA2000FA80C55CDE4FF882CB53D140C65CDE4F16
:10FA30001882CA53D1408B81C82EDD24C65CDE4FAC
:10FA400008811981CA53D140C02AD12A1A828981DA
:10FA5000BE016D5F7F4F843121F59601C05EDE4FA0
:10FA6000E880F9800A811B81C052D1400BBFF701A9
:10FA700087919691DB018C9311969C936E5F7F4FDB
:10FA8000D801C7010296A11DB11DC05EDE4F88835B
:10FA90009983AA83BB83C052D14022503040F1F6F3
:10FAA00036C0C05EDE4F288139814A815B81C052F9
:10FAB000D1400894C108D108760100E010E0089414
:10FAC000C11CD11C0894E11CF11C011D111DE20E8A
:10FAD000F31E041F151F21BDBB27A52F942F832FB5
:10FAE00082BD2F5F3F4F4F4F5F4FF89A80B5DB01CC
:10FAF0008D93BD012E153F054007510761F7C05E8C
:10FB0000DE4F288339834A835B83C052D1409601FC
:10FB10002D5F3F4FFB01108204C080EC8A8322E0FE
:10FB200030E08BE18093C6008091C00086FFFCCF5F
:10FB30008091C00080648093C000C15DDE4FF88179
:10FB4000CF52D140F093C6008091C00086FFFCCF19
:10FB50008091C00080648093C000432F3093C60022
:10FB60008091C00086FFFCCF8091C00080648093AC
:10FB7000C000922F2093C6008091C00086FFFCCF6A
:10FB80008091C00080648093C0008EE08093C600A6
:10FB90008091C00086FFFCCF8091C000806480937C
:10FBA000C00065E1C15DDE4FE880CF52D1406E25D7
:10FBB00069276427FE01319610C090819093C6009A
:10FBC0008091C00086FFFCCF31968091C000806498
:10FBD0008093C0006927215030402115310569F715
:10FBE0006093C6008091C00086FFFCCF8091C0006A
:10FBF00080648093C00085B1805885B9772081F4F6
:10FC0000C15DDE4F0881CF52D1400F5FC15DDE4F35
:10FC10000883CF52D14090E0A0E0B0E00D941AF4F8
:10FC200027982F9880E090E020ED37E0F901319798
:10FC3000F1F7019684369105C9F700008091C00064
:10FC40008D7F8093C00081E180935700E895EE2777
:10FC5000FF270994FFCF90E00D941AF497FB092E2B
:10FC600007260AD077FD04D02ED006D000201AF443
:10FC7000709561957F4F0895F6F7909581959F4F08
:10FC80000895A1E21A2EAA1BBB1BFD010DC0AA1FDD
:10FC9000BB1FEE1FFF1FA217B307E407F50720F0F5
:10FCA000A21BB30BE40BF50B661F771F881F991F70
:10FCB0001A9469F760957095809590959B01AC01B9
:10FCC000BD01CF010895AA1BBB1B51E107C0AA1FAC
:10FCD000BB1FA617B70710F0A61BB70B881F991FED
:10FCE0005A95A9F780959095BC01CD010895F99991
:10FCF000FECF92BD81BDF89A992780B50895262F31
:10FD0000F999FECF1FBA92BD81BD20BD0FB6F89400
:0EFD1000FA9AF99A0FBE01960895F894FFCF63
:00000001FF
