:100000000C94C1010C94F2010C94F2010C94F201D5
:100010000C94F2010C94F2010C94F2010C94F20194
:100020000C94F2010C948D080C948D080C948D089E
:100030000C94F2010C94F2010C94F2010C94F20174
:100040000C94F2010C94F2010C94F2010C94F20164
:100050000C94F2010C94F2010C94F2010C944308FC
:100060000C94F2010C940D080C94E3070C94F2012B
:100070000C94F2010C94F2010C94F2010C94F20134
:100080000C94F2010C94F2010C94F2010C94F20124
:100090000C94F2010C94F2010C94F2010C94F20114
:1000A0000C94F2010C94F2010C94F2010C94F20104
:1000B0000C94F2010C94F2010C94F2010C94F201F4
:1000C0000C94F2010C94F2010C94F2010C94F201E4
:1000D0000C94F2010C94F2010C94F2010C94F201D4
:1000E0000C94F2010C9491040C947B030C943E0745
:1000F0000C946C040C941D070C94D2020C94900682
:100100000C949B040C9464040C949F040C94490478
:100110000C94A5020C9487040C9468040C948D0430
:100120000C9479040C94A8060C946F040C947F042E
:100130000C9475040C9495040C944E040C94600477
:100140000C94E1020C94C8030C944E090C948304A3
:100150000C94A9060C9435030C9443030C945B1087
:100160000C94050700407A10F35A00A0724E18094B
:100170000010A5D4E80000E87648170000E40B540E
:10018000020000CA9A3B000000E1F50500008096DD
:100190009800000040420F000000A086010000000F
:1001A000102700000000E8030000000064000000C9
:1001B00000000A00000000000100000000002C7692
:1001C000D888DC674F0823DFC1DFAE59E1B1B796AD
:1001D000E5E3E453C63AE651997696E8E6C284260A
:1001E000EB898C9B62ED407C6FFCEFBC9C9F40F2E6
:1001F000BAA56FA5F490055A2AF75C936B6CF96762
:100200006DC11BFCE0E40D47FEF520E6B500D0ED26
:10021000902E0300943577050080841E080000208E
:100220004E0A000000C80C333333330F986E12832C
:100230001141EF8D2114893BE65516CFFEE6DB1800
:10024000D1844B381BF77C1D901DA4BBE4242032C5
:1002500084725E228100C9F124ECA1E53D270000F3
:100260002100240027002A002D0030003300010166
:100270000000040107010A0100000A0B02090C0D2D
:100280000E08070304010000000000000000000049
:10029000000000000000000000000000000000005E
:1002A000000000001211100000000000000000001B
:1002B000000000000000000000000000000000003E
:1002C00020002300260029002C002F00320000010E
:1002D000000003010601090100002200250028009A
:1002E0002B002E003100340002010000050108013E
:1002F0000B010505050507050808080802020202AA
:100300000A0A0808040404040101010101010101B1
:100310000303030303030303040707070C0C0C0C7C
:100320000C0C0C0C02020202060606060606060665
:100330000B0B0B0B0B0B0B0B0102102020080810F2
:100340002040102040800201020108040201010245
:10035000040810204080804020100804020180041E
:100360000201804020100804020108040201010279
:1003700004081020408001020408102040804E092B
:100380005B1011241FBECFEFD1E2DEBFCDBF00E076
:100390000CBF25E0AAEFB3E001C01D92A432B20762
:1003A000E1F713E0A0E0B2E0EEE3FFE200E00BBF14
:1003B00002C007900D92AA3FB107D9F711E0C0EC37
:1003C000D1E000E006C021970109802FFE010E94C4
:1003D0002115CF3BD10780E00807A9F70E94130A37
:1003E0000C948D170C940000CF92DF92EF92FF9245
:1003F000CF938091F2048C3009F44FC038F48B30E5
:10040000F1F060E070E080EC9FE741C08551823000
:10041000C0F7C091EE046C2F70E0762F6627662738
:100420007F778091EF04682B90E080E00E941F139B
:100430002DEC3CEC4CEC5DE30E9480134AC06091D3
:10044000EE0470E090E080E00E941F136B017C01DD
:10045000C091EF04C7FF0AC0AC019B0160E070E0EF
:1004600080E89FEB0E9441146B017C01CF706C2FE0
:1004700070E090E080E00E9421132DEC3CEC4CEC0D
:100480005DE30E948013A70196010E944214CF9160
:10049000FF90EF90DF90CF900895C091EE046C2F05
:1004A00070E090E080E00E941F136B017C0160917E
:1004B000EF046F7070E090E080E00E9421132DEC5B
:1004C0003CEC4CEC5DE30E948013A70196010E9476
:1004D0004214C7FFDCCF9058DACFCF92DF92EF9271
:1004E000FF92CF93DF93B091F304A0E08111AB2F83
:1004F0008091F40490E0880F991FAC0142545D4F45
:10050000C090F904D090FA04E090FB04F090FC0451
:1005100030E020E0FA01C591D491E881B90190E082
:1005200080E0EB23EA130AC02F5F3F4F6C157D0577
:100530008E059F0578F36FEF7FEFCB01DF91CF91B1
:10054000FF90EF90DF90CF900895AF92BF92CF923F
:10055000DF92EF92FF920F931F93CF93DF936C0183
:100560007B018B01040F151FEB015E01AE18BF0864
:10057000C017D10759F06991D601ED91FC91019016
:10058000F081E02DC6011995892B79F7C501DF911E
:10059000CF911F910F91FF90EF90DF90CF90BF9080
:1005A000AF900895FC01538D448D252F30E0842FAA
:1005B00090E0821B930B541710F0CF96089501978B
:1005C0000895FC01918D828D981761F0A28DAE0F78
:1005D000BF2FB11D5D968C91928D9F5F9F73928FFF
:1005E00090E008958FEF9FEF08952FB7F8948091D2
:1005F0004B0490914C04A0914D04B0914E042FBF38
:100600008093570490935804A0935904B0935A04CC
:100610008FE494E00E94E10297FF26C02FB7F89480
:1006200080914B0490914C04A0914D04B0914E04E4
:100630002FBF409157045091580460915904709114
:100640005A04841B950BA60BB70B40915304509191
:100650005404609155047091560484179507A607B9
:10066000B707B0F28FEF9FEF0895FC01918D828D57
:10067000981731F0828DE80FF11D858D90E0089577
:100680008FEF9FEF0895FC01918D228D892F90E0CF
:10069000805C9F4F821B91098F73992708958FE487
:1006A00094E00E94430321E0892B09F420E0822F8B
:1006B0000895FC01A48DA80FB92FB11DA35ABF4FF7
:1006C0002C91848D90E001968F739927848FA68951
:1006D000B7892C93A089B1898C91837080648C93A5
:1006E000938D848D981306C00288F389E02D808154
:1006F0008F7D80830895EF92FF920F931F93CF9386
:10070000DF93EC0181E0888F9B8D8C8D98131AC04C
:10071000E889F989808185FF15C09FB7F894EE8933
:10072000FF896083E889F989808183708064808390
:100730009FBF81E090E0DF91CF911F910F91FF90DB
:10074000EF900895F62E0B8D10E00F5F1F4F0F7383
:100750001127E02E8C8D8E110CC00FB607FCFACF3E
:10076000E889F989808185FFF5CFCE010E94590380
:10077000F1CFEB8DEC0FFD2FF11DE35AFF4FF0820F
:100780009FB7F8940B8FEA89FB8980818062CFCF75
:10079000CF93DF93EC01888D8823B9F0AA89BB89B8
:1007A000E889F9898C9185FD03C0808186FD0DC0A3
:1007B0000FB607FCF7CF8C9185FFF2CF808185FFC4
:1007C000EDCFCE010E945903E9CFDF91CF9108957B
:1007D00080E090E0892B29F00E944F0381110E9454
:1007E000000080E090E0892B49F080E090E0892BC8
:1007F00029F00E94000081110E94000080E090E03A
:10080000892B49F080E090E0892B29F00E940000BC
:1008100081110E94000080E090E0892B49F080E087
:1008200090E0892B29F00E94000081110C940000B7
:100830000895282F30E0F901E858FD4F9491F9010F
:10084000E85CFC4F44912E503D4FF9012491222346
:1008500009F435C0992311F191509231F8F4E92F40
:10086000F0E08827E95CFB4F8F4F0C94211568045A
:100870006C044904600464044E046F047504790434
:100880007F04830487048D0491044E0495049B0423
:100890009F04809180008F7780938000E22FF0E0AA
:1008A000EE0FFF1FE852FD4FA591B4918FB7F8945A
:1008B000EC91611148C040954E234C938FBF089531
:1008C000809180008F7DE8CF80918000877FE4CF8A
:1008D00084B58F7784BDE2CF84B58F7DFBCF8091C7
:1008E000B0008F778093B000D9CF8091B0008F7D1A
:1008F000F9CF809190008F7780939000CFCF809137
:1009000090008F7DF9CF80919000877FF5CF809107
:10091000A0008F778093A000C1CF8091A0008F7D31
:10092000F9CF8091A000877FF5CF809120018F774C
:1009300080932001B3CF809120018F7DF9CF8091EA
:100940002001877FF5CF4E2BB8CFCF93DF9390E078
:10095000FC01E85CFC4F24918E509D4FFC0184917A
:100960008823C9F090E0880F991FFC01E25AFD4FDF
:10097000A591B491FC01E852FD4FC591D49161114C
:100980000DC09FB7F8948C91209582238C93888119
:10099000282328839FBFDF91CF910895623051F4BF
:1009A0009FB7F8943C91822F809583238C93E881A4
:1009B0002E2BEFCF8FB7F894EC912E2B2C938FBF6B
:1009C000EACF3FB7F89480913B0490913C04A0910A
:1009D0003D04B0913E0426B5A89B05C02F3F19F0F9
:1009E0000196A11DB11D3FBFBA2FA92F982F8827AF
:1009F000BC01CD01620F711D811D911D42E0660F8A
:100A0000771F881F991F4A95D1F708958F929F925B
:100A1000AF92BF92CF92DF92EF92FF924B015C01B7
:100A20000E94E1046B017C010E94E1046C197D09C4
:100A30008E099F09683E734081059105A8F321E066
:100A4000821A9108A108B10888EEC80E83E0D81E6A
:100A5000E11CF11C81149104A104B10429F7FF9059
:100A6000EF90DF90CF90BF90AF909F908F900895C0
:100A7000CF92DF92EF92FF920F931F93CF93DF936A
:100A8000CDB7DEB7C054D1400FB6F894DEBF0FBE6D
:100A9000CDBF2FB7F89480914B0490914C04A09156
:100AA0004D04B0914E042FBF4091F5045091F604CF
:100AB0006091F7047091F8048C019D01041B150BE3
:100AC000260B370BB901A801403D57406105710560
:100AD00090F48091FD04C05CDE4F0FB6F894DEBF49
:100AE0000FBECDBFDF91CF911F910F91FF90EF907F
:100AF000DF90CF9008958093F5049093F604A0932F
:100B0000F704B093F8041092F0041092EF041092DE
:100B1000EE041092ED041092EC0462E08091F10476
:100B20000E94A50461E070E080E090E00E9406056C
:100B300061E08091F1040E94A50460E08091F104DD
:100B40000E9419048091F2048551823020F58BE2D5
:100B500091E10197F1F762E08091F1040E94A50410
:100B60008091FE0490E08230910538F0880F991F43
:100B7000880F991F05970197F1F7F89480E00E947C
:100B80006D026F3F7F4F8F4F9F4F61F41092FD04B6
:100B9000789480E0A0CF64E170E080E090E00E9473
:100BA0000605D9CF81E00E946D026F3F7F4F8F4FC6
:100BB0009F4F61F38E010F5F1F4F6E018FEBC81ABD
:100BC0008EEFD80A780180E00E946D02F701608301
:100BD00071838283938381E00E946D02F7016483B5
:100BE000758386839783F8E0EF0EF11CEC14FD0407
:100BF00051F7789430E020E0F801C080D180E280A5
:100C0000F3804481558166817781FFEFCF16DF063F
:100C1000EF06FF0631F04F3F8FEF58076807780760
:100C200019F41092FD04B5CFF90183E0F595E7952D
:100C30008A95E1F7E451FB4F8081880FC416D506F1
:100C4000E606F70610F180832F5F3F4F085F1F4FC6
:100C50002832310589F64091F0042091EC0480910E
:100C6000ED04280F3327331F8091EE04280F311D28
:100C70008091EF04820F932F911D99274817190631
:100C800081F681E08093FD0426CF8160DCCFCF9296
:100C9000DF92EF92FF920E943805882349F08091FD
:100CA000F2048B3028F08D3040F08551823030F1E5
:100CB00060E070E080EC9FE71CC06091ED0470E0A4
:100CC00090E080E00E9421132DEC3CEC4CEC5DE3C5
:100CD0000E9480136B017C016091EC0470E090E055
:100CE00080E00E9421139B01AC01C701B6010E9464
:100CF0004214FF90EF90DF90CF9008956091EC0444
:100D00007091ED0476276727762790E080E00E94B7
:100D10001F132DEC3CEC4CEC5DE30E948013E9CFFB
:100D200020914104309142042817390771F49091C1
:100D30003F0480914004981741F0E0913F04F0E0B7
:100D4000E650FC4F808190E008958FEF9FEF08956B
:100D50000895EF92FF920F931F93CF93DF93DC01DF
:100D60005C96ED90FC905D97E114F10479F481E0DC
:100D700090E013969C938E93129790E080E0DF9121
:100D8000CF911F910F91FF90EF9008955196ED91A3
:100D9000FC91529750968C915097982F90950FB741
:100DA0005E962C915E97122F127021FD6095F8943B
:100DB0002081112319F1282B2083E7012197F1F7D6
:100DC00028E0462F50E0308160FF1AC0382B308376
:100DD000E7012197F1F7BA0175956795215089F7D9
:100DE000112381F08081892380830FBF5C968D91D0
:100DF0009C910197F1F781E090E0C1CF2923DCCFEE
:100E00003923E5CF9081892BEFCF20914104309198
:100E100042042817390771F48091400420913F045F
:100E200090E0805C9F4F821B910960E470E00E941B
:100E3000EE14089590E080E00895209141043091EF
:100E4000420428173907B9F490913F048091400477
:100E5000981789F0E0913F04F0E0E650FC4F808164
:100E600020913F0430E02F5F3F4F2F7333272093B3
:100E70003F0490E008958FEF9FEF089590E080E0A9
:100E8000089542E050E06CE272E08FE494E00C944C
:100E9000A502CF93DF93FC0101900020E9F7319781
:100EA000AF01481B590BBC018FE494E00E94A502DE
:100EB000EC010E9441078C0F9D1FDF91CF91089597
:100EC000FC0180819181009711F00C94FB1508952D
:100ED0000F931F93CF93DF93EC0188819981009743
:100EE00059F02A813B812617370730F081E0DF91E6
:100EF000CF911F910F9108958B016F5F7F4F0E94DB
:100F00008416009759F0998388831B830A832C8168
:100F10003D81232B59F7FC011082E8CF80E0E7CF19
:100F2000CF92DF92EF92FF920F931F93CF93DF93B5
:100F3000CDB7DEB764970FB6F894DEBF0FBECDBF56
:100F40007C01CB01BA018E010F5F1F4F22E044E00C
:100F50000E9477106C01FC0101900020E9F73197A5
:100F6000E81BF90B892B81F480E064960FB6F894A6
:100F7000DEBF0FBECDBFDF91CF911F910F91FF90CC
:100F8000EF90DF90CF9008953097D9F0D701149665
:100F90000D911C910E0F1F1FB801C7010E94680719
:100FA000882311F3F7012081318184819581B60175
:100FB000820F931F0E947717D70115961C930E93EB
:100FC000149781E0D2CF1F920F920FB60F92112487
:100FD0000BB60F922F933F934F935F936F937F9333
:100FE0008F939F93AF93BF93EF93FF938FE494E01E
:100FF0000E945903FF91EF91BF91AF919F918F9103
:101000007F916F915F914F913F912F910F900BBE08
:101010000F900FBE0F901F9018951F920F920FB652
:101020000F9211240BB60F922F938F939F93EF93F0
:10103000FF93E0915F04F09160048081E09165048A
:10104000F091660482FD1DC09081809168048F5FDD
:101050008F7320916904821741F0E0916804F0E0F9
:10106000E15BFB4F958F80936804FF91EF919F9117
:101070008F912F910F900BBE0F900FBE0F901F906E
:1010800018958081F2CF1F920F920FB60F92112404
:101090002F933F938F939F93AF93BF9380914B0474
:1010A00090914C04A0914D04B0914E0430913A04BB
:1010B00023E0230F2D3758F50196A11DB11D209374
:1010C0003A0480934B0490934C04A0934D04B09346
:1010D0004E0480913B0490913C04A0913D04B0915A
:1010E0003E040196A11DB11D80933B0490933C04E6
:1010F000A0933D04B0933E04BF91AF919F918F9117
:101100003F912F910F900FBE0F901F90189526E8DA
:10111000230F0296A11DB11DD2CF1F920F920FB6C1
:101120000F9211240BB60F922F933F934F935F931F
:101130006F937F938F939F93AF93BF93EF93FF939F
:10114000E0914104F0914204309749F0A685B785BB
:101150008585968D91FF16C09C918923B1F4FF91EE
:10116000EF91BF91AF919F918F917F916F915F911F
:101170004F913F912F910F900BBE0F900FBE0F908C
:101180001F9018959C91892351F7A389B4899C914C
:101190008589809589238C93868997890197F1F7B2
:1011A000608D718DA685B785558538E020E0CB012F
:1011B0000197F1F7822F90E095958795282F4C9114
:1011C000452309F02068315091F7868D81FD2095E7
:1011D0008091400490E001968F73992730913F04ED
:1011E000381799F0A0914004B0E0A650BC4F2C9362
:1011F00080934004828D938D0197F1F7A389B48980
:101200008C919589892B8C93AACF868D8160868F4E
:10121000F1CFCF92DF92EF92FF920F931F93E82FBF
:10122000F92F05C0015011092109310961F190819F
:1012300096239417B9F305C001501109210931090A
:1012400011F1908196239413F7CFC12CD12CE12C6E
:10125000F12C0AC08FEFC81AD80AE80AF80A0C1550
:101260001D052E053F0579F080818623841791F3B3
:101270006C2D7D2D8E2D9F2D1F910F91FF90EF9046
:10128000DF90CF90089560E070E080E090E01F91E3
:101290000F91FF90EF90DF90CF900895109252043D
:1012A0001092510488EE93E0A0E0B0E080935304E4
:1012B00090935404A0935504B09356042CE032E06C
:1012C0003093500420934F0425EC30E030935C04BD
:1012D00020935B0424EC30E030935E0420935D04A3
:1012E00020EC30E03093600420935F0421EC30E088
:1012F000309362042093610422EC30E03093640464
:101300002093630426EC30E0309366042093650458
:10131000109268041092690410926A0410926B048F
:101320001092020510920105809303059093040525
:10133000A0930505B09306058EE192E09093000519
:101340008093FF041092160510921505109218054F
:101350001092170510921A051092190510921C058B
:1013600010921B0560911D056E7F6D7F60931D05BA
:101370006695617081E068270E94190461E081E050
:101380000E94A504E9E3F3E0E491E0930F05E3EFA5
:10139000F2E0E491F0E0EE0FFF1FE852FD4F85917F
:1013A0009491909311058093100560E080E00E9475
:1013B000A50480911D0581FD04C061E080E00E94CC
:1013C000190410920B05E8E3F3E0E491E0930C05B7
:1013D000E2EFF2E0E491F0E0EE0FFF1FE254FD4F88
:1013E0008591949190930E0580930D0586E18093ED
:1013F000F1048BE08093F204EEE4F3E0E491E093F7
:10140000F304E8E0F3E0E491E093F40480E89EE381
:10141000A0E0B0E08093F9049093FA04A093FB0459
:10142000B093FC040895CF93DF93CDB7DEB7EA976E
:101430000FB6F894DEBF0FBECDBF789484B582603E
:1014400084BD84B5816084BD85B5826085BD85B568
:10145000816085BD80916E00816080936E001092E6
:101460008100809181008260809381008091810061
:1014700081608093810080918000816080938000F2
:101480008091B10084608093B1008091B000816050
:101490008093B00080919100826080939100809150
:1014A0009100816080939100809190008160809391
:1014B00090008091A10082608093A1008091A100A2
:1014C00081608093A1008091A00081608093A00042
:1014D00080912101826080932101809121018160AE
:1014E000809321018091200181608093200180916F
:1014F0007A00846080937A0080917A008260809381
:101500007A0080917A00816080937A0080917A00DD
:10151000806880937A001092C100E0915F04F0919E
:10152000600482E08083E0915B04F0915C041082AF
:10153000E0915D04F0915E048FEC8083109267046B
:10154000E0916304F091640486E08083E09161049B
:10155000F0916204808180618083E0916104F09168
:101560006204808188608083E0916104F09162046C
:10157000808180688083E0916104F09162048081C1
:101580008F7D808310921A0510921905109218050C
:101590001092170510921605109215058DE991E02D
:1015A00090931C0580931B0580910B0596EF980F77
:1015B000943048F02EEC280F243028F022EC280F2D
:1015C000283008F061C02DEB30E0309316052093F1
:1015D00015052BE931E030931805209317052CE20F
:1015E00031E030931A0520931905943050F02EEC19
:1015F000280F243030F022EC280FF0E0E0E0283013
:1016000010F4E8E6F0E02081943028F032EC380F56
:10161000383008F4C4C131E0232B943048F09EECFC
:10162000980F943028F08E53F0E0E0E0883010F40A
:10163000E8E6F0E0208320910B0536EF320F3430DE
:1016400008F4AFC18EEC820F843008F4AAC182EC9A
:10165000820F883008F0A8C18DE690E090931305C2
:1016600080931205343008F0A2C12650330B81E07C
:1016700001C0880F2A95EAF78093140580911B0515
:1016800090911C050197F1F78091190590911A0529
:10169000892B49F1E0914104F091420484E0EF3F4D
:1016A000F80709F1309739F0A389B4899C918589AD
:1016B000809589238C9380911D058E7F80931D05D5
:1016C0001092400410923F048FEF94E090934204F4
:1016D00080934104E0911205F0911305808190916F
:1016E0001405892B808362E08091F1040E94A50497
:1016F0002FB7F89480914B0490914C04A0914D0425
:10170000B0914E042FBF805D9740A109B10980932D
:10171000F5049093F604A093F704B093F80487E3DC
:101720008093FE0461E087E10E94A50461E088E106
:101730000E94A50461E089E10E94A50461E08AE1BC
:101740000E94A50461E08BE10E94A50461E08CE1A8
:101750000E94A50461E08DE10E94A50461E08EE194
:101760000E94A50461E085E30E94A50460E084E393
:101770000E94A50461E081E30E94A50461E083E387
:101780000E94A50461E082E30E94A50461E080E27A
:101790000E94A50461E081E20E94A50461E082E369
:1017A0000E94190461E08FE10E94A50423E0222E2B
:1017B000312C3AE3432E512C612C712CDE0113960F
:1017C000BAAFA9AF0E943805882359F00E94F401EE
:1017D0006B017C01AC019B010E94E914882309F490
:1017E000FBC08FE292E00E94490764E670E080E06F
:1017F00090E00E9406050E9447066B017C01AC0147
:101800009B010E94E914882309F43AC180E492E024
:101810000E94490768EE73E080E090E00E940605B0
:1018200060E085E30E941904C1010197F1F761E0CE
:1018300085E30E94190483E290E00197F1F760E0EC
:1018400085E30E941904ECE6F3E06491E6E2F3E03C
:101850008491E82FF0E0EE0FFF1FE254FD4F8591D9
:10186000949100E412E42FE030E0462F0E94090931
:10187000611571058105910529F06F5F7F4F8F4FCD
:101880009F4F9F70A30192010E94021569017A0186
:1018900064E670E080E090E00E940605009100029E
:1018A00010910102FBE5CF16D104E104F1040CF024
:1018B0003DC160E082E30E94190461E083E30E947D
:1018C0001904012B41F0109201021092000289E5E7
:1018D00092E00E94490764E670E080E090E00E9498
:1018E0000605009147041091480496E0C916D104FA
:1018F000E104F1040CF02FC161E081E30E941904BE
:101900000130110551F0A1E0B0E0B0934804A0937C
:10191000470484E792E00E9449078FE494E00E9424
:101920004303892B09F42DC31CAA1BAA1EAA1DAAB6
:1019300018AE1FAA70E060E0CE01C3960E9468074F
:101940002BA93CA9811115C12115310519F0C90137
:101950000E94FB151CAA1BAA18AE1FAA1EAA1DAA2C
:101960000E94F5020FA918AD97FD0BC189831A8259
:101970000F5F1F4FB801CE01C3960E9468078823EE
:1019800079F32BA93CA98FA998ADBE016F5F7F4F5A
:10199000820F931F0E94771718AF0FABE1CF34E08F
:1019A0003BCE8BE690E05ACE90E080E057CE88E0C8
:1019B000223309F461CE84E0233309F45DCE82E062
:1019C000243309F459CE82EC820F883018F42E5358
:1019D000330B4DCE81E050CE6091430470914404AE
:1019E000072E000C880B990B0E942113A70196016A
:1019F0000E941A13882309F4F8CEC701B6010E9489
:101A0000AE1470934404609343041A8219821C82BA
:101A10001B821E821D8262E070E0CE0101960E9450
:101A2000680729813A81811121C02115310519F0FA
:101A3000C9010E94FB151A8219821E821D821C8216
:101A40001B82B701A601CE0101960E9490074D812D
:101A50005E8169817A818FE494E00E94A5020E94F0
:101A60004107CE0101960E946007BFCE82E090E060
:101A70009E838D836DE372E0C9010E947717E1CFE9
:101A80006091450470914604072E000C880B990B59
:101A90000E9421139B01AC01C701B6010E941A13D9
:101AA000882309F4B7CEC701B6010E94AE14709323
:101AB0004604609345041A8219821C821B821E828E
:101AC0001D8262E070E0CE0101960E9468072981C4
:101AD0003A81811121C02115310519F0C9010E94F7
:101AE000FB151A8219821E821D821C821B82B7017D
:101AF000A601CE0101960E9490074D815E81698109
:101B00007A818FE494E00E94A5020E944107CE01F1
:101B100001960E9460077ECE82E090E09E838D83D6
:101B200066E572E0C9010E947717E1CF61E082E3C8
:101B30000E94190460E083E30E941904013011053A
:101B400009F4C9CE81E090E09093010280930002F5
:101B500087E692E0BECE60E081E30E941904012B8B
:101B600009F4DBCE10924804109247048CE792E00F
:101B7000D2CE18AE1FAA6EE272E0C9010E9477179A
:101B8000EFCEE0E2F0E0FA83E983A9ADBAADE0E39D
:101B90001D92EA95E9F7EBA8FCA80F3F100709F49E
:101BA0006FC00115110509F05EC01982E114F1043E
:101BB00009F069C067E572E0CE0101960E949510B8
:101BC0007C016EEB72E00E946E17892B41F067EC8E
:101BD00072E0C7010E946E17892B09F0CAC167EC39
:101BE00072E0C7010E946E17892B09F053C167E5A7
:101BF00072E090E080E00E9495107C016EE272E05D
:101C00000E9495108C016C01F80101900020E9F709
:101C10003197E01BF10BC601801B910B8E179F07BC
:101C200008F038C1D6018D916D01813399F0D8014A
:101C30009C91953709F0EFC011969C9111979E36B3
:101C400009F0E9C012969C919F3609F0E4C03397E1
:101C500009F0E1C060E087E10E9419048EEC92E097
:101C60000E944907D1CFA801B701CE0101960E9479
:101C70007E17E1E0F0E0EC0FFD1FE00FF11F108296
:101C8000E114F10449F0670101151105B9F58FA9B7
:101C900098AD892B09F48ECF0BA91CA967E672E0D9
:101CA000C8010E946E17892B09F05EC061E082E3D3
:101CB0000E94190460E083E30E94190487E692E021
:101CC0000E94490781E090E0909301028093000216
:101CD00068E873E180E090E00E94060560E082E33E
:101CE0000E94190461E083E30E94190464EF71E02B
:101CF00080E090E00E9406055DCF650156018FEF00
:101D0000A81AB80AD6018C91082E000C990B0E94D3
:101D10001113892B91F7015011090E0D1F1DF801A8
:101D20008081082E000C990B0E941113892B31F031
:101D30000C151D0518F001501109F1CF0F5F1F4F51
:101D4000A8014C195D0958AF4FABEC14FD0420F409
:101D5000B601C7010E946517EBA9FCA98FA998AD30
:101D6000E80FF91F108293CF62E872E0C8010E9469
:101D70006E17892B29F561E087E10E94190461E063
:101D800088E10E94190461E089E10E94190461E080
:101D90008AE10E94190461E08BE10E94190461E06C
:101DA0008CE10E94190461E08DE10E94190461E058
:101DB0008EE10E94190481E992E00E944907FACE5F
:101DC00062EA72E0C8010E946E17892B09F0F2CE18
:101DD00060E087E10E94190460E088E10E94190434
:101DE00060E089E10E94190460E08AE10E94190420
:101DF00060E08BE10E94190460E08CE10E9419040C
:101E000060E08DE10E94190460E08EE10E941904F7
:101E10008FEA92E0D2CF823339F460E088E10E9409
:101E200019048CED92E01CCF833339F460E089E132
:101E30000E9419048AEE92E013CF843339F460E0F3
:101E40008AE10E94190488EF92E00ACF853339F4C1
:101E500060E08BE10E94190486E093E001CF8633B5
:101E600039F460E08CE10E94190484E193E0F8CE3B
:101E7000873339F460E08DE10E94190482E293E037
:101E8000EFCE883339F460E08EE10E94190480E3DC
:101E900093E0E6CE6EEB72E0C7010E946E17892BCD
:101EA00009F06BC067E572E090E080E00E94951059
:101EB0006EE272E00E9495108C017C01F8010190A5
:101EC0000020E9F73197E01BF10BC701801B910B54
:101ED0008E179F0708F051C0F70181917F01813370
:101EE00049F461E087E10E9419048EE393E00E94C7
:101EF0004907E4CF823339F461E088E10E94190494
:101F00008EE493E0F4CF833339F461E089E10E94F9
:101F100019048EE593E0EBCF843339F461E08AE174
:101F20000E9419048EE693E0E2CF853339F461E034
:101F30008BE10E9419048EE793E0D9CF863339F400
:101F400061E08CE10E9419048EE893E0D0CF8733E2
:101F500039F461E08DE10E9419048EE993E0C7CF66
:101F6000883359F461E08EE10E9419048EEA93E00F
:101F7000BECF8EEB93E00E944907CE01C3960E942C
:101F800060070E943805882309F44CC00E94F401C0
:101F90006B017C010E9447064B015C01A701960181
:101FA000C701B6010E94E914882309F442C08FE2F8
:101FB00092E00E94490780917B00877F80937B009D
:101FC000F0E4F0937C0080917A00806480937A0042
:101FD00080917A0086FDFCCF809178000091790095
:101FE000102F082F64E670E080E090E00E94060564
:101FF0008091490490914A048017910781F01093D1
:102000004A0400934904053611050CF04DC061E007
:102010008FE10E94190484ED93E00E9449070E9419
:10202000E803D0CBC12CD12C80ECE82E8FE7F82E22
:10203000B1CFA5019401C501B4010E94E914811139
:10204000B6CF20E030E040E252E4C501B4010E9486
:102050001A1387FD0BC020E030E040E752E4C501D1
:10206000B4010E94E41460E018160CF461E080E210
:102070000E94190420E030E048E951E4C701B601AC
:102080000E941A1387FD0BC020E030E048EC51E4B9
:10209000C701B6010E94E41460E018160CF461E078
:1020A00081E20E94190487CF60E08FE10E94190449
:1020B00087EE93E0B2CF8EE192E09093000580939B
:1020C000FF0480914104909142048F5F944071F429
:1020D000E0911205F091130590818091140580958F
:1020E0008923808310924204109241040895EF9254
:1020F0000F931F93CF93DF93E80134E047FD34E162
:10210000042E000C550B57FF03C051954195510902
:10211000E32E022F242FAE010E94C010CE01DF91CA
:10212000CF911F910F91EF9008954EE155E00C94DF
:102130009910FA01A191B081009719F41097E1F07C
:10214000CD01DC01CD010D90002011F4C00113C0C0
:10215000FB012191222319F02015D9F7F3CFFB01C0
:102160002191201519F41E92119606C02223C1F761
:102170000D900020A1F7D001FA01A193B08308953A
:102180008F929F92AF92BF92CF92DF92EF92FF9287
:102190000F931F93CF93DF9300D000D000D0CDB723
:1021A000DEB76A01F22EB02E102FFBE3AF2EA01681
:1021B00008F41BE31F5F012F27E0AE014F5F5F4F65
:1021C0000E943912BC018981982F9970913009F4CD
:1021D0004EC09BE2E1FC04C09E2D9170E0FC49C022
:1021E0005E2D5071E82FE87083FF55C084E0911197
:1021F00001C083E0EF2DE81B8F1508F0E0E0D60169
:102200008E2F20E25523C9F1992329F0D6019C9302
:10221000C60101966C0196012D5F3F4FE2FE33C06F
:102220008EE4D6018C9391E411969C9311971296AB
:102230008C93D9018E2F90E281112AC0E20FF32FE7
:10224000F11D10828EEF9FEF29960FB6F894DEBF36
:102250000FBECDBFDF91CF911F910F91FF90EF90F7
:10226000DF90CF90BF90AF909F908F9008959DE2A8
:10227000B7CF90E2B5CF2D9381508111FCCFCE0E18
:10228000D11CE0E0C1CF8EE6D6018C9391E6CCCF95
:102290009D938150D1CF482F447082FF3DC084E090
:1022A000911101C083E08F1510F4EF2DE81BD601CA
:1022B0008E2F20E2552309F1992329F0D6019C9312
:1022C000C60101966C0196012D5F3F4FE2FE1BC0D7
:1022D00089E4D6018C938EE411968C93119786E451
:1022E00012968C93D9018E2F90E2882309F4A6CF01
:1022F0009D938150FACF2D9381508111FCCFCE0E4A
:10230000D11CE0E0D9CF89E6D6018C938EE61196F8
:102310008C93119786E6E4CF9B0177FF02C030E0F3
:1023200020E0A1E0B0E0911102C0B0E0A0E0F9012E
:102330003196AE0FBF1F8B2C912CBB2009F461C0CE
:102340005401EFEFAE1ABE0AAA0DBB1DFA161B060A
:1023500019F014F04F2D4A1B511188C0E3FC59C0ED
:102360007601A42FB0E2A1114FC0C40ED11C992355
:1023700009F45BC040E0D6011196F60190836D012F
:10238000552309F448C0012F060F9A81582F507128
:1023900084FF03C0913309F4015010160CF047C0BC
:1023A000093008F008E0EEE2FE2E5B01A01AB10849
:1023B00085019194819491082F3F320729F4D60129
:1023C000FC92F60131966F016217730794F10217C0
:1023D00013077CF5DB01A21BB30BAA24A394B12C39
:1023E000AC0EBD1EAA0DBB1D11968C91215031095A
:1023F000D601119628153905F4F0F60180836D0198
:10240000DBCFB12CA12CA0CFF701B1937F01A1505C
:10241000AACF9111B0CFD601942F50E302C05D93A3
:1024200091509111FCCFC40ED11C40E0ACCF01E023
:10243000BACF80E3DBCF6217730731F4963388F4A9
:10244000953311F4552369F0F6018083FD01842F43
:1024500090E2811108C0A40FB11D1C9290E080E0B1
:10246000F3CE81E3F1CF91938150F3CF911183CFDC
:102470008ACF283008F027E03327DA01990F311D81
:1024800087FD916000966105710539F432602E5F19
:102490003D9330E32A95E1F708959F3F30F080386F
:1024A0007105610509F03C5F3C5F3D93913008F098
:1024B0008068911DDF93CF931F930F93FF92EF924C
:1024C000192F987F9695E92F96959695E90FFF27F6
:1024D000E254FE4F99273327EE24FF24A701E7019A
:1024E00005900894079428F4360FE71EF81E491F3C
:1024F000511D660F771F881F991F0694A1F705903D
:10250000079428F4E70EF81E491F561FC11D770FC8
:10251000881F991F661F0694A1F70590079428F459
:10252000F80E491F561FC71FD11D880F991F661F20
:10253000771F0694A1F70590079420F4490F561FC2
:10254000C71FD81F990F661F771F881F0694A9F70A
:1025500084911095177041F0D695C795579547957A
:10256000F794E7941A95C1F7E4E6F1E068941590C2
:10257000159135916591959105907FE27395E118DC
:10258000F10A430B560BC90BD009C0F7E10CF11E41
:10259000431F561FC91FD01D7EF4703311F48A9556
:1025A000E6CFE894015030F0080F0AF40027021734
:1025B00008F4202F2395022F7A3328F079E37D93B6
:1025C0002A95E9F710C07D932A9589F60694979588
:1025D0006795379517951794E118F10A430B560B39
:1025E000C90BD00998F023957E9173957A3308F042
:1025F00070E37C932013B8F77E9170617D9330F087
:10260000839571E37D9370E32A95E1F71124EF90B0
:10261000FF900F911F91CF91DF91992787FD9095A2
:10262000089591110C94ED13803219F08950855062
:10263000C8F708950E945C1308F481E00895E894B7
:1026400009C097FB3EF490958095709561957F4FFA
:102650008F4F9F4F9923A9F0F92F96E9BB279395A8
:10266000F695879577956795B795F111F8CFFAF4B8
:10267000BB0F11F460FF1BC06F5F7F4F8F4F9F4FE9
:1026800016C0882311F096E911C0772321F09EE847
:10269000872F762F05C0662371F096E8862F70E0AD
:1026A00060E02AF09A95660F771F881FDAF7880F87
:1026B0009695879597F90895990F0008550FAA0BDD
:1026C000E0E8FEEF16161706E807F907C0F0121645
:1026D0001306E407F50798F0621B730B840B950B48
:1026E00039F40A2661F0232B242B252B21F408959D
:1026F0000A2609F4A140A6958FEF811D811D08953A
:102700000E9493130C9407140E94F91338F00E944E
:10271000001420F0952311F00C94F0130C94F61390
:1027200011240C943B140E94181470F3959FC1F36C
:10273000950F50E0551F629FF001729FBB27F00D6F
:10274000B11D639FAA27F00DB11DAA1F649F6627C4
:10275000B00DA11D661F829F2227B00DA11D621F13
:10276000739FB00DA11D621F839FA00D611D221FCD
:10277000749F3327A00D611D231F849F600D211DB1
:10278000822F762F6A2F11249F5750409AF0F1F034
:1027900088234AF0EE0FFF1FBB1F661F771F881F9D
:1027A00091505040A9F79E3F510580F00C94F013D2
:1027B0000C943B145F3FE4F3983ED4F386957795F1
:1027C0006795B795F795E7959F5FC1F7FE2B880F43
:1027D000911D9695879597F90895992788270895CB
:1027E00097F99F6780E870E060E008959FEF80ECC4
:1027F000089500240A941616170618060906089567
:1028000000240A9412161306140605060895092ECC
:102810000394000C11F4882352F0BB0F40F4BF2B3B
:1028200011F460FF04C06F5F7F4F8F4F9F4F08957B
:1028300057FD9058440F551F59F05F3F71F0479571
:10284000880F97FB991F61F09F3F79F08795089556
:10285000121613061406551FF2CF4695F1DF08C075
:10286000161617061806991FF1CF86957105610592
:1028700008940895E894BB2766277727CB0197F93A
:1028800008955058BB27AA270E9459140C94071486
:102890000E94F91338F00E94001420F039F49F3F91
:1028A00019F426F40C94F6130EF4E095E7FB0C945F
:1028B000F013E92F0E94181458F3BA176207730730
:1028C0008407950720F079F4A6F50C943A140EF4D9
:1028D000E0950B2EBA2FA02D0B01B90190010C0130
:1028E000CA01A0011124FF27591B99F0593F50F448
:1028F000503E68F11A16F040A22F232F342F4427A0
:10290000585FF3CF469537952795A795F040539597
:10291000C9F77EF41F16BA0B620B730B840BBAF067
:102920009150A1F0FF0FBB1F661F771F881FC2F7D2
:102930000EC0BA0F621F731F841F48F487957795E6
:102940006795B795F7959E3F08F0B0CF9395880FA0
:1029500008F09927EE0F9795879508950E94B51472
:102960006894B1110C943B1408950E94201488F0CF
:102970009F5798F0B92F9927B751B0F0E1F0660F43
:10298000771F881F991F1AF0BA95C9F714C0B13084
:1029900091F00E943A14B1E008950C943A14672F14
:1029A000782F8827B85F39F0B93FCCF386957795B3
:1029B0006795B395D9F73EF490958095709561959C
:1029C0007F4F8F4F9F4F08950E945C1308F48FEF45
:1029D00008950E945C13880B990B089597FB072EAE
:1029E00016F4009407D077FD09D00E94291507FC42
:1029F00005D03EF4909581959F4F0895709561950F
:102A00007F4F0895052E97FB1EF400940E94191520
:102A100057FD07D00E943D1507FC03D04EF40C94DF
:102A2000191550954095309521953F4F4F4F5F4F69
:102A3000089590958095709561957F4F8F4F9F4F2A
:102A40000895EE0FFF1F881F8BBF0790F691E02DB2
:102A50001994AA1BBB1B51E107C0AA1FBB1FA617D5
:102A6000B70710F0A61BB70B881F991F5A95A9F737
:102A700080959095BC01CD010895A1E21A2EAA1B64
:102A8000BB1BFD010DC0AA1FBB1FEE1FFF1FA2171E
:102A9000B307E407F50720F0A21BB30BE40BF50B1B
:102AA000661F771F881F991F1A9469F760957095A4
:102AB000809590959B01AC01BD01CF0108950F93C6
:102AC0001F93CF93DF938230910510F482E090E062
:102AD000E0912205F091230530E020E0B0E0A0E095
:102AE000309799F42115310509F44AC0281B390B98
:102AF00024303105D8F58A819B816115710589F1F2
:102B0000FB0193838283FE0111C0408151810281C8
:102B1000138148175907E0F04817590799F410979F
:102B200061F012960C93129713961C933296CF0174
:102B3000DF91CF911F910F9108950093220510937B
:102B40002305F4CF2115310551F04217530738F012
:102B5000A901DB019A01BD01DF01F801C1CFEF013D
:102B6000F9CF9093230580932205CDCFFE01E20F8C
:102B7000F31F819391932250310939832883D7CF52
:102B80002091200530912105232B41F4209104024E
:102B900030910502309321052093200520910202F7
:102BA000309103022115310541F42DB73EB7409114
:102BB000060250910702241B350BE0912005F0918D
:102BC0002105E217F307A0F42E1B3F0B2817390746
:102BD00078F0AC014E5F5F4F2417350748F04E0F79
:102BE0005F1F5093210540932005819391939FCFC0
:102BF000F0E0E0E09CCFCF93DF930097E9F0FC0199
:102C0000329713821282A0912205B0912305ED0123
:102C100030E020E01097A1F420813181820F931FD2
:102C200020912005309121052817390709F061C04E
:102C3000F0932105E0932005DF91CF910895EA01FB
:102C4000CE17DF07E8F54A815B819E0141155105EA
:102C5000B1F7E901FB83EA8349915991C40FD51F6C
:102C6000EC17FD0761F4808191810296840F951F16
:102C7000E90199838883828193819B838A83F0E031
:102C8000E0E012968D919C9113970097B9F52D91E4
:102C90003C911197CD010296820F931F2091200540
:102CA000309121052817390739F6309751F51092E0
:102CB000230510922205B0932105A0932005BCCFD7
:102CC000D383C28340815181840F951FC817D907D0
:102CD00061F44E5F5F4F88819981480F591F51837E
:102CE00040838A819B81938382832115310509F07A
:102CF000B0CFF0932305E09322059ECFFD01DC01C8
:102D0000C0CF13821282D7CF4F925F926F927F9281
:102D10008F929F92AF92BF92CF92DF92EF92FF92EB
:102D20000F931F93CF93DF938C01009799F4CB01FE
:102D3000DF91CF911F910F91FF90EF90DF90CF9097
:102D4000BF90AF909F908F907F906F905F904F90CB
:102D50000C945F15FC01E60FF71F9C01225031090E
:102D6000E217F30708F4AEC0D901CD91DC911197B9
:102D7000C617D70720F1C530D10578F0CE010497EA
:102D80008617970750F0C61BD70B2297C193D19394
:102D90006D937C93CF010E94FB15C801DF91CF9109
:102DA0001F910F91FF90EF90DF90CF90BF90AF9069
:102DB0009F908F907F906F905F904F9008955B01F0
:102DC000AC1ABD0A4C018C0E9D1EA0912205B0913B
:102DD0002305512C412CF12CE12C109731F58091D9
:102DE0002005909121058815990509F05CC04616CB
:102DF000570608F058C08091020290910302009794
:102E000041F48DB79EB74091060250910702841B92
:102E1000950BE817F90708F055C0F0932105E093EA
:102E20002005F90171836083B8CF8D919C91119732
:102E300012966C90129713967C901397A815B9056B
:102E400059F56C0142E0C40ED11CCA14DB0420F118
:102E5000AC014A195B09DA011296159780F062827B
:102E6000738251834083D9016D937C93E114F10403
:102E700071F0D7011396FC93EE9312978ECF2296A2
:102E80008C0F9D1FF90191838083F301EFCFF093A5
:102E90002305E093220581CF4816590608F42C013A
:102EA0007D01D3019ACFCB010E945F157C01009771
:102EB00049F0AE01B8010E946517C8010E94FB15D8
:102EC00087016BCF10E000E068CFFB01DC0102C09E
:102ED00001900D9241505040D8F70895FB01DC015C
:102EE0008D91019080190110D9F3990B0895FB0180
:102EF000DC0101900D920020E1F70895FB01DC0157
:102F00004150504048F001900D920020C9F701C097
:102F10001D9241505040E0F7089511E0C0ECD1E01F
:102F200000E006C0802FFE010E9421152196011DA0
:0E2F3000C13CD10780E00807A9F7F894FFCF55
:102F3E000100000024058000000000007B03A502B4
:102F4E00D202C8034303E102350300000000A906C4
:102F5E00A5023E07A80605071D0790060D0A0045A7
:102F6E0072726F7220616C206C6565720074200045
:102F7E004572726F7220616C206C656572204875A7
:102F8E006D65646164006820006365727261722011
:102F9E007075657274610061627269722070756518
:102FAE0072746100706572736F6E61006E61646938
:102FBE006500656E63656E64657220746F6461731F
:102FCE00004C7563657320656E63656E646964613C
:102FDE00730041706167617220746F646173004C9D
:102FEE007563657320617061676164617300656EFE
:102FFE0063656E64657200417061676172004C7545
:10300E007A20312041706167616461004C757A20CD
:10301E00322041706167616461004C757A20332003
:10302E0041706167616461004C757A203420417093
:10303E006167616461004C757A203520417061676B
:10304E00616461004C757A2036204170616761645D
:10305E0061004C757A2037204170616761646100B0
:10306E004C757A20382041706167616461004C753F
:10307E007A203120456E63656E64696461004C751B
:10308E007A203220456E63656E64696461004C750A
:10309E007A203320456E63656E64696461004C75F9
:1030AE007A203420456E63656E64696461004C75E8
:1030BE007A203520456E63656E64696461004C75D7
:1030CE007A203620456E63656E64696461004C75C6
:1030DE007A203720456E63656E64696461004C75B5
:1030EE007A203820456E63656E6469646100436FB3
:1030FE006D616E646F206E6F207265636F6E6F63AD
:10310E0069646F007072656E646572206C757A20EA
:10311E0070756572746100617061676172206C75A3
:0A312E007A2070756572746100006C
:00000001FF
