:100000000C9435010C9466010C9466010C94660105
:100010000C9466010C9466010C9466010C946601C4
:100020000C9466010C9466010C9466010C946601B4
:100030000C9466010C9466010C9466010C946601A4
:100040000C9466010C9466010C9466010C94660194
:100050000C9466010C9466010C9466010C94A8043F
:100060000C9466010C9472040C9448040C94660180
:100070000C9466010C9466010C9466010C94660164
:100080000C9466010C9466010C9466010C94660154
:100090000C9466010C9466010C9466010C94660144
:1000A0000C9466010C9466010C9466010C94660134
:1000B0000C9466010C9466010C9466010C94660124
:1000C0000C9466010C9466010C9466010C94660114
:1000D0000C9466010C9466010C9466010C94660104
:1000E0000C9466010C9446030C94F8010C945E0386
:1000F0000C9495010C943E020C9459070C946801E1
:100100000C944A030C9406020C94A4010C94620310
:100110000C9411030C9427030C9450030C94320399
:100120000C948B020C9454030C9438030C940C0321
:100130000C942F030C943C030C9442030C94230363
:100140000C942B030C94580300002100240027007A
:100150002A002D00300033000101000004010701D6
:100160000A0100002200250028002B002E0031008B
:10017000340002010000050108010B0100000A0B18
:1001800002090C0D0E080703040100000000000026
:10019000000000000000000000000000000000005F
:1001A000000000000000000012111000000000001C
:1001B000000000000000000000000000000000003F
:1001C0000000000020002300260029002C002F0042
:1001D00032000001000003010601090105050505C3
:1001E000070508080808020202020A0A08080404AF
:1001F00004040101010101010101030303030303DD
:100200000303040707070C0C0C0C0C0C0C0C02026B
:10021000020206060606060606060B0B0B0B0B0B68
:100220000B0B0102102020080810204010204080F5
:1002300002010201080402010102040810204080AA
:100240008040201008040201800402018040201038
:100250000804020108040201010204081020408081
:100260000102040810204080590711241FBECFEF5F
:10027000D1E2DEBFCDBF00E00CBF23E0A2E3B3E0DC
:1002800001C01D92A13FB207E1F713E0A0E0B2E088
:10029000EEEAFFE100E00BBF02C007900D92A2332F
:1002A000B107D9F711E0C5E3D1E000E006C021971E
:1002B0000109802FFE010E94AE0DC433D10780E0FA
:1002C0000807A9F70E94A6070C94D50F0C9400000C
:1002D000AF92BF92CF92DF92EF92FF920F931F9354
:1002E000CF93DF936C017B018B01040F151FEB0192
:1002F0005E01AE18BF08C017D10759F06991D60149
:10030000ED91FC910190F081E02DC6011995892BAA
:1003100079F7C501DF91CF911F910F91FF90EF9079
:10032000DF90CF90BF90AF900895FC01538D448D26
:10033000252F30E0842F90E0821B930B541710F090
:10034000CF96089501970895FC01918D828D98179D
:1003500061F0A28DAE0FBF2FB11D5D968C91928D75
:100360009F5F9F73928F90E008958FEF9FEF0895A6
:100370002FB7F8948091390390913A03A0913B03F1
:10038000B0913C032FBF8093450390934603A09305
:100390004703B09348038DE393E00E94A40197FFC5
:1003A00026C02FB7F8948091390390913A03A09119
:1003B0003B03B0913C032FBF40914503509146034E
:1003C0006091470370914803841B950BA60BB70BF4
:1003D0004091410350914203609143037091440363
:1003E00084179507A607B707B0F28FEF9FEF089520
:1003F000FC01918D828D981731F0828DE80FF11DEF
:10040000858D90E008958FEF9FEF0895FC01918D09
:10041000228D892F90E0805C9F4F821B91098F7302
:10042000992708958DE393E00E94060221E0892B2D
:1004300009F420E0822F0895FC01A48DA80FB92FA4
:10044000B11DA35ABF4F2C91848D90E001968F73FC
:100450009927848FA689B7892C93A089B1898C911B
:10046000837080648C93938D848D981306C002886A
:10047000F389E02D80818F7D80830895EF92FF9234
:100480000F931F93CF93DF93EC0181E0888F9B8DB7
:100490008C8D98131AC0E889F989808185FF15C071
:1004A0009FB7F894EE89FF896083E889F989808194
:1004B0008370806480839FBF81E090E0DF91CF9163
:1004C0001F910F91FF90EF900895F62E0B8D10E085
:1004D0000F5F1F4F0F731127E02E8C8D8E110CC0F4
:1004E0000FB607FCFACFE889F989808185FFF5CF3F
:1004F000CE010E941C02F1CFEB8DEC0FFD2FF11D00
:10050000E35AFF4FF0829FB7F8940B8FEA89FB897B
:1005100080818062CFCFCF93DF93EC01888D8823D9
:10052000B9F0AA89BB89E889F9898C9185FD03C056
:10053000808186FD0DC00FB607FCF7CF8C9185FF3B
:10054000F2CF808185FFEDCFCE010E941C02E9CF62
:10055000DF91CF91089580E090E0892B29F00E94EF
:10056000120281110E94000080E090E0892B49F086
:1005700080E090E0892B29F00E94000081110E9408
:10058000000080E090E0892B49F080E090E0892B2A
:1005900029F00E94000081110E94000080E090E09C
:1005A000892B49F080E090E0892B29F00E9400001F
:1005B00081110C9400000895282F30E0F901E458CF
:1005C000FE4F9491F901EE5DFD4F449124523E4F50
:1005D000F9012491222309F435C0992311F1915096
:1005E0009231F8F4E92FF0E08827E650FD4F8F4F65
:1005F0000C94AE0D2B032F030C03230327031103CD
:10060000320338033C03420346034A0350035403B6
:10061000110358035E036203809180008F778093FB
:100620008000E22FF0E0EE0FFF1FEE59FE4FA59184
:10063000B4918FB7F894EC91611148C040954E2366
:100640004C938FBF0895809180008F7DE8CF80917B
:100650008000877FE4CF84B58F7784BDE2CF84B5F7
:100660008F7DFBCF8091B0008F778093B000D9CF82
:100670008091B0008F7DF9CF809190008F7780932B
:100680009000CFCF809190008F7DF9CF8091900026
:10069000877FF5CF8091A0008F778093A000C1CF96
:1006A0008091A0008F7DF9CF8091A000877FF5CF4A
:1006B000809120018F7780932001B3CF809120011A
:1006C0008F7DF9CF80912001877FF5CF4E2BB8CF5A
:1006D000CF93DF9390E0FC01EE5DFD4F24918452B7
:1006E0009E4FFC0184918823D1F090E0880F991FE0
:1006F000FC01E85BFE4FA591B491FC01EE59FE4F61
:10070000C591D491623071F49FB7F8943C91822FD7
:10071000809583238C93E8812E2B28839FBFDF91C4
:10072000CF9108958FB7F894EC912E2B2C938FBF17
:10073000F6CF3FB7F8948091330390913403A091A2
:100740003503B091360326B5A89B05C02F3F19F09D
:100750000196A11DB11D3FBFBA2FA92F982F882741
:10076000BC01CD01620F711D811D911D42E0660F1C
:10077000771F881F991F4A95D1F708958F929F92EE
:10078000AF92BF92CF92DF92EF92FF924B015C014A
:100790000E9499036B017C010E9499036C197D09E9
:1007A0008E099F09683E734081059105A8F321E0F9
:1007B000821A9108A108B10888EEC80E83E0D81EFD
:1007C000E11CF11C81149104A104B10429F7FF90EC
:1007D000EF90DF90CF90BF90AF909F908F90089553
:1007E000FC0101900020E9F73197AF01481B590B3C
:1007F000BC018DE393E00C946801CF93DF930E94DA
:10080000F003EC0188E192E00E94F0038C0F9D1F41
:10081000DF91CF910895FC0124813581232B39F498
:1008200021E0FB018081882349F020E007C080811E
:1008300091810E94C50F21E0892BB9F7822F08957D
:100840000F931F93CF93DF93EC01888199810097D9
:1008500059F02A813B812617370730F081E0DF917C
:10086000CF911F910F9108958B016F5F7F4F0E9471
:10087000DB0E009759F0998388831B830A832C81B0
:100880003D81232B59F7FC011082E8CF80E0E7CFB0
:100890001F920F920FB60F9211240BB60F922F9347
:1008A0003F934F935F936F937F938F939F93AF93F8
:1008B000BF93EF93FF938DE393E00E941C02FF919F
:1008C000EF91BF91AF919F918F917F916F915F91C8
:1008D0004F913F912F910F900BBE0F900FBE0F9035
:1008E0001F9018951F920F920FB60F9211240BB6FE
:1008F0000F922F938F939F93EF93FF93E0914D036C
:10090000F0914E038081E0915303F091540382FDF6
:100910001DC09081809156038F5F8F732091570384
:10092000821741F0E0915603F0E0E35CFC4F958FB5
:1009300080935603FF91EF919F918F912F910F908C
:100940000BBE0F900FBE0F901F9018958081F2CFB5
:100950001F920F920FB60F9211242F933F938F93F4
:100960009F93AF93BF938091390390913A03A091E5
:100970003B03B0913C033091320323E0230F2D372A
:1009800058F50196A11DB11D2093320380933903C0
:1009900090933A03A0933B03B0933C0380913303BD
:1009A00090913403A0913503B09136030196A11DB7
:1009B000B11D8093330390933403A0933503B09318
:1009C0003603BF91AF919F918F913F912F910F90DF
:1009D0000FBE0F901F90189526E8230F0296A11DB9
:1009E000B11DD2CFCF92DF92EF92FF92CF93DF93E0
:1009F000B091E103A0E08111AB2F8091E20390E080
:100A0000880F991FAC014E535E4FC090E703D09002
:100A1000E803E090E903F090EA0330E020E0FA0117
:100A2000C591D491E881B90190E080E0EB23EA130D
:100A30000AC02F5F3F4F6C157D058E059F0578F32B
:100A40006FEF7FEFCB01DF91CF91FF90EF90DF90C1
:100A5000CF900895CF92DF92EF92FF920F931F9362
:100A6000CF93DF93CDB7DEB7C054D1400FB6F89423
:100A7000DEBF0FBECDBF2FB7F894809139039091A0
:100A80003A03A0913B03B0913C032FBF4091E30395
:100A90005091E4036091E5037091E6038C019D01A0
:100AA000041B150B260B370BB901A801403D57401D
:100AB0006105710590F48091EB03C05CDE4F0FB6C9
:100AC000F894DEBF0FBECDBFDF91CF911F910F9184
:100AD000FF90EF90DF90CF9008958093E303909381
:100AE000E403A093E503B093E6031092DE031092B3
:100AF000DD031092DC031092DB031092DA0362E054
:100B00008091DF030E94680361E070E080E090E084
:100B10000E94BE0361E08091DF030E94680360E0F1
:100B20008091DF030E94DC028091E00385518230D6
:100B300020F58BE291E10197F1F762E08091DF030C
:100B40000E9468038091EC0390E08230910538F0B8
:100B5000880F991F880F991F05970197F1F7F8944F
:100B600080E00E94F2046F3F7F4F8F4F9F4F61F4F0
:100B70001092EB03789480E0A0CF64E170E080E015
:100B800090E00E94BE03D9CF81E00E94F2046F3F43
:100B90007F4F8F4F9F4F61F38E010F5F1F4F6E018D
:100BA0008FEBC81A8EEFD80A780180E00E94F20419
:100BB000F701608371838283938381E00E94F20452
:100BC000F7016483758386839783F8E0EF0EF11C49
:100BD000EC14FD0451F7789430E020E0F801C08077
:100BE000D180E280F3804481558166817781FFEF77
:100BF000CF16DF06EF06FF0631F04F3F8FEF5807A5
:100C00006807780719F41092EB03B5CFF90183E078
:100C1000F595E7958A95E1F7E652FC4F8081880FBC
:100C2000C416D506E606F70610F180832F5F3F4F06
:100C3000085F1F4F2832310589F64091DE0320916D
:100C4000DA038091DB03280F3327331F8091DC0305
:100C5000280F311D8091DD03820F932F911D99275D
:100C60004817190681F681E08093EB0326CF816057
:100C7000DCCF8F929F92AF92BF920F931F93CF932F
:100C8000DF93CDB7DEB7A1970FB6F894DEBF0FBEE6
:100C9000CDBF19A2423008F44AE08E010F5D1F4F0C
:100CA000842E912CB12CA12CA50194010E948C0DB5
:100CB000E62FB901CA01EA30F4F4E05DD801EE9301
:100CC0008D01232B242B252B79F790E080E01097C2
:100CD00019F0CD010E94F003A1960FB6F894DEBF83
:100CE0000FBECDBFDF91CF911F910F91BF90AF90FD
:100CF0009F908F900895E95CE1CF4F925F926F9241
:100D00007F928F929F92AF92BF92CF92DF92EF929B
:100D1000FF920F931F93CF936B017C01742EAC0154
:100D20009B010E94870D882399F08BE192E0CF917F
:100D30001F910F91FF90EF90DF90CF90BF90AF90F9
:100D40009F908F907F906F905F904F900C94F003E6
:100D500046015701E894B7F82FEF3FEF4FE75FE701
:100D6000C501B4010E94870D81110DC02FEF3FEF27
:100D70004FE75FE7C501B4010E944D0B18161CF444
:100D80008FE192E0D4CF2FEF3FEF4FE75FE4C70151
:100D9000B6010E94820D18161CF483E292E0C7CFC0
:100DA0002FEF3FEF4FE75FECC701B6010E944D0BFD
:100DB00087FDF3CF20E030E0A901C701B6010E9412
:100DC0004D0B10E000E087FF0AC06DE28DE393E079
:100DD0000E943E028C01F7FAF094F7F8F094C0E01C
:100DE00060E070E080E09FE37C1641F020E030E0BE
:100DF00040E251E40E94E10CCF5FF6CFA7019601DB
:100E00000E94750C2B013C010E94530D4B015C01AB
:100E10004AE00E9439067C01E00EF11ECC23C1F1AC
:100E2000C501B4010E94520B9B01AC01C301B20188
:100E30000E94740C4B015C016EE28DE393E00E9412
:100E40003E02E80EF91EC15018F120E030E040E209
:100E500051E4C501B4010E94B30B2B013C010E9477
:100E6000530D4B01B12CA12C4AE0C501B4010E94E5
:100E70003906E80EF91EC501B4010E94520B9B0110
:100E8000AC01C301B2010E94740C4B015C01DBCFC9
:100E9000C701CF911F910F91FF90EF90DF90CF90FE
:100EA000BF90AF909F908F907F906F905F904F908A
:100EB0000895EDE3F3E01382128288EE93E0A0E060
:100EC000B0E084839583A683B7838AE092E0918320
:100ED000808385EC90E09587848784EC90E0978709
:100EE000868780EC90E0918B808B81EC90E0938BF7
:100EF000828B82EC90E0958B848B86EC90E0978BD4
:100F0000868B118E128E138E148EAAEDB3E086E1BD
:100F100015968C9315978BE016968C931697E8E3AD
:100F2000F2E0E4911796EC931797E2EFF1E0E49189
:100F30001896EC93189740E85EE360E070E01D9629
:100F40004D935D936D937C9350970895CF93DF936A
:100F500000D000D01F921F92CDB7DEB7789484B531
:100F6000826084BD84B5816084BD85B5826085BDA5
:100F700085B5816085BD80916E00816080936E0033
:100F80001092810080918100826080938100809125
:100F900081008160809381008091800081608093D6
:100FA00080008091B10084608093B1008091B00096
:100FB00081608093B0008091910082608093910065
:100FC0008091910081608093910080919000816078
:100FD000809390008091A10082608093A100809115
:100FE000A10081608093A1008091A0008160809326
:100FF000A0008091210182608093210180912101D4
:101000008160809321018091200181608093200183
:1010100080917A00846080937A0080917A00826067
:1010200080937A0080917A00816080937A00809129
:101030007A00806880937A001092C100E0914D039D
:10104000F0914E0382E08083E0914903F0914A03DE
:101050001082E0914B03F0914C038FEC808310924F
:101060005503E0915103F091520386E08083E091B3
:101070004F03F0915003808180618083E0914F03A2
:10108000F0915003808188608083E0914F03F0915C
:101090005003808180688083E0914F03F09150037A
:1010A00080818F7D808362E08091DF030E946803EE
:1010B0002FB7F8948091390390913A03A0913B03A4
:1010C000B0913C032FBF805D9740A109B109809387
:1010D000E3039093E403A093E503B093E60387E36F
:1010E0008093EC0361E087E10E94680361E088E19E
:1010F0000E94680361E089E10E94680361E08AE17F
:101100000E94680361E08BE10E94680361E08CE16A
:101110000E94680361E08DE10E94680361E08EE156
:101120000E94680361E08FE10E94680387E292E019
:101130000E94FD0330E4B32E8DE393E00E9406028B
:10114000892B09F422C21A8219821C821B821E82F8
:101150001D8270E060E0CE0101960E94200429818A
:101160003A8181112BC02115310519F0C9010E9466
:10117000520E1A8219821E821D821C821B820E94BC
:10118000B80197FD23C08F8318860D811E810F5FE4
:101190001F4FB801CE0101960E942004882379F3E5
:1011A00029813A818D819E81BE01695F7F4F820FC7
:1011B000931F0E94CE0F1E830D83E1CF1E821D82DE
:1011C0006AE172E0C9010E94CE0FD9CFC980DA80EE
:1011D000C114D10431F00D811E8176010115110574
:1011E000B9F468E372E0CE0101960E940B0461E05D
:1011F000811109C061E472E0CE0101960E940B04E6
:101200008823E1F160E087E10E94DC02B8C174014B
:1012100047018FEF881A980AF7018081082E000C89
:10122000990B0E94440B892B91F7015011090C0D69
:101230001D1DF8018081082E000C990B0E94440BA3
:10124000892B31F00E151F0518F001501109F1CF4F
:10125000A8014F5F5F4F4E195F095E834D83CE1427
:10126000DF0420F4B701C6010E94BC0FE981FA81B6
:101270008D819E81E80FF91F1082B3CF6BE472E07D
:10128000CE0101960E940B0461E0811109C064E562
:1012900072E0CE0101960E940B04882319F060E0F1
:1012A00088E1B2CF6EE572E0CE0101960E940B0498
:1012B00061E0811109C067E672E0CE0101960E94EB
:1012C0000B04882319F060E089E19ECF61E772E0AA
:1012D000CE0101960E940B0461E0811109C06AE70A
:1012E00072E0CE0101960E940B04882319F060E0A1
:1012F0008AE18ACF64E872E0CE0101960E940B0475
:1013000061E0811109C06DE872E0CE0101960E9492
:101310000B04882319F060E08BE176CF67E972E077
:10132000CE0101960E940B0461E0811109C060EAC0
:1013300072E0CE0101960E940B04882319F060E050
:101340008CE162CF6AEA72E0CE0101960E940B0442
:1013500061E0811109C063EB72E0CE0101960E9449
:101360000B04882319F060E08DE14ECF6DEB72E045
:10137000CE0101960E940B04882319F061E08EE1F2
:1013800043CF66EC72E0CE0101960E940B048823E5
:1013900011F060E0F4CF60ED72E0CE0101960E94A2
:1013A0000B04882309F48AC00E942A05882309F4C3
:1013B0005BC08091E0038C3009F45BC048F48B3053
:1013C00001F1C12CD12C90ECE92E9FE7F92E43C0FE
:1013D00085518230B0F71091DC03612F70E0762FD9
:1013E000662766277F778091DD03682B90E080E099
:1013F0000E94520B2DEC3CEC4CEC5DE30E94B30BD5
:1014000054C06091DC0370E090E080E00E94520BD9
:101410006B017C011091DD0317FF0AC0AC019B0139
:1014200060E070E080E89FEB0E94740C6B017C012F
:101430001F70612F70E090E080E00E94540B2DEC53
:101440003CEC4CEC5DE30E94B30BA70196010E94BB
:10145000750C6B017C01A7019601C701B6010E94C2
:10146000870D882309F482C08CED92E00E94FD0371
:1014700086C01091DC03612F70E090E080E00E9454
:10148000520B6B017C016091DD036F7070E090E0A6
:1014900080E00E94540B2DEC3CEC4CEC5DE30E9490
:1014A000B30BA70196010E94750C6B017C0117FF1D
:1014B000D2CFF7FAF094F7F8F094CDCF6AEE72E05D
:1014C000CE0101960E940B04882309F490C00E946B
:1014D0002A058823B1F18091E0038B3028F08D300C
:1014E00050F08551823080F1C12CD12C80ECE82E57
:1014F0008FE7F82E1EC06091DB0370E090E080E083
:101500000E94540B2DEC3CEC4CEC5DE30E94B30BC1
:101510006B017C016091DA0370E090E080E00E9452
:10152000540B9B01AC01C701B6010E94750C6B0105
:101530007C01A7019601C701B6010E94870D88238F
:10154000A9F082EF92E092CF6091DA037091DB0311
:1015500076276727762790E080E00E94520B2DECDB
:101560003CEC4CEC5DE30E94B30BE1CF42E0C701E1
:10157000B6010E947D0688E192E00E94F003898115
:101580009A81009711F00E94520E80917B00877F14
:1015900080937B00B0927C0080917A00806480937D
:1015A0007A0080917A0086FDFCCF809178000091CE
:1015B0007900102F082F64E670E080E090E00E9430
:1015C000BE0380913703909138038017910761F033
:1015D000109338030093370361E0053611050CF0D2
:1015E00060E08FE10E94DC020E94AB02A5CD68E0C2
:1015F00073E0CE0101960E940B048823E9F061E0BC
:1016000087E10E94DC0261E088E10E94DC0261E087
:1016100089E10E94DC0261E08AE10E94DC0261E073
:101620008BE10E94DC0261E08CE10E94DC0261E05F
:101630008DE10E94DC02A2CE61E173E0CE01019651
:101640000E940B048823E9F060E087E10E94DC023D
:1016500060E088E10E94DC0260E089E10E94DC0237
:1016600060E08AE10E94DC0260E08BE10E94DC0223
:1016700060E08CE10E94DC0260E08DE10E94DC020F
:1016800088CE8BE193E0F2CE91110C94200C803245
:1016900019F089508550C8F708950E948F0B08F4FF
:1016A00081E00895E89409C097FB3EF490958095F9
:1016B000709561957F4F8F4F9F4F9923A9F0F92F18
:1016C00096E9BB279395F695879577956795B79596
:1016D000F111F8CFFAF4BB0F11F460FF1BC06F5F7C
:1016E0007F4F8F4F9F4F16C0882311F096E911C08E
:1016F000772321F09EE8872F762F05C0662371F0AF
:1017000096E8862F70E060E02AF09A95660F771FC2
:10171000881FDAF7880F9695879597F90895990F9E
:101720000008550FAA0BE0E8FEEF16161706E807AB
:10173000F907C0F012161306E407F50798F0621BCC
:10174000730B840B950B39F40A2661F0232B242BA1
:10175000252B21F408950A2609F4A140A6958FEFC0
:10176000811D811D08950E94C60B0C943A0C0E94A5
:101770002C0C38F00E94330C20F0952311F00C94BF
:10178000230C0C94290C11240C946E0C0E944B0C0D
:1017900070F3959FC1F3950F50E0551F629FF001C4
:1017A000729FBB27F00DB11D639FAA27F00DB11DDD
:1017B000AA1F649F6627B00DA11D661F829F222766
:1017C000B00DA11D621F739FB00DA11D621F839FED
:1017D000A00D611D221F749F3327A00D611D231FC3
:1017E000849F600D211D822F762F6A2F11249F5711
:1017F00050409AF0F1F088234AF0EE0FFF1FBB1F14
:10180000661F771F881F91505040A9F79E3F5105D2
:1018100080F00C94230C0C946E0C5F3FE4F3983E24
:10182000D4F3869577956795B795F795E7959F5F7C
:10183000C1F7FE2B880F911D9695879597F908950E
:1018400099278827089597F99F6780E870E060E0FE
:1018500008959FEF80EC089500240A941616170649
:1018600018060906089500240A9412161306140691
:1018700005060895092E0394000C11F4882352F0F4
:10188000BB0F40F4BF2B11F460FF04C06F5F7F4FAC
:101890008F4F9F4F089557FD9058440F551F59F093
:1018A0005F3F71F04795880F97FB991F61F09F3F4D
:1018B00079F087950895121613061406551FF2CF76
:1018C0004695F1DF08C0161617061806991FF1CFC6
:1018D00086957105610508940895E894BB276627ED
:1018E0007727CB0197F908955058BB27AA270E9464
:1018F0008C0C0C943A0C0E942C0C38F00E94330C87
:1019000020F039F49F3F19F426F40C94290C0EF4BE
:10191000E095E7FB0C94230CE92F0E944B0C58F345
:10192000BA17620773078407950720F079F4A6F5C4
:101930000C946D0C0EF4E0950B2EBA2FA02D0B011C
:10194000B90190010C01CA01A0011124FF27591B04
:1019500099F0593F50F4503E68F11A16F040A22F0A
:10196000232F342F4427585FF3CF4695379527957B
:10197000A795F0405395C9F77EF41F16BA0B620B7A
:10198000730B840BBAF09150A1F0FF0FBB1F661FC1
:10199000771F881FC2F70EC0BA0F621F731F841F04
:1019A00048F4879577956795B795F7959E3F08F02A
:1019B000B0CF9395880F08F09927EE0F97958795EC
:1019C00008950E94F50C0C943A0C0E94330C58F0C8
:1019D0000E942C0C40F029F45F3F29F00C94230C5A
:1019E00051110C946E0C0C94290C0E944B0C68F352
:1019F0009923B1F3552391F3951B550BBB27AA27C8
:101A000062177307840738F09F5F5F4F220F331F01
:101A1000441FAA1FA9F335D00E2E3AF0E0E832D0C9
:101A200091505040E695001CCAF72BD0FE2F29D0CC
:101A3000660F771F881FBB1F261737074807AB079E
:101A4000B0E809F0BB0B802DBF01FF2793585F4F13
:101A50003AF09E3F510578F00C94230C0C946E0CD8
:101A60005F3FE4F3983ED4F3869577956795B795F5
:101A7000F7959F5FC9F7880F911D9695879597F900
:101A80000895E1E0660F771F881FBB1F6217730779
:101A90008407BA0720F0621B730B840BBA0BEE1F8E
:101AA00088F7E09508950E94530C88F09F5798F0AE
:101AB000B92F9927B751B0F0E1F0660F771F881F53
:101AC000991F1AF0BA95C9F714C0B13091F00E946D
:101AD0006D0CB1E008950C946D0C672F782F88275A
:101AE000B85F39F0B93FCCF3869577956795B39594
:101AF000D9F73EF490958095709561957F4F8F4F03
:101B00009F4F08950E948F0B08F48FEF08950E9455
:101B10008F0B880B990B0895A1E21A2EAA1BBB1BF1
:101B2000FD010DC0AA1FBB1FEE1FFF1FA217B307A9
:101B3000E407F50720F0A21BB30BE40BF50B661FBF
:101B4000771F881F991F1A9469F760957095809583
:101B500090959B01AC01BD01CF010895EE0FFF1FD1
:101B6000881F8BBF0790F691E02D19940F931F9358
:101B7000CF93DF938230910510F482E090E0E09102
:101B8000EF03F091F00330E020E0B0E0A0E0309708
:101B900099F42115310509F44AC0281B390B24306A
:101BA0003105D8F58A819B816115710589F1FB01A9
:101BB00093838283FE0111C0408151810281138190
:101BC00048175907E0F04817590799F4109761F042
:101BD00012960C93129713961C933296CF01DF91B5
:101BE000CF911F910F9108950093EF031093F0038D
:101BF000F4CF2115310551F04217530738F0A901F0
:101C0000DB019A01BD01DF01F801C1CFEF01F9CF7E
:101C10009093F0038093EF03CDCFFE01E20FF31F0B
:101C2000819391932250310939832883D7CF209112
:101C3000ED033091EE03232B41F420910202309109
:101C400003023093EE032093ED03209100023091C4
:101C500001022115310541F42DB73EB74091040230
:101C600050910502241B350BE091ED03F091EE033A
:101C7000E217F307A0F42E1B3F0B2817390778F063
:101C8000AC014E5F5F4F2417350748F04E0F5F1FC2
:101C90005093EE034093ED03819391939FCFF0E037
:101CA000E0E09CCFCF93DF930097E9F0FC013297FF
:101CB00013821282A091EF03B091F003ED0130E0A6
:101CC00020E01097A1F420813181820F931F209191
:101CD000ED033091EE032817390709F061C0F09346
:101CE000EE03E093ED03DF91CF910895EA01CE1763
:101CF000DF07E8F54A815B819E0141155105B1F787
:101D0000E901FB83EA8349915991C40FD51FEC1770
:101D1000FD0761F4808191810296840F951FE9018E
:101D200099838883828193819B838A83F0E0E0E0BA
:101D300012968D919C9113970097B9F52D913C9136
:101D40001197CD010296820F931F2091ED033091E0
:101D5000EE032817390739F6309751F51092F00342
:101D60001092EF03B093EE03A093ED03BCCFD383A7
:101D7000C28340815181840F951FC817D90761F430
:101D80004E5F5F4F88819981480F591F518340836F
:101D90008A819B81938382832115310509F0B0CF1D
:101DA000F093F003E093EF039ECFFD01DC01C0CF81
:101DB00013821282D7CF4F925F926F927F928F924F
:101DC0009F92AF92BF92CF92DF92EF92FF920F93CA
:101DD0001F93CF93DF938C01009799F4CB01DF9190
:101DE000CF911F910F91FF90EF90DF90CF90BF9018
:101DF000AF909F908F907F906F905F904F900C94DA
:101E0000B60DFC01E60FF71F9C0122503109E217C5
:101E1000F30708F4AEC0D901CD91DC911197C61734
:101E2000D70720F1C530D10578F0CE010497861789
:101E3000970750F0C61BD70B2297C193D1936D9390
:101E40007C93CF010E94520EC801DF91CF911F9168
:101E50000F91FF90EF90DF90CF90BF90AF909F9049
:101E60008F907F906F905F904F9008955B01AC1AB8
:101E7000BD0A4C018C0E9D1EA091EF03B091F003A2
:101E8000512C412CF12CE12C109731F58091ED0370
:101E90009091EE038815990509F05CC04616570627
:101EA00008F058C08091000290910102009741F41F
:101EB0008DB79EB74091040250910502841B950B8B
:101EC000E817F90708F055C0F093EE03E093ED032F
:101ED000F90171836083B8CF8D919C91119712960F
:101EE0006C90129713967C901397A815B90559F525
:101EF0006C0142E0C40ED11CCA14DB0420F1AC0119
:101F00004A195B09DA011296159780F06282738292
:101F100051834083D9016D937C93E114F10471F0F6
:101F2000D7011396FC93EE9312978ECF22968C0FC7
:101F30009D1FF90191838083F301EFCFF093F003AC
:101F4000E093EF0381CF4816590608F42C017D0178
:101F5000D3019ACFCB010E94B60D7C01009749F0C6
:101F6000AE01B8010E94BC0FC8010E94520E870149
:101F70006BCF10E000E068CFFB01DC0102C00190F4
:101F80000D9241505040D8F70895FB01DC018D912E
:101F9000019080190110D9F3990B0895FB01DC0120
:0E1FA00001900D920020E1F70895F894FFCF14
:101FAE000000F1038000000000003E026801950170
:101FBE008B020602A401F8010D0A006E616E006923
:101FCE006E66006F766600496E6772657361206398
:101FDE006F6D616E646F3A006C757A2031206F6E92
:101FEE00006C757A2031206F6666006C757A20322F
:101FFE00206F6E006C757A2032206F6666006C75ED
:10200E007A2033206F6E006C757A2033206F6666EF
:10201E00006C757A2034206F6E006C757A20342037
:10202E006F6666006C757A2035206F6E006C757A5F
:10203E002035206F6666006C757A2036206F6E0034
:10204E006C757A2036206F6666006C757A203720A4
:10205E006F6E006C757A2037206F6666006C757A2D
:10206E002038206F6E006C757A2038206F666600FF
:10207E0074656D7065726174757261004572726F10
:10208E007220616C206C6565720068756D656461A7
:10209E0064004572726F7220616C206C65657220EF
:1020AE0048756D65646164006C75636573206F6E51
:1020BE00006C75636573206F666600436F6D616EAD
:1020CE00646F206E6F207265636F6E6F6369646FED
:0220DE00000000
:00000001FF
