:100000000C9435010C9466010C9466010C94660105
:100010000C9466010C9466010C9466010C946601C4
:100020000C9466010C9466010C9466010C946601B4
:100030000C9466010C9466010C9466010C946601A4
:100040000C9466010C9466010C9466010C94660194
:100050000C9466010C9466010C9466010C948F0656
:100060000C9466010C9459060C942F060C946601AE
:100070000C9466010C9466010C9466010C94660164
:100080000C9466010C9466010C9466010C94660154
:100090000C9466010C9466010C9466010C94660144
:1000A0000C9466010C9466010C9466010C94660134
:1000B0000C9466010C9466010C9466010C94660124
:1000C0000C9466010C9466010C9466010C94660114
:1000D0000C9466010C9466010C9466010C94660104
:1000E0000C9466010C9434030C9423030C942703A2
:1000F0000C9430030C943A030C94CD010C9404033B
:100100000C9450030C9483020C94FE010C94DC01BB
:100110000C945A030C9456030C9442030C944C0315
:100120000C94A0010C941B030C9409030C943E0343
:100130000C942A030C941F030C9436020C94F001C7
:100140000C94D9060C9448030000210024002700D9
:100150002A002D00300033000101000004010701D6
:100160000A0100002200250028002B002E0031008B
:10017000340002010000050108010B0100000A0B18
:1001800002090C0D0E080703040100000000000026
:10019000000000000000000000000000000000005F
:1001A000000000000000000012111000000000001C
:1001B000000000000000000000000000000000003F
:1001C0000000000020002300260029002C002F0042
:1001D00032000001000003010601090105050505C3
:1001E000070508080808020202020A0A08080404AF
:1001F00004040101010101010101030303030303DD
:100200000303040707070C0C0C0C0C0C0C0C02026B
:10021000020206060606060606060B0B0B0B0B0B68
:100220000B0B0102102020080810204010204080F5
:1002300002010201080402010102040810204080AA
:100240008040201008040201800402018040201038
:100250000804020108040201010204081020408081
:100260000102040810204080D90611241FBECFEFE0
:10027000D1E2DEBFCDBF00E00CBF12E0A0E0B2E0F3
:10028000EEEDF7E100E00BBF02C007900D92A6343F
:10029000B107D9F722E0A6E4B2E001C01D92AF3F5A
:1002A000B207E1F711E0C5E3D1E000E006C0219715
:1002B0000109802FFE010E94E50BC433D10780E0C5
:1002C0000807A9F70E9426070C94ED0B0C94000078
:1002D000CF92DF92EF92FF92CF93DF93B091F30230
:1002E000A0E08111AB2F8091F40290E0880F991F5C
:1002F000AC014E535E4FC090F902D090FA02E090EC
:10030000FB02F090FC0230E020E0FA01C591D491AC
:10031000E881B90190E080E0EB23EA130AC02F5F87
:100320003F4F6C157D058E059F0578F36FEF7FEFCE
:10033000CB01DF91CF91FF90EF90DF90CF900895A8
:10034000AF92BF92CF92DF92EF92FF920F931F93E3
:10035000CF93DF936C017B018B01040F151FEB0121
:100360005E01AE18BF08C017D10759F06991D601D8
:10037000ED91FC910190F081E02DC6011995892B3A
:1003800079F7C501DF91CF911F910F91FF90EF9009
:10039000DF90CF90BF90AF900895FC01538D448DB6
:1003A000252F30E0842F90E0821B930B541710F020
:1003B000CF96089501970895FC01918D828D98172D
:1003C00061F0A28DAE0FBF2FB11D5D968C91928D05
:1003D0009F5F9F73928F90E008958FEF9FEF089536
:1003E000FC01918D828D981731F0828DE80FF11DFF
:1003F000858D90E008958FEF9FEF0895FC01918D1A
:10040000228D892F90E0805C9F4F821B91098F7312
:10041000992708958FE492E00E94FE0121E0892B44
:1004200009F420E0822F0895FC01A48DA80FB92FB4
:10043000B11DA35ABF4F2C91848D90E001968F730C
:100440009927848FA689B7892C93A089B1898C912B
:10045000837080648C93938D848D981306C002887A
:10046000F389E02D80818F7D80830895EF92FF9244
:100470000F931F93CF93DF93EC0181E0888F9B8DC7
:100480008C8D98131AC0E889F989808185FF15C081
:100490009FB7F894EE89FF896083E889F9898081A4
:1004A0008370806480839FBF81E090E0DF91CF9173
:1004B0001F910F91FF90EF900895F62E0B8D10E095
:1004C0000F5F1F4F0F731127E02E8C8D8E110CC004
:1004D0000FB607FCFACFE889F989808185FFF5CF4F
:1004E000CE010E941402F1CFEB8DEC0FFD2FF11D18
:1004F000E35AFF4FF0829FB7F8940B8FEA89FB898C
:1005000080818062CFCFCF93DF93EC01888D8823E9
:10051000B9F0AA89BB89E889F9898C9185FD03C066
:10052000808186FD0DC00FB607FCF7CF8C9185FF4B
:10053000F2CF808185FFEDCFCE010E941402E9CF7A
:10054000DF91CF91089580E090E0892B29F00E94FF
:100550000A0281110E94000080E090E0892B49F09E
:1005600080E090E0892B29F00E94000081110E9418
:10057000000080E090E0892B49F080E090E0892B3A
:1005800029F00E94000081110E94000080E090E0AC
:10059000892B49F080E090E0892B29F00E9400002F
:1005A00081110C9400000895282F30E0F901E458DF
:1005B000FE4F9491F901EE5DFD4F449124523E4F60
:1005C000F9012491222309F435C0992311F19150A6
:1005D0009231F8F4E92FF0E08827EE50FD4F8F4F6D
:1005E0000C94E50B2303270304031B031F030903D8
:1005F0002A03300334033A033E03420348034C0307
:100600000903500356035A03809180008F7780932B
:100610008000E22FF0E0EE0FFF1FEE59FE4FA59194
:10062000B4918FB7F894EC91611148C040954E2376
:100630004C938FBF0895809180008F7DE8CF80918B
:100640008000877FE4CF84B58F7784BDE2CF84B507
:100650008F7DFBCF8091B0008F778093B000D9CF92
:100660008091B0008F7DF9CF809190008F7780933B
:100670009000CFCF809190008F7DF9CF8091900036
:10068000877FF5CF8091A0008F778093A000C1CFA6
:100690008091A0008F7DF9CF8091A000877FF5CF5A
:1006A000809120018F7780932001B3CF809120012A
:1006B0008F7DF9CF80912001877FF5CF4E2BB8CF6A
:1006C000CF93DF9390E0FC01EE5DFD4F24918452C7
:1006D0009E4FFC0184918823C9F090E0880F991FF8
:1006E000FC01E85BFE4FA591B491FC01EE59FE4F71
:1006F000C591D49161110DC09FB7F8948C9120954C
:1007000082238C938881282328839FBFDF91CF91F8
:100710000895623051F49FB7F8943C91822F8095F0
:1007200083238C93E8812E2BEFCF8FB7F894EC9135
:100730002E2B2C938FBFEACF3FB7F89480914702BE
:1007400090914802A0914902B0914A0226B5A89B17
:1007500005C02F3F19F00196A11DB11D3FBFBA2F53
:10076000A92F982F8827BC01CD01620F711D811D13
:10077000911D42E0660F771F881F991F4A95D1F798
:1007800008958F929F92AF92BF92CF92DF92EF9295
:10079000FF924B015C010E949C036B017C010E9453
:1007A0009C036C197D098E099F09683E7340810581
:1007B0009105A8F321E0821A9108A108B10888EEFA
:1007C000C80E83E0D81EE11CF11C81149104A10421
:1007D000B10429F7FF90EF90DF90CF90BF90AF90DA
:1007E0009F908F900895CF92DF92EF92FF920F9398
:1007F0001F93CF93DF93CDB7DEB7C054D1400FB670
:10080000F894DEBF0FBECDBF2FB7F89480914B0296
:1008100090914C02A0914D02B0914E022FBF409199
:10082000F5025091F6026091F7027091F8028C0186
:100830009D01041B150B260B370BB901A801403D88
:1008400057406105710590F48091FD02C05CDE4F58
:100850000FB6F894DEBF0FBECDBFDF91CF911F91D1
:100860000F91FF90EF90DF90CF9008958093F50265
:100870009093F602A093F702B093F8021092F00260
:100880001092EF021092EE021092ED021092EC0222
:1008900062E08091F1020E94600361E070E080E01C
:1008A00090E00E94C10361E08091F1020E94600328
:1008B00060E08091F1020E94D4028091F2028551A1
:1008C000823020F58BE291E10197F1F762E08091AF
:1008D000F1020E9460038091FE0290E08230910557
:1008E00038F0880F991F880F991F05970197F1F726
:1008F000F89480E00E9468016F3F7F4F8F4F9F4FB9
:1009000061F41092FD02789480E0A0CF64E170E081
:1009100080E090E00E94C103D9CF81E00E9468018D
:100920006F3F7F4F8F4F9F4F61F38E010F5F1F4FC0
:100930006E018FEBC81A8EEFD80A780180E00E9412
:100940006801F701608371838283938381E00E9451
:100950006801F7016483758386839783F8E0EF0E5F
:10096000F11CEC14FD0451F7789430E020E0F8011C
:10097000C080D180E280F380448155816681778197
:10098000FFEFCF16DF06EF06FF0631F04F3F8FEF88
:1009900058076807780719F41092FD02B5CFF901DE
:1009A00083E0F595E7958A95E1F7E451FD4F808165
:1009B000880FC416D506E606F70610F180832F5F70
:1009C0003F4F085F1F4F2832310589F64091F002F2
:1009D0002091EC028091ED02280F3327331F809184
:1009E000EE02280F311D8091EF02820F932F911D8F
:1009F00099274817190681F681E08093FD0226CFDA
:100A00008160DCCFFC0101900020E9F73197AF0154
:100A1000481B590BBC018FE492E00C94A0018F920B
:100A20009F92AF92BF920F931F93CF93DF93CDB757
:100A3000DEB7A1970FB6F894DEBF0FBECDBF19A2E7
:100A4000423008F44AE08E010F5D1F4F842E912C36
:100A5000B12CA12CA50194010E94C30BE62FB90172
:100A6000CA01EA30F4F4E05DD801EE938D01232B46
:100A7000242B252B79F790E080E0109719F0CD0119
:100A80000E940205A1960FB6F894DEBF0FBECDBF3F
:100A9000DF91CF911F910F91BF90AF909F908F905A
:100AA0000895E95CE1CF4F925F926F927F928F92AF
:100AB0009F92AF92BF92CF92DF92EF92FF920F93ED
:100AC0001F93CF936B017C01742EAC019B010E949C
:100AD000BE0B882399F082E192E0CF911F910F9194
:100AE000FF90EF90DF90CF90BF90AF909F908F904E
:100AF0007F906F905F904F900C94020546015701D4
:100B0000E894B7F82FEF3FEF4FE75FE7C501B40177
:100B10000E94BE0B81110DC02FEF3FEF4FE75FE743
:100B2000C501B4010E94F40918161CF486E192E094
:100B3000D4CF2FEF3FEF4FE75FE4C701B6010E942C
:100B40004C0B18161CF48AE192E0C7CF2FEF3FEF51
:100B50004FE75FECC701B6010E94F40987FDF3CFB0
:100B600020E030E0A901C701B6010E94F40910E0BD
:100B700000E087FF0AC06DE28FE492E00E94360237
:100B80008C01F7FAF094F7F8F094C0E060E070E0C0
:100B900080E09FE37C1641F020E030E040E251E449
:100BA0000E94F909CF5FF6CFA70196010E9488093C
:100BB0002B013C010E946B0A4B015C014AE00E9440
:100BC0000F057C01E00EF11ECC23C1F1C501B4017B
:100BD0000E949A0A9B01AC01C301B2010E948709DD
:100BE0004B015C016EE28FE492E00E943602E80E57
:100BF000F91EC15018F120E030E040E251E4C50197
:100C0000B4010E94510B2B013C010E946B0A4B0165
:100C1000B12CA12C4AE0C501B4010E940F05E80ED9
:100C2000F91EC501B4010E949A0A9B01AC01C301DF
:100C3000B2010E9487094B015C01DBCFC701CF9154
:100C40001F910F91FF90EF90DF90CF90BF90AF90EA
:100C50009F908F907F906F905F904F9008951F921C
:100C60000F920FB60F9211240BB60F922F933F9352
:100C70004F935F936F937F938F939F93AF93BF93A4
:100C8000EF93FF938FE492E00E941402FF91EF91A3
:100C9000BF91AF919F918F917F916F915F914F9194
:100CA0003F912F910F900BBE0F900FBE0F901F9092
:100CB00018951F920F920FB60F9211240BB60F9238
:100CC0002F938F939F93EF93FF93E0915F02F091A7
:100CD00060028081E0916502F091660282FD1DC094
:100CE0009081809168028F5F8F73209169028217D3
:100CF00041F0E0916802F0E0E15BFD4F958F809359
:100D00006802FF91EF919F918F912F910F900BBEF1
:100D10000F900FBE0F901F9018958081F2CF1F92F9
:100D20000F920FB60F9211242F933F938F939F939F
:100D3000AF93BF9380914B0290914C02A0914D02D2
:100D4000B0914E023091460223E0230F2D3758F523
:100D50000196A11DB11D2093460280934B029093F2
:100D60004C02A0934D02B0934E02809147029091A5
:100D70004802A0914902B0914A020196A11DB11DFD
:100D80008093470290934802A0934902B0934A028D
:100D9000BF91AF919F918F913F912F910F900FBE77
:100DA0000F901F90189526E8230F0296A11DB11DE4
:100DB000D2CFEFE4F2E01382128288EE93E0A0E05B
:100DC000B0E084839583A683B78384E092E0918327
:100DD000808385EC90E09587848784EC90E097870A
:100DE000868780EC90E0918B808B81EC90E0938BF8
:100DF000828B82EC90E0958B848B86EC90E0978BD5
:100E0000868B118E128E138E148EACEEB2E086E1BC
:100E100015968C9315978BE016968C931697E8E3AE
:100E2000F2E0E4911796EC931797E2EFF1E0E4918A
:100E30001896EC93189740E85EE360E070E01D962A
:100E40004D935D936D937C9350970895789484B5FA
:100E5000826084BD84B5816084BD85B5826085BDB6
:100E600085B5816085BD80916E00816080936E0044
:100E70001092810080918100826080938100809136
:100E800081008160809381008091800081608093E7
:100E900080008091B10084608093B1008091B000A7
:100EA00081608093B0008091910082608093910076
:100EB0008091910081608093910080919000816089
:100EC000809390008091A10082608093A100809126
:100ED000A10081608093A1008091A0008160809337
:100EE000A0008091210182608093210180912101E5
:100EF0008160809321018091200181608093200195
:100F000080917A00846080937A0080917A00826078
:100F100080937A0080917A00816080937A0080913A
:100F20007A00806880937A001092C100E0915F029D
:100F3000F091600282E08083E0915B02F0915C02BC
:100F40001082E0915D02F0915E028FEC808310923E
:100F50006702E0916302F091640286E08083E09191
:100F60006102F0916202808180618083E091610280
:100F7000F0916202808188608083E0916102F0914B
:100F80006202808180688083E0916102F091620258
:100F900080818F7D808362E08091F1020E946003F6
:100FA0002FB7F89480914B0290914C02A0914D0282
:100FB000B0914E022FBF805D9740A109B109809387
:100FC000F5029093F602A093F702B093F80287E33C
:100FD0008093FE0260E086E30E94600361E087E1A7
:100FE0000E94600361E088E10E94600361E089E1A2
:100FF0000E94600361E08AE10E94600361E08BE18E
:101000000E94600361E08CE10E94600361E08DE179
:101010000E94600361E08EE10E94600361E08FE165
:101020000E946003C0E461E087E10E94D40261E0B5
:1010300088E10E94D40261E089E10E94D40261E06B
:101040008AE10E94D40261E08BE10E94D40261E057
:101050008CE10E94D40261E08DE10E94D40261E043
:101060008EE10E94D4020E94F303882309F45BC03E
:101070008091F2028C3009F4A5C048F48B3001F164
:10108000C12CD12C90ECE92E9FE7F92E43C085515D
:101090008230B0F7D091EE026D2F70E0762F662788
:1010A00066277F778091EF02682B90E080E00E94B6
:1010B0009A0A2DEC3CEC4CEC5DE30E94510B9EC077
:1010C0006091EE0270E090E080E00E949A0A6B016D
:1010D0007C01D091EF02D7FF0AC0AC019B0160E018
:1010E00070E080E89FEB0E9487096B017C01DF7054
:1010F0006D2F70E090E080E00E949C0A2DEC3CECAB
:101100004CEC5DE30E94510BA70196010E948809F7
:101110006B017C01A7019601C701B6010E94BE0BBD
:10112000882309F474C08EE192E00E9402058CE2EB
:1011300092E00E94020580917B00877F80937B0074
:10114000C0937C0080917A00806480937A008091C3
:101150007A0086FDFCCF90917800809179008927F4
:10116000982789276C01092E000CEE08FF0897FFCD
:1011700054C06DE28FE492E00E9436026627772722
:10118000CB016C197D098E099F094AE00E940F0569
:101190008CE292E00E9402050E94F303882309F486
:1011A00067C08091F2028B3030F08D30D0F18551E4
:1011B000823008F494C0C12CD12C80ECE82E8FE74B
:1011C000F82E4DC0D091EE026D2F70E090E080E0DF
:1011D0000E949A0A6B017C016091EF026F7070E0CF
:1011E00090E080E00E949C0A2DEC3CEC4CEC5DE32E
:1011F0000E94510BA70196010E9488096B017C0196
:10120000D7FF88CFF7FAF094F7F8F09483CF42E055
:10121000C701B6010E9453058ACF4AE0C701B60153
:10122000B5CF6091ED0270E090E080E00E949C0AF2
:101230002DEC3CEC4CEC5DE30E94510B6B017C010E
:101240006091EC0270E090E080E00E949C0A9B01BB
:10125000AC01C701B6010E9488096B017C01A7019E
:101260009601C701B6010E94BE0B882309F449C04C
:101270008FE292E00E9402058CE292E00E94020559
:1012800068EE73E080E090E00E94C10360E087E1D7
:101290000E94D40260E088E10E94D40260E089E10B
:1012A0000E94D40260E08AE10E94D40260E08BE1F7
:1012B0000E94D40260E08CE10E94D40260E08DE1E3
:1012C0000E94D40260E08EE10E94D40268EE73E0D6
:1012D00080E090E00E94C1030E94A302A4CE60912E
:1012E000EC027091ED0276276727762790E080E088
:1012F0000E949A0A2DEC3CEC4CEC5DE30E94510BF1
:10130000ACCF42E0C701B6010E945305B5CF50589B
:10131000BB27AA270E949F090C94120B0E94040B62
:1013200038F00E940B0B20F039F49F3F19F426F49B
:101330000C94010B0EF4E095E7FB0C94FB0AE92FEB
:101340000E94230B58F3BA176207730784079507A7
:1013500020F079F4A6F50C94450B0EF4E0950B2ED5
:10136000BA2FA02D0B01B90190010C01CA01A001F7
:101370001124FF27591B99F0593F50F4503E68F152
:101380001A16F040A22F232F342F4427585FF3CF93
:10139000469537952795A795F0405395C9F77EF464
:1013A0001F16BA0B620B730B840BBAF09150A1F0AD
:1013B000FF0FBB1F661F771F881FC2F70EC0BA0F33
:1013C000621F731F841F48F4879577956795B795BB
:1013D000F7959E3F08F0B0CF9395880F08F09927B6
:1013E000EE0F9795879508950E94D70A08F481E03B
:1013F00008950E940D0A0C94120B0E940B0B58F0DA
:101400000E94040B40F029F45F3F29F00C94FB0A82
:1014100051110C94460B0C94010B0E94230B68F3A2
:101420009923B1F3552391F3951B550BBB27AA279D
:1014300062177307840738F09F5F5F4F220F331FD7
:10144000441FAA1FA9F335D00E2E3AF0E0E832D09F
:1014500091505040E695001CCAF72BD0FE2F29D0A2
:10146000660F771F881FBB1F261737074807AB0774
:10147000B0E809F0BB0B802DBF01FF2793585F4FE9
:101480003AF09E3F510578F00C94FB0A0C94460B01
:101490005F3FE4F3983ED4F3869577956795B795CB
:1014A000F7959F5FC9F7880F911D9695879597F9D6
:1014B0000895E1E0660F771F881FBB1F621773074F
:1014C0008407BA0720F0621B730B840BBA0BEE1F64
:1014D00088F7E09508950E942B0B88F09F5798F0AD
:1014E000B92F9927B751B0F0E1F0660F771F881F29
:1014F000991F1AF0BA95C9F714C0B13091F00E9443
:10150000450BB1E008950C94450B672F782F882781
:10151000B85F39F0B93FCCF3869577956795B39569
:10152000D9F73EF490958095709561957F4F8F4FD8
:101530009F4F0895E89409C097FB3EF490958095DD
:10154000709561957F4F8F4F9F4F9923A9F0F92F89
:1015500096E9BB279395F695879577956795B79507
:10156000F111F8CFFAF4BB0F11F460FF1BC06F5FED
:101570007F4F8F4F9F4F16C0882311F096E911C0FF
:10158000772321F09EE8872F762F05C0662371F020
:1015900096E8862F70E060E02AF09A95660F771F34
:1015A000881FDAF7880F9695879597F90895990F10
:1015B0000008550FAA0BE0E8FEEF16161706E8071D
:1015C000F907C0F012161306E407F50798F0621B3E
:1015D000730B840B950B39F40A2661F0232B242B13
:1015E000252B21F408950A2609F4A140A6958FEF32
:1015F000811D811D089597F99F6780E870E060E084
:1016000008959FEF80EC089500240A94161617069B
:1016100018060906089500240A94121613061406E3
:1016200005060895092E0394000C11F4882352F046
:10163000BB0F40F4BF2B11F460FF04C06F5F7F4FFE
:101640008F4F9F4F089557FD9058440F551F59F0E5
:101650005F3F71F04795880F97FB991F61F09F3F9F
:1016600079F087950895121613061406551FF2CFC8
:101670004695F1DF08C0161617061806991FF1CF18
:1016800086957105610508940895E894BB2766273F
:101690007727CB0197F908950E94D70A08F48FEFB6
:1016A00008950E94640B0C94120B0E94040B38F0F6
:1016B0000E940B0B20F0952311F00C94FB0A0C9464
:1016C000010B11240C94460B0E94230B70F3959F81
:1016D000C1F3950F50E0551F629FF001729FBB2729
:1016E000F00DB11D639FAA27F00DB11DAA1F649FC5
:1016F0006627B00DA11D661F829F2227B00DA11D78
:10170000621F739FB00DA11D621F839FA00D611DFD
:10171000221F749F3327A00D611D231F849F600D1E
:10172000211D822F762F6A2F11249F5750409AF047
:10173000F1F088234AF0EE0FFF1FBB1F661F771FD3
:10174000881F91505040A9F79E3F510580F00C949E
:10175000FB0A0C94460B5F3FE4F3983ED4F3869566
:1017600077956795B795F795E7959F5FC1F7FE2B3E
:10177000880F911D9695879597F908950E94D70A2D
:10178000880B990B0895A1E21A2EAA1BBB1BFD0121
:101790000DC0AA1FBB1FEE1FFF1FA217B307E40750
:1017A000F50720F0A21BB30BE40BF50B661F771FA8
:1017B000881F991F1A9469F7609570958095909588
:1017C0009B01AC01BD01CF010895EE0FFF1F881FE3
:0E17D0008BBF0790F691E02D1994F894FFCF8F
:1017DE00000000003602A001CD018302FE01DC01F3
:1017EE00F0016E616E00696E66006F76660045727E
:1017FE00726F7220616C206C656572000D0A004577
:10180E0072726F7220616C206C6565722048756D06
:06181E0065646164000036
:00000001FF
