:100000000C945C000C946E000C946E000C946E00CA
:100010000C946E000C946E000C946E000C946E00A8
:100020000C946E000C946E000C946E000C946E0098
:100030000C946E000C946E000C946E000C946E0088
:100040000C948F000C946E000C946E000C946E0057
:100050000C946E000C946E000C946E000C946E0068
:100060000C946E000C946E00000000080002010069
:100070000003040700000000000000000000000072
:10008000250028002B0000000000240027002A0083
:10009000040404040404040402020202020203032E
:1000A0000303030301020408102040800102040836
:1000B000102001020408102011241FBECFEFD8E049
:1000C000DEBFCDBF21E0A0E0B1E001C01D92A930AC
:1000D000B207E1F70E94D9000C9486010C9400004D
:1000E00090E0FC01EC55FF4F249180579F4FFC019D
:1000F0008491882399F090E0880F991FFC01EA57BA
:10010000FF4FA591B491FC01E458FF4F8591949164
:100110008FB7F894EC91E22BEC938FBF08951F9268
:100120000F920FB60F9211242F933F938F939F93AB
:10013000AF93BF938091050190910601A0910701B3
:10014000B09108013091040123E0230F2D3758F5B9
:100150000196A11DB11D2093040180930501909388
:100160000601A0930701B0930801809100019091CE
:100170000101A0910201B09103010196A11DB11DE1
:100180008093000190930101A0930201B0930301B9
:10019000BF91AF919F918F913F912F910F900FBE83
:1001A0000F901F90189526E8230F0296A11DB11DF0
:1001B000D2CF789484B5826084BD84B5816084BDDB
:1001C00085B5826085BD85B5816085BD80916E00F5
:1001D000816080936E001092810080918100826026
:1001E0008093810080918100816080938100809163
:1001F00080008160809380008091B1008460809352
:10020000B1008091B00081608093B00080917A004D
:10021000846080937A0080917A00826080937A0073
:1002200080917A00816080937A0080917A00806862
:1002300080937A001092C10086E10E94700087E1ED
:100240000E94700088E10E94700089E10E947000A5
:100250008AE10E9470008BE10E9470008CE10E9494
:1002600070008DE10E947000CEE7D0E00AEB10E054
:1002700096EAE92E90E0F92E20E0C22E20E0D22E60
:10028000FE018491F8019491F70124912223B9F0A1
:10029000882339F0833019F1C0F4813031F1823094
:1002A00041F1E22FF0E0EE0FFF1FE458FF4FA59160
:1002B000B4918FB7F8942C91922B9C938FBFC1145B
:1002C000D104F1F20E940000DBCF8730A9F0883022
:1002D000C9F0843031F7809180008F7D03C0809118
:1002E00080008F7780938000DCCF84B58F7784BDCA
:1002F000D8CF84B58F7DFBCF8091B0008F7780936E
:10030000B000CFCF8091B0008F7DF9CFF894FFCFB0
:00000001FF
