:020000040000FA
:100000000C9435010C9466010C9466010C94660105
:100010000C9466010C9466010C9466010C946601C4
:100020000C9466010C9466010C9466010C946601B4
:100030000C9466010C9466010C9466010C946601A4
:100040000C9466010C9466010C9466010C94660194
:100050000C9466010C9466010C9466010C94F704F0
:100060000C9466010C94C1040C9497040C946601E2
:100070000C9466010C9466010C9466010C94660164
:100080000C9466010C9466010C9466010C94660154
:100090000C9466010C9466010C9466010C94660144
:1000A0000C9466010C9466010C9466010C94660134
:1000B0000C9466010C9466010C9466010C94660124
:1000C0000C9466010C9466010C9466010C94660114
:1000D0000C9466010C9466010C9466010C94660104
:1000E0000C9466010C94A4010C94A9070C940C03C5
:1000F0000C943E020C9450030C9454030C948B0209
:100100000C942B030C9423030C9442030C940602CE
:100110000C9468010C9411030C9495010C94320317
:100120000C9458030C9446030C9427030C9462031C
:100130000C944A030C94F8010C943C030C942F0388
:100140000C945E030C943803000021002400270067
:100150002A002D00300033000101000004010701D6
:100160000A0100002200250028002B002E0031008B
:10017000340002010000050108010B0100000A0B18
:1001800002090C0D0E080703040100000000000026
:10019000000000000000000000000000000000005F
:1001A000000000000000000012111000000000001C
:1001B000000000000000000000000000000000003F
:1001C0000000000020002300260029002C002F0042
:1001D00032000001000003010601090105050505C3
:1001E000070508080808020202020A0A08080404AF
:1001F00004040101010101010101030303030303DD
:100200000303040707070C0C0C0C0C0C0C0C02026B
:10021000020206060606060606060B0B0B0B0B0B68
:100220000B0B0102102020080810204010204080F5
:1002300002010201080402010102040810204080AA
:100240008040201008040201800402018040201038
:100250000804020108040201010204081020408081
:100260000102040810204080A90711241FBECFEF0F
:10027000D1E2DEBFCDBF00E00CBF23E0A8E3B3E0D6
:1002800001C01D92A73FB207E1F713E0A0E0B2E082
:10029000ECEAF1E200E00BBF02C007900D92A83338
:1002A000B107D9F711E0C5E3D1E000E006C021971E
:1002B0000109802FFE010E94AD0EC433D10780E0FA
:1002C0000807A9F70E94F6070C94D4100C940000BC
:1002D000AF92BF92CF92DF92EF92FF920F931F9354
:1002E000CF93DF936C017B018B01040F151FEB0192
:1002F0005E01AE18BF08C017D10759F06991D60149
:10030000ED91FC910190F081E02DC6011995892BAA
:1003100079F7C501DF91CF911F910F91FF90EF9079
:10032000DF90CF90BF90AF900895FC01538D448D26
:10033000252F30E0842F90E0821B930B541710F090
:10034000CF96089501970895FC01918D828D98179D
:1003500061F0A28DAE0FBF2FB11D5D968C91928D75
:100360009F5F9F73928F90E008958FEF9FEF0895A6
:100370002FB7F89480913F0390914003A0914103DF
:10038000B09142032FBF80934B0390934C03A093F3
:100390004D03B0934E0383E493E00E94A40197FFC2
:1003A00026C02FB7F89480913F0390914003A0910D
:1003B0004103B09142032FBF40914B0350914C0336
:1003C00060914D0370914E03841B950BA60BB70BE8
:1003D00040914703509148036091490370914A034B
:1003E00084179507A607B707B0F28FEF9FEF089520
:1003F000FC01918D828D981731F0828DE80FF11DEF
:10040000858D90E008958FEF9FEF0895FC01918D09
:10041000228D892F90E0805C9F4F821B91098F7302
:100420009927089583E493E00E94060221E0892B36
:1004300009F420E0822F0895FC01A48DA80FB92FA4
:10044000B11DA35ABF4F2C91848D90E001968F73FC
:100450009927848FA689B7892C93A089B1898C911B
:10046000837080648C93938D848D981306C002886A
:10047000F389E02D80818F7D80830895EF92FF9234
:100480000F931F93CF93DF93EC0181E0888F9B8DB7
:100490008C8D98131AC0E889F989808185FF15C071
:1004A0009FB7F894EE89FF896083E889F989808194
:1004B0008370806480839FBF81E090E0DF91CF9163
:1004C0001F910F91FF90EF900895F62E0B8D10E085
:1004D0000F5F1F4F0F731127E02E8C8D8E110CC0F4
:1004E0000FB607FCFACFE889F989808185FFF5CF3F
:1004F000CE010E941C02F1CFEB8DEC0FFD2FF11D00
:10050000E35AFF4FF0829FB7F8940B8FEA89FB897B
:1005100080818062CFCFCF93DF93EC01888D8823D9
:10052000B9F0AA89BB89E889F9898C9185FD03C056
:10053000808186FD0DC00FB607FCF7CF8C9185FF3B
:10054000F2CF808185FFEDCFCE010E941C02E9CF62
:10055000DF91CF91089580E090E0892B29F00E94EF
:10056000120281110E94000080E090E0892B49F086
:1005700080E090E0892B29F00E94000081110E9408
:10058000000080E090E0892B49F080E090E0892B2A
:1005900029F00E94000081110E94000080E090E09C
:1005A000892B49F080E090E0892B29F00E9400001F
:1005B00081110C9400000895282F30E0F901E458CF
:1005C000FE4F9491F901EE5DFD4F449124523E4F50
:1005D000F9012491222309F435C0992311F1915096
:1005E0009231F8F4E92FF0E08827E650FD4F8F4F65
:1005F0000C94AD0E2B032F030C03230327031103CD
:10060000320338033C03420346034A0350035403B6
:10061000110358035E036203809180008F778093FB
:100620008000E22FF0E0EE0FFF1FEE59FE4FA59184
:10063000B4918FB7F894EC91611148C040954E2366
:100640004C938FBF0895809180008F7DE8CF80917B
:100650008000877FE4CF84B58F7784BDE2CF84B5F7
:100660008F7DFBCF8091B0008F778093B000D9CF82
:100670008091B0008F7DF9CF809190008F7780932B
:100680009000CFCF809190008F7DF9CF8091900026
:10069000877FF5CF8091A0008F778093A000C1CF96
:1006A0008091A0008F7DF9CF8091A000877FF5CF4A
:1006B000809120018F7780932001B3CF809120011A
:1006C0008F7DF9CF80912001877FF5CF4E2BB8CF5A
:1006D000CF93DF9390E0FC01EE5DFD4F24918452B7
:1006E0009E4FFC0184918823C9F090E0880F991FE8
:1006F000FC01E85BFE4FA591B491FC01EE59FE4F61
:10070000C591D49161110DC09FB7F8948C9120953B
:1007100082238C938881282328839FBFDF91CF91E8
:100720000895623051F49FB7F8943C91822F8095E0
:1007300083238C93E8812E2BEFCF8FB7F894EC9125
:100740002E2B2C938FBFEACF3FB7F89480913903BB
:1007500090913A03A0913B03B0913C0326B5A89B2E
:1007600005C02F3F19F00196A11DB11D3FBFBA2F43
:10077000A92F982F8827BC01CD01620F711D811D03
:10078000911D42E0660F771F881F991F4A95D1F788
:1007900008958F929F92AF92BF92CF92DF92EF9285
:1007A000FF924B015C010E94A4036B017C010E943B
:1007B000A4036C197D098E099F09683E7340810569
:1007C0009105A8F321E0821A9108A108B10888EEEA
:1007D000C80E83E0D81EE11CF11C81149104A10411
:1007E000B10429F7FF90EF90DF90CF90BF90AF90CA
:1007F0009F908F900895FC0101900020E9F73197B8
:10080000AF01481B590BBC0183E493E00C946801D1
:100810008F929F92AF92BF920F931F93CF93DF93CC
:10082000CDB7DEB7A1970FB6F894DEBF0FBECDBF30
:1008300019A2423008F44AE08E010F5D1F4F842E4A
:10084000912CB12CA12CA50194010E946C0EE62FD5
:10085000B901CA01EA30F4F4E05DD801EE938D01EC
:10086000232B242B252B79F790E080E0109719F0AB
:10087000CD010E94FB03A1960FB6F894DEBF0FBE18
:10088000CDBFDF91CF911F910F91BF90AF909F90FF
:100890008F900895E95CE1CFCF93DF930E94FB0333
:1008A000EC0188E192E00E94FB038C0F9D1FDF9119
:1008B000CF910895FC0124813581232B39F421E067
:1008C000FB018081882349F020E007C0808191816D
:1008D0000E94C41021E0892BB9F7822F08950F934D
:1008E0001F93CF93DF93EC0188819981009759F092
:1008F0002A813B812617370730F081E0DF91CF91C5
:100900001F910F9108958B016F5F7F4F0E94DA0F47
:10091000009759F0998388831B830A832C813D813A
:10092000232B59F7FC011082E8CF80E0E7CF1F921C
:100930000F920FB60F9211240BB60F922F933F9385
:100940004F935F936F937F938F939F93AF93BF93D7
:10095000EF93FF9383E493E00E941C02FF91EF91D9
:10096000BF91AF919F918F917F916F915F914F91C7
:100970003F912F910F900BBE0F900FBE0F901F90C5
:1009800018951F920F920FB60F9211240BB60F926B
:100990002F938F939F93EF93FF93E0915303F091E5
:1009A00054038081E0915903F0915A0382FD1DC0E8
:1009B000908180915C038F5F8F7320915D0382171C
:1009C00041F0E0915C03F0E0ED5BFC4F958F80938C
:1009D0005C03FF91EF919F918F912F910F900BBE30
:1009E0000F900FBE0F901F9018958081F2CF1F922D
:1009F0000F920FB60F9211242F933F938F939F93D3
:100A0000AF93BF9380913F0390914003A091410326
:100A1000B09142033091380323E0230F2D3758F56E
:100A20000196A11DB11D2093380380933F0390933D
:100A30004003A0934103B093420380913903909106
:100A40003A03A0913B03B0913C030196A11DB11D57
:100A50008093390390933A03A0933B03B0933C03F4
:100A6000BF91AF919F918F913F912F910F900FBEAA
:100A70000F901F90189526E8230F0296A11DB11D17
:100A8000D2CFCF92DF92EF92FF920F931F93E82F76
:100A9000F92F05C0015011092109310961F1908137
:100AA00096239417B9F305C00150110921093109A2
:100AB00011F1908196239413F7CFC12CD12CE12C06
:100AC000F12C0AC08FEFC81AD80AE80AF80A0C15E8
:100AD0001D052E053F0579F080818623841791F34B
:100AE0006C2D7D2D8E2D9F2D1F910F91FF90EF90DE
:100AF000DF90CF90089560E070E080E090E01F917B
:100B00000F91FF90EF90DF90CF900895CF92DF92FA
:100B1000EF92FF92CF93DF93B091E703A0E08111B2
:100B2000AB2F8091E80390E0880F991FAC014E53E2
:100B30005E4FC090ED03D090EE03E090EF03F09095
:100B4000F00330E020E0FA01C591D491E881B901C9
:100B500090E080E0EB23EA130AC02F5F3F4F6C1553
:100B60007D058E059F0578F36FEF7FEFCB01DF9159
:100B7000CF91FF90EF90DF90CF900895CF92DF92CA
:100B8000EF92FF920F931F93CF93DF93CDB7DEB712
:100B9000C054D1400FB6F894DEBF0FBECDBF2FB703
:100BA000F89480913F0390914003A0914103B0914C
:100BB00042032FBF4091E9035091EA036091EB0398
:100BC0007091EC038C019D01041B150B260B370B58
:100BD000B901A801403D57406105710590F480912D
:100BE000F103C05CDE4F0FB6F894DEBF0FBECDBF81
:100BF000DF91CF911F910F91FF90EF90DF90CF90F9
:100C000008958093E9039093EA03A093EB03B093D4
:100C1000EC031092E4031092E3031092E2031092AB
:100C2000E1031092E00362E08091E5030E94680313
:100C300061E070E080E090E00E94C90361E0809193
:100C4000E5030E94680360E08091E5030E94DC02F6
:100C50008091E6038551823020F58BE291E1019786
:100C6000F1F762E08091E5030E9468038091F2034E
:100C700090E08230910538F0880F991F880F991FF6
:100C800005970197F1F7F89480E00E9486056F3F81
:100C90007F4F8F4F9F4F61F41092F103789480E063
:100CA000A0CF64E170E080E090E00E94C903D9CF5A
:100CB00081E00E9486056F3F7F4F8F4F9F4F61F30A
:100CC0008E010F5F1F4F6E018FEBC81A8EEFD80A8F
:100CD000780180E00E948605F7016083718382833A
:100CE000938381E00E948605F70164837583868380
:100CF0009783F8E0EF0EF11CEC14FD0451F77894A3
:100D000030E020E0F801C080D180E280F3804481AF
:100D1000558166817781FFEFCF16DF06EF06FF066C
:100D200031F04F3F8FEF58076807780719F410929A
:100D3000F103B5CFF90183E0F595E7958A95E1F7E1
:100D4000E052FC4F8081880FC416D506E606F706F0
:100D500010F180832F5F3F4F085F1F4F283231050E
:100D600089F64091E4032091E0038091E103280F8C
:100D70003327331F8091E203280F311D8091E30355
:100D8000820F932F911D99274817190681F681E04C
:100D90008093F10326CF8160DCCF4F925F926F92F8
:100DA0007F928F929F92AF92BF92CF92DF92EF92FB
:100DB000FF920F931F93CF936B017C01742EAC01B4
:100DC0009B010E94670E882399F08BE192E0CF91FE
:100DD0001F910F91FF90EF90DF90CF90BF90AF9059
:100DE0009F908F907F906F905F904F900C94FB033B
:100DF00046015701E894B7F82FEF3FEF4FE75FE761
:100E0000C501B4010E94670E81110DC02FEF3FEFA5
:100E10004FE75FE7C501B4010E942D0C18161CF4C2
:100E20008FE192E0D4CF2FEF3FEF4FE75FE4C701B0
:100E3000B6010E94620E18161CF483E292E0C7CF3E
:100E40002FEF3FEF4FE75FECC701B6010E942D0C7B
:100E500087FDF3CF20E030E0A901C701B6010E9471
:100E60002D0C10E000E087FF0AC06DE283E493E000
:100E70000E943E028C01F7FAF094F7F8F094C0E07B
:100E800060E070E080E09FE37C1641F020E030E01D
:100E900040E251E40E94C10DCF5FF6CFA701960159
:100EA0000E94550D2B013C010E94330E4B015C0149
:100EB0004AE00E9408047C01E00EF11ECC23C1F13F
:100EC000C501B4010E94320C9B01AC01C301B20107
:100ED0000E94540D4B015C016EE283E493E00E949A
:100EE0003E02E80EF91EC15018F120E030E040E269
:100EF00051E4C501B4010E94930C2B013C010E94F6
:100F0000330E4B01B12CA12C4AE0C501B4010E9463
:100F10000804E80EF91EC501B4010E94320C9B01C1
:100F2000AC01C301B2010E94540D4B015C01DBCF47
:100F3000C701CF911F910F91FF90EF90DF90CF905D
:100F4000BF90AF909F908F907F906F905F904F90E9
:100F50000895E3E4F3E01382128288EE93E0A0E0C8
:100F6000B0E084839583A683B7838AE092E091837F
:100F7000808385EC90E09587848784EC90E0978768
:100F8000868780EC90E0918B808B81EC90E0938B56
:100F9000828B82EC90E0958B848B86EC90E0978B33
:100FA000868B118E128E138E148EA0EEB3E086E126
:100FB00015968C9315978BE016968C931697E8E30D
:100FC000F2E0E4911796EC931797E2EFF1E0E491E9
:100FD0001896EC93189740E85EE360E070E01D9689
:100FE0004D935D936D937C9350970895CF93DF93CA
:100FF00000D000D01F921F92CDB7DEB7789484B591
:10100000826084BD84B5816084BD85B5826085BD04
:1010100085B5816085BD80916E00816080936E0092
:101020001092810080918100826080938100809184
:101030008100816080938100809180008160809335
:1010400080008091B10084608093B1008091B000F5
:1010500081608093B00080919100826080939100C4
:1010600080919100816080939100809190008160D7
:10107000809390008091A10082608093A100809174
:10108000A10081608093A1008091A0008160809385
:10109000A000809121018260809321018091210133
:1010A00081608093210180912001816080932001E3
:1010B00080917A00846080937A0080917A008260C7
:1010C00080937A0080917A00816080937A00809189
:1010D0007A00806880937A001092C100E0915303F7
:1010E000F091540382E08083E0914F03F09150032C
:1010F0001082E0915103F09152038FEC80831092A3
:101100005B03E0915703F091580386E08083E09100
:101110005503F0915603808180618083E0915503EF
:10112000F0915603808188608083E0915503F091AF
:101130005603808180688083E0915503F0915603C7
:1011400080818F7D808362E08091E5030E94680347
:101150002FB7F89480913F0390914003A0914103F1
:10116000B09142032FBF805D9740A109B1098093E0
:10117000E9039093EA03A093EB03B093EC0387E3B6
:101180008093F20361E087E10E94680361E088E1F7
:101190000E94680361E089E10E94680361E08AE1DE
:1011A0000E94680361E08BE10E94680361E08CE1CA
:1011B0000E94680361E08DE10E94680361E08EE1B6
:1011C0000E94680361E085E30E94680360E084E3B5
:1011D0000E94680361E083E30E94680361E082E3A8
:1011E0000E94680361E082E30E94DC0261E08FE11B
:1011F0000E94680387E292E00E944C0443E0242EA0
:10120000312C53E2852E912C6AE3462E512C612C11
:10121000712C68EE73E080E090E00E94C90360E00A
:1012200085E30E94DC02C1010197F1F761E085E3EB
:101230000E94DC02C4010197F1F760E085E30E949F
:10124000DC02E6E5F2E06491E0E1F2E08491E82F6F
:10125000F0E0EE0FFF1FEE53FE4F8591949100E4F6
:1012600012E42FE030E0462F0E9441056115710520
:101270008105910529F06F5F7F4F8F4F9F4F9F70C2
:10128000A30192010E948E0E69017A014AE0C70112
:10129000B6010E94080488E192E00E94FB0364E624
:1012A00070E080E090E00E94C903F4E8CF16F3E01C
:1012B000DF06E104F10444F460E082E30E94DC0212
:1012C00061E083E30E94DC0283E493E00E94060273
:1012D000892B09F422C21A8219821C821B821E8267
:1012E0001D8270E060E0CE0101960E946F042981AA
:1012F0003A8181112BC02115310519F0C9010E94D5
:10130000510F1A8219821E821D821C821B820E942A
:10131000B80197FD23C08F8318860D811E810F5F52
:101320001F4FB801CE0101960E946F04882379F304
:1013300029813A818D819E81BE01695F7F4F820F35
:10134000931F0E94CD101E830D83E1CF1E821D824C
:101350006AE172E0C9010E94CD10D9CFC980DA805C
:10136000C114D10431F00D811E81760101151105E2
:10137000B9F468E372E0CE0101960E945A0461E07C
:10138000811109C061E472E0CE0101960E945A0405
:101390008823E1F160E087E10E94DC02B8C17501B9
:1013A00057018FEFA81AB80AF7018081082E000CA8
:1013B000990B0E94240C892B91F7015011090C0DF7
:1013C0001D1DF8018081082E000C990B0E94240C31
:1013D000892B31F00E151F0518F001501109F1CFBE
:1013E000A8014F5F5F4F4E195F095E834D83CE1496
:1013F000DF0420F4B701C6010E94BB10E981FA8125
:101400008D819E81E80FF91F1082B3CF6BE472E0EB
:10141000CE0101960E945A0461E0811109C064E581
:1014200072E0CE0101960E945A04882319F060E010
:1014300088E1B2CF6EE572E0CE0101960E945A04B7
:1014400061E0811109C067E672E0CE0101960E9459
:101450005A04882319F060E089E19ECF61E772E0C9
:10146000CE0101960E945A0461E0811109C06AE729
:1014700072E0CE0101960E945A04882319F060E0C0
:101480008AE18ACF64E872E0CE0101960E945A0494
:1014900061E0811109C06DE872E0CE0101960E9401
:1014A0005A04882319F060E08BE176CF67E972E097
:1014B000CE0101960E945A0461E0811109C060EAE0
:1014C00072E0CE0101960E945A04882319F060E070
:1014D0008CE162CF6AEA72E0CE0101960E945A0462
:1014E00061E0811109C063EB72E0CE0101960E94B8
:1014F0005A04882319F060E08DE14ECF6DEB72E065
:10150000CE0101960E945A04882319F061E08EE111
:1015100043CF66EC72E0CE0101960E945A04882304
:1015200011F060E0F4CF60ED72E0CE0101960E9410
:101530005A04882309F48AC00E94BE05882309F44E
:101540005BC08091E6038C3009F45BC048F48B30BB
:1015500001F1C12CD12C90ECE92E9FE7F92E43C06C
:1015600085518230B0F71091E203612F70E0762F41
:10157000662766277F778091E303682B90E080E001
:101580000E94320C2DEC3CEC4CEC5DE30E94930C81
:1015900054C06091E20370E090E080E00E94320C61
:1015A0006B017C011091E30317FF0AC0AC019B01A2
:1015B00060E070E080E89FEB0E94540D6B017C01BD
:1015C0001F70612F70E090E080E00E94340C2DECE1
:1015D0003CEC4CEC5DE30E94930CA70196010E9449
:1015E000550D6B017C01A7019601C701B6010E9450
:1015F000670E882309F482C08CED92E00E944C04AF
:1016000086C01091E203612F70E090E080E00E94BC
:10161000320C6B017C016091E3036F7070E090E02D
:1016200080E00E94340C2DEC3CEC4CEC5DE30E941D
:10163000930CA70196010E94550D6B017C0117FFC9
:10164000D2CFF7FAF094F7F8F094CDCF6AEE72E0CB
:10165000CE0101960E945A04882309F491C00E9489
:10166000BE058823B1F18091E6038B3028F08D30E0
:1016700050F08551823080F1C12CD12C80ECE82EC5
:101680008FE7F82E1EC06091E10370E090E080E0EB
:101690000E94340C2DEC3CEC4CEC5DE30E94930C6E
:1016A0006B017C016091E00370E090E080E00E94BB
:1016B000340C9B01AC01C701B6010E94550D6B01B2
:1016C0007C01A7019601C701B6010E94670E88231D
:1016D000A9F082EF92E092CF6091E0037091E10374
:1016E00076276727762790E080E00E94320C2DEC69
:1016F0003CEC4CEC5DE30E94930CE1CF42E0C7016F
:10170000B6010E94CD0688E192E00E94FB03898128
:101710009A81009711F00E94510F80917B00877F82
:1017200080937B00F0E4F0937C0080917A008064E9
:1017300080937A0080917A0086FDFCCF80917800BA
:1017400000917900102F082F64E670E080E090E0AF
:101750000E94C90380913D0390913E038017910739
:1017600061F010933E0300933D0361E005361105DF
:101770000CF060E08FE10E94DC020E94AB0249CDD8
:1017800068E073E0CE0101960E945A048823E9F0D4
:1017900061E087E10E94DC0261E088E10E94DC02F6
:1017A00061E089E10E94DC0261E08AE10E94DC02E2
:1017B00061E08BE10E94DC0261E08CE10E94DC02CE
:1017C00061E08DE10E94DC02A1CE61E173E0CE0117
:1017D00001960E945A048823E9F060E087E10E94A4
:1017E000DC0260E088E10E94DC0260E089E10E94A6
:1017F000DC0260E08AE10E94DC0260E08BE10E9492
:10180000DC0260E08CE10E94DC0260E08DE10E947D
:10181000DC0287CE6BE173E0CE0101960E945A0490
:10182000882379F061E082E30E94DC0260E083E3D8
:101830000E94DC0264E670E080E090E00E94C90350
:1018400066CF81E293E0DACE91110C94000D8032E4
:1018500019F089508550C8F708950E946F0C08F45C
:1018600081E00895E89409C097FB3EF49095809537
:10187000709561957F4F8F4F9F4F9923A9F0F92F56
:1018800096E9BB279395F695879577956795B795D4
:10189000F111F8CFFAF4BB0F11F460FF1BC06F5FBA
:1018A0007F4F8F4F9F4F16C0882311F096E911C0CC
:1018B000772321F09EE8872F762F05C0662371F0ED
:1018C00096E8862F70E060E02AF09A95660F771F01
:1018D000881FDAF7880F9695879597F90895990FDD
:1018E0000008550FAA0BE0E8FEEF16161706E807EA
:1018F000F907C0F012161306E407F50798F0621B0B
:10190000730B840B950B39F40A2661F0232B242BDF
:10191000252B21F408950A2609F4A140A6958FEFFE
:10192000811D811D08950E94A60C0C941A0D0E9421
:101930000C0D38F00E94130D20F0952311F00C943B
:10194000030D0C94090D11240C944E0D0E942B0DC7
:1019500070F3959FC1F3950F50E0551F629FF00102
:10196000729FBB27F00DB11D639FAA27F00DB11D1B
:10197000AA1F649F6627B00DA11D661F829F2227A4
:10198000B00DA11D621F739FB00DA11D621F839F2B
:10199000A00D611D221F749F3327A00D611D231F01
:1019A000849F600D211D822F762F6A2F11249F574F
:1019B00050409AF0F1F088234AF0EE0FFF1FBB1F52
:1019C000661F771F881F91505040A9F79E3F510511
:1019D00080F00C94030D0C944E0D5F3FE4F3983EA1
:1019E000D4F3869577956795B795F795E7959F5FBB
:1019F000C1F7FE2B880F911D9695879597F908954D
:101A000099278827089597F99F6780E870E060E03C
:101A100008959FEF80EC089500240A941616170687
:101A200018060906089500240A94121613061406CF
:101A300005060895092E0394000C11F4882352F032
:101A4000BB0F40F4BF2B11F460FF04C06F5F7F4FEA
:101A50008F4F9F4F089557FD9058440F551F59F0D1
:101A60005F3F71F04795880F97FB991F61F09F3F8B
:101A700079F087950895121613061406551FF2CFB4
:101A80004695F1DF08C0161617061806991FF1CF04
:101A900086957105610508940895E894BB2766272B
:101AA0007727CB0197F908955058BB27AA270E94A2
:101AB0006C0D0C941A0D0E940C0D38F00E94130D41
:101AC00020F039F49F3F19F426F40C94090D0EF41C
:101AD000E095E7FB0C94030DE92F0E942B0D58F3C2
:101AE000BA17620773078407950720F079F4A6F503
:101AF0000C944D0D0EF4E0950B2EBA2FA02D0B017A
:101B0000B90190010C01CA01A0011124FF27591B42
:101B100099F0593F50F4503E68F11A16F040A22F48
:101B2000232F342F4427585FF3CF469537952795B9
:101B3000A795F0405395C9F77EF41F16BA0B620BB8
:101B4000730B840BBAF09150A1F0FF0FBB1F661FFF
:101B5000771F881FC2F70EC0BA0F621F731F841F42
:101B600048F4879577956795B795F7959E3F08F068
:101B7000B0CF9395880F08F09927EE0F979587952A
:101B800008950E94D50D0C941A0D0E94130D58F063
:101B90000E940C0D40F029F45F3F29F00C94030DD6
:101BA00051110C944E0D0C94090D0E942B0D68F3ED
:101BB0009923B1F3552391F3951B550BBB27AA2706
:101BC00062177307840738F09F5F5F4F220F331F40
:101BD000441FAA1FA9F335D00E2E3AF0E0E832D008
:101BE00091505040E695001CCAF72BD0FE2F29D00B
:101BF000660F771F881FBB1F261737074807AB07DD
:101C0000B0E809F0BB0B802DBF01FF2793585F4F51
:101C10003AF09E3F510578F00C94030D0C944E0D54
:101C20005F3FE4F3983ED4F3869577956795B79533
:101C3000F7959F5FC9F7880F911D9695879597F93E
:101C40000895E1E0660F771F881FBB1F62177307B7
:101C50008407BA0720F0621B730B840BBA0BEE1FCC
:101C600088F7E09508950E94330D88F09F5798F00B
:101C7000B92F9927B751B0F0E1F0660F771F881F91
:101C8000991F1AF0BA95C9F714C0B13091F00E94AB
:101C90004D0DB1E008950C944D0D672F782F8827D6
:101CA000B85F39F0B93FCCF3869577956795B395D2
:101CB000D9F73EF490958095709561957F4F8F4F41
:101CC0009F4F08950E946F0C08F48FEF08950E94B3
:101CD0006F0C880B990B0895A1E21A2EAA1BBB1B4F
:101CE000FD010DC0AA1FBB1FEE1FFF1FA217B307E8
:101CF000E407F50720F0A21BB30BE40BF50B661FFE
:101D0000771F881F991F1A9469F7609570958095C1
:101D100090959B01AC01BD01CF010895052E97FB65
:101D20001EF400940E94A50E57FD07D00E946C0E71
:101D300007FC03D04EF40C94A50E509540953095B9
:101D400021953F4F4F4F5F4F089590958095709527
:101D500061957F4F8F4F9F4F0895EE0FFF1F881F94
:101D60008BBF0790F691E02D19940F931F93CF939B
:101D7000DF938230910510F482E090E0E091F5036A
:101D8000F091F60330E020E0B0E0A0E0309799F465
:101D90002115310509F44AC0281B390B24303105BF
:101DA000D8F58A819B816115710589F1FB019383C7
:101DB0008283FE0111C04081518102811381481745
:101DC0005907E0F04817590799F4109761F01296F7
:101DD0000C93129713961C933296CF01DF91CF91FB
:101DE0001F910F9108950093F5031093F603F4CF1C
:101DF0002115310551F04217530738F0A901DB01D5
:101E00009A01BD01DF01F801C1CFEF01F9CF909335
:101E1000F6038093F503CDCFFE01E20FF31F81930C
:101E200091932250310939832883D7CF2091F3032E
:101E30003091F403232B41F42091020230910302EC
:101E40003093F4032093F3032091000230910102B8
:101E50002115310541F42DB73EB740910402509150
:101E60000502241B350BE091F303F091F403E21714
:101E7000F307A0F42E1B3F0B2817390778F0AC01AD
:101E80004E5F5F4F2417350748F04E0F5F1F50938A
:101E9000F4034093F303819391939FCFF0E0E0E04C
:101EA0009CCFCF93DF930097E9F0FC013297138228
:101EB0001282A091F503B091F603ED0130E020E02D
:101EC0001097A1F420813181820F931F2091F30399
:101ED0003091F4032817390709F061C0F093F40337
:101EE000E093F303DF91CF910895EA01CE17DF0766
:101EF000E8F54A815B819E0141155105B1F7E90181
:101F0000FB83EA8349915991C40FD51FEC17FD0754
:101F100061F4808191810296840F951FE901998374
:101F20008883828193819B838A83F0E0E0E012962C
:101F30008D919C9113970097B9F52D913C91119734
:101F4000CD010296820F931F2091F3033091F40389
:101F50002817390739F6309751F51092F603109289
:101F6000F503B093F403A093F303BCCFD383C283F0
:101F700040815181840F951FC817D90761F44E5FC6
:101F80005F4F88819981480F591F518340838A810F
:101F90009B81938382832115310509F0B0CFF093A3
:101FA000F603E093F5039ECFFD01DC01C0CF138261
:101FB0001282D7CF4F925F926F927F928F929F92B1
:101FC000AF92BF92CF92DF92EF92FF920F931F9347
:101FD000CF93DF938C01009799F4CB01DF91CF91E0
:101FE0001F910F91FF90EF90DF90CF90BF90AF9037
:101FF0009F908F907F906F905F904F900C94B50E54
:10200000FC01E60FF71F9C0122503109E217F3078C
:1020100008F4AEC0D901CD91DC911197C617D7074E
:1020200020F1C530D10578F0CE01049786179707C7
:1020300050F0C61BD70B2297C193D1936D937C931D
:10204000CF010E94510FC801DF91CF911F910F91D5
:10205000FF90EF90DF90CF90BF90AF909F908F90C8
:102060007F906F905F904F9008955B01AC1ABD0A0E
:102070004C018C0E9D1EA091F503B091F603512CDE
:10208000412CF12CE12C109731F58091F3039091C4
:10209000F4038815990509F05CC04616570608F048
:1020A00058C08091000290910102009741F48DB7D1
:1020B0009EB74091040250910502841B950BE817CE
:1020C000F90708F055C0F093F403E093F303F90126
:1020D00071836083B8CF8D919C91119712966C900B
:1020E000129713967C901397A815B90559F56C01B2
:1020F00042E0C40ED11CCA14DB0420F1AC014A1921
:102100005B09DA011296159780F06282738251831F
:102110004083D9016D937C93E114F10471F0D701F0
:102120001396FC93EE9312978ECF22968C0F9D1FE1
:10213000F90191838083F301EFCFF093F603E093ED
:10214000F50381CF4816590608F42C017D01D3010F
:102150009ACFCB010E94B50E7C01009749F0AE01E9
:10216000B8010E94BB10C8010E94510F87016BCFBC
:1021700010E000E068CFFB01DC0102C001900D928D
:1021800041505040D8F70895FB01DC018D9101903A
:1021900080190110D9F3990B0895FB01DC0101901E
:1021A0000D920020E1F70895F894FFCF0000F703A7
:1021B0008000000000003E02680195018B020602CB
:1021C000A401F8010D0A006E616E00696E66006F71
:1021D000766600496E677265736120636F6D616E2C
:1021E000646F3A006C757A2031206F6E006C757ADE
:1021F0002031206F6666006C757A2032206F6E0089
:102200006C757A2032206F6666006C757A203320F8
:102210006F6E006C757A2033206F6666006C757A7D
:102220002034206F6E006C757A2034206F66660053
:102230006C757A2035206F6E006C757A2035206FB2
:102240006666006C757A2036206F6E006C757A2099
:1022500036206F6666006C757A2037206F6E006CD2
:10226000757A2037206F6666006C757A2038206F8B
:102270006E006C757A2038206F66660074656D702C
:1022800065726174757261004572726F7220616C63
:10229000206C6565720068756D65646164004572E7
:1022A000726F7220616C206C6565722048756D6577
:1022B000646164006C75636573206F6E006C756398
:1022C0006573206F666600616272697200436F6DAC
:1022D000616E646F206E6F207265636F6E6F6369ED
:0422E000646F000027
:10E000000D9489F10D94B2F10D94B2F10D94B2F129
:10E010000D94B2F10D94B2F10D94B2F10D94B2F1F0
:10E020000D94B2F10D94B2F10D94B2F10D94B2F1E0
:10E030000D94B2F10D94B2F10D94B2F10D94B2F1D0
:10E040000D94B2F10D94B2F10D94B2F10D94B2F1C0
:10E050000D94B2F10D94B2F10D94B2F10D94B2F1B0
:10E060000D94B2F10D94B2F10D94B2F10D94B2F1A0
:10E070000D94B2F10D94B2F10D94B2F10D94B2F190
:10E080000D94B2F10D94B2F10D94B2F10D94B2F180
:10E090000D94B2F10D94B2F10D94B2F10D94B2F170
:10E0A0000D94B2F10D94B2F10D94B2F10D94B2F160
:10E0B0000D94B2F10D94B2F10D94B2F10D94B2F150
:10E0C0000D94B2F10D94B2F10D94B2F10D94B2F140
:10E0D0000D94B2F10D94B2F10D94B2F10D94B2F130
:10E0E0000D94B2F141546D656761323536300041AF
:10E0F000726475696E6F206578706C6F72657220DE
:10E1000073746B3530305632206279204D4C530099
:10E11000426F6F746C6F616465723E004875683F52
:10E1200000436F6D70696C6564206F6E203D200048
:10E130004350552054797065202020203D20005FF9
:10E140005F4156525F415243485F5F3D2000415658
:10E1500052204C696243205665723D20004743437C
:10E160002056657273696F6E203D20004350552024
:10E1700049442020202020203D20004C6F7720663D
:10E18000757365202020203D20004869676820665F
:10E190007573652020203D200045787420667573D6
:10E1A00065202020203D20004C6F636B2066757336
:10E1B000652020203D20004D617220203720323024
:10E1C000313300312E362E3800342E332E350056A2
:10E1D00023202020414444522020206F7020636F70
:10E1E00064652020202020696E73747275637469E1
:10E1F0006F6E2061646472202020496E74657272B3
:10E20000757074006E6F20766563746F7200726A49
:10E210006D702020006A6D70200057686174207056
:10E220006F72743A00506F7274206E6F7420737541
:10E2300070706F72746564004D7573742062652030
:10E2400061206C6574746572002000577269747483
:10E25000696E672045450052656164696E672045B7
:10E26000450045452065727220636E743D00504F35
:10E27000525400303D5A65726F2061646472003FF1
:10E280003D43505520737461747300403D454550C3
:10E29000524F4D207465737400423D426C696E6B41
:10E2A000204C454400453D44756D70204545505215
:10E2B0004F4D00463D44756D7020464C415348001B
:10E2C000483D48656C70004C3D4C69737420492F83
:10E2D0004F20506F72747300513D51756974005234
:10E2E0003D44756D702052414D00563D73686F7707
:10E2F00020696E7465727275707420566563746FF0
:10E30000727300593D506F727420626C696E6B00BD
:10E310002A0011241FBECFEFD1E2DEBFCDBF01E046
:10E320000CBF12E0A0E0B2E0EEE1FDEF03E00BBFB6
:10E3300002C007900D92A030B107D9F712E0A0E01B
:10E34000B2E001C01D92AE30B107E1F70F9460F367
:10E350000D948DFE01E20EBF0FEF0DBF11241FBE05
:10E360000D9460F30D9400F020E030E040ED57E0B4
:10E3700005C0FA013197F1F72F5F3F4F2817390792
:10E38000C0F308959C01260F311DC901A0E0B0E043
:10E390002F5F3F4FABBFFC018791882361F08093D3
:10E3A000C6008091C00086FFFCCF8091C0008064D1
:10E3B0008093C000EACF08958DE08093C6008091DD
:10E3C000C00086FFFCCF8091C00080648093C000B5
:10E3D0008AE08093C6008091C00086FFFCCF8091C8
:10E3E000C00080648093C00008950F94C2F10F9420
:10E3F000DCF10895FC019081992359F09093C600B7
:10E400008091C00086FFFCCF8091C0008064809323
:10E41000C0003196992379F70895282F982F929567
:10E420009F70892F805D8A3308F0895F8093C600D2
:10E430008091C00086FFFCCF8091C00080648093F3
:10E44000C000822F8F70982F905D9A3308F0995FEB
:10E450009093C6008091C00086FFFCCF8091C000E1
:10E4600080648093C00008959C01FB01853691056E
:10E470001CF46330710594F0C90164E670E00F94F8
:10E480002EFE605D7F4F6093C6008091C00086FFC6
:10E49000FCCF8091C00080648093C0002B30310598
:10E4A00014F43297B4F0C90164E670E00F942EFEC4
:10E4B0006AE070E00F942EFE605D7F4F6093C600AF
:10E4C0008091C00086FFFCCF8091C0008064809363
:10E4D000C000C9016AE070E00F942EFEC0968093E0
:10E4E000C6008091C00086FFFCCF8091C000806490
:10E4F0008093C00008951F93182F8EE692EE60E07F
:10E500000F94C2F11093C6008091C00086FFFCCF2B
:10E510008091C00080648093C0000F94DCF11F9153
:10E5200008952F923F924F925F926F927F928F92B7
:10E530009F92AF92BF92CF92DF92EF92FF920F9392
:10E540001F93DF93CF93CDB7DEB762970FB6F894E2
:10E55000DEBF0FBECDBF382E622ECA01DB015C01CB
:10E560006D01772420E2222E2E010894411C511CBB
:10E570008BC081E0A81680E0B80681E0C80680E084
:10E58000D80628F0C601AA27BB270F940DF2BB2797
:10E59000AD2D9C2D8B2D0F940DF28A2D0F940DF225
:10E5A0002092C6008091C00086FFFCCF8091C00001
:10E5B00080648093C0009DE29093C6008091C0006B
:10E5C00086FFFCCF8091C00080648093C0002092C1
:10E5D000C6008091C00086FFFCCF8091C00080649F
:10E5E0008093C00019828601750188249924A1E0D6
:10E5F0003A1651F03A1620F0B2E03B1661F409C029
:10E600000BBFF701779007C0C7010F9477FE782EF4
:10E6100002C0F7017080872D0F940DF22092C60082
:10E620008091C00086FFFCCF8091C0008064809301
:10E63000C000872D8052F401EF70F0708F3520F408
:10E64000E40DF51D708204C0E40DF51D8EE280839B
:10E650000894E11CF11C011D111D0894811C911CE2
:10E6600090E18916910409F0C2CF80E190E0A0E02A
:10E67000B0E0A80EB91ECA1EDB1E198AC2010F9493
:10E68000FAF10F94DCF16A94662009F072CF629679
:10E690000FB6F894DEBF0FBECDBFCF91DF911F91B3
:10E6A0000F91FF90EF90DF90CF90BF90AF909F9031
:10E6B0008F907F906F905F904F903F902F90089534
:10E6C0002F923F924F925F926F927F928F929F9282
:10E6D000AF92BF92CF92DF92EF92FF920F931F9370
:10E6E000DF93CF93CDB7DEB7CD53D1400FB6F894BB
:10E6F000DEBF0FBECDBF01E20EBF0FEF0DBF94B75F
:10E70000F894A89514BE80916000886180936000A1
:10E7100010926000789493FF05C0E0910002F091A0
:10E7200001021995279A2F9A8091C00082608093E8
:10E73000C00080E18093C40088E18093C1000000A4
:10E74000EE24FF24870144E0A42EB12CCC24DD2448
:10E7500024C0C5010197F1F70894E11CF11C011DCB
:10E76000111D21E2E2162EE4F20620E0020720E06D
:10E77000120718F031E0C32ED12CC801B70127ECE5
:10E780003BE140E050E00F9441FE611571058105C9
:10E79000910519F485B1805885B98091C00087FD35
:10E7A00003C0C114D104A9F2A6014F5F5F4FC25E3E
:10E7B000DE4F59834883CE51D140C25EDE4F8881FF
:10E7C0009981CE51D140019711F00D9410FEC05D9A
:10E7D000DE4F19821882C053D14060E0C15DDE4F28
:10E7E0001882CF52D14088249924C35DDE4F19820C
:10E7F0001882CD52D140C05EDE4F188219821A8233
:10E800001B82C052D140CE5CDE4F188219821A8220
:10E810001B82C253D140EE24FF2487010BBFF701B6
:10E8200007911691C45CDE4F19830883CC53D14005
:10E830000D940BFEC25EDE4F28813981CE51D1404E
:10E840002130310509F52091C600C25EDE4F1982E4
:10E850001882CE51D14022C02F5F3F4F4F4F5F4FA4
:10E86000213082E138078AE7480780E0580780F0C6
:10E87000C45CDE4FE881F981CC53D140EF5FFF4F9C
:10E8800019F0EE27FF27099420E030E040E050E047
:10E890008091C00087FFE0CF2091C600C35DDE4FAE
:10E8A00048815981CD52D1404F5F5F4FC35DDE4FEC
:10E8B00059834883CD52D140213209F063C64A3092
:10E8C000510508F05FC60894811C911C53E0851621
:10E8D000910409F059C600E010E018C081E280936D
:10E8E000C6008091C00086FFFCCF8091C00080648C
:10E8F0008093C0002F5F3F4F2931310579F70F9486
:10E90000DCF10F5F1F4F0530110519F020E030E0FA
:10E91000E5CF10920A0210920B0210920C02109294
:10E920000D02109206021092070210920802109235
:10E930000902109202021092030210920402109235
:10E9400005028FEE90EE60E00F94F5F180E191EE1C
:10E9500060E00F94C2F18091C00087FFFCCF9091DE
:10E96000C600903608F09F759032B8F09093C600BC
:10E970008091C00086FFFCCF8091C00080648093AE
:10E98000C000A0E2A093C6008091C00086FFFCCF2B
:10E990008091C00080648093C000983409F4D7C18E
:10E9A0009934B8F4923409F459C1933458F490333B
:10E9B00019F1903308F4E3C59F33A1F1903409F0C5
:10E9C000DEC5BDC0953409F470C1963409F0D7C5D1
:10E9D00098C1923509F42BC2933538F49C3409F46C
:10E9E000F5C1913509F0CBC518C2963509F445C279
:10E9F000993509F0C4C567C483E792EE62E00F94CD
:10EA0000F5F110920602109207021092080210927D
:10EA1000090210920A0210920B0210920C0210923C
:10EA20000D0213C18FE792EE62E00F94F5F18FEEC5
:10EA300090EE60E00F94F5F181E291EE60E00F94CA
:10EA4000C2F187EB91EE60E00F94F5F180E391EE77
:10EA500060E00F94C2F184EE90EE60E00F94F5F167
:10EA60008FE391EE60E00F94C2F186E090E061E008
:10EA700070E00F9434F20F94DCF18DE591EE60E0DC
:10EA80000F94C2F189EC91EE60E00F94F5F18EE401
:10EA900091EE60E00F94C2F183EC91EE60E00F9490
:10EAA000F5F18CE691EE60E00F94C2F18EE10F94E7
:10EAB0000DF288E90F940DF281E00F940DF20F949E
:10EAC000DCF18BE791EE60E00F94C2F119E0E0E039
:10EAD000F0E010935700E4918E2F0F940DF20F94F5
:10EAE000DCF18AE891EE60E00F94C2F1E3E0F0E03F
:10EAF00010935700E4918E2F0F940DF20F94DCF1D8
:10EB000089E991EE60E00F94C2F1E2E0F0E0109349
:10EB10005700E4918E2F0F940DF20F94DCF188EAE8
:10EB200091EE60E00F94C2F1E1E0F0E01093570045
:10EB30001491812F0F940DF20F94DCF107CF8BE825
:10EB400092EE62E00F94F5F18BE492EE60E00F94A8
:10EB5000F5F10F94DCF100E010E019C0C8016F2D51
:10EB60000F947FFEFF2031F489E492EE60E00F9471
:10EB7000C2F10BC0F092C6008091C00086FFFCCFAE
:10EB80008091C00080648093C0000F5F1F4FC80158
:10EB900081519F41A0E0B0E0ABBFFC01F790BAE229
:10EBA000FB1621F0E2E000301E07C1F60F94DCF105
:10EBB0000F94DCF187E592EE60E00F94F5F10F948D
:10EBC000DCF1CC24DD2400E010E01EC0C8010F946D
:10EBD00077FEF82E882331F489E492EE60E00F94FA
:10EBE000C2F10BC08093C6008091C00086FFFCCFAD
:10EBF0008091C00080648093C000FE1419F00894D6
:10EC0000C11CD11C0F5F1F4FC80181519F41A0E063
:10EC1000B0E0ABBFFC01E790FAE2EF1621F022E092
:10EC20000030120799F60F94DCF10F94DCF182E6C4
:10EC300092EE60E00F94C2F1C60161E070E00F94C3
:10EC400034F20F94DCF10F94DCF110920202109276
:10EC50000302109204021092050278CE89E992EE26
:10EC600062E00F94F5F1279A2F9A16C02F9880E052
:10EC700090E0E0EDF7E03197F1F7019684369105E9
:10EC8000C1F72F9A80E090E0E0EDF7E03197F1F7DF
:10EC9000019684369105C1F78091C00087FFE6CFC9
:10ECA0008091C00087FFFCCF64C485EA92EE62E0E9
:10ECB0000F94F5F140910202509103026091040219
:10ECC0007091050281E020E10F9491F2809102029F
:10ECD00090910302A0910402B091050280509F4FD1
:10ECE000AF4FBF4F8093020290930302A0930402A0
:10ECF000B093050280509041A040B04008F426CE69
:10ED0000A4CF83EB92EE62E00F94F5F140910602FE
:10ED100050910702609108027091090280E020E1A1
:10ED20000F9491F28091060290910702A09108023F
:10ED3000B091090280509F4FAF4FBF4F80930602A2
:10ED400090930702A0930802B0930902FFCD80ECD4
:10ED500092EE62E00F94F5F183E792EE60E00F949B
:10ED6000F5F18FE792EE60E00F94F5F18BE892EE0B
:10ED700060E00F94F5F189E992EE60E00F94F5F10F
:10ED800085EA92EE60E00F94F5F183EB92EE60E09D
:10ED90000F94F5F180EC92EE60E00F94F5F187ECC2
:10EDA00092EE60E00F94F5F188ED92EE60E00F9442
:10EDB000F5F18FED92EE60E00F94F5F18AEE92EEB0
:10EDC00060E00F94F5F183E093EEBDCD87EC92EE19
:10EDD00062E00F94F5F181E40F947BF282E40F94EA
:10EDE0007BF283E40F947BF284E40F947BF285E45E
:10EDF0000F947BF286E40F947BF287E40F947BF20E
:10EE000088E40F947BF28AE40F947BF28BE40F94F6
:10EE10007BF28CE40F947BF299CD88ED92EE62E068
:10EE20000F94F5F1772473948824992409C48FED05
:10EE300092EE62E00F94F5F140910A0250910B02BC
:10EE400060910C0270910D0282E020E10F9491F22A
:10EE500080910A0290910B02A0910C02B0910D02D8
:10EE600080509F4FAF4FBF4F80930A0290930B0289
:10EE7000A0930C02B0930D0269CD8AEE92EE62E08F
:10EE80000F94F5F184EE90EE60E00F94F5F18FECC5
:10EE900091EE60E00F94F5F1662477244301CC5D98
:10EEA000DE4F19821882C452D140D401C301B695F5
:10EEB000A79597958795CA5DDE4F88839983AA8326
:10EEC000BB83C652D140CC5DDE4FA881B981C4520C
:10EED000D1401196CC5DDE4FB983A883C452D14096
:10EEE000CD0162E070E00F9434F2B0E2B093C6005E
:10EEF0008091C00086FFFCCF8091C0008064809329
:10EF0000C000EDE2E093C6008091C00086FFFCCF18
:10EF10008091C00080648093C000F0E2F093C6004E
:10EF20008091C00086FFFCCF8091C00080648093F8
:10EF3000C000CA5DDE4FE880F9800A811B81C6529D
:10EF4000D140BB27A12F902F8F2D0F940DF2CA5DBA
:10EF5000DE4F8881C652D1400F940DF2B0E2FB2EF5
:10EF6000F092C6008091C00086FFFCCF8091C00067
:10EF700080648093C0000DE30093C6008091C000C0
:10EF800086FFFCCF8091C00080648093C00010E2B7
:10EF90001093C6008091C00086FFFCCF8091C00016
:10EFA00080648093C0008BBEF3012791C65DDE4F65
:10EFB0002883CA52D140A22EBB24CC24DD2408943D
:10EFC000611C711C811C911C8BBEF3018791282E42
:10EFD0003324442455240894611C711C811C911C09
:10EFE0008BBEF3013791C55DDE4F3883CB52D140E4
:10EFF0000894611C711C811C911C8BBEF30147910C
:10F00000C45DDE4F4883CC52D140ADEFEA2EAFEF66
:10F01000FA2EAFEF0A2FAFEF1A2F6E0C7F1C801E57
:10F02000911E142D032DF22CEE24EA0CFB1C0C1D5A
:10F030001D1D0F940DF220E22093C6008091C000A8
:10F0400086FFFCCF8091C00080648093C000C65DC5
:10F05000DE4F8881CA52D1400F940DF230E23093D6
:10F06000C6008091C00086FFFCCF8091C000806404
:10F070008093C000C45DDE4F8881CC52D1400F9494
:10F080000DF240E24093C6008091C00086FFFCCFA5
:10F090008091C00080648093C000C55DDE4F888190
:10F0A000CB52D1400F940DF250E25093C6008091A4
:10F0B000C00086FFFCCF8091C00080648093C000B8
:10F0C0008FEFE8168FEFF80680E0080780E018075A
:10F0D00031F484E092EE60E00F94C2F1DFC0D80119
:10F0E000C7018070907CA070B0708050904CA040A0
:10F0F000B040D1F52FEF3FE340E050E0E222F322B1
:10F1000004231523CA5DDE4FA880B980CA80DB8046
:10F11000C652D140AE0CBF1CC01ED11EAA0CBB1CD7
:10F12000CC1CDD1C8EE092EE60E00F94C2F1BB2798
:10F13000A12F902F8F2D0F940DF28E2D0F940DF285
:10F1400030E23093C6008091C00086FFFCCF8091F2
:10F15000C00080648093C0004EE34093C60080915D
:10F16000C00086FFFCCF87C08EE09EEFA0E0B0E03D
:10F17000E822F9220A231B239CE0E91694E9F90608
:10F1800090E0090790E0190709F088C0C45DDE4FE0
:10F19000A881CC52D140EA2EFF2400E010E0102FCD
:10F1A0000F2DFE2CEE24C55DDE4FB881CB52D14031
:10F1B000EB0EF11C011D111DD601C501817090706F
:10F1C000A070B070DC0199278827E80EF91E0A1F8D
:10F1D0001B1F20EF30E040E050E0A222B322C42207
:10F1E000D52241E1AA0CBB1CCC1CDD1C4A95D1F7F1
:10F1F000EA0CFB1C0C1D1D1D81E090E0A0E0B0E0BE
:10F20000282239224A225B2235E1220C331C441C7D
:10F21000551C3A95D1F7E20CF31C041D151D57013E
:10F220006801AA0CBB1CCC1CDD1C85E192EE60E0E1
:10F230000F94C2F1C801AA27BB270F940DF2BB2778
:10F24000A12F902F8F2D0F940DF28E2D0F940DF274
:10F2500090E29093C6008091C00086FFFCCF809121
:10F26000C00080648093C000AEE3A093C60080918C
:10F27000C00086FFFCCF8091C00080648093C000F6
:10F28000C601AA27BB270F940DF2BB27AD2D9C2DDD
:10F290008B2D0F940DF28A2D0F940DF20F94DCF14B
:10F2A000CC5DDE4FE881F981C452D140F99709F471
:10F2B0004DCBF4E0EF2EF12C012D112D6E0C7F1CA7
:10F2C000801E911EF2CD83E093EE62E00F94F5F183
:10F2D0008AE192EE60E00F94C2F18091C00087FF56
:10F2E000FCCF1091C6001F751093C6008091C0001E
:10F2F00086FFFCCF8091C00080648093C0000F9493
:10F30000DCF1812F81548A3108F036C1163409F4BA
:10F3100095C0173490F4133409F44EC0143430F40B
:10F320001134F1F0123409F01DC130C0143409F465
:10F3300059C0153409F016C16BC01A3409F4C4C0A1
:10F340001B3438F4173409F48FC0183409F00AC19B
:10F35000A1C01B3409F4D2C01C3409F003C1E8C0B9
:10F360008FEF81B90DC082B1809582B980E090E0C5
:10F37000E0EDF7E03197F1F70196883C9105C1F790
:10F380008091C00087FFEFCF12B8EFC08FEF84B934
:10F390000DC085B1809585B980E090E0E0EDF7E0A3
:10F3A0003197F1F70196883C9105C1F78091C00033
:10F3B00087FFEFCF15B8D9C08FEF87B90DC088B1DF
:10F3C000809588B980E090E0E0EDF7E03197F1F7C3
:10F3D0000196883C9105C1F78091C00087FFEFCF6F
:10F3E00018B8C3C08FEF8AB90DC08BB180958BB9A7
:10F3F00080E090E0E0EDF7E03197F1F70196883C8E
:10F400009105C1F78091C00087FFEFCF1BB8ADC059
:10F410008FEF8DB90DC08EB180958EB980E090E0F0
:10F42000E0EDF7E03197F1F70196883C9105C1F7DF
:10F430008091C00087FFEFCF1EB897C08FEF80BBD1
:10F440000DC081B3809581BB80E090E0E0EDF7E0F6
:10F450003197F1F70196883C9105C1F78091C00082
:10F4600087FFEFCF11BA81C08FEF83BB0DC084B38C
:10F47000809584BB80E090E0E0EDF7E03197F1F714
:10F480000196883C9105C1F78091C00087FFEFCFBE
:10F4900014BA6BC08FEF809301010FC080910201FD
:10F4A00080958093020180E090E0E0EDF7E03197F5
:10F4B000F1F70196883C9105C1F78091C00087FF64
:10F4C000EDCF1092020151C08FEF809304010FC065
:10F4D0008091050180958093050180E090E0E0ED4A
:10F4E000F7E03197F1F70196883C9105C1F78091DB
:10F4F000C00087FFEDCF1092050137C08FEF8093DA
:10F5000007010FC08091080180958093080180E079
:10F5100090E0E0EDF7E03197F1F70196883C910536
:10F52000C1F78091C00087FFEDCF109208011DC088
:10F530008FEF80930A010FC080910B01809580931B
:10F540000B0180E090E0E0EDF7E03197F1F70196F4
:10F55000883C9105C1F78091C00087FFEDCF1092E4
:10F560000B0103C085E292EEEEC98091C00087FFD7
:10F57000FCCF8091C600EAC988E392EEE4C98CE131
:10F5800091EEE1C988249924933011F1943028F444
:10F59000913089F09230B8F408C0953061F195301F
:10F5A000F0F0963009F048C043C02B3109F042C951
:10F5B00091E06BE13FC96227C15DDE4F2883CF52E6
:10F5C000D14092E037C9B22FA0E0622793E032C960
:10F5D000822F90E0A82BB92B622794E02BC92E3004
:10F5E00009F039C3622795E0C05DDE4F19821882A9
:10F5F000C053D1401FC9E1E0F0E0EC0FFD1FC05D3A
:10F60000DE4F08811981C053D140E00FF11F2083E4
:10F610000F5F1F4FC05DDE4F19830883C053D14079
:10F6200062270A171B0709F005C9D80196E002C92D
:10F63000261709F010C303C0973009F0FBC87724E0
:10F640009981933109F412C19431C8F4963009F4C8
:10F65000D8C0973050F4923009F406C1933009F4C1
:10F660006DC0913009F059C253C0913109F477C08F
:10F67000923108F0BBC0903109F04FC2F5C098310B
:10F6800009F487C0993150F4953109F4EFC09531F0
:10F6900008F4C6C1963109F040C2C2C19A3109F4DA
:10F6A0006CC09A3108F491C09B3109F45BC09D3164
:10F6B00009F033C29D81903359F48F81882311F46E
:10F6C0009EE11CC0813011F091E018C098E916C08D
:10F6D000892F807591F0903539F4E0E0F0E089E011
:10F6E0008093570094910AC0983539F4E3E0F0E034
:10F6F00089E080935700949101C090E01A821B82A8
:10F700008D818C831D829E831F8227E030E009C299
:10F710001A8288E08B8381E48C8386E58D8382E581
:10F720008E8389E48F8383E5888780E589878FE5E9
:10F730008A8782E38B872BE030E0F3C18A818139AD
:10F7400041F0823941F0803911F48FE005C080E04A
:10F7500003C082E001C08AE01A828B8344C0772410
:10F76000739482C08D81882311F48EE12CC0813086
:10F7700011F081E028C088E926C01A82E1E0F0E0BB
:10F7800089E08093570084918B831C8224E030E0D1
:10F79000C8C18B81803589F48C81883039F4E2E0EE
:10F7A000F0E089E08093570084910DC0E0E0F0E044
:10F7B00089E080935700849106C0E3E0F0E089E09F
:10F7C0008093570084911A82DFCF8D81836C99E0FA
:10F7D000E1E0F0E0082E90935700E89507B600FCB2
:10F7E000FDCF1A821B8223E030E09BC180EC8A832C
:10F7F000CE5CDE4F188219821A821B82C253D1401E
:10F800008EC18A8190E0A0E0B0E0582F44273327D2
:10F8100022278B8190E0A0E0B0E0DC0199278827C7
:10F82000282B392B4A2B5B2B8D8190E0A0E0B0E098
:10F83000282B392B4A2B5B2B8C8190E0A0E0B0E089
:10F84000BA2FA92F982F8827282B392B4A2B5B2BCF
:10F85000220F331F441F551FC05EDE4F288339839C
:10F860004A835B83C052D1401A8259C13A81C95C34
:10F87000DE4F3883C753D140CA5CDE4F1882C6536F
:10F88000D1408B81C82EDD24CA5CDE4F488159816E
:10F89000C653D140C42AD52A933109F082C0CE5C28
:10F8A000DE4F88819981AA81BB81C253D1408050AB
:10F8B000904CA340B04030F583E0CE5CDE4FE88052
:10F8C000F9800A811B81C253D140F70100935B008C
:10F8D00080935700E89507B600FCFDCFCE5CDE4F65
:10F8E000088119812A813B81C253D14000501F4FAA
:10F8F0002F4F3F4FCE5CDE4F088319832A833B8313
:10F90000C253D140C05EDE4F488159816A817B81FC
:10F91000C052D140DE011B9631E08C9111962C91A2
:10F9200011971296C75CDE4F2883C953D140C85C3B
:10F93000DE4F1882C853D14090E0C85CDE4FE881AA
:10F94000F981C853D1408E2B9F2B0C01FA01609393
:10F950005B0030935700E89511244E5F5F4F6F4F67
:10F960007F4F0EEFE02E0FEFF02ECE0CDF1CC114F8
:10F97000D10499F685E0C05EDE4F088119812A81A5
:10F980003B81C052D140F80120935B008093570027
:10F99000E89507B600FCFDCF81E180935700E8951C
:10F9A00035C0C05EDE4F88819981AA81BB81C0527B
:10F9B000D140B695A795979587957C018601ABE0D8
:10F9C000AA2EB12CAC0EBD1E0BC0D5016D915D01F0
:10F9D000C7010F947FFE0894E11CF11C01501040F8
:10F9E0000115110591F7A60160E070E0440F551F65
:10F9F000661F771FC05EDE4FE880F9800A811B8199
:10FA0000C052D1404E0D5F1D601F711F1A82C05E33
:10FA1000DE4F488359836A837B83C052D1407FC0C5
:10FA2000FA80C55CDE4FF882CB53D140C65CDE4F16
:10FA30001882CA53D1408B81C82EDD24C65CDE4FAC
:10FA400008811981CA53D140C02AD12A1A828981DA
:10FA5000BE016D5F7F4F843121F59601C05EDE4FA0
:10FA6000E880F9800A811B81C052D1400BBFF701A9
:10FA700087919691DB018C9311969C936E5F7F4FDB
:10FA8000D801C7010296A11DB11DC05EDE4F88835B
:10FA90009983AA83BB83C052D14022503040F1F6F3
:10FAA00036C0C05EDE4F288139814A815B81C052F9
:10FAB000D1400894C108D108760100E010E0089414
:10FAC000C11CD11C0894E11CF11C011D111DE20E8A
:10FAD000F31E041F151F21BDBB27A52F942F832FB5
:10FAE00082BD2F5F3F4F4F4F5F4FF89A80B5DB01CC
:10FAF0008D93BD012E153F054007510761F7C05E8C
:10FB0000DE4F288339834A835B83C052D1409601FC
:10FB10002D5F3F4FFB01108204C080EC8A8322E0FE
:10FB200030E08BE18093C6008091C00086FFFCCF5F
:10FB30008091C00080648093C000C15DDE4FF88179
:10FB4000CF52D140F093C6008091C00086FFFCCF19
:10FB50008091C00080648093C000432F3093C60022
:10FB60008091C00086FFFCCF8091C00080648093AC
:10FB7000C000922F2093C6008091C00086FFFCCF6A
:10FB80008091C00080648093C0008EE08093C600A6
:10FB90008091C00086FFFCCF8091C000806480937C
:10FBA000C00065E1C15DDE4FE880CF52D1406E25D7
:10FBB00069276427FE01319610C090819093C6009A
:10FBC0008091C00086FFFCCF31968091C000806498
:10FBD0008093C0006927215030402115310569F715
:10FBE0006093C6008091C00086FFFCCF8091C0006A
:10FBF00080648093C00085B1805885B9772081F4F6
:10FC0000C15DDE4F0881CF52D1400F5FC15DDE4F35
:10FC10000883CF52D14090E0A0E0B0E00D941AF4F8
:10FC200027982F9880E090E020ED37E0F901319798
:10FC3000F1F7019684369105C9F700008091C00064
:10FC40008D7F8093C00081E180935700E895EE2777
:10FC5000FF270994FFCF90E00D941AF497FB092E2B
:10FC600007260AD077FD04D02ED006D000201AF443
:10FC7000709561957F4F0895F6F7909581959F4F08
:10FC80000895A1E21A2EAA1BBB1BFD010DC0AA1FDD
:10FC9000BB1FEE1FFF1FA217B307E407F50720F0F5
:10FCA000A21BB30BE40BF50B661F771F881F991F70
:10FCB0001A9469F760957095809590959B01AC01B9
:10FCC000BD01CF010895AA1BBB1B51E107C0AA1FAC
:10FCD000BB1FA617B70710F0A61BB70B881F991FED
:10FCE0005A95A9F780959095BC01CD010895F99991
:10FCF000FECF92BD81BDF89A992780B50895262F31
:10FD0000F999FECF1FBA92BD81BD20BD0FB6F89400
:0EFD1000FA9AF99A0FBE01960895F894FFCF63
:00000001FF
