:100000000C945D000C9485000C9485000C94850084
:100010000C9485000C9485000C9485000C9485004C
:100020000C9485000C9485000C9485000C9485003C
:100030000C9485000C9485000C9485000C9485002C
:100040000C9485020C9485000C9453020C942D02A0
:100050000C9485000C9485000C9485000C9485000C
:100060000C9485000C9485000000000024002700FB
:100070002A0000000000250028002B0000000008D6
:10008000000201000003040700000000000000005F
:10009000040404040404040402020202020203032E
:1000A0000303030301020408102040800102040836
:1000B0001020010204081020CF0211241FBECFEF30
:1000C000D8E0DEBFCDBF21E0AEE1B1E001C01D92BE
:1000D000AB3DB207E1F711E0A0E0B1E0E0EAFDE0FE
:1000E00002C005900D92AE31B107D9F710E0CDE511
:1000F000D0E004C02197FE010E94CD04CC35D10789
:10010000C9F70E941C030C94CE060C940000AF9219
:10011000BF92CF92DF92EF92FF920F931F93CF93F4
:10012000DF936C017B018B01040F151FEB015E0156
:10013000AE18BF08C017D10759F06991D601ED91EB
:10014000FC910190F081E02DC6010995892B79F78A
:10015000C501DF91CF911F910F91FF90EF90DF903C
:10016000CF90BF90AF900895FC01538D448D252F03
:1001700030E0842F90E0821B930B541710F0CF9641
:10018000089501970895FC01918D828D981761F073
:10019000A28DAE0FBF2FB11D5D968C91928D9F5F8A
:1001A0009F73928F90E008958FEF9FEF08952FB780
:1001B000F8948091230190912401A0912501B091A0
:1001C00026012FBF80932F0190933001A09331011E
:1001D000B093320187E291E00E94C30097FF26C0EE
:1001E0002FB7F8948091230190912401A0912501CB
:1001F000B09126012FBF40912F01509130016091A5
:10020000310170913201841B950BA60BB70B409105
:100210002B0150912C0160912D0170912E018417BA
:100220009507A607B707B0F28FEF9FEF0895FC017F
:10023000918D828D981731F0828DE80FF11D858D9B
:1002400090E008958FEF9FEF0895FC01918D228D2E
:10025000892F90E0805C9F4F821B91098F739927B3
:10026000089587E291E00E94250121E0892B09F49D
:1002700020E0822F089580E090E0892B29F00E94F1
:10028000310181110C9400000895FC01A48DA80F88
:10029000B92FB11DA35ABF4F2C91848D90E00196C8
:1002A0008F739927848FA689B7892C93A089B189E8
:1002B0008C91837080648C93938D848D981306C089
:1002C0000288F389E02D80818F7D80830895EF92ED
:1002D000FF920F931F93CF93DF93EC0181E0888F00
:1002E0009B8D8C8D98131AC0E889F989808185FFD0
:1002F00015C09FB7F894EE89FF896083E889F98972
:1003000080818370806480839FBF81E090E0DF9173
:10031000CF911F910F91FF90EF900895F62E0B8DC6
:1003200010E00F5F1F4F0F731127E02E8C8D8E1181
:100330000CC00FB607FCFACFE889F989808185FFE8
:10034000F5CFCE010E944501F1CFEB8DEC0FFD2FD3
:10035000F11DE35AFF4FF0829FB7F8940B8FEA89A3
:10036000FB8980818062CFCFCF93DF93EC01888DB2
:100370008823B9F0AA89BB89E889F9898C9185FD20
:1003800003C0808186FD0DC00FB607FCF7CF8C91AE
:1003900085FFF2CF808185FFEDCFCE010E94450120
:1003A000E9CFDF91CF910895CF93DF9390E0FC01E7
:1003B000EC55FF4F249180579F4FFC018491882377
:1003C000D1F090E0880F991FFC01E859FF4FA591EB
:1003D000B491FC01EE58FF4FC591D491623071F495
:1003E0009FB7F8943C91822F809583238C93E8816A
:1003F0002E2B28839FBFDF91CF9108958FB7F8945C
:10040000EC912E2B2C938FBFF6CF0F931F93CF938E
:10041000DF93EC0188819981009759F02A813B8113
:100420002617370730F081E0DF91CF911F910F91B0
:1004300008958B016F5F7F4F0E94F805009759F078
:10044000998388831B830A832C813D81232B59F751
:10045000FC011082E8CF80E0E7CF1F920F920FB629
:100460000F9211242F933F934F935F936F937F933A
:100470008F939F93AF93BF93EF93FF9387E291E0A6
:100480000E944501FF91EF91BF91AF919F918F9194
:100490007F916F915F914F913F912F910F900FBE80
:1004A0000F901F9018951F920F920FB60F92112464
:1004B0002F938F939F93EF93FF93E0913701F091E8
:1004C00038018081E0913D01F0913E0182FD1BC029
:1004D0009081809140018F5F8F732091410182173D
:1004E00041F0E0914001F0E0E95DFE4F958F80938F
:1004F0004001FF91EF919F918F912F910F900FBE2F
:100500000F901F9018958081F4CF1F920F920FB615
:100510000F9211242F933F938F939F93AF93BF9389
:100520008091230190912401A0912501B091260191
:100530003091220123E0230F2D3758F50196A11D9C
:10054000B11D209322018093230190932401A09355
:100550002501B093260180911E0190911F01A09169
:100560002001B09121010196A11DB11D80931E01B2
:1005700090931F01A0932001B0932101BF91AF91EF
:100580009F918F913F912F910F900FBE0F901F90D1
:10059000189526E8230F0296A11DB11DD2CFE7E2E0
:1005A000F1E01382128288EE93E0A0E0B0E0848351
:1005B0009583A683B7838AE091E09183808385EC5D
:1005C00090E09587848784EC90E09787868780EC1D
:1005D00090E0918B808B81EC90E0938B828B82EC0E
:1005E00090E0958B848B86EC90E0978B868B118EB8
:1005F000128E138E148EA4ECB1E086E115968C93C6
:1006000015978BE016968C931697EAEBF0E0E49141
:100610001796EC931797E6EAF0E0E4911896EC93BE
:10062000189740E85EE360E070E01D964D935D939F
:100630006D937C9350970895CF93DF93CDB7DEB73A
:1006400028970FB6F894DEBF0FBECDBF789484B55F
:10065000826084BD84B5816084BD85B5826085BDBE
:1006600085B5816085BD80916E00816080936E004C
:10067000109281008091810082608093810080913E
:1006800081008160809381008091800081608093EF
:1006900080008091B10084608093B1008091B000AF
:1006A00081608093B00080917A00846080937A00AA
:1006B00080917A00826080937A0080917A008160D4
:1006C00080937A0080917A00806880937A001092FB
:1006D000C100E0913701F091380182E08083E09120
:1006E0003301F09134011082E0913501F09136012F
:1006F0008FEC808310923F01E0913B01F0913C012F
:1007000086E08083E0913901F0913A018081806137
:100710008083E0913901F0913A0180818860808383
:10072000E0913901F0913A01808180688083E09105
:100730003901F0913A0180818F7D808362E0809160
:10074000C9010E94D4012FB7F894809123019091A0
:100750002401A0912501B09126012FBF805D974013
:10076000A109B1098093CD019093CE01A093CF014F
:10077000B093D00187E38093D60161E087E10E94C6
:10078000D40161E088E10E94D40161E089E10E9426
:10079000D40161E08AE10E94D40161E08BE10E9412
:1007A000D40161E08CE10E94D40161E08DE10E94FE
:1007B000D40161E08EE10E94D40161E08FE10E94EA
:1007C000D40193E9E92E90E0F92E2BEBC22E20E024
:1007D000D22E37EAA32E30E0B32E00E010E087E2FD
:1007E00091E00E942501892B09F473C01A821982B5
:1007F0001C821B821E821D8270E060E0CE01019689
:100800000E94050229813A8181112CC021153105F0
:1008100019F0C9010E946F051A8219821E821D8279
:100820001C821B820E94D7008D809E8097FD22C073
:100830008F8318868FEF881A980AB401CE0101962B
:100840000E940502882371F329813A818D819E815E
:10085000BE01695F7F4F820F931F0E94C7069E8271
:100860008D82E0CF1E821D826DE171E0C9010E9480
:10087000C706D8CF892839F168E171E089819A816A
:100880000E94BE06892BF9F4F7018491F601949138
:10089000F50124912223B9F0882339F0833079F1CE
:1008A00020F5813091F18230A1F1E22FF0E0EE0FDE
:1008B000FF1FEE58FF4FA591B4918FB7F8942C917C
:1008C000922B9C938FBF89819A81009711F00E948F
:1008D0006F050115110509F482CF0E9431018823AB
:1008E00009F47DCF0E9400007ACF8730A9F08830CC
:1008F000C9F08430D1F6809180008F7D03C0809153
:1009000080008F7780938000D0CF84B58F7784BDAF
:10091000CCCF84B58F7DFBCF8091B0008F77809353
:10092000B000C3CF8091B0008F7DF9CF2F923F925E
:100930004F925F926F927F928F929F92AF92BF92EF
:10094000CF92DF92EF92FF920F931F93CF93DF939B
:10095000CDB7DEB7CA1BDB0B0FB6F894DEBF0FBEF8
:10096000CDBF09942A88398848885F846E847D8445
:100970008C849B84AA84B984C884DF80EE80FD8047
:100980000C811B81AA81B981CE0FD11D0FB6F894BD
:10099000DEBF0FBECDBFED010895EE0FFF1F059026
:1009A000F491E02D09940F931F93CF93DF9382303E
:1009B000910510F482E090E0E091D901F091DA0124
:1009C00030E020E0B0E0A0E0309799F42115310547
:1009D00009F44AC0281B390B24303105D8F58A8127
:1009E0009B816115710589F1FB0193838283FE016F
:1009F00011C0408151810281138148175907E0F0ED
:100A00004817590799F4109761F012960C931297B2
:100A100013961C933296CF01DF91CF911F910F91C6
:100A200008950093D9011093DA01F4CF211531050F
:100A300051F04217530738F0A901DB019A01BD01BB
:100A4000DF01F801C1CFEF01F9CF9093DA01809374
:100A5000D901CDCFFE01E20FF31F81939193225074
:100A6000310939832883D7CF2091D7013091D8011C
:100A7000232B41F420910201309103013093D801DE
:100A80002093D701209100013091010121153105FA
:100A900041F42DB73EB74091040150910501241B4C
:100AA000350BE091D701F091D801E217F307A0F4DC
:100AB0002E1B3F0B2817390778F0AC014E5F5F4FB4
:100AC0002417350748F04E0F5F1F5093D80140930D
:100AD000D701819391939FCFF0E0E0E09CCFCF933B
:100AE000DF930097E9F0FC01329713821282A09104
:100AF000D901B091DA01ED0130E020E01097A1F4C6
:100B000020813181820F931F2091D7013091D8012C
:100B10002817390709F061C0F093D801E093D70195
:100B2000DF91CF910895EA01CE17DF07E8F54A81FA
:100B30005B819E0141155105B1F7E901FB83EA8311
:100B400049915991C40FD51FEC17FD0761F48081BD
:100B500091810296840F951FE90199838883828190
:100B600093819B838A83F0E0E0E012968D919C91C3
:100B700013970097B9F52D913C911197CD010296ED
:100B8000820F931F2091D7013091D8012817390780
:100B900039F6309751F51092DA011092D901B093DD
:100BA000D801A093D701BCCFD383C28340815181A8
:100BB000840F951FC817D90761F44E5F5F4F888176
:100BC0009981480F591F518340838A819B81938368
:100BD00082832115310509F0B0CFF093DA01E0935B
:100BE000D9019ECFFD01DC01C0CF13821282D7CF85
:100BF000B0E0A0E0EEEFF5E00C9498048C010097D3
:100C000051F4CB010E94D3048C01C801CDB7DEB7EB
:100C1000E0E10C94B404FC01E60FF71F9C012250A4
:100C20003109E217F30708F49DC0D901CD91DC9199
:100C30001197C617D70798F0C530D10530F3CE010C
:100C400004978617970708F3C61BD70B2297C19303
:100C5000D1936D937C93CF010E946F05D6CF5B013A
:100C6000AC1ABD0A4C018C0E9D1EA091D901B09109
:100C7000DA01512C412CF12CE12C109731F58091A7
:100C8000D7019091D8018815990509F05CC04616E6
:100C9000570608F058C0809100019091010100971B
:100CA00041F48DB79EB74091040150910501841B1A
:100CB000950BE817F90708F055C0F093D801E093B9
:100CC000D701F90171836083A0CF8D919C91119719
:100CD00012966C90129713967C901397A815B905ED
:100CE00059F56C0142E0C40ED11CCA14DB0420F19A
:100CF000AC014A195B09DA011296159780F06282FD
:100D0000738251834083D9016D937C93E114F10484
:100D100071F0D7011396FC93EE93129776CF22963B
:100D20008C0F9D1FF90191838083F301EFCFF09326
:100D3000DA01E093D90169CF4816590608F42C016D
:100D40007D01D3019ACFCB010E94D3047C0100978F
:100D500049F0AE01B8010E94B506C8010E946F05B6
:100D6000870153CF10E000E050CFFB01DC0102C04F
:100D700001900D9241505040D8F70895FB01DC01DD
:100D80008D91019080190110D9F3990B0895FB0101
:100D9000DC0101900D920020E1F70895F894FFCF57
:100DA0000000DB0180000000000067018700B40044
:0E0DB000B4012501C30017016C757A203100D3
:00000001FF
