:100000000C9444010C9475010C9475010C947501C9
:100010000C9475010C9475010C9475010C94750188
:100020000C9475010C94C6070C94C6070C94C60773
:100030000C9475010C9475010C9475010C94750168
:100040000C9475010C9475010C9475010C94750158
:100050000C9475010C9475010C9475010C947C073B
:100060000C9475010C9446070C941C070C947501B4
:100070000C9475010C9475010C9475010C94750128
:100080000C9475010C9475010C9475010C94750118
:100090000C9475010C9475010C9475010C94750108
:1000A0000C9475010C9475010C9475010C947501F8
:1000B0000C9475010C9475010C9475010C947501E8
:1000C0000C9475010C9475010C9475010C947501D8
:1000D0000C9475010C9475010C9475010C947501C8
:1000E0000C9475010C941E040C94B8020C946402D8
:1000F0000C9414040C9418040C94F8030C94060447
:100100000C9462090C9455020C94C00E0C942C06AD
:100110000C94CC030C9413060C94F2030C94C106BB
:100120000C94EB030C94E7030C94FE020C940A0469
:100130000C94A0060C94EF030C9422040C94E3039B
:100140000C9488060C9410040C94C6020C94D103F1
:100150000C944B030C942B060C94FC030C9402049B
:100160000C94280200002100240027002A002D0002
:100170003000330001010000040107010A01000002
:100180000A0B02090C0D0E08070304010000000011
:10019000000000000000000000000000000000005F
:1001A000000000000000000000001211100000001C
:1001B000000000000000000000000000000000003F
:1001C00000000000000020002300260029002C0071
:1001D0002F003200000100000301060109010000A8
:1001E0002200250028002B002E00310034000201DF
:1001F0000000050108010B010505050507050808B4
:100200000808020202020A0A0808040404040101A0
:1002100001010101010103030303030303030407B5
:1002200007070C0C0C0C0C0C0C0C0202020206064C
:100230000606060606060B0B0B0B0B0B0B0B01023F
:1002400010202008081020401020408002010201E8
:1002500008040201010204081020408080402010A0
:1002600008040201800402018040201008040201F9
:100270000804020101020408102040800102040861
:10028000102040806209C00E11241FBECFEFD1E2C2
:10029000DEBFCDBF00E00CBF25E0ACE3B4E001C0A1
:1002A0001D92AE35B207E1F714E0A0E0B2E0EEE453
:1002B000F7E200E00BBF02C007900D92AC33B1072C
:1002C000D9F711E0C3E4D1E000E006C021970109AD
:1002D000802FFE010E945A11C234D10780E0080726
:1002E000A9F70E94270A0C9495130C940000CF9252
:1002F000DF92EF92FF92CF9380912E058C3009F41C
:100300004FC038F48B30F1F060E070E080EC9FE794
:1003100041C085518230C0F7C0912A056C2F70E032
:10032000762F662766277F7780912B05682B90E0D4
:1003300080E00E94EA0E2DEC3CEC4CEC5DE30E9468
:100340004B0F4AC060912A0570E090E080E00E9467
:10035000EA0E6B017C01C0912B05C7FF0AC0AC01FE
:100360009B0160E070E080E89FEB0E940C106B0145
:100370007C01CF706C2F70E090E080E00E94EC0E6A
:100380002DEC3CEC4CEC5DE30E944B0FA701960179
:100390000E940D10CF91FF90EF90DF90CF900895C5
:1003A000C0912A056C2F70E090E080E00E94EA0E78
:1003B0006B017C0160912B056F7070E090E080E034
:1003C0000E94EC0E2DEC3CEC4CEC5DE30E944B0FDC
:1003D000A70196010E940D10C7FFDCCF9058DACF1D
:1003E000CF92DF92EF92FF92CF93DF93B0912F05E0
:1003F000A0E08111AB2F8091300590E0880F991F0C
:10040000AC014C535E4FC0903505D0903605E0905E
:100410003705F090380530E020E0FA01C591D4911D
:10042000E881B90190E080E0EB23EA130AC02F5F76
:100430003F4F6C157D058E059F0578F36FEF7FEFBD
:10044000CB01DF91CF91FF90EF90DF90CF90089597
:10045000AF92BF92CF92DF92EF92FF920F931F93D2
:10046000CF93DF936C017B018B01040F151FEB0110
:100470005E01AE18BF08C017D10759F06991D601C7
:10048000ED91FC910190F081E02DC6011995892B29
:1004900079F7C501DF91CF911F910F91FF90EF90F8
:1004A000DF90CF90BF90AF900895FC01538D448DA5
:1004B000252F30E0842F90E0821B930B541710F00F
:1004C000CF96089501970895FC01918D828D98171C
:1004D00061F0A28DAE0FBF2FB11D5D968C91928DF4
:1004E0009F5F9F73928F90E008958FEF9FEF089525
:1004F0002FB7F8948091870490918804A091890483
:10050000B0918A042FBF8093930490939404A09396
:100510009504B09396048BE894E00E94640297FFE0
:1005200026C02FB7F8948091870490918804A091F9
:100530008904B0918A042FBF409193045091940490
:100540006091950470919604841B950BA60BB70BD4
:1005500040918F04509190046091910470919204A5
:1005600084179507A607B707B0F28FEF9FEF08959E
:10057000FC01918D828D981731F0828DE80FF11D6D
:10058000858D90E008958FEF9FEF0895FC01918D88
:10059000228D892F90E0805C9F4F821B91098F7381
:1005A000992708958BE894E00E94C60221E0892BE8
:1005B00009F420E0822F0895FC01A48DA80FB92F23
:1005C000B11DA35ABF4F2C91848D90E001968F737B
:1005D0009927848FA689B7892C93A089B1898C919A
:1005E000837080648C93938D848D981306C00288E9
:1005F000F389E02D80818F7D80830895EF92FF92B3
:100600000F931F93CF93DF93EC0181E0888F9B8D35
:100610008C8D98131AC0E889F989808185FF15C0EF
:100620009FB7F894EE89FF896083E889F989808112
:100630008370806480839FBF81E090E0DF91CF91E1
:100640001F910F91FF90EF900895F62E0B8D10E003
:100650000F5F1F4F0F731127E02E8C8D8E110CC072
:100660000FB607FCFACFE889F989808185FFF5CFBD
:10067000CE010E94DC02F1CFEB8DEC0FFD2FF11DBE
:10068000E35AFF4FF0829FB7F8940B8FEA89FB89FA
:1006900080818062CFCFCF93DF93EC01888D882358
:1006A000B9F0AA89BB89E889F9898C9185FD03C0D5
:1006B000808186FD0DC00FB607FCF7CF8C9185FFBA
:1006C000F2CF808185FFEDCFCE010E94DC02E9CF21
:1006D000DF91CF91089580E090E0892B29F00E946E
:1006E000D20281110E94000080E090E0892B49F045
:1006F00080E090E0892B29F00E94000081110E9487
:10070000000080E090E0892B49F080E090E0892BA8
:1007100029F00E94000081110E94000080E090E01A
:10072000892B49F080E090E0892B29F00E9400009D
:1007300081110C9400000895282F30E0F901E2584F
:10074000FE4F9491F901E25CFD4F449128503E4FD9
:10075000F9012491222309F435C0992311F1915014
:100760009231F8F4E92FF0E08827E654FC4F8F4FE0
:100770000C945A11EB03EF03CC03E303E703D1031B
:10078000F203F803FC03020406040A041004140430
:10079000D10318041E042204809180008F77809377
:1007A0008000E22FF0E0EE0FFF1FE252FE4FA59116
:1007B000B4918FB7F894EC91611148C040954E23E5
:1007C0004C938FBF0895809180008F7DE8CF8091FA
:1007D0008000877FE4CF84B58F7784BDE2CF84B576
:1007E0008F7DFBCF8091B0008F778093B000D9CF01
:1007F0008091B0008F7DF9CF809190008F778093AA
:100800009000CFCF809190008F7DF9CF80919000A4
:10081000877FF5CF8091A0008F778093A000C1CF14
:100820008091A0008F7DF9CF8091A000877FF5CFC8
:10083000809120018F7780932001B3CF8091200198
:100840008F7DF9CF80912001877FF5CF4E2BB8CFD8
:10085000CF93DF9390E0FC01E25CFD4F2491885040
:100860009E4FFC0184918823C9F090E0880F991F66
:10087000FC01EC59FE4FA591B491FC01E252FE4FF0
:10088000C591D49161110DC09FB7F8948C912095BA
:1008900082238C938881282328839FBFDF91CF9167
:1008A0000895623051F49FB7F8943C91822F80955F
:1008B00083238C93E8812E2BEFCF8FB7F894EC91A4
:1008C0002E2B2C938FBFEACF3FB7F89480917D04F5
:1008D00090917E04A0917F04B091800426B5A89BDE
:1008E00005C02F3F19F00196A11DB11D3FBFBA2FC2
:1008F000A92F982F8827BC01CD01620F711D811D82
:10090000911D42E0660F771F881F991F4A95D1F706
:1009100008958F929F92AF92BF92CF92DF92EF9203
:10092000FF924B015C010E9464046B017C010E94F8
:1009300064046C197D098E099F09683E7340810526
:100940009105A8F321E0821A9108A108B10888EE68
:10095000C80E83E0D81EE11CF11C81149104A1048F
:10096000B10429F7FF90EF90DF90CF90BF90AF9048
:100970009F908F900895CF92DF92EF92FF920F9306
:100980001F93CF93DF93CDB7DEB7C054D1400FB6DE
:10099000F894DEBF0FBECDBF2FB7F89480918704C7
:1009A00090918804A0918904B0918A042FBF40914E
:1009B00031055091320560913305709134058C01F9
:1009C0009D01041B150B260B370BB901A801403DF7
:1009D00057406105710590F480913905C05CDE4F88
:1009E0000FB6F894DEBF0FBECDBFDF91CF911F9140
:1009F0000F91FF90EF90DF90CF9008958093310595
:100A000090933205A0933305B093340510922C05D2
:100A100010922B0510922A05109229051092280594
:100A200062E080912D050E94280461E070E080E082
:100A300090E00E94890461E080912D050E942804C5
:100A400060E080912D050E949C0380912E058551C8
:100A5000823020F58BE291E10197F1F762E080911D
:100A60002D050E94280480913A0590E0823091057E
:100A700038F0880F991F880F991F05970197F1F794
:100A8000F89480E00E94F0016F3F7F4F8F4F9F4F9F
:100A900061F410923905789480E0A0CF64E170E0B1
:100AA00080E090E00E948904D9CF81E00E94F001AB
:100AB0006F3F7F4F8F4F9F4F61F38E010F5F1F4F2F
:100AC0006E018FEBC81A8EEFD80A780180E00E9481
:100AD000F001F701608371838283938381E00E9438
:100AE000F001F7016483758386839783F8E0EF0E46
:100AF000F11CEC14FD0451F7789430E020E0F8018B
:100B0000C080D180E280F380448155816681778105
:100B1000FFEFCF16DF06EF06FF0631F04F3F8FEFF6
:100B200058076807780719F410923905B5CFF9010D
:100B300083E0F595E7958A95E1F7E85DFA4F8081C6
:100B4000880FC416D506E606F70610F180832F5FDE
:100B50003F4F085F1F4F2832310589F640912C0521
:100B60002091280580912905280F3327331F809174
:100B70002A05280F311D80912B05820F932F911D7F
:100B800099274817190681F681E08093390526CF09
:100B90008160DCCFCF92DF92EF92FF920E94BB0484
:100BA000882349F080912E058B3028F08D3040F05D
:100BB0008551823030F160E070E080EC9FE71CC02E
:100BC0006091290570E090E080E00E94EC0E2DEC31
:100BD0003CEC4CEC5DE30E944B0F6B017C0160919F
:100BE000280570E090E080E00E94EC0E9B01AC01D3
:100BF000C701B6010E940D10FF90EF90DF90CF90DB
:100C00000895609128057091290576276727762732
:100C100090E080E00E94EA0E2DEC3CEC4CEC5DE3B1
:100C20000E944B0FE9CF2091830430918404281750
:100C3000390771F49091810480918204981741F0F2
:100C4000E0918104F0E0E45CFB4F808190E0089546
:100C50008FEF9FEF08950895EF92FF920F931F93E8
:100C6000CF93DF93DC015C96ED90FC905D97E114EF
:100C7000F10479F481E090E013969C938E9312979F
:100C800090E080E0DF91CF911F910F91FF90EF9066
:100C900008955196ED91FC91529750968C915097F2
:100CA000982F90950FB75E962C915E97122F127029
:100CB00021FD6095F8942081112319F1282B2083C0
:100CC000E7012197F1F728E0462F50E0308160FFDF
:100CD0001AC0382B3083E7012197F1F7BA017595D7
:100CE0006795215089F7112381F0808189238083C2
:100CF0000FBF5C968D919C910197F1F781E090E098
:100D0000C1CF2923DCCF3923E5CF9081892BEFCFC9
:100D100020918304309184042817390771F480915D
:100D200082042091810490E0805C9F4F821B910996
:100D300060E470E00E942411089590E080E008953E
:100D4000209183043091840428173907B9F49091D5
:100D5000810480918204981789F0E0918104F0E089
:100D6000E45CFB4F80812091810430E02F5F3F4F96
:100D70002F7333272093810490E008958FEF9FEF26
:100D8000089590E080E00895FC0101900020E9F7CB
:100D90003197AF01481B590BBC018BE894E00C94D0
:100DA0002802CF93DF930E94C406EC018AE292E00E
:100DB0000E94C4068C0F9D1FDF91CF910895FC0106
:100DC00024813581232B39F421E0FB0180818823A4
:100DD00049F020E007C0808191810E94851321E0C5
:100DE000892BB9F7822F08950F931F93CF93DF9329
:100DF000EC0188819981009759F02A813B8126175F
:100E0000370730F081E0DF91CF911F910F91089566
:100E10008B016F5F7F4F0E949B12009759F099835F
:100E200088831B830A832C813D81232B59F7FC0186
:100E30001082E8CF80E0E7CF1F920F920FB60F929B
:100E400011240BB60F922F933F934F935F936F93A1
:100E50007F938F939F93AF93BF93EF93FF938BE811
:100E600094E00E94DC02FF91EF91BF91AF919F91BE
:100E70008F917F916F915F914F913F912F910F9043
:100E80000BBE0F900FBE0F901F9018951F920F92E0
:100E90000FB60F9211240BB60F922F938F939F933F
:100EA000EF93FF93E0919B04F0919C048081E0918B
:100EB000A104F091A20482FD1DC090818091A40440
:100EC0008F5F8F732091A504821741F0E091A404F5
:100ED000F0E0E557FB4F958F8093A404FF91EF91CD
:100EE0009F918F912F910F900BBE0F900FBE0F907F
:100EF0001F9018958081F2CF1F920F920FB60F921C
:100F000011242F933F938F939F93AF93BF9380911F
:100F1000870490918804A0918904B0918A0430914B
:100F20007C0423E0230F2D3758F50196A11DB11D38
:100F300020937C048093870490938804A093890471
:100F4000B0938A0480917D0490917E04A0917F04E7
:100F5000B09180040196A11DB11D80937D049093F2
:100F60007E04A0937F04B0938004BF91AF919F91C2
:100F70008F913F912F910F900FBE0F901F9018955A
:100F800026E8230F0296A11DB11DD2CF1F920F920A
:100F90000FB60F9211240BB60F922F933F934F93DE
:100FA0005F936F937F938F939F93AF93BF93EF93D1
:100FB000FF93E0918304F0918404309749F0A68573
:100FC000B7858585968D91FF16C09C918923B1F4D4
:100FD000FF91EF91BF91AF919F918F917F916F9111
:100FE0005F914F913F912F910F900BBE0F900FBECD
:100FF0000F901F9018959C91892351F7A389B4896C
:101000009C918589809589238C93868997890197FE
:10101000F1F7608D718DA685B785558538E020E0A4
:10102000CB010197F1F7822F90E095958795282FB6
:101030004C91452309F02068315091F7868D81FD50
:1010400020958091820490E001968F7399273091CA
:101050008104381799F0A0918204B0E0A45CBB4FE2
:101060002C9380938204828D938D0197F1F7A3894D
:10107000B4898C919589892B8C93AACF868D8160B8
:10108000868FF1CF8F929F92AF92BF920F931F9353
:10109000CF93DF93CDB7DEB7A1970FB6F894DEBF3D
:1010A0000FBECDBF19A2423008F44AE08E010F5D99
:1010B0001F4F842E912CB12CA12CA50194010E94CC
:1010C0003811E62FB901CA01EA30F4F4E05DD80125
:1010D000EE938D01232B242B252B79F790E080E0D4
:1010E000109719F0CD010E94C406A1960FB6F8948E
:1010F000DEBF0FBECDBFDF91CF911F910F91BF908B
:10110000AF909F908F900895E95CE1CF4F925F92EE
:101110006F927F928F929F92AF92BF92CF92DF9207
:10112000EF92FF920F931F93CF936B017C01742E6C
:10113000AC019B010E941F11882399F08DE292E07F
:10114000CF911F910F91FF90EF90DF90CF90BF90C4
:10115000AF909F908F907F906F905F904F900C9486
:10116000C40646015701E894B7F82FEF3FEF4FE769
:101170005FE7C501B4010E941F1181110DC02FEF5F
:101180003FEF4FE75FE7C501B4010E94E50E181677
:101190001CF481E392E0D4CF2FEF3FEF4FE75FE401
:1011A000C701B6010E941A1118161CF485E392E0DB
:1011B000C7CF2FEF3FEF4FE75FECC701B6010E94AB
:1011C000E50E87FDF3CF20E030E0A901C701B601AD
:1011D0000E94E50E10E000E087FF0AC06DE28BE898
:1011E00094E00E94FE028C01F7FAF094F7F8F09474
:1011F000C0E060E070E080E09FE37C1641F020E01A
:1012000030E040E251E40E947910CF5FF6CFA701B1
:1012100096010E940D102B013C010E94EB104B0126
:101220005C014AE00E9442087C01E00EF11ECC23E2
:10123000C1F1C501B4010E94EA0E9B01AC01C301DA
:10124000B2010E940C104B015C016EE28BE894E04D
:101250000E94FE02E80EF91EC15018F120E030E0B5
:1012600040E251E4C501B4010E944B0F2B013C0147
:101270000E94EB104B01B12CA12C4AE0C501B40136
:101280000E944208E80EF91EC501B4010E94EA0E50
:101290009B01AC01C301B2010E940C104B015C0127
:1012A000DBCFC701CF911F910F91FF90EF90DF909F
:1012B000CF90BF90AF909F908F907F906F905F90F6
:1012C0004F90089510928E0410928D0488EE93E052
:1012D000A0E0B0E080938F0490939004A0939104D9
:1012E000B09392042AE032E030938C0420938B0474
:1012F00025EC30E0309398042093970424EC30E000
:1013000030939A042093990420EC30E030939C04AD
:1013100020939B0421EC30E030939E0420939D04A5
:1013200022EC30E03093A00420939F0426EC30E0C0
:101330003093A2042093A1041092A4041092A50457
:101340001092A6041092A70410923E0510923D053B
:1013500080933F0590934005A0934105B0934205CB
:101360008CE192E090933C0580933B0510925205EE
:101370001092510510925405109253051092560583
:101380001092550510925805109257056091590515
:101390006E7F6D7F609359056695617081E0682767
:1013A0000E949C0361E081E00E942804EFE3F2E0E8
:1013B000E491E0934B05E9EFF1E0E491F0E0EE0F0A
:1013C000FF1FE252FE4F8591949190934D058093BB
:1013D0004C0560E080E00E9428048091590581FD61
:1013E00004C061E080E00E949C0310924705EEE398
:1013F000F2E0E491E0934805E8EFF1E0E491F0E0F9
:10140000EE0FFF1FEC53FE4F8591949190934A0588
:101410008093490586E180932D058BE080932E050E
:10142000E4E5F2E0E491E0932F05EEE0F2E0E491F0
:10143000E093300580E89EE3A0E0B0E080933505BE
:1014400090933605A0933705B09338050895CF9350
:10145000DF9300D000D01F921F92CDB7DEB77894F3
:1014600084B5826084BD84B5816084BD85B58260A9
:1014700085BD85B5816085BD80916E00816080935A
:101480006E001092810080918100826080938100C3
:1014900080918100816080938100809180008160D3
:1014A000809380008091B10084608093B10080912E
:1014B000B00081608093B000809191008260809341
:1014C00091008091910081608093910080919000C3
:1014D0008160809390008091A10082608093A10040
:1014E0008091A10081608093A1008091A000816023
:1014F0008093A000809121018260809321018091DE
:10150000210181608093210180912001816080937D
:10151000200180917A00846080937A0080917A0023
:10152000826080937A0080917A00816080937A0053
:1015300080917A00806880937A001092C100E091D7
:101540009B04F0919C0482E08083E0919704F091E9
:1015500098041082E0919904F0919A048FEC8083B2
:101560001092A304E0919F04F091A00486E0808390
:10157000E0919D04F0919E04808180618083E091E0
:101580009D04F0919E04808188608083E0919D0499
:10159000F0919E04808180688083E0919D04F091A9
:1015A0009E0480818F7D8083109256051092550590
:1015B0001092540510925305109252051092510545
:1015C0008DE991E0909358058093570580914705E8
:1015D00096EF980F943048F02EEC280F243028F026
:1015E00022EC280F283008F061C02DEB30E030935A
:1015F0005205209351052BE931E030935405209397
:1016000053052CE231E03093560520935505943074
:1016100050F02EEC280F243030F022EC280FF0E0B0
:10162000E0E0283010F4E8E6F0E02081943028F083
:1016300032EC380F383008F40BC131E0232B9430F2
:1016400048F09EEC980F943028F08E53F0E0E0E0E4
:10165000883010F4E8E6F0E020832091470536EF6B
:10166000320F343008F4F6C08EEC820F843008F468
:10167000F1C082EC820F883008F4EFC090E080E087
:1016800090934F0580934E05343008F0E9C0265002
:10169000330B81E001C0880F2A95EAF7809350054B
:1016A00080915705909158050197F1F78091550564
:1016B00090915605892B49F1E0918304F0918404BF
:1016C00085E0EB33F80709F1309739F0A389B48945
:1016D0009C918589809589238C93809159058E7F73
:1016E0008093590510928204109281048BE395E057
:1016F0009093840480938304E0914E05F0914F050C
:10170000808190915005892B808362E080912D0526
:101710000E9428042FB7F894809187049091880440
:10172000A0918904B0918A042FBF805D9740A109E0
:10173000B1098093310590933205A0933305B0939E
:10174000340587E380933A0561E087E10E9428042D
:1017500061E088E10E94280461E089E10E94280498
:1017600061E08AE10E94280461E08BE10E94280484
:1017700061E08CE10E94280461E08DE10E94280470
:1017800061E08EE10E94280461E085E30E94280464
:1017900060E084E30E94280461E083E30E9428045F
:1017A00061E082E30E94280461E080E20E94280454
:1017B00061E081E20E94280461E082E30E949C03D0
:1017C00061E08FE10E94280490E4B92E8BE894E058
:1017D0000E94C602892B09F4DCC11A8219821C827C
:1017E0001B821E821D8270E060E0CE0101960E9485
:1017F000F40629813A81811148C02115310519F07B
:10180000C9010E9412121A8219821E821D821C8234
:101810001B820E94780297FD40C08F8318860D813D
:101820001E810F5F1F4FB801CE0101960E94F40682
:10183000882379F329813A818D819E81BE01695F78
:101840007F4F820F931F0E948E131E830D83E1CF63
:1018500034E0F4CE8BE690E013CF8DE690E010CF2D
:1018600088E0223309F41ACF84E0233309F416CF39
:1018700082E0243309F412CF82EC820F883018F40E
:101880002E53330B06CF81E009CF1E821D826CE2FE
:1018900072E0C9010E948E13BCCFC980DA80C114E6
:1018A000D10431F00D811E8176010115110599F4E5
:1018B00069E372E0CE0101960E94DF06882309F4F5
:1018C00040C061E087E10E949C0384E492E00E94B2
:1018D000D10659C173013701EFEF6E1A7E0AF70185
:1018E0008081082E000C990B0E94DC0E892B91F749
:1018F000015011090C0D1D1DF8018081082E000CEE
:10190000990B0E94DC0E892B31F00E151F0518F083
:1019100001501109F1CFA8014F5F5F4F4E195F09C8
:101920005E834D83CE14DF0420F4B701C6010E940C
:101930007C13E981FA818D819E81E80FF91F108265
:10194000B7CF64E572E0CE0101960E94DF068823DE
:1019500039F060E087E10E949C038FE592E0B7CF09
:101960006DE672E0CE0101960E94DF06882339F011
:1019700061E088E10E949C0388E792E0A8CF68E8D4
:1019800072E0CE0101960E94DF06882339F060E004
:1019900088E10E949C0381E992E099CF6FE972E0AF
:1019A000CE0101960E94DF06882339F061E089E1CB
:1019B0000E949C038AEA92E08ACF6AEB72E0CE0131
:1019C00001960E94DF06882339F060E089E10E94D9
:1019D0009C0384EC92E07BCF62ED72E0CE01019635
:1019E0000E94DF06882339F061E08AE10E949C03AF
:1019F0008DED92E06CCF6DEE72E0CE0101960E940B
:101A0000DF06882339F060E08AE10E949C0386EFBC
:101A100092E05DCF64E073E0CE0101960E94DF06A4
:101A2000882339F061E08BE10E949C038FE093E012
:101A30004ECF6FE173E0CE0101960E94DF0688234E
:101A400039F060E08BE10E949C0388E293E03FCF95
:101A500066E373E0CE0101960E94DF06882339F029
:101A600061E08CE10E949C0381E493E030CF61E56A
:101A700073E0CE0101960E94DF06882339F060E012
:101A80008CE10E949C038AE593E021CF68E673E035
:101A9000CE0101960E94DF06882339F061E08DE1D6
:101AA0000E949C0383E793E012CF63E873E0CE01CA
:101AB00001960E94DF06882339F060E08DE10E94E4
:101AC0009C038CE893E003CF6AE973E0CE010196B2
:101AD0000E94DF06882339F061E08EE10E949C03BA
:101AE00085EA93E0F4CE65EB73E0CE0101960E94A7
:101AF000DF06882339F060E08EE10E949C038EEBC4
:101B000093E0E5CE6CEC73E0CE0101960E94DF0617
:101B1000882389F00E94BB04882351F00E9477013A
:101B20006B017C01AC019B010E941F11882311F104
:101B300088ED93E0CCCE66EE73E0CE0101960E9474
:101B4000DF06882309F471C00E94CA056B017C017D
:101B5000AC019B010E941F11882319F08EEE93E0C7
:101B6000B6CE20E030E0A901C701B6010E94E50E23
:101B7000882349F042E0C701B6010E9486088AE244
:101B800092E00E94C40689819A81009711F00E9418
:101B900012120E94BB04882309F4B0C00E9477018E
:101BA0006B017C010E94CA052B013C01A701960133
:101BB000C701B6010E941F11882309F4A6C088ED51
:101BC00093E00E94D10680917B00877F80937B0009
:101BD000B0927C0080917A00806480937A0080913A
:101BE0007A0086FDFCCF8091780000917900102F5B
:101BF000082F64E670E080E090E00E948904809104
:101C00008504909186048017910761F010938604F3
:101C10000093850461E0053611050CF060E08FE16A
:101C20000E949C030E946B03D1CD64E074E0CE015E
:101C300001960E94DF06882309F161E087E10E9496
:101C40009C0361E088E10E949C0361E089E10E94BD
:101C50009C0361E08AE10E949C0361E08BE10E94A9
:101C60009C0361E08CE10E949C0361E08DE10E9495
:101C70009C0361E08EE10E949C0385CF63E174E0E8
:101C8000CE0101960E94DF068823F1F060E087E133
:101C90000E949C0360E088E10E949C0360E089E16F
:101CA0000E949C0360E08AE10E949C0360E08BE15B
:101CB0000E949C0360E08CE10E949C0360E08DE147
:101CC0000E949C0360E0D6CF60E274E0CE010196F2
:101CD0000E94DF06882379F061E082E30E949C0382
:101CE00060E083E30E949C0364E670E080E090E0A3
:101CF0000E94890448CF86E294E0E9CDC12CD12C22
:101D000080ECE82E8FE7F82E4DCFA3019201C3019E
:101D1000B2010E941F11811152CF20E030E040E259
:101D200052E4C301B2010E94E50E87FD0BC020E022
:101D300030E040E752E4C301B2010E941A1160E0B2
:101D400018160CF461E080E20E949C0320E030E071
:101D500048E951E4C701B6010E94E50E87FD0BC0BA
:101D600020E030E048EC51E4C701B6010E941A11AE
:101D700060E018160CF461E081E20E949C0323CF1E
:101D80008CE192E090933C0580933B058091830425
:101D9000909184048B53954071F4E0914E05F0913D
:101DA0004F05908180915005809589238083109202
:101DB000840410928304089591110C94B80F80321A
:101DC00019F089508550C8F708950E94270F08F42C
:101DD00081E00895E89409C097FB3EF490958095C2
:101DE000709561957F4F8F4F9F4F9923A9F0F92FE1
:101DF00096E9BB279395F695879577956795B7955F
:101E0000F111F8CFFAF4BB0F11F460FF1BC06F5F44
:101E10007F4F8F4F9F4F16C0882311F096E911C056
:101E2000772321F09EE8872F762F05C0662371F077
:101E300096E8862F70E060E02AF09A95660F771F8B
:101E4000881FDAF7880F9695879597F90895990F67
:101E50000008550FAA0BE0E8FEEF16161706E80774
:101E6000F907C0F012161306E407F50798F0621B95
:101E7000730B840B950B39F40A2661F0232B242B6A
:101E8000252B21F408950A2609F4A140A6958FEF89
:101E9000811D811D08950E945E0F0C94D20F0E9437
:101EA000C40F38F00E94CB0F20F0952311F00C9452
:101EB000BB0F0C94C10F11240C9406100E94E30F69
:101EC00070F3959FC1F3950F50E0551F629FF0018D
:101ED000729FBB27F00DB11D639FAA27F00DB11DA6
:101EE000AA1F649F6627B00DA11D661F829F22272F
:101EF000B00DA11D621F739FB00DA11D621F839FB6
:101F0000A00D611D221F749F3327A00D611D231F8B
:101F1000849F600D211D822F762F6A2F11249F57D9
:101F200050409AF0F1F088234AF0EE0FFF1FBB1FDC
:101F3000661F771F881F91505040A9F79E3F51059B
:101F400080F00C94BB0F0C9406105F3FE4F3983EB6
:101F5000D4F3869577956795B795F795E7959F5F45
:101F6000C1F7FE2B880F911D9695879597F90895D7
:101F700099278827089597F99F6780E870E060E0C7
:101F800008959FEF80EC089500240A941616170612
:101F900018060906089500240A941216130614065A
:101FA00005060895092E0394000C11F4882352F0BD
:101FB000BB0F40F4BF2B11F460FF04C06F5F7F4F75
:101FC0008F4F9F4F089557FD9058440F551F59F05C
:101FD0005F3F71F04795880F97FB991F61F09F3F16
:101FE00079F087950895121613061406551FF2CF3F
:101FF0004695F1DF08C0161617061806991FF1CF8F
:1020000086957105610508940895E894BB276627B5
:102010007727CB0197F908955058BB27AA270E942C
:1020200024100C94D20F0E94C40F38F00E94CB0FE2
:1020300020F039F49F3F19F426F40C94C10F0EF4EC
:10204000E095E7FB0C94BB0FE92F0E94E30F58F3D8
:10205000BA17620773078407950720F079F4A6F58D
:102060000C9405100EF4E0950B2EBA2FA02D0B0149
:10207000B90190010C01CA01A0011124FF27591BCD
:1020800099F0593F50F4503E68F11A16F040A22FD3
:10209000232F342F4427585FF3CF46953795279544
:1020A000A795F0405395C9F77EF41F16BA0B620B43
:1020B000730B840BBAF09150A1F0FF0FBB1F661F8A
:1020C000771F881FC2F70EC0BA0F621F731F841FCD
:1020D00048F4879577956795B795F7959E3F08F0F3
:1020E000B0CF9395880F08F09927EE0F97958795B5
:1020F00008950E948D100C94D20F0E94CB0F58F0BF
:102100000E94C40F40F029F45F3F29F00C94BB0FEC
:1021100051110C9406100C94C10F0E94E30F68F348
:102120009923B1F3552391F3951B550BBB27AA2790
:1021300062177307840738F09F5F5F4F220F331FCA
:10214000441FAA1FA9F335D00E2E3AF0E0E832D092
:1021500091505040E695001CCAF72BD0FE2F29D095
:10216000660F771F881FBB1F261737074807AB0767
:10217000B0E809F0BB0B802DBF01FF2793585F4FDC
:102180003AF09E3F510578F00C94BB0F0C9406106A
:102190005F3FE4F3983ED4F3869577956795B795BE
:1021A000F7959F5FC9F7880F911D9695879597F9C9
:1021B0000895E1E0660F771F881FBB1F6217730742
:1021C0008407BA0720F0621B730B840BBA0BEE1F57
:1021D00088F7E09508950E94EB0F88F09F5798F0DC
:1021E000B92F9927B751B0F0E1F0660F771F881F1C
:1021F000991F1AF0BA95C9F714C0B13091F00E9436
:102200000510B1E008950C940510672F782F8827EA
:10221000B85F39F0B93FCCF3869577956795B3955C
:10222000D9F73EF490958095709561957F4F8F4FCB
:102230009F4F08950E94270F08F48FEF08950E9482
:10224000270F880B990B089597FB072E16F400941F
:1022500007D077FD09D00E94621107FC05D03EF43B
:10226000909581959F4F0895709561957F4F089542
:10227000A1E21A2EAA1BBB1BFD010DC0AA1FBB1F8A
:10228000EE1FFF1FA217B307E407F50720F0A21BFC
:10229000B30BE40BF50B661F771F881F991F1A9469
:1022A00069F760957095809590959B01AC01BD0193
:1022B000CF010895EE0FFF1F881F8BBF0790F69187
:1022C000E02D1994AA1BBB1B51E107C0AA1FBB1F1D
:1022D000A617B70710F0A61BB70B881F991F5A95B2
:1022E000A9F780959095BC01CD0108950F931F9398
:1022F000CF93DF938230910510F482E090E0E0917B
:102300005C05F0915D0530E020E0B0E0A0E03097A2
:1023100099F42115310509F44AC0281B390B2430E2
:102320003105D8F58A819B816115710589F1FB0121
:1023300093838283FE0111C0408151810281138108
:1023400048175907E0F04817590799F4109761F0BA
:1023500012960C93129713961C933296CF01DF912D
:10236000CF911F910F91089500935C0510935D0527
:10237000F4CF2115310551F04217530738F0A90168
:10238000DB019A01BD01DF01F801C1CFEF01F9CFF7
:1023900090935D0580935C05CDCFFE01E20FF31FA6
:1023A000819391932250310939832883D7CF20918B
:1023B0005A0530915B05232B41F4209102023091A4
:1023C000030230935B0520935A052091000230915F
:1023D00001022115310541F42DB73EB740910402A9
:1023E00050910502241B350BE0915A05F0915B05D5
:1023F000E217F307A0F42E1B3F0B2817390778F0DC
:10240000AC014E5F5F4F2417350748F04E0F5F1F3A
:1024100050935B0540935A05819391939FCFF0E0D1
:10242000E0E09CCFCF93DF930097E9F0FC01329777
:1024300013821282A0915C05B0915D05ED0130E040
:1024400020E01097A1F420813181820F931F209109
:102450005A0530915B052817390709F061C0F093E0
:102460005B05E0935A05DF91CF910895EA01CE17FD
:10247000DF07E8F54A815B819E0141155105B1F7FF
:10248000E901FB83EA8349915991C40FD51FEC17E9
:10249000FD0761F4808191810296840F951FE90107
:1024A00099838883828193819B838A83F0E0E0E033
:1024B00012968D919C9113970097B9F52D913C91AF
:1024C0001197CD010296820F931F20915A053091EA
:1024D0005B052817390739F6309751F510925D05DD
:1024E00010925C05B0935B05A0935A05BCCFD383D3
:1024F000C28340815181840F951FC817D90761F4A9
:102500004E5F5F4F88819981480F591F51834083E7
:102510008A819B81938382832115310509F0B0CF95
:10252000F0935D05E0935C059ECFFD01DC01C0CF1B
:1025300013821282D7CF4F925F926F927F928F92C7
:102540009F92AF92BF92CF92DF92EF92FF920F9342
:102550001F93CF93DF938C01009799F4CB01DF9108
:10256000CF911F910F91FF90EF90DF90CF90BF9090
:10257000AF909F908F907F906F905F904F900C9452
:102580007611FC01E60FF71F9C0122503109E2177A
:10259000F30708F4AEC0D901CD91DC911197C617AD
:1025A000D70720F1C530D10578F0CE010497861702
:1025B000970750F0C61BD70B2297C193D1936D9309
:1025C0007C93CF010E941212C801DF91CF911F911D
:1025D0000F91FF90EF90DF90CF90BF90AF909F90C2
:1025E0008F907F906F905F904F9008955B01AC1A31
:1025F000BD0A4C018C0E9D1EA0915C05B0915D053D
:10260000512C412CF12CE12C109731F580915A0579
:1026100090915B058815990509F05CC04616570630
:1026200008F058C08091000290910102009741F497
:102630008DB79EB74091040250910502841B950B03
:10264000E817F90708F055C0F0935B05E0935A05C9
:10265000F90171836083B8CF8D919C911197129687
:102660006C90129713967C901397A815B90559F59D
:102670006C0142E0C40ED11CCA14DB0420F1AC0191
:102680004A195B09DA011296159780F0628273820B
:1026900051834083D9016D937C93E114F10471F06F
:1026A000D7011396FC93EE9312978ECF22968C0F40
:1026B0009D1FF90191838083F301EFCFF0935D05B6
:1026C000E0935C0581CF4816590608F42C017D0182
:1026D000D3019ACFCB010E9476117C01009749F07B
:1026E000AE01B8010E947C13C8010E94121287013A
:1026F0006BCF10E000E068CFFB01DC0102C001906D
:102700000D9241505040D8F70895FB01DC018D91A6
:10271000019080190110D9F3990B0895FB01DC0198
:1027200001900D920020E1F7089511E0C3E4D1E09B
:1027300000E006C0802FFE010E945A112196011D63
:0E274000C434D10780E00807A9F7F894FFCF52
:10274E0000005E05800000000000FE022802550217
:10275E004B03C6026402B802000000002C062802D9
:10276E00C1062B068806A00613060D0A006E616EC2
:10277E0000696E66006F766600656E63656E6465F1
:10278E00722031004C757A203120456E63656E647F
:10279E006964610041706167617220756E6F004CF3
:1027AE00757A2031204170616761646100656E63E6
:1027BE00656E6465722032004C757A203220456E4B
:1027CE0063656E6469646100417061676172203295
:1027DE00004C757A2032204170616761646100653A
:1027EE006E63656E6465722033004C757A203320FB
:1027FE00456E63656E64696461006C41706167610A
:10280E00722033004C757A20332041706167616409
:10281E006100656E63656E6465722034004C757A76
:10282E00203420456E63656E646964610041706199
:10283E006761722034004C757A20342041706167D4
:10284E0061646100656E63656E6465722035004C6F
:10285E00757A203520456E63656E6469646100414A
:10286E0070616761722035004C757A203520417099
:10287E00616761646100656E63656E6465722036C2
:10288E00004C757A203620456E63656E646964610E
:10289E00004170616761722036004C757A203620D7
:1028AE004170616761646100656E63656E64657237
:1028BE002037004C757A203720456E63656E64694B
:1028CE006461004170616761722037004C757A2037
:1028DE0037204170616761646100656E63656E6487
:1028EE0065722038004C757A203820456E63656E0F
:1028FE0064696461004170616761722038004C75D3
:10290E007A203820417061676164610074656D7072
:10291E0065726174757261004572726F7220616CBE
:10292E00206C6565720068756D6564616400457242
:10293E00726F7220616C206C6565722048756D65D2
:10294E0064616400656E63656E64657220746F64A5
:10295E0061730041706167617220746F646173000E
:10296E00616272697200436F6D616E646F206E6F8B
:0C297E00207265636F6E6F6369646F0008
:00000001FF
